{
  "address": "0xAC260F462886D4d52f547f6aDe6E71E2D191721d",
  "abi": [
    {
      "inputs": [
        {
          "internalType": "address",
          "name": "_v2DataProvider",
          "type": "address"
        },
        {
          "internalType": "address",
          "name": "_v3AddressesProvider",
          "type": "address"
        },
        {
          "internalType": "address",
          "name": "_wnative",
          "type": "address"
        },
        {
          "internalType": "address",
          "name": "_v2BaseCurrencyPriceSource",
          "type": "address"
        }
      ],
      "stateMutability": "nonpayable",
      "type": "constructor"
    },
    {
      "anonymous": false,
      "inputs": [
        {
          "indexed": true,
          "internalType": "address",
          "name": "account",
          "type": "address"
        },
        {
          "indexed": false,
          "internalType": "uint256",
          "name": "version",
          "type": "uint256"
        },
        {
          "indexed": true,
          "internalType": "address",
          "name": "asset",
          "type": "address"
        },
        {
          "indexed": true,
          "internalType": "uint256",
          "name": "amount",
          "type": "uint256"
        },
        {
          "indexed": false,
          "internalType": "uint256",
          "name": "interestRateMode",
          "type": "uint256"
        }
      ],
      "name": "Borrow",
      "type": "event"
    },
    {
      "anonymous": false,
      "inputs": [
        {
          "indexed": false,
          "internalType": "uint8",
          "name": "version",
          "type": "uint8"
        }
      ],
      "name": "Initialized",
      "type": "event"
    },
    {
      "anonymous": false,
      "inputs": [
        {
          "indexed": true,
          "internalType": "address",
          "name": "previousOwner",
          "type": "address"
        },
        {
          "indexed": true,
          "internalType": "address",
          "name": "newOwner",
          "type": "address"
        }
      ],
      "name": "OwnershipTransferred",
      "type": "event"
    },
    {
      "anonymous": false,
      "inputs": [
        {
          "indexed": true,
          "internalType": "address",
          "name": "account",
          "type": "address"
        },
        {
          "indexed": false,
          "internalType": "uint256",
          "name": "version",
          "type": "uint256"
        },
        {
          "indexed": true,
          "internalType": "address",
          "name": "asset",
          "type": "address"
        },
        {
          "indexed": true,
          "internalType": "uint256",
          "name": "amount",
          "type": "uint256"
        },
        {
          "indexed": false,
          "internalType": "uint256",
          "name": "interestRateMode",
          "type": "uint256"
        }
      ],
      "name": "Repay",
      "type": "event"
    },
    {
      "anonymous": false,
      "inputs": [
        {
          "indexed": true,
          "internalType": "address",
          "name": "account",
          "type": "address"
        },
        {
          "indexed": false,
          "internalType": "uint256",
          "name": "version",
          "type": "uint256"
        },
        {
          "indexed": true,
          "internalType": "address",
          "name": "asset",
          "type": "address"
        },
        {
          "indexed": true,
          "internalType": "uint256",
          "name": "amount",
          "type": "uint256"
        }
      ],
      "name": "Supply",
      "type": "event"
    },
    {
      "anonymous": false,
      "inputs": [
        {
          "indexed": true,
          "internalType": "address",
          "name": "account",
          "type": "address"
        },
        {
          "indexed": false,
          "internalType": "uint256",
          "name": "version",
          "type": "uint256"
        },
        {
          "indexed": true,
          "internalType": "address",
          "name": "asset",
          "type": "address"
        },
        {
          "indexed": true,
          "internalType": "uint256",
          "name": "amount",
          "type": "uint256"
        }
      ],
      "name": "Withdraw",
      "type": "event"
    },
    {
      "inputs": [],
      "name": "V2_ADDRESSES_PROVIDER",
      "outputs": [
        {
          "internalType": "contract ILendingPoolAddressesProvider",
          "name": "",
          "type": "address"
        }
      ],
      "stateMutability": "view",
      "type": "function"
    },
    {
      "inputs": [],
      "name": "V2_BASE_CURRENCY_PRICE_SOURCE",
      "outputs": [
        {
          "internalType": "contract IChainlinkAggregator",
          "name": "",
          "type": "address"
        }
      ],
      "stateMutability": "view",
      "type": "function"
    },
    {
      "inputs": [],
      "name": "V2_DATA_PROVIDER",
      "outputs": [
        {
          "internalType": "contract IAaveProtocolDataProvider",
          "name": "",
          "type": "address"
        }
      ],
      "stateMutability": "view",
      "type": "function"
    },
    {
      "inputs": [],
      "name": "V2_LENDING_POOL",
      "outputs": [
        {
          "internalType": "contract ILendingPool",
          "name": "",
          "type": "address"
        }
      ],
      "stateMutability": "view",
      "type": "function"
    },
    {
      "inputs": [],
      "name": "V2_PRICE_ORACLE",
      "outputs": [
        {
          "internalType": "contract IAaveOracle",
          "name": "",
          "type": "address"
        }
      ],
      "stateMutability": "view",
      "type": "function"
    },
    {
      "inputs": [],
      "name": "V2_REWARDS_CONTROLLER",
      "outputs": [
        {
          "internalType": "contract IAaveIncentivesController",
          "name": "",
          "type": "address"
        }
      ],
      "stateMutability": "view",
      "type": "function"
    },
    {
      "inputs": [],
      "name": "V2_aWNATIVE",
      "outputs": [
        {
          "internalType": "address",
          "name": "",
          "type": "address"
        }
      ],
      "stateMutability": "view",
      "type": "function"
    },
    {
      "inputs": [],
      "name": "V3_ADDRESSES_PROVIDER",
      "outputs": [
        {
          "internalType": "contract IPoolAddressesProvider",
          "name": "",
          "type": "address"
        }
      ],
      "stateMutability": "view",
      "type": "function"
    },
    {
      "inputs": [],
      "name": "V3_DATA_PROVIDER",
      "outputs": [
        {
          "internalType": "contract IPoolDataProvider",
          "name": "",
          "type": "address"
        }
      ],
      "stateMutability": "view",
      "type": "function"
    },
    {
      "inputs": [],
      "name": "V3_POOL",
      "outputs": [
        {
          "internalType": "contract IPool",
          "name": "",
          "type": "address"
        }
      ],
      "stateMutability": "view",
      "type": "function"
    },
    {
      "inputs": [],
      "name": "V3_PRICE_ORACLE",
      "outputs": [
        {
          "internalType": "contract IAaveOracle",
          "name": "",
          "type": "address"
        }
      ],
      "stateMutability": "view",
      "type": "function"
    },
    {
      "inputs": [],
      "name": "V3_REWARDS_CONTROLLER",
      "outputs": [
        {
          "internalType": "contract IRewardsController",
          "name": "",
          "type": "address"
        }
      ],
      "stateMutability": "view",
      "type": "function"
    },
    {
      "inputs": [],
      "name": "V3_aWNATIVE",
      "outputs": [
        {
          "internalType": "address",
          "name": "",
          "type": "address"
        }
      ],
      "stateMutability": "view",
      "type": "function"
    },
    {
      "inputs": [],
      "name": "WNATIVE",
      "outputs": [
        {
          "internalType": "contract IWETH",
          "name": "",
          "type": "address"
        }
      ],
      "stateMutability": "view",
      "type": "function"
    },
    {
      "inputs": [],
      "name": "approvePool",
      "outputs": [],
      "stateMutability": "nonpayable",
      "type": "function"
    },
    {
      "inputs": [
        {
          "internalType": "uint256",
          "name": "version",
          "type": "uint256"
        },
        {
          "internalType": "address",
          "name": "asset",
          "type": "address"
        },
        {
          "internalType": "uint256",
          "name": "amount",
          "type": "uint256"
        },
        {
          "internalType": "uint256",
          "name": "interestRateMode",
          "type": "uint256"
        }
      ],
      "name": "borrow",
      "outputs": [],
      "stateMutability": "nonpayable",
      "type": "function"
    },
    {
      "inputs": [
        {
          "internalType": "uint256",
          "name": "version",
          "type": "uint256"
        },
        {
          "internalType": "uint256",
          "name": "amount",
          "type": "uint256"
        },
        {
          "internalType": "uint256",
          "name": "interestRateMode",
          "type": "uint256"
        }
      ],
      "name": "borrowETH",
      "outputs": [],
      "stateMutability": "nonpayable",
      "type": "function"
    },
    {
      "inputs": [
        {
          "internalType": "uint256",
          "name": "amount",
          "type": "uint256"
        },
        {
          "internalType": "uint256",
          "name": "interestRateMode",
          "type": "uint256"
        },
        {
          "internalType": "uint256",
          "name": "permitAmount",
          "type": "uint256"
        },
        {
          "internalType": "uint256",
          "name": "permitDeadline",
          "type": "uint256"
        },
        {
          "internalType": "uint8",
          "name": "permitV",
          "type": "uint8"
        },
        {
          "internalType": "bytes32",
          "name": "permitR",
          "type": "bytes32"
        },
        {
          "internalType": "bytes32",
          "name": "permitS",
          "type": "bytes32"
        }
      ],
      "name": "borrowETHWithPermit",
      "outputs": [],
      "stateMutability": "nonpayable",
      "type": "function"
    },
    {
      "inputs": [
        {
          "internalType": "address",
          "name": "asset",
          "type": "address"
        },
        {
          "internalType": "uint256",
          "name": "amount",
          "type": "uint256"
        },
        {
          "internalType": "uint256",
          "name": "interestRateMode",
          "type": "uint256"
        },
        {
          "internalType": "uint256",
          "name": "permitAmount",
          "type": "uint256"
        },
        {
          "internalType": "uint256",
          "name": "permitDeadline",
          "type": "uint256"
        },
        {
          "internalType": "uint8",
          "name": "permitV",
          "type": "uint8"
        },
        {
          "internalType": "bytes32",
          "name": "permitR",
          "type": "bytes32"
        },
        {
          "internalType": "bytes32",
          "name": "permitS",
          "type": "bytes32"
        }
      ],
      "name": "borrowWithPermit",
      "outputs": [],
      "stateMutability": "nonpayable",
      "type": "function"
    },
    {
      "inputs": [],
      "name": "getAllReservesTokens",
      "outputs": [
        {
          "components": [
            {
              "internalType": "enum VERSION",
              "name": "version",
              "type": "uint8"
            },
            {
              "internalType": "string",
              "name": "symbol",
              "type": "string"
            },
            {
              "internalType": "address",
              "name": "tokenAddress",
              "type": "address"
            }
          ],
          "internalType": "struct TokenDataEx[]",
          "name": "tokens",
          "type": "tuple[]"
        }
      ],
      "stateMutability": "view",
      "type": "function"
    },
    {
      "inputs": [
        {
          "internalType": "uint256",
          "name": "version",
          "type": "uint256"
        },
        {
          "internalType": "address[]",
          "name": "scaledBalanceTokens",
          "type": "address[]"
        },
        {
          "internalType": "address",
          "name": "user",
          "type": "address"
        }
      ],
      "name": "getAllUserRewards",
      "outputs": [
        {
          "components": [
            {
              "internalType": "address",
              "name": "token",
              "type": "address"
            },
            {
              "internalType": "string",
              "name": "symbol",
              "type": "string"
            },
            {
              "internalType": "uint8",
              "name": "decimals",
              "type": "uint8"
            },
            {
              "internalType": "uint256",
              "name": "rewardAmount",
              "type": "uint256"
            },
            {
              "internalType": "uint256",
              "name": "rewardValueInUSD",
              "type": "uint256"
            }
          ],
          "internalType": "struct AaveAdapter.Reward[]",
          "name": "",
          "type": "tuple[]"
        }
      ],
      "stateMutability": "view",
      "type": "function"
    },
    {
      "inputs": [
        {
          "internalType": "uint256",
          "name": "version",
          "type": "uint256"
        },
        {
          "internalType": "address",
          "name": "asset",
          "type": "address"
        }
      ],
      "name": "getRewardAPRs",
      "outputs": [
        {
          "internalType": "uint256",
          "name": "supplyAPR",
          "type": "uint256"
        },
        {
          "internalType": "uint256",
          "name": "stableBorrowAPR",
          "type": "uint256"
        },
        {
          "internalType": "uint256",
          "name": "variableBorrowAPR",
          "type": "uint256"
        }
      ],
      "stateMutability": "view",
      "type": "function"
    },
    {
      "inputs": [
        {
          "internalType": "uint256",
          "name": "version",
          "type": "uint256"
        },
        {
          "internalType": "address",
          "name": "user",
          "type": "address"
        }
      ],
      "name": "getUserAccountData",
      "outputs": [
        {
          "internalType": "uint256",
          "name": "totalCollateral",
          "type": "uint256"
        },
        {
          "internalType": "uint256",
          "name": "totalDebt",
          "type": "uint256"
        },
        {
          "internalType": "uint256",
          "name": "availableBorrows",
          "type": "uint256"
        },
        {
          "internalType": "uint256",
          "name": "currentLiquidationThreshold",
          "type": "uint256"
        },
        {
          "internalType": "uint256",
          "name": "ltv",
          "type": "uint256"
        },
        {
          "internalType": "uint256",
          "name": "healthFactor",
          "type": "uint256"
        }
      ],
      "stateMutability": "view",
      "type": "function"
    },
    {
      "inputs": [],
      "name": "getV2RewardOriginalToken",
      "outputs": [
        {
          "internalType": "address",
          "name": "",
          "type": "address"
        }
      ],
      "stateMutability": "view",
      "type": "function"
    },
    {
      "inputs": [
        {
          "internalType": "address",
          "name": "_biconomy",
          "type": "address"
        }
      ],
      "name": "initialize",
      "outputs": [],
      "stateMutability": "nonpayable",
      "type": "function"
    },
    {
      "inputs": [
        {
          "internalType": "address",
          "name": "forwarder",
          "type": "address"
        }
      ],
      "name": "isTrustedForwarder",
      "outputs": [
        {
          "internalType": "bool",
          "name": "",
          "type": "bool"
        }
      ],
      "stateMutability": "view",
      "type": "function"
    },
    {
      "inputs": [],
      "name": "owner",
      "outputs": [
        {
          "internalType": "address",
          "name": "",
          "type": "address"
        }
      ],
      "stateMutability": "view",
      "type": "function"
    },
    {
      "inputs": [],
      "name": "renounceOwnership",
      "outputs": [],
      "stateMutability": "nonpayable",
      "type": "function"
    },
    {
      "inputs": [
        {
          "internalType": "uint256",
          "name": "version",
          "type": "uint256"
        },
        {
          "internalType": "address",
          "name": "asset",
          "type": "address"
        },
        {
          "internalType": "uint256",
          "name": "amount",
          "type": "uint256"
        },
        {
          "internalType": "uint256",
          "name": "interestRateMode",
          "type": "uint256"
        }
      ],
      "name": "repay",
      "outputs": [],
      "stateMutability": "nonpayable",
      "type": "function"
    },
    {
      "inputs": [
        {
          "internalType": "uint256",
          "name": "version",
          "type": "uint256"
        },
        {
          "internalType": "address",
          "name": "repayAsset",
          "type": "address"
        },
        {
          "internalType": "uint256",
          "name": "repayAmount",
          "type": "uint256"
        },
        {
          "internalType": "uint256",
          "name": "repayInterestRateMode",
          "type": "uint256"
        },
        {
          "internalType": "address",
          "name": "withdrawalAsset",
          "type": "address"
        },
        {
          "internalType": "uint256",
          "name": "withdrawalAmount",
          "type": "uint256"
        }
      ],
      "name": "repayAndWithdraw",
      "outputs": [],
      "stateMutability": "nonpayable",
      "type": "function"
    },
    {
      "inputs": [
        {
          "internalType": "uint256",
          "name": "version",
          "type": "uint256"
        },
        {
          "internalType": "address",
          "name": "repayAsset",
          "type": "address"
        },
        {
          "internalType": "uint256",
          "name": "repayAmount",
          "type": "uint256"
        },
        {
          "internalType": "uint256",
          "name": "repayInterestRateMode",
          "type": "uint256"
        },
        {
          "internalType": "uint256",
          "name": "withdrawalAmount",
          "type": "uint256"
        }
      ],
      "name": "repayAndWithdrawETH",
      "outputs": [],
      "stateMutability": "nonpayable",
      "type": "function"
    },
    {
      "inputs": [
        {
          "internalType": "uint256",
          "name": "version",
          "type": "uint256"
        },
        {
          "internalType": "address",
          "name": "repayAsset",
          "type": "address"
        },
        {
          "internalType": "uint256",
          "name": "repayAmount",
          "type": "uint256"
        },
        {
          "internalType": "uint256",
          "name": "repayInterestRateMode",
          "type": "uint256"
        },
        {
          "internalType": "uint256",
          "name": "withdrawalAmount",
          "type": "uint256"
        },
        {
          "internalType": "uint256",
          "name": "permitAmount",
          "type": "uint256"
        },
        {
          "internalType": "uint256",
          "name": "permitDeadline",
          "type": "uint256"
        },
        {
          "internalType": "uint8",
          "name": "permitV",
          "type": "uint8"
        },
        {
          "internalType": "bytes32",
          "name": "permitR",
          "type": "bytes32"
        },
        {
          "internalType": "bytes32",
          "name": "permitS",
          "type": "bytes32"
        }
      ],
      "name": "repayAndWithdrawETHWithPermit",
      "outputs": [],
      "stateMutability": "nonpayable",
      "type": "function"
    },
    {
      "inputs": [
        {
          "internalType": "uint256",
          "name": "version",
          "type": "uint256"
        },
        {
          "internalType": "address",
          "name": "repayAsset",
          "type": "address"
        },
        {
          "internalType": "uint256",
          "name": "repayAmount",
          "type": "uint256"
        },
        {
          "internalType": "uint256",
          "name": "repayInterestRateMode",
          "type": "uint256"
        },
        {
          "internalType": "address",
          "name": "withdrawalAsset",
          "type": "address"
        },
        {
          "internalType": "uint256",
          "name": "withdrawalAmount",
          "type": "uint256"
        },
        {
          "internalType": "uint256",
          "name": "permitAmount",
          "type": "uint256"
        },
        {
          "internalType": "uint256",
          "name": "permitDeadline",
          "type": "uint256"
        },
        {
          "internalType": "uint8",
          "name": "permitV",
          "type": "uint8"
        },
        {
          "internalType": "bytes32",
          "name": "permitR",
          "type": "bytes32"
        },
        {
          "internalType": "bytes32",
          "name": "permitS",
          "type": "bytes32"
        }
      ],
      "name": "repayAndWithdrawWithPermit",
      "outputs": [],
      "stateMutability": "nonpayable",
      "type": "function"
    },
    {
      "inputs": [
        {
          "internalType": "uint256",
          "name": "version",
          "type": "uint256"
        },
        {
          "internalType": "uint256",
          "name": "amount",
          "type": "uint256"
        },
        {
          "internalType": "uint256",
          "name": "interestRateMode",
          "type": "uint256"
        }
      ],
      "name": "repayETH",
      "outputs": [],
      "stateMutability": "payable",
      "type": "function"
    },
    {
      "inputs": [
        {
          "internalType": "uint256",
          "name": "version",
          "type": "uint256"
        },
        {
          "internalType": "uint256",
          "name": "repayAmount",
          "type": "uint256"
        },
        {
          "internalType": "uint256",
          "name": "repayInterestRateMode",
          "type": "uint256"
        },
        {
          "internalType": "address",
          "name": "withdrawalAsset",
          "type": "address"
        },
        {
          "internalType": "uint256",
          "name": "withdrawalAmount",
          "type": "uint256"
        }
      ],
      "name": "repayETHAndWithdraw",
      "outputs": [],
      "stateMutability": "payable",
      "type": "function"
    },
    {
      "inputs": [
        {
          "internalType": "uint256",
          "name": "version",
          "type": "uint256"
        },
        {
          "internalType": "uint256",
          "name": "repayAmount",
          "type": "uint256"
        },
        {
          "internalType": "uint256",
          "name": "repayInterestRateMode",
          "type": "uint256"
        },
        {
          "internalType": "address",
          "name": "withdrawalAsset",
          "type": "address"
        },
        {
          "internalType": "uint256",
          "name": "withdrawalAmount",
          "type": "uint256"
        },
        {
          "internalType": "uint256",
          "name": "permitAmount",
          "type": "uint256"
        },
        {
          "internalType": "uint256",
          "name": "permitDeadline",
          "type": "uint256"
        },
        {
          "internalType": "uint8",
          "name": "permitV",
          "type": "uint8"
        },
        {
          "internalType": "bytes32",
          "name": "permitR",
          "type": "bytes32"
        },
        {
          "internalType": "bytes32",
          "name": "permitS",
          "type": "bytes32"
        }
      ],
      "name": "repayETHAndWithdrawWithPermit",
      "outputs": [],
      "stateMutability": "payable",
      "type": "function"
    },
    {
      "inputs": [
        {
          "internalType": "address",
          "name": "_biconomy",
          "type": "address"
        }
      ],
      "name": "setBiconomy",
      "outputs": [],
      "stateMutability": "nonpayable",
      "type": "function"
    },
    {
      "inputs": [
        {
          "internalType": "uint256",
          "name": "version",
          "type": "uint256"
        },
        {
          "internalType": "address",
          "name": "asset",
          "type": "address"
        },
        {
          "internalType": "uint256",
          "name": "amount",
          "type": "uint256"
        }
      ],
      "name": "supply",
      "outputs": [],
      "stateMutability": "nonpayable",
      "type": "function"
    },
    {
      "inputs": [
        {
          "internalType": "uint256",
          "name": "version",
          "type": "uint256"
        },
        {
          "internalType": "address",
          "name": "supplyAsset",
          "type": "address"
        },
        {
          "internalType": "uint256",
          "name": "supplyAmount",
          "type": "uint256"
        },
        {
          "internalType": "address",
          "name": "borrowAsset",
          "type": "address"
        },
        {
          "internalType": "uint256",
          "name": "borrowAmount",
          "type": "uint256"
        },
        {
          "internalType": "uint256",
          "name": "borrowInterestRateMode",
          "type": "uint256"
        }
      ],
      "name": "supplyAndBorrow",
      "outputs": [],
      "stateMutability": "nonpayable",
      "type": "function"
    },
    {
      "inputs": [
        {
          "internalType": "uint256",
          "name": "version",
          "type": "uint256"
        },
        {
          "internalType": "address",
          "name": "supplyAsset",
          "type": "address"
        },
        {
          "internalType": "uint256",
          "name": "supplyAmount",
          "type": "uint256"
        },
        {
          "internalType": "uint256",
          "name": "borrowAmount",
          "type": "uint256"
        },
        {
          "internalType": "uint256",
          "name": "borrowInterestRateMode",
          "type": "uint256"
        }
      ],
      "name": "supplyAndBorrowETH",
      "outputs": [],
      "stateMutability": "nonpayable",
      "type": "function"
    },
    {
      "inputs": [
        {
          "internalType": "address",
          "name": "supplyAsset",
          "type": "address"
        },
        {
          "internalType": "uint256",
          "name": "supplyAmount",
          "type": "uint256"
        },
        {
          "internalType": "uint256",
          "name": "borrowAmount",
          "type": "uint256"
        },
        {
          "internalType": "uint256",
          "name": "borrowInterestRateMode",
          "type": "uint256"
        },
        {
          "internalType": "uint256",
          "name": "permitAmount",
          "type": "uint256"
        },
        {
          "internalType": "uint256",
          "name": "permitDeadline",
          "type": "uint256"
        },
        {
          "internalType": "uint8",
          "name": "permitV",
          "type": "uint8"
        },
        {
          "internalType": "bytes32",
          "name": "permitR",
          "type": "bytes32"
        },
        {
          "internalType": "bytes32",
          "name": "permitS",
          "type": "bytes32"
        }
      ],
      "name": "supplyAndBorrowETHWithPermit",
      "outputs": [],
      "stateMutability": "nonpayable",
      "type": "function"
    },
    {
      "inputs": [
        {
          "internalType": "address",
          "name": "supplyAsset",
          "type": "address"
        },
        {
          "internalType": "uint256",
          "name": "supplyAmount",
          "type": "uint256"
        },
        {
          "internalType": "address",
          "name": "borrowAsset",
          "type": "address"
        },
        {
          "internalType": "uint256",
          "name": "borrowAmount",
          "type": "uint256"
        },
        {
          "internalType": "uint256",
          "name": "borrowInterestRateMode",
          "type": "uint256"
        },
        {
          "internalType": "uint256",
          "name": "permitAmount",
          "type": "uint256"
        },
        {
          "internalType": "uint256",
          "name": "permitDeadline",
          "type": "uint256"
        },
        {
          "internalType": "uint8",
          "name": "permitV",
          "type": "uint8"
        },
        {
          "internalType": "bytes32",
          "name": "permitR",
          "type": "bytes32"
        },
        {
          "internalType": "bytes32",
          "name": "permitS",
          "type": "bytes32"
        }
      ],
      "name": "supplyAndBorrowWithPermit",
      "outputs": [],
      "stateMutability": "nonpayable",
      "type": "function"
    },
    {
      "inputs": [
        {
          "internalType": "uint256",
          "name": "version",
          "type": "uint256"
        }
      ],
      "name": "supplyETH",
      "outputs": [],
      "stateMutability": "payable",
      "type": "function"
    },
    {
      "inputs": [
        {
          "internalType": "uint256",
          "name": "version",
          "type": "uint256"
        },
        {
          "internalType": "address",
          "name": "borrowAsset",
          "type": "address"
        },
        {
          "internalType": "uint256",
          "name": "borrowAmount",
          "type": "uint256"
        },
        {
          "internalType": "uint256",
          "name": "borrowInterestRateMode",
          "type": "uint256"
        }
      ],
      "name": "supplyETHAndBorrow",
      "outputs": [],
      "stateMutability": "payable",
      "type": "function"
    },
    {
      "inputs": [
        {
          "internalType": "address",
          "name": "borrowAsset",
          "type": "address"
        },
        {
          "internalType": "uint256",
          "name": "borrowAmount",
          "type": "uint256"
        },
        {
          "internalType": "uint256",
          "name": "borrowInterestRateMode",
          "type": "uint256"
        },
        {
          "internalType": "uint256",
          "name": "permitAmount",
          "type": "uint256"
        },
        {
          "internalType": "uint256",
          "name": "permitDeadline",
          "type": "uint256"
        },
        {
          "internalType": "uint8",
          "name": "permitV",
          "type": "uint8"
        },
        {
          "internalType": "bytes32",
          "name": "permitR",
          "type": "bytes32"
        },
        {
          "internalType": "bytes32",
          "name": "permitS",
          "type": "bytes32"
        }
      ],
      "name": "supplyETHAndBorrowWithPermit",
      "outputs": [],
      "stateMutability": "payable",
      "type": "function"
    },
    {
      "inputs": [
        {
          "internalType": "address",
          "name": "newOwner",
          "type": "address"
        }
      ],
      "name": "transferOwnership",
      "outputs": [],
      "stateMutability": "nonpayable",
      "type": "function"
    },
    {
      "inputs": [],
      "name": "trustedForwarder",
      "outputs": [
        {
          "internalType": "address",
          "name": "",
          "type": "address"
        }
      ],
      "stateMutability": "view",
      "type": "function"
    },
    {
      "inputs": [],
      "name": "versionRecipient",
      "outputs": [
        {
          "internalType": "string",
          "name": "",
          "type": "string"
        }
      ],
      "stateMutability": "pure",
      "type": "function"
    },
    {
      "inputs": [
        {
          "internalType": "uint256",
          "name": "version",
          "type": "uint256"
        },
        {
          "internalType": "address",
          "name": "asset",
          "type": "address"
        },
        {
          "internalType": "uint256",
          "name": "amount",
          "type": "uint256"
        }
      ],
      "name": "withdraw",
      "outputs": [],
      "stateMutability": "nonpayable",
      "type": "function"
    },
    {
      "inputs": [
        {
          "internalType": "uint256",
          "name": "version",
          "type": "uint256"
        },
        {
          "internalType": "uint256",
          "name": "amount",
          "type": "uint256"
        }
      ],
      "name": "withdrawETH",
      "outputs": [],
      "stateMutability": "nonpayable",
      "type": "function"
    },
    {
      "inputs": [
        {
          "internalType": "uint256",
          "name": "version",
          "type": "uint256"
        },
        {
          "internalType": "uint256",
          "name": "amount",
          "type": "uint256"
        },
        {
          "internalType": "uint256",
          "name": "permitAmount",
          "type": "uint256"
        },
        {
          "internalType": "uint256",
          "name": "permitDeadline",
          "type": "uint256"
        },
        {
          "internalType": "uint8",
          "name": "permitV",
          "type": "uint8"
        },
        {
          "internalType": "bytes32",
          "name": "permitR",
          "type": "bytes32"
        },
        {
          "internalType": "bytes32",
          "name": "permitS",
          "type": "bytes32"
        }
      ],
      "name": "withdrawETHWithPermit",
      "outputs": [],
      "stateMutability": "nonpayable",
      "type": "function"
    },
    {
      "inputs": [
        {
          "internalType": "uint256",
          "name": "version",
          "type": "uint256"
        },
        {
          "internalType": "address",
          "name": "asset",
          "type": "address"
        },
        {
          "internalType": "uint256",
          "name": "amount",
          "type": "uint256"
        },
        {
          "internalType": "uint256",
          "name": "permitAmount",
          "type": "uint256"
        },
        {
          "internalType": "uint256",
          "name": "permitDeadline",
          "type": "uint256"
        },
        {
          "internalType": "uint8",
          "name": "permitV",
          "type": "uint8"
        },
        {
          "internalType": "bytes32",
          "name": "permitR",
          "type": "bytes32"
        },
        {
          "internalType": "bytes32",
          "name": "permitS",
          "type": "bytes32"
        }
      ],
      "name": "withdrawWithPermit",
      "outputs": [],
      "stateMutability": "nonpayable",
      "type": "function"
    },
    {
      "stateMutability": "payable",
      "type": "receive"
    }
  ],
  "transactionHash": "0x8adb0bbd5174c03681fe8ba86cd6668d80177f1c2b6dd088bf79a924e373c076",
  "args": [
    "0x0000000000000000000000000000000000000000",
    "0x220c6A7D868FC38ECB47d5E69b99e9906300286A",
    "0x8d3d33232bfcb7B901846AE7B8E84aE282ee2882",
    "0x0000000000000000000000000000000000000000"
  ],
  "numDeployments": 2,
  "solcInputHash": "d9b429a2c20e0ea1ce881bd469380dfa",
  "bytecode": "0x6102c06040523480156200001257600080fd5b5060405162006b1c38038062006b1c83398101604081905262000035916200078f565b6200003f620006b0565b60006001600160a01b038516620000585760006200005b565b60015b6001600160a01b03861660a05290508062000078576000620000ef565b60a0516001600160a01b0316630542975c6040518163ffffffff1660e01b815260040160206040518083038186803b158015620000b457600080fd5b505afa158015620000c9573d6000803e3d6000fd5b505050506040513d601f19601f82011682018060405250810190620000ef9190620007ec565b6001600160a01b0316608052806200010957600062000180565b6080516001600160a01b0316630261bf8b6040518163ffffffff1660e01b815260040160206040518083038186803b1580156200014557600080fd5b505afa1580156200015a573d6000803e3d6000fd5b505050506040513d601f19601f82011682018060405250810190620001809190620007ec565b6001600160a01b031660c052806200019a57600062000211565b6080516001600160a01b031663fca513a86040518163ffffffff1660e01b815260040160206040518083038186803b158015620001d657600080fd5b505afa158015620001eb573d6000803e3d6000fd5b505050506040513d601f19601f82011682018060405250810190620002119190620007ec565b6001600160a01b0390811661010052828116610120526000908516620002395760006200023c565b60015b6001600160a01b038616610140529050806200025a576000620002d2565b610140516001600160a01b031663e860accb6040518163ffffffff1660e01b815260040160206040518083038186803b1580156200029757600080fd5b505afa158015620002ac573d6000803e3d6000fd5b505050506040513d601f19601f82011682018060405250810190620002d29190620007ec565b6001600160a01b03166101605280620002ed57600062000365565b610140516001600160a01b031663026b1d5f6040518163ffffffff1660e01b815260040160206040518083038186803b1580156200032a57600080fd5b505afa1580156200033f573d6000803e3d6000fd5b505050506040513d601f19601f82011682018060405250810190620003659190620007ec565b6001600160a01b0316610180528062000380576000620003f8565b610140516001600160a01b031663fca513a86040518163ffffffff1660e01b815260040160206040518083038186803b158015620003bd57600080fd5b505afa158015620003d2573d6000803e3d6000fd5b505050506040513d601f19601f82011682018060405250810190620003f89190620007ec565b6001600160a01b039081166101c0528481166101e05260a0511662000422576000806000620004a3565b60a0516040516334924edb60e21b81526001600160a01b0386811660048301529091169063d2493b6c9060240160606040518083038186803b1580156200046857600080fd5b505afa1580156200047d573d6000803e3d6000fd5b505050506040513d601f19601f82011682018060405250810190620004a3919062000811565b6001600160a01b039081166102405290811661022052908116610200526101605116620004d557600080600062000557565b610160516040516334924edb60e21b81526001600160a01b0386811660048301529091169063d2493b6c9060240160606040518083038186803b1580156200051c57600080fd5b505afa15801562000531573d6000803e3d6000fd5b505050506040513d601f19601f8201168201806040525081019062000557919062000811565b6001600160a01b039081166102a0529081166102805290811661026052610200511662000586576000620005fe565b610200516001600160a01b03166375d264136040518163ffffffff1660e01b815260040160206040518083038186803b158015620005c357600080fd5b505afa158015620005d8573d6000803e3d6000fd5b505050506040513d601f19601f82011682018060405250810190620005fe9190620007ec565b6001600160a01b0390811660e05261026051166200061e57600062000696565b610260516001600160a01b03166375d264136040518163ffffffff1660e01b815260040160206040518083038186803b1580156200065b57600080fd5b505afa15801562000670573d6000803e3d6000fd5b505050506040513d601f19601f82011682018060405250810190620006969190620007ec565b6001600160a01b03166101a052506200085b945050505050565b600054610100900460ff16156200071d5760405162461bcd60e51b815260206004820152602760248201527f496e697469616c697a61626c653a20636f6e747261637420697320696e697469604482015266616c697a696e6760c81b606482015260840160405180910390fd5b60005460ff908116101562000770576000805460ff191660ff9081179091556040519081527f7f26b83ff96e1f2b6a682f133852f6798a09c465da95921460cefb38474024989060200160405180910390a15b565b80516001600160a01b03811681146200078a57600080fd5b919050565b60008060008060808587031215620007a657600080fd5b620007b18562000772565b9350620007c16020860162000772565b9250620007d16040860162000772565b9150620007e16060860162000772565b905092959194509250565b600060208284031215620007ff57600080fd5b6200080a8262000772565b9392505050565b6000806000606084860312156200082757600080fd5b620008328462000772565b9250620008426020850162000772565b9150620008526040850162000772565b90509250925092565b60805160a05160c05160e05161010051610120516101405161016051610180516101a0516101c0516101e05161020051610220516102405161026051610280516102a051615f9a62000b8260003960008181611b6501526125ec015260008181611b8b01526126120152600081816105ba01528181611ffc01526140e30152600061251a01526000612540015260008181610ab901528181612022015261410901526000818161093001528181611c5c01528181611cd301528181611d4e01528181612113015281816121bf01528181612239015281816122aa01528181612722015281816127e9015281816128b30152818161295201528181612a0401528181612acb01528181612b7501528181612bda01528181614214015281816142dc0152818161437201526143e30152600081816105590152818161171a0152818161467901526147b20152600081816104b2015281816114110152818161144301528181612407015281816145f2015261472d01526000818161039601528181610df90152818161190101528181611a7c01528181611c2d01528181611eeb015281816121920152818161288601528181612b480152818161389b01528181613e4301528181613e7401528181613f5101528181613fea015281816142af01526149be0152600081816103e701528181610c0901528181611dd60152818161245801528181612d1d01528181612d4c01528181613294015261367f015260006104e60152600081816107800152818161132a01526137200152600081816107e5015281816112fe0152818161444e015261458e01526000818161041b01528181611002015281816110b60152818161338f015281816133c501528181613458015261450901526000818161089401528181610d4f01528181611877015281816119f0015281816120e6015281816127bc01528181612a9e015281816137d101528181613c5d01528181613c8e01528181613d6b01528181613e04015281816141e701526149160152600081816106ac01528181610b640152818161235201528181612c5201528181612c81015281816131f001526135db015260006106780152615f9a6000f3fe6080604052600436106103035760003560e01c8063836dbe3911610190578063b316ff89116100dc578063d334c20b11610095578063ead64c6a1161006f578063ead64c6a14610a27578063f2fde38b14610a74578063fc20966314610a94578063fd63495214610aa757600080fd5b8063d334c20b146109d2578063e16decdc146109e7578063e63697c814610a0757600080fd5b8063b316ff89146108fc578063b381cf401461091e578063b6b0b5d814610952578063c4d66de814610972578063c7cdea3714610992578063d3216848146109b257600080fd5b806397aa2f4f11610149578063a6e9f01e11610123578063a6e9f01e14610882578063a709e187146108b6578063a88bb3d9146108c9578063ac84ca14146108e957600080fd5b806397aa2f4f146108075780639b27832e146108275780639dc1c6571461084757600080fd5b8063836dbe391461072e578063852343331461074e5780638524adc91461076e5780638a712b80146107a25780638da5cb5b146107b5578063961358fb146107d357600080fd5b806366f708011161024f5780637b303b8011610208578063800b71fd116101e2578063800b71fd1461069a578063823225eb146106ce578063825a5620146106ee5780638327c2141461070e57600080fd5b80637b303b80146106265780637da0a877146106465780637ec3d6411461066657600080fd5b806366f70801146105475780636a2647181461057b5780636f5c3dff146105a85780637032134e146105dc578063715018a6146105fc5780637ad03c8f1461061157600080fd5b80632b3eed27116102bc578063486ff0cd11610296578063486ff0cd146104705780634ded3252146104a05780634f8ff3b0146104d4578063572b6c051461050857600080fd5b80632b3eed27146104095780633bf8c3911461043d57806346a862771461045d57600080fd5b806307535c741461030f5780630d8b76a81461032457806313ce106414610344578063149078f2146103645780631521589c1461038457806319d10913146103d557600080fd5b3661030a57005b600080fd5b61032261031d366004614e62565b610adb565b005b34801561033057600080fd5b5061032261033f366004614eab565b610af8565b34801561035057600080fd5b5061032261035f366004614ecf565b610b22565b34801561037057600080fd5b5061032261037f366004614f0c565b610f87565b34801561039057600080fd5b506103b87f000000000000000000000000000000000000000000000000000000000000000081565b6040516001600160a01b0390911681526020015b60405180910390f35b3480156103e157600080fd5b506103b87f000000000000000000000000000000000000000000000000000000000000000081565b34801561041557600080fd5b506103b87f000000000000000000000000000000000000000000000000000000000000000081565b34801561044957600080fd5b50610322610458366004614f68565b610fa6565b61032261046b366004614ecf565b610fbd565b34801561047c57600080fd5b5060408051808201825260018152603160f81b602082015290516103cc919061501e565b3480156104ac57600080fd5b506103b87f000000000000000000000000000000000000000000000000000000000000000081565b3480156104e057600080fd5b506103b87f000000000000000000000000000000000000000000000000000000000000000081565b34801561051457600080fd5b50610537610523366004614eab565b6065546001600160a01b0391821691161490565b60405190151581526020016103cc565b34801561055357600080fd5b506103b87f000000000000000000000000000000000000000000000000000000000000000081565b34801561058757600080fd5b5061059b610596366004615031565b610fd8565b6040516103cc91906150c3565b3480156105b457600080fd5b506103b87f000000000000000000000000000000000000000000000000000000000000000081565b3480156105e857600080fd5b506103226105f7366004615175565b6117c0565b34801561060857600080fd5b506103226117e6565b34801561061d57600080fd5b506103226117fa565b34801561063257600080fd5b506103226106413660046151f2565b61180a565b34801561065257600080fd5b506065546103b8906001600160a01b031681565b34801561067257600080fd5b506103b87f000000000000000000000000000000000000000000000000000000000000000081565b3480156106a657600080fd5b506103b87f000000000000000000000000000000000000000000000000000000000000000081565b3480156106da57600080fd5b506103226106e93660046151f2565b611820565b3480156106fa57600080fd5b5061032261070936600461523a565b611836565b34801561071a57600080fd5b50610322610729366004614ecf565b6119c4565b34801561073a57600080fd5b50610322610749366004615272565b611b4d565b34801561075a57600080fd5b506103226107693660046152d1565b611da5565b34801561077a57600080fd5b506103b87f000000000000000000000000000000000000000000000000000000000000000081565b6103226107b03660046152d1565b611fc0565b3480156107c157600080fd5b506033546001600160a01b03166103b8565b3480156107df57600080fd5b506103b87f000000000000000000000000000000000000000000000000000000000000000081565b34801561081357600080fd5b50610322610822366004615272565b611fe4565b34801561083357600080fd5b50610322610842366004615342565b6120ba565b34801561085357600080fd5b5061086761086236600461536e565b612304565b604080519384526020840192909252908201526060016103cc565b34801561088e57600080fd5b506103b87f000000000000000000000000000000000000000000000000000000000000000081565b6103226108c4366004615342565b6124f9565b3480156108d557600080fd5b506103226108e436600461539e565b6129ce565b6103226108f736600461542f565b6129f6565b34801561090857600080fd5b50610911612c49565b6040516103cc919061545e565b34801561092a57600080fd5b506103b87f000000000000000000000000000000000000000000000000000000000000000081565b34801561095e57600080fd5b5061032261096d366004615508565b613058565b34801561097e57600080fd5b5061032261098d366004614eab565b613073565b34801561099e57600080fd5b506103226109ad36600461556d565b6131a8565b3480156109be57600080fd5b506103226109cd36600461558f565b6131ba565b3480156109de57600080fd5b506103b861338b565b3480156109f357600080fd5b50610322610a023660046155e3565b61357c565b348015610a1357600080fd5b50610322610a2236600461523a565b6135a5565b348015610a3357600080fd5b50610a47610a4236600461536e565b61370c565b604080519687526020870195909552938501929092526060840152608083015260a082015260c0016103cc565b348015610a8057600080fd5b50610322610a8f366004614eab565b61392f565b610322610aa236600461567f565b6139a8565b348015610ab357600080fd5b506103b87f000000000000000000000000000000000000000000000000000000000000000081565b610ae68585856124f9565b610af18583836135a5565b5050505050565b610b006139c3565b606580546001600160a01b0319166001600160a01b0392909216919091179055565b6000610b2c613a3c565b905082600019811415610d1a576000808760021415610bea576040516334924edb60e21b81526001600160a01b0388811660048301527f0000000000000000000000000000000000000000000000000000000000000000169063d2493b6c9060240160606040518083038186803b158015610ba657600080fd5b505afa158015610bba573d6000803e3d6000fd5b505050506040513d601f19601f82011682018060405250810190610bde91906156e4565b9093509150610c8a9050565b6040516334924edb60e21b81526001600160a01b0388811660048301527f0000000000000000000000000000000000000000000000000000000000000000169063d2493b6c9060240160606040518083038186803b158015610c4b57600080fd5b505afa158015610c5f573d6000803e3d6000fd5b505050506040513d601f19601f82011682018060405250810190610c8391906156e4565b9093509150505b84600114610c985780610c9a565b815b6040516370a0823160e01b81526001600160a01b03868116600483015291909116906370a082319060240160206040518083038186803b158015610cdd57600080fd5b505afa158015610cf1573d6000803e3d6000fd5b505050506040513d601f19601f82011682018060405250810190610d159190615731565b925050505b610d2f6001600160a01b038616833084613a4b565b8560021415610de25760405163573ade8160e01b81526001600160a01b037f0000000000000000000000000000000000000000000000000000000000000000169063573ade8190610d8a90889085908890889060040161574a565b602060405180830381600087803b158015610da457600080fd5b505af1158015610db8573d6000803e3d6000fd5b505050506040513d601f19601f82011682018060405250810190610ddc9190615731565b50610e88565b60405163573ade8160e01b81526001600160a01b037f0000000000000000000000000000000000000000000000000000000000000000169063573ade8190610e3490889085908890889060040161574a565b602060405180830381600087803b158015610e4e57600080fd5b505af1158015610e62573d6000803e3d6000fd5b505050506040513d601f19601f82011682018060405250810190610e869190615731565b505b6040516370a0823160e01b81523060048201526000906001600160a01b038716906370a082319060240160206040518083038186803b158015610eca57600080fd5b505afa158015610ede573d6000803e3d6000fd5b505050506040513d601f19601f82011682018060405250810190610f029190615731565b90508015610f1e57610f1e6001600160a01b0387168483613ab6565b610f28818361578b565b866001600160a01b0316846001600160a01b03167f77673b670822baca14a7caf6f8038f811649ab73e4c06083b0e58a53389bece78a88604051610f76929190918252602082015260400190565b60405180910390a450505050505050565b610f92868686611836565b610f9e868484846119c4565b505050505050565b610fb286868686610b22565b610f9e8683836135a5565b610fc6846129f6565b610fd2848484846119c4565b50505050565b6060600285141561140f576000610fed61338b565b90506001600160a01b038116156114095760007f00000000000000000000000000000000000000000000000000000000000000006001600160a01b03166399248ea76040518163ffffffff1660e01b815260040160206040518083038186803b15801561105957600080fd5b505afa15801561106d573d6000803e3d6000fd5b505050506040513d601f19601f8201168201806040525081019061109191906157a2565b604051630cc7d40f60e11b81526001600160a01b0386811660048301529192506000917f0000000000000000000000000000000000000000000000000000000000000000169063198fa81e9060240160206040518083038186803b1580156110f857600080fd5b505afa15801561110c573d6000803e3d6000fd5b505050506040513d601f19601f820116820180604052508101906111309190615731565b60408051600180825281830190925291925060009190816020015b611153614e12565b81526020019060019003908161114b579050509050828160008151811061117c5761117c6157d5565b6020026020010151600001906001600160a01b031690816001600160a01b031681525050826001600160a01b03166395d89b416040518163ffffffff1660e01b815260040160006040518083038186803b1580156111d957600080fd5b505afa1580156111ed573d6000803e3d6000fd5b505050506040513d6000823e601f3d908101601f1916820160405261121591908101906158a9565b81600081518110611228576112286157d5565b602002602001015160200181905250826001600160a01b031663313ce5676040518163ffffffff1660e01b815260040160206040518083038186803b15801561127057600080fd5b505afa158015611284573d6000803e3d6000fd5b505050506040513d601f19601f820116820180604052508101906112a891906158de565b816000815181106112bb576112bb6157d5565b60200260200101516040019060ff16908160ff168152505081816000815181106112e7576112e76157d5565b6020026020010151606001818152505060006113247f00000000000000000000000000000000000000000000000000000000000000008685613aeb565b905060007f00000000000000000000000000000000000000000000000000000000000000006001600160a01b03166350d25bcd6040518163ffffffff1660e01b815260040160206040518083038186803b15801561138157600080fd5b505afa158015611395573d6000803e3d6000fd5b505050506040513d601f19601f820116820180604052508101906113b99190615731565b9050670de0b6b3a76400006113ce82846158fb565b6113d8919061591a565b836000815181106113eb576113eb6157d5565b602002602001015160800181815250508296505050505050506117b8565b50611783565b7f00000000000000000000000000000000000000000000000000000000000000006001600160a01b031615611783576000807f00000000000000000000000000000000000000000000000000000000000000006001600160a01b0316634c0369c38787876040518463ffffffff1660e01b81526004016114919392919061593c565b60006040518083038186803b1580156114a957600080fd5b505afa1580156114bd573d6000803e3d6000fd5b505050506040513d6000823e601f3d908101601f191682016040526114e59190810190615a37565b8051919350915060008167ffffffffffffffff811115611507576115076157bf565b60405190808252806020026020018201604052801561154057816020015b61152d614e12565b8152602001906001900390816115255790505b50905060005b82811015611777576000858281518110611562576115626157d5565b602002602001015190506000858381518110611580576115806157d5565b602002602001015190508184848151811061159d5761159d6157d5565b6020026020010151600001906001600160a01b031690816001600160a01b031681525050816001600160a01b03166395d89b416040518163ffffffff1660e01b815260040160006040518083038186803b1580156115fa57600080fd5b505afa15801561160e573d6000803e3d6000fd5b505050506040513d6000823e601f3d908101601f1916820160405261163691908101906158a9565b848481518110611648576116486157d5565b602002602001015160200181905250816001600160a01b031663313ce5676040518163ffffffff1660e01b815260040160206040518083038186803b15801561169057600080fd5b505afa1580156116a4573d6000803e3d6000fd5b505050506040513d601f19601f820116820180604052508101906116c891906158de565b8484815181106116da576116da6157d5565b60200260200101516040019060ff16908160ff168152505080848481518110611705576117056157d5565b602002602001015160600181815250506117407f00000000000000000000000000000000000000000000000000000000000000008383613aeb565b848481518110611752576117526157d5565b602002602001015160800181815250505050808061176f90615af2565b915050611546565b5093506117b892505050565b60408051600080825260208201909252906117b4565b6117a1614e12565b8152602001906001900390816117995790505b5090505b949350505050565b6117cc60038a8a611836565b6117db87878787878787611b4d565b505050505050505050565b6117ee6139c3565b6117f86000613c09565b565b6118026139c3565b6117f8613c5b565b611815858585611836565b610af18583836120ba565b61182c85858585610b22565b610af185826131a8565b6000611840613a3c565b90506118576001600160a01b038416823085613a4b565b83600214156118ea5760405163e8eda9df60e01b81526001600160a01b037f0000000000000000000000000000000000000000000000000000000000000000169063e8eda9df906118b390869086908690600090600401615b0d565b600060405180830381600087803b1580156118cd57600080fd5b505af11580156118e1573d6000803e3d6000fd5b50505050611970565b60405163617ba03760e01b81526001600160a01b037f0000000000000000000000000000000000000000000000000000000000000000169063617ba0379061193d90869086908690600090600401615b0d565b600060405180830381600087803b15801561195757600080fd5b505af115801561196b573d6000803e3d6000fd5b505050505b81836001600160a01b0316826001600160a01b03167f5cedcce6a827e65624771bcd2fafdeb4c7e1dfdf5a44d4fe904c4ee870eecd52876040516119b691815260200190565b60405180910390a450505050565b60006119ce613a3c565b90508460021415611a655760405163a415bcad60e01b81526001600160a01b037f0000000000000000000000000000000000000000000000000000000000000000169063a415bcad90611a2e908790879087906000908890600401615b3a565b600060405180830381600087803b158015611a4857600080fd5b505af1158015611a5c573d6000803e3d6000fd5b50505050611aed565b60405163a415bcad60e01b81526001600160a01b037f0000000000000000000000000000000000000000000000000000000000000000169063a415bcad90611aba908790879087906000908890600401615b3a565b600060405180830381600087803b158015611ad457600080fd5b505af1158015611ae8573d6000803e3d6000fd5b505050505b611b016001600160a01b0385168285613ab6565b82846001600160a01b0316826001600160a01b0316600080516020615f458339815191528886604051611b3e929190918252602082015260400190565b60405180910390a45050505050565b6000611b57613a3c565b9050600060018814611b89577f0000000000000000000000000000000000000000000000000000000000000000611bab565b7f00000000000000000000000000000000000000000000000000000000000000005b60405163016a5aab60e31b81529091506001600160a01b03821690630b52d55890611be690859030908c908c908c908c908c90600401615b6e565b600060405180830381600087803b158015611c0057600080fd5b505af1158015611c14573d6000803e3d6000fd5b505060405163a415bcad60e01b81526001600160a01b037f000000000000000000000000000000000000000000000000000000000000000016925063a415bcad9150611c8d907f0000000000000000000000000000000000000000000000000000000000000000908d908d906000908990600401615b3a565b600060405180830381600087803b158015611ca757600080fd5b505af1158015611cbb573d6000803e3d6000fd5b5050604051632e1a7d4d60e01b8152600481018c90527f00000000000000000000000000000000000000000000000000000000000000006001600160a01b03169250632e1a7d4d9150602401600060405180830381600087803b158015611d2157600080fd5b505af1158015611d35573d6000803e3d6000fd5b50505050611d43828a614024565b886001600160a01b037f00000000000000000000000000000000000000000000000000000000000000008116908416600080516020615f45833981519152600360408051918252602082018e90520160405180910390a4505050505050505050565b6000611daf613a3c565b6040516334924edb60e21b81526001600160a01b038b8116600483015291925060009182917f00000000000000000000000000000000000000000000000000000000000000009091169063d2493b6c9060240160606040518083038186803b158015611e1a57600080fd5b505afa158015611e2e573d6000803e3d6000fd5b505050506040513d601f19601f82011682018060405250810190611e5291906156e4565b9250925050600089600114611e675781611e69565b825b60405163016a5aab60e31b81529091506001600160a01b03821690630b52d55890611ea490879030908e908e908e908e908e90600401615b6e565b600060405180830381600087803b158015611ebe57600080fd5b505af1158015611ed2573d6000803e3d6000fd5b505060405163a415bcad60e01b81526001600160a01b037f000000000000000000000000000000000000000000000000000000000000000016925063a415bcad9150611f2b908f908f908f906000908b90600401615b3a565b600060405180830381600087803b158015611f4557600080fd5b505af1158015611f59573d6000803e3d6000fd5b50611f72925050506001600160a01b038d16858d613ab6565b8a6001600160a01b03808e16908616600080516020615f4583398151915260038e604051611faa929190918252602082015260400190565b60405180910390a4505050505050505050505050565b611fca60036129f6565b611fda8888888888888888611da5565b5050505050505050565b6000611fee613a3c565b9050600060028914612020577f0000000000000000000000000000000000000000000000000000000000000000612042565b7f00000000000000000000000000000000000000000000000000000000000000005b60405163d505accf60e01b81529091506001600160a01b0382169063d505accf9061207d90859030908c908c908c908c908c90600401615b6e565b600060405180830381600087803b15801561209757600080fd5b505af11580156120ab573d6000803e3d6000fd5b505050506117db8989846140d7565b60006120c4613a3c565b9050836002141561217b5760405163a415bcad60e01b81526001600160a01b037f0000000000000000000000000000000000000000000000000000000000000000169063a415bcad90612144907f000000000000000000000000000000000000000000000000000000000000000090879087906000908890600401615b3a565b600060405180830381600087803b15801561215e57600080fd5b505af1158015612172573d6000803e3d6000fd5b50505050612223565b60405163a415bcad60e01b81526001600160a01b037f0000000000000000000000000000000000000000000000000000000000000000169063a415bcad906121f0907f000000000000000000000000000000000000000000000000000000000000000090879087906000908890600401615b3a565b600060405180830381600087803b15801561220a57600080fd5b505af115801561221e573d6000803e3d6000fd5b505050505b604051632e1a7d4d60e01b8152600481018490527f00000000000000000000000000000000000000000000000000000000000000006001600160a01b031690632e1a7d4d90602401600060405180830381600087803b15801561228557600080fd5b505af1158015612299573d6000803e3d6000fd5b505050506122a78184614024565b827f00000000000000000000000000000000000000000000000000000000000000006001600160a01b0316826001600160a01b0316600080516020615f4583398151915287866040516119b6929190918252602082015260400190565b60008080600285141561240557600061231b61338b565b90506001600160a01b038116156123ff576040516334924edb60e21b81526001600160a01b038681166004830152600091829182917f00000000000000000000000000000000000000000000000000000000000000009091169063d2493b6c9060240160606040518083038186803b15801561239657600080fd5b505afa1580156123aa573d6000803e3d6000fd5b505050506040513d601f19601f820116820180604052508101906123ce91906156e4565b9250925092506123df888486614446565b96506123ec888386614446565b95506123f9888286614446565b94505050505b506124f2565b7f00000000000000000000000000000000000000000000000000000000000000006001600160a01b0316156124f2576040516334924edb60e21b81526001600160a01b03858116600483015260009182917f0000000000000000000000000000000000000000000000000000000000000000169063d2493b6c9060240160606040518083038186803b15801561249a57600080fd5b505afa1580156124ae573d6000803e3d6000fd5b505050506040513d601f19601f820116820180604052508101906124d291906156e4565b92505091506124e186836145ce565b94506124ed86826145ce565b925050505b9250925092565b6000612503613a3c565b9050600060028514156125e2576001831461253e577f0000000000000000000000000000000000000000000000000000000000000000612560565b7f00000000000000000000000000000000000000000000000000000000000000005b6040516370a0823160e01b81526001600160a01b03848116600483015291909116906370a082319060240160206040518083038186803b1580156125a357600080fd5b505afa1580156125b7573d6000803e3d6000fd5b505050506040513d601f19601f820116820180604052508101906125db9190615731565b90506126b0565b60018314612610577f0000000000000000000000000000000000000000000000000000000000000000612632565b7f00000000000000000000000000000000000000000000000000000000000000005b6040516370a0823160e01b81526001600160a01b03848116600483015291909116906370a082319060240160206040518083038186803b15801561267557600080fd5b505afa158015612689573d6000803e3d6000fd5b505050506040513d601f19601f820116820180604052508101906126ad9190615731565b90505b808410156126bb5750825b803410156127205760405162461bcd60e51b815260206004820152602760248201527f6d73672e76616c7565206973206c657373207468616e2072657061796d656e7460448201526608185b5bdd5b9d60ca1b60648201526084015b60405180910390fd5b7f00000000000000000000000000000000000000000000000000000000000000006001600160a01b031663d0e30db0826040518263ffffffff1660e01b81526004016000604051808303818588803b15801561277b57600080fd5b505af115801561278f573d6000803e3d6000fd5b508893506002925061279f915050565b141561286f5760405163573ade8160e01b81526001600160a01b037f0000000000000000000000000000000000000000000000000000000000000000169063573ade8190612817907f00000000000000000000000000000000000000000000000000000000000000009085908890889060040161574a565b602060405180830381600087803b15801561283157600080fd5b505af1158015612845573d6000803e3d6000fd5b505050506040513d601f19601f820116820180604052508101906128699190615731565b50612935565b60405163573ade8160e01b81526001600160a01b037f0000000000000000000000000000000000000000000000000000000000000000169063573ade81906128e1907f00000000000000000000000000000000000000000000000000000000000000009085908890889060040161574a565b602060405180830381600087803b1580156128fb57600080fd5b505af115801561290f573d6000803e3d6000fd5b505050506040513d601f19601f820116820180604052508101906129339190615731565b505b478015612946576129468382614024565b612950818361578b565b7f00000000000000000000000000000000000000000000000000000000000000006001600160a01b0316846001600160a01b03167f77673b670822baca14a7caf6f8038f811649ab73e4c06083b0e58a53389bece789886040516129be929190918252602082015260400190565b60405180910390a4505050505050565b6129da60038b8b611836565b6129ea8888888888888888611da5565b50505050505050505050565b6000612a00613a3c565b90507f00000000000000000000000000000000000000000000000000000000000000006001600160a01b031663d0e30db0346040518263ffffffff1660e01b81526004016000604051808303818588803b158015612a5d57600080fd5b505af1158015612a71573d6000803e3d6000fd5b5085935060029250612a81915050565b1415612b315760405163e8eda9df60e01b81526001600160a01b037f0000000000000000000000000000000000000000000000000000000000000000169063e8eda9df90612afa907f00000000000000000000000000000000000000000000000000000000000000009034908690600090600401615b0d565b600060405180830381600087803b158015612b1457600080fd5b505af1158015612b28573d6000803e3d6000fd5b50505050612bd7565b60405163617ba03760e01b81526001600160a01b037f0000000000000000000000000000000000000000000000000000000000000000169063617ba03790612ba4907f00000000000000000000000000000000000000000000000000000000000000009034908690600090600401615b0d565b600060405180830381600087803b158015612bbe57600080fd5b505af1158015612bd2573d6000803e3d6000fd5b505050505b347f00000000000000000000000000000000000000000000000000000000000000006001600160a01b0316826001600160a01b03167f5cedcce6a827e65624771bcd2fafdeb4c7e1dfdf5a44d4fe904c4ee870eecd5285604051612c3d91815260200190565b60405180910390a45050565b606080600081817f00000000000000000000000000000000000000000000000000000000000000006001600160a01b031615612d1b577f00000000000000000000000000000000000000000000000000000000000000006001600160a01b031663b316ff896040518163ffffffff1660e01b815260040160006040518083038186803b158015612cd857600080fd5b505afa158015612cec573d6000803e3d6000fd5b505050506040513d6000823e601f3d908101601f19168201604052612d149190810190615baf565b9350835192505b7f00000000000000000000000000000000000000000000000000000000000000006001600160a01b031615612de6577f00000000000000000000000000000000000000000000000000000000000000006001600160a01b031663b316ff896040518163ffffffff1660e01b815260040160006040518083038186803b158015612da357600080fd5b505afa158015612db7573d6000803e3d6000fd5b505050506040513d6000823e601f3d908101601f19168201604052612ddf9190810190615baf565b9150815190505b612df08184615caa565b67ffffffffffffffff811115612e0857612e086157bf565b604051908082528060200260200182016040528015612e5e57816020015b612e4b6040805160608101909152806000815260606020820152600060409091015290565b815260200190600190039081612e265790505b50945060005b83811015612f51576002868281518110612e8057612e806157d5565b6020026020010151600001906003811115612e9d57612e9d615448565b90816003811115612eb057612eb0615448565b81525050848181518110612ec657612ec66157d5565b602002602001015160000151868281518110612ee457612ee46157d5565b602002602001015160200181905250848181518110612f0557612f056157d5565b602002602001015160200151868281518110612f2357612f236157d5565b60209081029190910101516001600160a01b0390911660409091015280612f4981615af2565b915050612e64565b506000805b8281101561304f57612f688186615caa565b91506003878381518110612f7e57612f7e6157d5565b6020026020010151600001906003811115612f9b57612f9b615448565b90816003811115612fae57612fae615448565b81525050838181518110612fc457612fc46157d5565b602002602001015160000151878381518110612fe257612fe26157d5565b602002602001015160200181905250838181518110613003576130036157d5565b602002602001015160200151878381518110613021576130216157d5565b60209081029190910101516001600160a01b039091166040909101528061304781615af2565b915050612f56565b50505050505090565b6130648a8a8a8a610b22565b6129ea8a878787878787611fe4565b600054610100900460ff16158080156130935750600054600160ff909116105b806130ad5750303b1580156130ad575060005460ff166001145b6131105760405162461bcd60e51b815260206004820152602e60248201527f496e697469616c697a61626c653a20636f6e747261637420697320616c72656160448201526d191e481a5b9a5d1a585b1a5e995960921b6064820152608401612717565b6000805460ff191660011790558015613133576000805461ff0019166101001790555b61313b61482b565b606580546001600160a01b0319166001600160a01b03841617905561315e613c5b565b80156131a4576000805461ff0019169055604051600181527f7f26b83ff96e1f2b6a682f133852f6798a09c465da95921460cefb38474024989060200160405180910390a15b5050565b6131a482826131b5613a3c565b6140d7565b60006131c4613a3c565b905060008960021415613275576040516334924edb60e21b81526001600160a01b038a811660048301527f0000000000000000000000000000000000000000000000000000000000000000169063d2493b6c9060240160606040518083038186803b15801561323257600080fd5b505afa158015613246573d6000803e3d6000fd5b505050506040513d601f19601f8201168201806040525081019061326a91906156e4565b509091506133149050565b6040516334924edb60e21b81526001600160a01b038a811660048301527f0000000000000000000000000000000000000000000000000000000000000000169063d2493b6c9060240160606040518083038186803b1580156132d657600080fd5b505afa1580156132ea573d6000803e3d6000fd5b505050506040513d601f19601f8201168201806040525081019061330e91906156e4565b50909150505b60405163d505accf60e01b81526001600160a01b0382169063d505accf9061334c90859030908c908c908c908c908c90600401615b6e565b600060405180830381600087803b15801561336657600080fd5b505af115801561337a573d6000803e3d6000fd5b505050506129ea8a8a8a858561485a565b60007f00000000000000000000000000000000000000000000000000000000000000006001600160a01b03166133c15750600090565b60007f00000000000000000000000000000000000000000000000000000000000000006001600160a01b03166399248ea76040518163ffffffff1660e01b815260040160206040518083038186803b15801561341c57600080fd5b505afa158015613430573d6000803e3d6000fd5b505050506040513d601f19601f8201168201806040525081019061345491906157a2565b90507f00000000000000000000000000000000000000000000000000000000000000006001600160a01b0316631c39b6726040518163ffffffff1660e01b815260040160206040518083038186803b1580156134af57600080fd5b505afa1580156134c3573d6000803e3d6000fd5b505050506040513d601f19601f820116820180604052508101906134e791906157a2565b6001600160a01b0316816001600160a01b0316141561357757806001600160a01b031663312f6b836040518163ffffffff1660e01b815260040160206040518083038186803b15801561353957600080fd5b505afa15801561354d573d6000803e3d6000fd5b505050506040513d601f19601f8201168201806040525081019061357191906157a2565b91505090565b919050565b6135888b8b8b8b610b22565b6135988b888888888888886131ba565b5050505050505050505050565b60006135af613a3c565b905060008460021415613660576040516334924edb60e21b81526001600160a01b0385811660048301527f0000000000000000000000000000000000000000000000000000000000000000169063d2493b6c9060240160606040518083038186803b15801561361d57600080fd5b505afa158015613631573d6000803e3d6000fd5b505050506040513d601f19601f8201168201806040525081019061365591906156e4565b509091506136ff9050565b6040516334924edb60e21b81526001600160a01b0385811660048301527f0000000000000000000000000000000000000000000000000000000000000000169063d2493b6c9060240160606040518083038186803b1580156136c157600080fd5b505afa1580156136d5573d6000803e3d6000fd5b505050506040513d601f19601f820116820180604052508101906136f991906156e4565b50909150505b610af1858585858561485a565b60008080808080876002141561387c5760007f00000000000000000000000000000000000000000000000000000000000000006001600160a01b03166350d25bcd6040518163ffffffff1660e01b815260040160206040518083038186803b15801561377757600080fd5b505afa15801561378b573d6000803e3d6000fd5b505050506040513d601f19601f820116820180604052508101906137af9190615731565b604051632fe4a15f60e21b81526001600160a01b038a811660048301529192507f00000000000000000000000000000000000000000000000000000000000000009091169063bf92857c9060240160c06040518083038186803b15801561381557600080fd5b505afa158015613829573d6000803e3d6000fd5b505050506040513d601f19601f8201168201806040525081019061384d9190615cc2565b670de0b6b3a76400009587028690049c509386028590049a509190940292909204965091945092509050613925565b604051632fe4a15f60e21b81526001600160a01b0388811660048301527f0000000000000000000000000000000000000000000000000000000000000000169063bf92857c9060240160c06040518083038186803b1580156138dd57600080fd5b505afa1580156138f1573d6000803e3d6000fd5b505050506040513d601f19601f820116820180604052508101906139159190615cc2565b949a509298509096509450925090505b9295509295509295565b6139376139c3565b6001600160a01b03811661399c5760405162461bcd60e51b815260206004820152602660248201527f4f776e61626c653a206e6577206f776e657220697320746865207a65726f206160448201526564647265737360d01b6064820152608401612717565b6139a581613c09565b50565b6139b38a8a8a6124f9565b6129ea8a888888888888886131ba565b6139cb613a3c565b6001600160a01b03166139e66033546001600160a01b031690565b6001600160a01b0316146117f85760405162461bcd60e51b815260206004820181905260248201527f4f776e61626c653a2063616c6c6572206973206e6f7420746865206f776e65726044820152606401612717565b6000613a46614a91565b905090565b6040516001600160a01b0380851660248301528316604482015260648101829052610fd29085906323b872dd60e01b906084015b60408051601f198184030181529190526020810180516001600160e01b03166001600160e01b031990931692909217909152614ac5565b6040516001600160a01b038316602482015260448101829052613ae690849063a9059cbb60e01b90606401613a7f565b505050565b60405163b3596f0760e01b81526001600160a01b038381166004830152600091829186169063b3596f079060240160206040518083038186803b158015613b3157600080fd5b505afa158015613b45573d6000803e3d6000fd5b505050506040513d601f19601f82011682018060405250810190613b699190615731565b90506000846001600160a01b031663313ce5676040518163ffffffff1660e01b815260040160206040518083038186803b158015613ba657600080fd5b505afa158015613bba573d6000803e3d6000fd5b505050506040513d601f19601f82011682018060405250810190613bde91906158de565b9050613beb81600a615df0565b613bf583866158fb565b613bff919061591a565b9695505050505050565b603380546001600160a01b038381166001600160a01b0319831681179093556040519116919082907f8be0079c531659141344cd1fd0a4f28419497f9722a3daafe3b4186f6b6457e090600090a35050565b7f00000000000000000000000000000000000000000000000000000000000000006001600160a01b031615613e415760007f00000000000000000000000000000000000000000000000000000000000000006001600160a01b031663d1946dbc6040518163ffffffff1660e01b815260040160006040518083038186803b158015613ce557600080fd5b505afa158015613cf9573d6000803e3d6000fd5b505050506040513d6000823e601f3d908101601f19168201604052613d219190810190615dff565b905060005b8151811015613e3e576000828281518110613d4357613d436157d5565b6020908102919091010151604051636eb1769f60e11b81523060048201526001600160a01b037f0000000000000000000000000000000000000000000000000000000000000000811660248301529192509082169063dd62ed3e9060440160206040518083038186803b158015613db957600080fd5b505afa158015613dcd573d6000803e3d6000fd5b505050506040513d601f19601f82011682018060405250810190613df19190615731565b613e2b57613e2b6001600160a01b0382167f0000000000000000000000000000000000000000000000000000000000000000600019614b97565b5080613e3681615af2565b915050613d26565b50505b7f00000000000000000000000000000000000000000000000000000000000000006001600160a01b0316156117f85760007f00000000000000000000000000000000000000000000000000000000000000006001600160a01b031663d1946dbc6040518163ffffffff1660e01b815260040160006040518083038186803b158015613ecb57600080fd5b505afa158015613edf573d6000803e3d6000fd5b505050506040513d6000823e601f3d908101601f19168201604052613f079190810190615dff565b905060005b81518110156131a4576000828281518110613f2957613f296157d5565b6020908102919091010151604051636eb1769f60e11b81523060048201526001600160a01b037f0000000000000000000000000000000000000000000000000000000000000000811660248301529192509082169063dd62ed3e9060440160206040518083038186803b158015613f9f57600080fd5b505afa158015613fb3573d6000803e3d6000fd5b505050506040513d601f19601f82011682018060405250810190613fd79190615731565b614011576140116001600160a01b0382167f0000000000000000000000000000000000000000000000000000000000000000600019614b97565b508061401c81615af2565b915050613f0c565b604080516000808252602082019092526001600160a01b03841690839060405161404e9190615e34565b60006040518083038185875af1925050503d806000811461408b576040519150601f19603f3d011682016040523d82523d6000602084013e614090565b606091505b5050905080613ae65760405162461bcd60e51b815260206004820152601360248201527211551217d514905394d1915497d19052531151606a1b6044820152606401612717565b600060028414614107577f0000000000000000000000000000000000000000000000000000000000000000614129565b7f00000000000000000000000000000000000000000000000000000000000000005b9050826000198114156141b2576040516370a0823160e01b81526001600160a01b0384811660048301528316906370a082319060240160206040518083038186803b15801561417757600080fd5b505afa15801561418b573d6000803e3d6000fd5b505050506040513d601f19601f820116820180604052508101906141af9190615731565b90505b6141c76001600160a01b038316843084613a4b565b846002141561429857604051631a4ca37b60e21b81526001600160a01b037f000000000000000000000000000000000000000000000000000000000000000016906369328dec90614240907f00000000000000000000000000000000000000000000000000000000000000009085903090600401615e50565b602060405180830381600087803b15801561425a57600080fd5b505af115801561426e573d6000803e3d6000fd5b505050506040513d601f19601f820116820180604052508101906142929190615731565b5061435c565b604051631a4ca37b60e21b81526001600160a01b037f000000000000000000000000000000000000000000000000000000000000000016906369328dec90614308907f00000000000000000000000000000000000000000000000000000000000000009085903090600401615e50565b602060405180830381600087803b15801561432257600080fd5b505af1158015614336573d6000803e3d6000fd5b505050506040513d601f19601f8201168201806040525081019061435a9190615731565b505b604051632e1a7d4d60e01b8152600481018290527f00000000000000000000000000000000000000000000000000000000000000006001600160a01b031690632e1a7d4d90602401600060405180830381600087803b1580156143be57600080fd5b505af11580156143d2573d6000803e3d6000fd5b505050506143e08382614024565b807f00000000000000000000000000000000000000000000000000000000000000006001600160a01b0316846001600160a01b03167f457f950b75085c30ff780acd57bde642ff1316cc4aad9f286af2c1ffc4163a7888604051611b3e91815260200190565b6000806144e47f000000000000000000000000000000000000000000000000000000000000000086866001600160a01b03166318160ddd6040518163ffffffff1660e01b815260040160206040518083038186803b1580156144a757600080fd5b505afa1580156144bb573d6000803e3d6000fd5b505050506040513d601f19601f820116820180604052508101906144df9190615731565b613aeb565b604051631652e7b760e01b81526001600160a01b0386811660048301529192506000917f00000000000000000000000000000000000000000000000000000000000000001690631652e7b79060240160606040518083038186803b15801561454b57600080fd5b505afa15801561455f573d6000803e3d6000fd5b505050506040513d601f19601f820116820180604052508101906145839190615e73565b5091508290506145bc7f0000000000000000000000000000000000000000000000000000000000000000866144df856301e133806158fb565b613bf590670de0b6b3a76400006158fb565b604051636657732f60e01b81526001600160a01b03828116600483015260009182917f00000000000000000000000000000000000000000000000000000000000000001690636657732f9060240160006040518083038186803b15801561463457600080fd5b505afa158015614648573d6000803e3d6000fd5b505050506040513d6000823e601f3d908101601f191682016040526146709190810190615dff565b905060006146d27f000000000000000000000000000000000000000000000000000000000000000086866001600160a01b03166318160ddd6040518163ffffffff1660e01b815260040160206040518083038186803b1580156144a757600080fd5b90506000805b835181101561481f5760008482815181106146f5576146f56157d5565b6020908102919091010151604051630fdfe97560e31b81526001600160a01b03898116600483015280831660248301529192506000917f00000000000000000000000000000000000000000000000000000000000000001690637eff4ba89060440160806040518083038186803b15801561476f57600080fd5b505afa158015614783573d6000803e3d6000fd5b505050506040513d601f19601f820116820180604052508101906147a79190615ea1565b5050915050846147e27f000000000000000000000000000000000000000000000000000000000000000084846301e133806144df91906158fb565b6147f490670de0b6b3a76400006158fb565b6147fe919061591a565b6148089085615caa565b93505050808061481790615af2565b9150506146d8565b50925050505b92915050565b600054610100900460ff166148525760405162461bcd60e51b815260040161271790615ed7565b6117f8614cbb565b826000198114156148e1576040516370a0823160e01b81526001600160a01b0384811660048301528316906370a082319060240160206040518083038186803b1580156148a657600080fd5b505afa1580156148ba573d6000803e3d6000fd5b505050506040513d601f19601f820116820180604052508101906148de9190615731565b90505b6148f66001600160a01b038316843084613a4b565b85600214156149a757604051631a4ca37b60e21b81526001600160a01b037f000000000000000000000000000000000000000000000000000000000000000016906369328dec9061494f90889085908890600401615e50565b602060405180830381600087803b15801561496957600080fd5b505af115801561497d573d6000803e3d6000fd5b505050506040513d601f19601f820116820180604052508101906149a19190615731565b50614a4b565b604051631a4ca37b60e21b81526001600160a01b037f000000000000000000000000000000000000000000000000000000000000000016906369328dec906149f790889085908890600401615e50565b602060405180830381600087803b158015614a1157600080fd5b505af1158015614a25573d6000803e3d6000fd5b505050506040513d601f19601f82011682018060405250810190614a499190615731565b505b80856001600160a01b0316846001600160a01b03167f457f950b75085c30ff780acd57bde642ff1316cc4aad9f286af2c1ffc4163a78896040516129be91815260200190565b600060183610801590614aae57506065546001600160a01b031633145b15614ac0575060131936013560601c90565b503390565b6000614b1a826040518060400160405280602081526020017f5361666545524332303a206c6f772d6c6576656c2063616c6c206661696c6564815250856001600160a01b0316614cf29092919063ffffffff16565b805190915015613ae65780806020019051810190614b389190615f22565b613ae65760405162461bcd60e51b815260206004820152602a60248201527f5361666545524332303a204552433230206f7065726174696f6e20646964206e6044820152691bdd081cdd58d8d9595960b21b6064820152608401612717565b801580614c205750604051636eb1769f60e11b81523060048201526001600160a01b03838116602483015284169063dd62ed3e9060440160206040518083038186803b158015614be657600080fd5b505afa158015614bfa573d6000803e3d6000fd5b505050506040513d601f19601f82011682018060405250810190614c1e9190615731565b155b614c8b5760405162461bcd60e51b815260206004820152603660248201527f5361666545524332303a20617070726f76652066726f6d206e6f6e2d7a65726f60448201527520746f206e6f6e2d7a65726f20616c6c6f77616e636560501b6064820152608401612717565b6040516001600160a01b038316602482015260448101829052613ae690849063095ea7b360e01b90606401613a7f565b600054610100900460ff16614ce25760405162461bcd60e51b815260040161271790615ed7565b6117f8614ced613a3c565b613c09565b60606117b8848460008585600080866001600160a01b03168587604051614d199190615e34565b60006040518083038185875af1925050503d8060008114614d56576040519150601f19603f3d011682016040523d82523d6000602084013e614d5b565b606091505b5091509150614d6c87838387614d77565b979650505050505050565b60608315614de3578251614ddc576001600160a01b0385163b614ddc5760405162461bcd60e51b815260206004820152601d60248201527f416464726573733a2063616c6c20746f206e6f6e2d636f6e74726163740000006044820152606401612717565b50816117b8565b6117b88383815115614df85781518083602001fd5b8060405162461bcd60e51b8152600401612717919061501e565b6040518060a0016040528060006001600160a01b0316815260200160608152602001600060ff16815260200160008152602001600081525090565b6001600160a01b03811681146139a557600080fd5b600080600080600060a08688031215614e7a57600080fd5b8535945060208601359350604086013592506060860135614e9a81614e4d565b949793965091946080013592915050565b600060208284031215614ebd57600080fd5b8135614ec881614e4d565b9392505050565b60008060008060808587031215614ee557600080fd5b843593506020850135614ef781614e4d565b93969395505050506040820135916060013590565b60008060008060008060c08789031215614f2557600080fd5b863595506020870135614f3781614e4d565b9450604087013593506060870135614f4e81614e4d565b9598949750929560808101359460a0909101359350915050565b60008060008060008060c08789031215614f8157600080fd5b863595506020870135614f9381614e4d565b945060408701359350606087013592506080870135614fb181614e4d565b8092505060a087013590509295509295509295565b60005b83811015614fe1578181015183820152602001614fc9565b83811115610fd25750506000910152565b6000815180845261500a816020860160208601614fc6565b601f01601f19169290920160200192915050565b602081526000614ec86020830184614ff2565b6000806000806060858703121561504757600080fd5b84359350602085013567ffffffffffffffff8082111561506657600080fd5b818701915087601f83011261507a57600080fd5b81358181111561508957600080fd5b8860208260051b850101111561509e57600080fd5b60208301955080945050505060408501356150b881614e4d565b939692955090935050565b60006020808301818452808551808352604092508286019150828160051b87010184880160005b8381101561515857888303603f19018552815180516001600160a01b031684528781015160a08986018190529061512382870182614ff2565b838a015160ff16878b0152606080850151908801526080938401519390960192909252505093860193908601906001016150ea565b509098975050505050505050565b60ff811681146139a557600080fd5b60008060008060008060008060006101208a8c03121561519457600080fd5b893561519f81614e4d565b985060208a0135975060408a0135965060608a0135955060808a0135945060a08a0135935060c08a01356151d281615166565b8093505060e08a013591506101008a013590509295985092959850929598565b600080600080600060a0868803121561520a57600080fd5b85359450602086013561521c81614e4d565b94979496505050506040830135926060810135926080909101359150565b60008060006060848603121561524f57600080fd5b83359250602084013561526181614e4d565b929592945050506040919091013590565b600080600080600080600060e0888a03121561528d57600080fd5b8735965060208801359550604088013594506060880135935060808801356152b481615166565b9699959850939692959460a0840135945060c09093013592915050565b600080600080600080600080610100898b0312156152ee57600080fd5b88356152f981614e4d565b97506020890135965060408901359550606089013594506080890135935060a089013561532581615166565b979a969950949793969295929450505060c08201359160e0013590565b60008060006060848603121561535757600080fd5b505081359360208301359350604090920135919050565b6000806040838503121561538157600080fd5b82359150602083013561539381614e4d565b809150509250929050565b6000806000806000806000806000806101408b8d0312156153be57600080fd5b8a356153c981614e4d565b995060208b0135985060408b01356153e081614e4d565b975060608b0135965060808b0135955060a08b0135945060c08b0135935060e08b013561540c81615166565b809350506101008b013591506101208b013590509295989b9194979a5092959850565b60006020828403121561544157600080fd5b5035919050565b634e487b7160e01b600052602160045260246000fd5b60006020808301818452808551808352604092508286019150828160051b8701018488016000805b848110156154f957603f198a850301865282516060815160048082106154b957634e487b7160e01b865260218152602486fd5b508652818a01518a87018290526154d282880182614ff2565b928a01516001600160a01b0316968a01969096525095880195935091870191600101615486565b50919998505050505050505050565b6000806000806000806000806000806101408b8d03121561552857600080fd5b8a35995060208b013561553a81614e4d565b985060408b0135975060608b0135965060808b0135955060a08b0135945060c08b0135935060e08b013561540c81615166565b6000806040838503121561558057600080fd5b50508035926020909101359150565b600080600080600080600080610100898b0312156155ac57600080fd5b8835975060208901356155be81614e4d565b965060408901359550606089013594506080890135935060a089013561532581615166565b60008060008060008060008060008060006101608c8e03121561560557600080fd5b8b359a5060208c013561561781614e4d565b995060408c0135985060608c0135975060808c013561563581614e4d565b965060a08c0135955060c08c0135945060e08c013593506101008c013561565b81615166565b809350506101208c013591506101408c013590509295989b509295989b9093969950565b6000806000806000806000806000806101408b8d03121561569f57600080fd5b8a35995060208b0135985060408b0135975060608b01356156bf81614e4d565b965060808b0135955060a08b0135945060c08b0135935060e08b013561540c81615166565b6000806000606084860312156156f957600080fd5b835161570481614e4d565b602085015190935061571581614e4d565b604085015190925061572681614e4d565b809150509250925092565b60006020828403121561574357600080fd5b5051919050565b6001600160a01b03948516815260208101939093526040830191909152909116606082015260800190565b634e487b7160e01b600052601160045260246000fd5b60008282101561579d5761579d615775565b500390565b6000602082840312156157b457600080fd5b8151614ec881614e4d565b634e487b7160e01b600052604160045260246000fd5b634e487b7160e01b600052603260045260246000fd5b6040805190810167ffffffffffffffff8111828210171561580e5761580e6157bf565b60405290565b604051601f8201601f1916810167ffffffffffffffff8111828210171561583d5761583d6157bf565b604052919050565b600082601f83011261585657600080fd5b815167ffffffffffffffff811115615870576158706157bf565b615883601f8201601f1916602001615814565b81815284602083860101111561589857600080fd5b6117b8826020830160208701614fc6565b6000602082840312156158bb57600080fd5b815167ffffffffffffffff8111156158d257600080fd5b6117b884828501615845565b6000602082840312156158f057600080fd5b8151614ec881615166565b600081600019048311821515161561591557615915615775565b500290565b60008261593757634e487b7160e01b600052601260045260246000fd5b500490565b6040808252810183905260008460608301825b8681101561597f57823561596281614e4d565b6001600160a01b031682526020928301929091019060010161594f565b506001600160a01b03949094166020939093019290925250909392505050565b600067ffffffffffffffff8211156159b9576159b96157bf565b5060051b60200190565b600082601f8301126159d457600080fd5b815160206159e96159e48361599f565b615814565b82815260059290921b84018101918181019086841115615a0857600080fd5b8286015b84811015615a2c578051615a1f81614e4d565b8352918301918301615a0c565b509695505050505050565b60008060408385031215615a4a57600080fd5b825167ffffffffffffffff80821115615a6257600080fd5b615a6e868387016159c3565b9350602091508185015181811115615a8557600080fd5b85019050601f81018613615a9857600080fd5b8051615aa66159e48261599f565b81815260059190911b82018301908381019088831115615ac557600080fd5b928401925b82841015615ae357835182529284019290840190615aca565b80955050505050509250929050565b6000600019821415615b0657615b06615775565b5060010190565b6001600160a01b03948516815260208101939093529216604082015261ffff909116606082015260800190565b6001600160a01b0395861681526020810194909452604084019290925261ffff166060830152909116608082015260a00190565b6001600160a01b0397881681529590961660208601526040850193909352606084019190915260ff16608083015260a082015260c081019190915260e00190565b60006020808385031215615bc257600080fd5b825167ffffffffffffffff80821115615bda57600080fd5b818501915085601f830112615bee57600080fd5b8151615bfc6159e48261599f565b81815260059190911b83018401908481019088831115615c1b57600080fd5b8585015b83811015615c9d57805185811115615c375760008081fd5b86016040818c03601f1901811315615c4f5760008081fd5b615c576157eb565b8983015188811115615c695760008081fd5b615c778e8c83870101615845565b8252509181015191615c8883614e4d565b808a0192909252508352918601918601615c1f565b5098975050505050505050565b60008219821115615cbd57615cbd615775565b500190565b60008060008060008060c08789031215615cdb57600080fd5b865195506020870151945060408701519350606087015192506080870151915060a087015190509295509295509295565b600181815b80851115615d47578160001904821115615d2d57615d2d615775565b80851615615d3a57918102915b93841c9390800290615d11565b509250929050565b600082615d5e57506001614825565b81615d6b57506000614825565b8160018114615d815760028114615d8b57615da7565b6001915050614825565b60ff841115615d9c57615d9c615775565b50506001821b614825565b5060208310610133831016604e8410600b8410161715615dca575081810a614825565b615dd48383615d0c565b8060001904821115615de857615de8615775565b029392505050565b6000614ec860ff841683615d4f565b600060208284031215615e1157600080fd5b815167ffffffffffffffff811115615e2857600080fd5b6117b8848285016159c3565b60008251615e46818460208701614fc6565b9190910192915050565b6001600160a01b0393841681526020810192909252909116604082015260600190565b600080600060608486031215615e8857600080fd5b8351925060208401519150604084015190509250925092565b60008060008060808587031215615eb757600080fd5b505082516020840151604085015160609095015191969095509092509050565b6020808252602b908201527f496e697469616c697a61626c653a20636f6e7472616374206973206e6f74206960408201526a6e697469616c697a696e6760a81b606082015260800190565b600060208284031215615f3457600080fd5b81518015158114614ec857600080fdfe49dd87b26edb1c92c93f83b092bd5a425c6bf7a562c0fed02f2576c49f477ba4a2646970667358221220c740a273979af33ca7a8347d549062037446fd04da47ad3f74484955d452212b64736f6c63430008090033",
  "devdoc": {
    "kind": "dev",
    "methods": {
      "constructor": {
        "custom:oz-upgrades-unsafe-allow": "constructor"
      },
      "getAllUserRewards(uint256,address[],address)": {
        "details": "Returns a list all rewards of a user, including already accrued and unrealized claimable rewards",
        "params": {
          "scaledBalanceTokens": "List of incentivized assets to check eligible distributions. It's used only for v3. It should be address of AToken or VariableDebtToken",
          "user": "The address of the user"
        },
        "returns": {
          "_0": "The list of reward data*"
        }
      },
      "getUserAccountData(uint256,address)": {
        "params": {
          "user": "The address of the user"
        },
        "returns": {
          "availableBorrows": "The borrowing power left of the user in USD",
          "currentLiquidationThreshold": "The liquidation threshold of the user",
          "healthFactor": "The current health factor of the user",
          "ltv": "The loan to value of The user",
          "totalCollateral": "The total collateral of the user in USD. The unit is 100000000",
          "totalDebt": "The total debt of the user in USD"
        }
      },
      "owner()": {
        "details": "Returns the address of the current owner."
      },
      "renounceOwnership()": {
        "details": "Leaves the contract without owner. It will not be possible to call `onlyOwner` functions anymore. Can only be called by the current owner. NOTE: Renouncing ownership will leave the contract without an owner, thereby removing any functionality that is only available to the owner."
      },
      "transferOwnership(address)": {
        "details": "Transfers ownership of the contract to a new account (`newOwner`). Can only be called by the current owner."
      }
    },
    "version": 1
  },
  "userdoc": {
    "kind": "user",
    "methods": {
      "approvePool()": {
        "notice": "If new assets are added into the pool, it needs to be called."
      },
      "borrow(uint256,address,uint256,uint256)": {
        "notice": "The user must approve the delegation to this SC for the asset's debtToken."
      },
      "borrowETHWithPermit(uint256,uint256,uint256,uint256,uint8,bytes32,bytes32)": {
        "notice": "It works for only v3."
      },
      "borrowWithPermit(address,uint256,uint256,uint256,uint256,uint8,bytes32,bytes32)": {
        "notice": "It works for only v3."
      },
      "getRewardAPRs(uint256,address)": {
        "notice": "The returned APRs are scaneld by 18"
      },
      "getUserAccountData(uint256,address)": {
        "notice": "Returns the user account data across all the reserves"
      },
      "isTrustedForwarder(address)": {
        "notice": "return if the forwarder is trusted to forward relayed transactions to us. the forwarder is required to verify the sender's signature, and verify the call is not a replay."
      },
      "repay(uint256,address,uint256,uint256)": {
        "notice": "The user must approve this SC for the asset."
      },
      "supply(uint256,address,uint256)": {
        "notice": "The user must approve this SC for the asset."
      },
      "supplyAndBorrowETHWithPermit(address,uint256,uint256,uint256,uint256,uint256,uint8,bytes32,bytes32)": {
        "notice": "It works for only v3."
      },
      "supplyAndBorrowWithPermit(address,uint256,address,uint256,uint256,uint256,uint256,uint8,bytes32,bytes32)": {
        "notice": "It works for only v3."
      },
      "supplyETHAndBorrowWithPermit(address,uint256,uint256,uint256,uint256,uint8,bytes32,bytes32)": {
        "notice": "It works for only v3."
      },
      "withdraw(uint256,address,uint256)": {
        "notice": "The user must approve this SC for the asset's aToken."
      }
    },
    "version": 1
  },
  "storageLayout": {
    "storage": [
      {
        "astId": 169,
        "contract": "contracts/AaveAdapter.sol:AaveAdapter",
        "label": "_initialized",
        "offset": 0,
        "slot": "0",
        "type": "t_uint8"
      },
      {
        "astId": 172,
        "contract": "contracts/AaveAdapter.sol:AaveAdapter",
        "label": "_initializing",
        "offset": 1,
        "slot": "0",
        "type": "t_bool"
      },
      {
        "astId": 1051,
        "contract": "contracts/AaveAdapter.sol:AaveAdapter",
        "label": "__gap",
        "offset": 0,
        "slot": "1",
        "type": "t_array(t_uint256)50_storage"
      },
      {
        "astId": 41,
        "contract": "contracts/AaveAdapter.sol:AaveAdapter",
        "label": "_owner",
        "offset": 0,
        "slot": "51",
        "type": "t_address"
      },
      {
        "astId": 161,
        "contract": "contracts/AaveAdapter.sol:AaveAdapter",
        "label": "__gap",
        "offset": 0,
        "slot": "52",
        "type": "t_array(t_uint256)49_storage"
      },
      {
        "astId": 5230,
        "contract": "contracts/AaveAdapter.sol:AaveAdapter",
        "label": "trustedForwarder",
        "offset": 0,
        "slot": "101",
        "type": "t_address"
      }
    ],
    "types": {
      "t_address": {
        "encoding": "inplace",
        "label": "address",
        "numberOfBytes": "20"
      },
      "t_array(t_uint256)49_storage": {
        "base": "t_uint256",
        "encoding": "inplace",
        "label": "uint256[49]",
        "numberOfBytes": "1568"
      },
      "t_array(t_uint256)50_storage": {
        "base": "t_uint256",
        "encoding": "inplace",
        "label": "uint256[50]",
        "numberOfBytes": "1600"
      },
      "t_bool": {
        "encoding": "inplace",
        "label": "bool",
        "numberOfBytes": "1"
      },
      "t_uint256": {
        "encoding": "inplace",
        "label": "uint256",
        "numberOfBytes": "32"
      },
      "t_uint8": {
        "encoding": "inplace",
        "label": "uint8",
        "numberOfBytes": "1"
      }
    }
  }
}