{
  "address": "0x408D910C9b511C92b163a4Da789AB3882A763F72",
  "abi": [
    {
      "inputs": [
        {
          "internalType": "address",
          "name": "_v2DataProvider",
          "type": "address"
        },
        {
          "internalType": "address",
          "name": "_v3AddressesProvider",
          "type": "address"
        },
        {
          "internalType": "address",
          "name": "_wnative",
          "type": "address"
        },
        {
          "internalType": "address",
          "name": "_v2BaseCurrencyPriceSource",
          "type": "address"
        }
      ],
      "stateMutability": "nonpayable",
      "type": "constructor"
    },
    {
      "anonymous": false,
      "inputs": [
        {
          "indexed": false,
          "internalType": "uint8",
          "name": "version",
          "type": "uint8"
        }
      ],
      "name": "Initialized",
      "type": "event"
    },
    {
      "anonymous": false,
      "inputs": [
        {
          "indexed": true,
          "internalType": "address",
          "name": "previousOwner",
          "type": "address"
        },
        {
          "indexed": true,
          "internalType": "address",
          "name": "newOwner",
          "type": "address"
        }
      ],
      "name": "OwnershipTransferred",
      "type": "event"
    },
    {
      "inputs": [],
      "name": "V2_ADDRESSES_PROVIDER",
      "outputs": [
        {
          "internalType": "contract ILendingPoolAddressesProvider",
          "name": "",
          "type": "address"
        }
      ],
      "stateMutability": "view",
      "type": "function"
    },
    {
      "inputs": [],
      "name": "V2_BASE_CURRENCY_PRICE_SOURCE",
      "outputs": [
        {
          "internalType": "contract IChainlinkAggregator",
          "name": "",
          "type": "address"
        }
      ],
      "stateMutability": "view",
      "type": "function"
    },
    {
      "inputs": [],
      "name": "V2_DATA_PROVIDER",
      "outputs": [
        {
          "internalType": "contract IAaveProtocolDataProvider",
          "name": "",
          "type": "address"
        }
      ],
      "stateMutability": "view",
      "type": "function"
    },
    {
      "inputs": [],
      "name": "V2_LENDING_POOL",
      "outputs": [
        {
          "internalType": "contract ILendingPool",
          "name": "",
          "type": "address"
        }
      ],
      "stateMutability": "view",
      "type": "function"
    },
    {
      "inputs": [],
      "name": "V2_REWARDS_CONTROLLER",
      "outputs": [
        {
          "internalType": "contract IAaveIncentivesController",
          "name": "",
          "type": "address"
        }
      ],
      "stateMutability": "view",
      "type": "function"
    },
    {
      "inputs": [],
      "name": "V2_aWNATIVE",
      "outputs": [
        {
          "internalType": "address",
          "name": "",
          "type": "address"
        }
      ],
      "stateMutability": "view",
      "type": "function"
    },
    {
      "inputs": [],
      "name": "V3_ADDRESSES_PROVIDER",
      "outputs": [
        {
          "internalType": "contract IPoolAddressesProvider",
          "name": "",
          "type": "address"
        }
      ],
      "stateMutability": "view",
      "type": "function"
    },
    {
      "inputs": [],
      "name": "V3_DATA_PROVIDER",
      "outputs": [
        {
          "internalType": "contract IPoolDataProvider",
          "name": "",
          "type": "address"
        }
      ],
      "stateMutability": "view",
      "type": "function"
    },
    {
      "inputs": [],
      "name": "V3_POOL",
      "outputs": [
        {
          "internalType": "contract IPool",
          "name": "",
          "type": "address"
        }
      ],
      "stateMutability": "view",
      "type": "function"
    },
    {
      "inputs": [],
      "name": "V3_REWARDS_CONTROLLER",
      "outputs": [
        {
          "internalType": "contract IRewardsController",
          "name": "",
          "type": "address"
        }
      ],
      "stateMutability": "view",
      "type": "function"
    },
    {
      "inputs": [],
      "name": "V3_aWNATIVE",
      "outputs": [
        {
          "internalType": "address",
          "name": "",
          "type": "address"
        }
      ],
      "stateMutability": "view",
      "type": "function"
    },
    {
      "inputs": [],
      "name": "WNATIVE",
      "outputs": [
        {
          "internalType": "contract IWETH",
          "name": "",
          "type": "address"
        }
      ],
      "stateMutability": "view",
      "type": "function"
    },
    {
      "inputs": [],
      "name": "approvePool",
      "outputs": [],
      "stateMutability": "nonpayable",
      "type": "function"
    },
    {
      "inputs": [
        {
          "internalType": "uint256",
          "name": "version",
          "type": "uint256"
        },
        {
          "internalType": "address",
          "name": "asset",
          "type": "address"
        },
        {
          "internalType": "uint256",
          "name": "amount",
          "type": "uint256"
        },
        {
          "internalType": "uint256",
          "name": "interestRateMode",
          "type": "uint256"
        }
      ],
      "name": "borrow",
      "outputs": [],
      "stateMutability": "nonpayable",
      "type": "function"
    },
    {
      "inputs": [
        {
          "internalType": "uint256",
          "name": "version",
          "type": "uint256"
        },
        {
          "internalType": "uint256",
          "name": "amount",
          "type": "uint256"
        },
        {
          "internalType": "uint256",
          "name": "interestRateMode",
          "type": "uint256"
        }
      ],
      "name": "borrowETH",
      "outputs": [],
      "stateMutability": "nonpayable",
      "type": "function"
    },
    {
      "inputs": [
        {
          "internalType": "uint256",
          "name": "amount",
          "type": "uint256"
        },
        {
          "internalType": "uint256",
          "name": "interestRateMode",
          "type": "uint256"
        },
        {
          "internalType": "uint256",
          "name": "permitAmount",
          "type": "uint256"
        },
        {
          "internalType": "uint256",
          "name": "permitDeadline",
          "type": "uint256"
        },
        {
          "internalType": "uint8",
          "name": "permitV",
          "type": "uint8"
        },
        {
          "internalType": "bytes32",
          "name": "permitR",
          "type": "bytes32"
        },
        {
          "internalType": "bytes32",
          "name": "permitS",
          "type": "bytes32"
        }
      ],
      "name": "borrowETHWithPermit",
      "outputs": [],
      "stateMutability": "nonpayable",
      "type": "function"
    },
    {
      "inputs": [
        {
          "internalType": "address",
          "name": "asset",
          "type": "address"
        },
        {
          "internalType": "uint256",
          "name": "amount",
          "type": "uint256"
        },
        {
          "internalType": "uint256",
          "name": "interestRateMode",
          "type": "uint256"
        },
        {
          "internalType": "uint256",
          "name": "permitAmount",
          "type": "uint256"
        },
        {
          "internalType": "uint256",
          "name": "permitDeadline",
          "type": "uint256"
        },
        {
          "internalType": "uint8",
          "name": "permitV",
          "type": "uint8"
        },
        {
          "internalType": "bytes32",
          "name": "permitR",
          "type": "bytes32"
        },
        {
          "internalType": "bytes32",
          "name": "permitS",
          "type": "bytes32"
        }
      ],
      "name": "borrowWithPermit",
      "outputs": [],
      "stateMutability": "nonpayable",
      "type": "function"
    },
    {
      "inputs": [],
      "name": "getAllReservesTokens",
      "outputs": [
        {
          "components": [
            {
              "internalType": "enum VERSION",
              "name": "version",
              "type": "uint8"
            },
            {
              "internalType": "string",
              "name": "symbol",
              "type": "string"
            },
            {
              "internalType": "address",
              "name": "tokenAddress",
              "type": "address"
            }
          ],
          "internalType": "struct TokenDataEx[]",
          "name": "tokens",
          "type": "tuple[]"
        }
      ],
      "stateMutability": "view",
      "type": "function"
    },
    {
      "inputs": [
        {
          "internalType": "uint256",
          "name": "version",
          "type": "uint256"
        },
        {
          "internalType": "address[]",
          "name": "assets",
          "type": "address[]"
        },
        {
          "internalType": "address",
          "name": "user",
          "type": "address"
        }
      ],
      "name": "getAllUserRewards",
      "outputs": [
        {
          "internalType": "address[]",
          "name": "",
          "type": "address[]"
        },
        {
          "internalType": "uint256[]",
          "name": "",
          "type": "uint256[]"
        }
      ],
      "stateMutability": "view",
      "type": "function"
    },
    {
      "inputs": [
        {
          "internalType": "uint256",
          "name": "version",
          "type": "uint256"
        },
        {
          "internalType": "address",
          "name": "user",
          "type": "address"
        }
      ],
      "name": "getUserAccountData",
      "outputs": [
        {
          "internalType": "uint256",
          "name": "totalCollateral",
          "type": "uint256"
        },
        {
          "internalType": "uint256",
          "name": "totalDebt",
          "type": "uint256"
        },
        {
          "internalType": "uint256",
          "name": "availableBorrows",
          "type": "uint256"
        },
        {
          "internalType": "uint256",
          "name": "currentLiquidationThreshold",
          "type": "uint256"
        },
        {
          "internalType": "uint256",
          "name": "ltv",
          "type": "uint256"
        },
        {
          "internalType": "uint256",
          "name": "healthFactor",
          "type": "uint256"
        }
      ],
      "stateMutability": "view",
      "type": "function"
    },
    {
      "inputs": [
        {
          "internalType": "address",
          "name": "_biconomy",
          "type": "address"
        }
      ],
      "name": "initialize",
      "outputs": [],
      "stateMutability": "nonpayable",
      "type": "function"
    },
    {
      "inputs": [
        {
          "internalType": "address",
          "name": "forwarder",
          "type": "address"
        }
      ],
      "name": "isTrustedForwarder",
      "outputs": [
        {
          "internalType": "bool",
          "name": "",
          "type": "bool"
        }
      ],
      "stateMutability": "view",
      "type": "function"
    },
    {
      "inputs": [],
      "name": "owner",
      "outputs": [
        {
          "internalType": "address",
          "name": "",
          "type": "address"
        }
      ],
      "stateMutability": "view",
      "type": "function"
    },
    {
      "inputs": [],
      "name": "renounceOwnership",
      "outputs": [],
      "stateMutability": "nonpayable",
      "type": "function"
    },
    {
      "inputs": [
        {
          "internalType": "uint256",
          "name": "version",
          "type": "uint256"
        },
        {
          "internalType": "address",
          "name": "asset",
          "type": "address"
        },
        {
          "internalType": "uint256",
          "name": "amount",
          "type": "uint256"
        },
        {
          "internalType": "uint256",
          "name": "interestRateMode",
          "type": "uint256"
        }
      ],
      "name": "repay",
      "outputs": [],
      "stateMutability": "nonpayable",
      "type": "function"
    },
    {
      "inputs": [
        {
          "internalType": "uint256",
          "name": "version",
          "type": "uint256"
        },
        {
          "internalType": "address",
          "name": "repayAsset",
          "type": "address"
        },
        {
          "internalType": "uint256",
          "name": "repayAmount",
          "type": "uint256"
        },
        {
          "internalType": "uint256",
          "name": "repayInterestRateMode",
          "type": "uint256"
        },
        {
          "internalType": "address",
          "name": "withdrawalAsset",
          "type": "address"
        },
        {
          "internalType": "uint256",
          "name": "withdrawalAmount",
          "type": "uint256"
        }
      ],
      "name": "repayAndWithdraw",
      "outputs": [],
      "stateMutability": "nonpayable",
      "type": "function"
    },
    {
      "inputs": [
        {
          "internalType": "uint256",
          "name": "version",
          "type": "uint256"
        },
        {
          "internalType": "address",
          "name": "repayAsset",
          "type": "address"
        },
        {
          "internalType": "uint256",
          "name": "repayAmount",
          "type": "uint256"
        },
        {
          "internalType": "uint256",
          "name": "repayInterestRateMode",
          "type": "uint256"
        },
        {
          "internalType": "uint256",
          "name": "withdrawalAmount",
          "type": "uint256"
        }
      ],
      "name": "repayAndWithdrawETH",
      "outputs": [],
      "stateMutability": "nonpayable",
      "type": "function"
    },
    {
      "inputs": [
        {
          "internalType": "uint256",
          "name": "version",
          "type": "uint256"
        },
        {
          "internalType": "address",
          "name": "repayAsset",
          "type": "address"
        },
        {
          "internalType": "uint256",
          "name": "repayAmount",
          "type": "uint256"
        },
        {
          "internalType": "uint256",
          "name": "repayInterestRateMode",
          "type": "uint256"
        },
        {
          "internalType": "uint256",
          "name": "withdrawalAmount",
          "type": "uint256"
        },
        {
          "internalType": "uint256",
          "name": "permitAmount",
          "type": "uint256"
        },
        {
          "internalType": "uint256",
          "name": "permitDeadline",
          "type": "uint256"
        },
        {
          "internalType": "uint8",
          "name": "permitV",
          "type": "uint8"
        },
        {
          "internalType": "bytes32",
          "name": "permitR",
          "type": "bytes32"
        },
        {
          "internalType": "bytes32",
          "name": "permitS",
          "type": "bytes32"
        }
      ],
      "name": "repayAndWithdrawETHWithPermit",
      "outputs": [],
      "stateMutability": "nonpayable",
      "type": "function"
    },
    {
      "inputs": [
        {
          "internalType": "uint256",
          "name": "version",
          "type": "uint256"
        },
        {
          "internalType": "address",
          "name": "repayAsset",
          "type": "address"
        },
        {
          "internalType": "uint256",
          "name": "repayAmount",
          "type": "uint256"
        },
        {
          "internalType": "uint256",
          "name": "repayInterestRateMode",
          "type": "uint256"
        },
        {
          "internalType": "address",
          "name": "withdrawalAsset",
          "type": "address"
        },
        {
          "internalType": "uint256",
          "name": "withdrawalAmount",
          "type": "uint256"
        },
        {
          "internalType": "uint256",
          "name": "permitAmount",
          "type": "uint256"
        },
        {
          "internalType": "uint256",
          "name": "permitDeadline",
          "type": "uint256"
        },
        {
          "internalType": "uint8",
          "name": "permitV",
          "type": "uint8"
        },
        {
          "internalType": "bytes32",
          "name": "permitR",
          "type": "bytes32"
        },
        {
          "internalType": "bytes32",
          "name": "permitS",
          "type": "bytes32"
        }
      ],
      "name": "repayAndWithdrawWithPermit",
      "outputs": [],
      "stateMutability": "nonpayable",
      "type": "function"
    },
    {
      "inputs": [
        {
          "internalType": "uint256",
          "name": "version",
          "type": "uint256"
        },
        {
          "internalType": "uint256",
          "name": "amount",
          "type": "uint256"
        },
        {
          "internalType": "uint256",
          "name": "interestRateMode",
          "type": "uint256"
        }
      ],
      "name": "repayETH",
      "outputs": [],
      "stateMutability": "payable",
      "type": "function"
    },
    {
      "inputs": [
        {
          "internalType": "uint256",
          "name": "version",
          "type": "uint256"
        },
        {
          "internalType": "uint256",
          "name": "repayAmount",
          "type": "uint256"
        },
        {
          "internalType": "uint256",
          "name": "repayInterestRateMode",
          "type": "uint256"
        },
        {
          "internalType": "address",
          "name": "withdrawalAsset",
          "type": "address"
        },
        {
          "internalType": "uint256",
          "name": "withdrawalAmount",
          "type": "uint256"
        }
      ],
      "name": "repayETHAndWithdraw",
      "outputs": [],
      "stateMutability": "payable",
      "type": "function"
    },
    {
      "inputs": [
        {
          "internalType": "uint256",
          "name": "version",
          "type": "uint256"
        },
        {
          "internalType": "uint256",
          "name": "repayAmount",
          "type": "uint256"
        },
        {
          "internalType": "uint256",
          "name": "repayInterestRateMode",
          "type": "uint256"
        },
        {
          "internalType": "address",
          "name": "withdrawalAsset",
          "type": "address"
        },
        {
          "internalType": "uint256",
          "name": "withdrawalAmount",
          "type": "uint256"
        },
        {
          "internalType": "uint256",
          "name": "permitAmount",
          "type": "uint256"
        },
        {
          "internalType": "uint256",
          "name": "permitDeadline",
          "type": "uint256"
        },
        {
          "internalType": "uint8",
          "name": "permitV",
          "type": "uint8"
        },
        {
          "internalType": "bytes32",
          "name": "permitR",
          "type": "bytes32"
        },
        {
          "internalType": "bytes32",
          "name": "permitS",
          "type": "bytes32"
        }
      ],
      "name": "repayETHAndWithdrawWithPermit",
      "outputs": [],
      "stateMutability": "payable",
      "type": "function"
    },
    {
      "inputs": [
        {
          "internalType": "address",
          "name": "_biconomy",
          "type": "address"
        }
      ],
      "name": "setBiconomy",
      "outputs": [],
      "stateMutability": "nonpayable",
      "type": "function"
    },
    {
      "inputs": [
        {
          "internalType": "uint256",
          "name": "version",
          "type": "uint256"
        },
        {
          "internalType": "address",
          "name": "asset",
          "type": "address"
        },
        {
          "internalType": "uint256",
          "name": "amount",
          "type": "uint256"
        }
      ],
      "name": "supply",
      "outputs": [],
      "stateMutability": "nonpayable",
      "type": "function"
    },
    {
      "inputs": [
        {
          "internalType": "uint256",
          "name": "version",
          "type": "uint256"
        },
        {
          "internalType": "address",
          "name": "supplyAsset",
          "type": "address"
        },
        {
          "internalType": "uint256",
          "name": "supplyAmount",
          "type": "uint256"
        },
        {
          "internalType": "address",
          "name": "borrowAsset",
          "type": "address"
        },
        {
          "internalType": "uint256",
          "name": "borrowAmount",
          "type": "uint256"
        },
        {
          "internalType": "uint256",
          "name": "borrowInterestRateMode",
          "type": "uint256"
        }
      ],
      "name": "supplyAndBorrow",
      "outputs": [],
      "stateMutability": "nonpayable",
      "type": "function"
    },
    {
      "inputs": [
        {
          "internalType": "uint256",
          "name": "version",
          "type": "uint256"
        },
        {
          "internalType": "address",
          "name": "supplyAsset",
          "type": "address"
        },
        {
          "internalType": "uint256",
          "name": "supplyAmount",
          "type": "uint256"
        },
        {
          "internalType": "uint256",
          "name": "borrowAmount",
          "type": "uint256"
        },
        {
          "internalType": "uint256",
          "name": "borrowInterestRateMode",
          "type": "uint256"
        }
      ],
      "name": "supplyAndBorrowETH",
      "outputs": [],
      "stateMutability": "nonpayable",
      "type": "function"
    },
    {
      "inputs": [
        {
          "internalType": "address",
          "name": "supplyAsset",
          "type": "address"
        },
        {
          "internalType": "uint256",
          "name": "supplyAmount",
          "type": "uint256"
        },
        {
          "internalType": "uint256",
          "name": "borrowAmount",
          "type": "uint256"
        },
        {
          "internalType": "uint256",
          "name": "borrowInterestRateMode",
          "type": "uint256"
        },
        {
          "internalType": "uint256",
          "name": "permitAmount",
          "type": "uint256"
        },
        {
          "internalType": "uint256",
          "name": "permitDeadline",
          "type": "uint256"
        },
        {
          "internalType": "uint8",
          "name": "permitV",
          "type": "uint8"
        },
        {
          "internalType": "bytes32",
          "name": "permitR",
          "type": "bytes32"
        },
        {
          "internalType": "bytes32",
          "name": "permitS",
          "type": "bytes32"
        }
      ],
      "name": "supplyAndBorrowETHWithPermit",
      "outputs": [],
      "stateMutability": "nonpayable",
      "type": "function"
    },
    {
      "inputs": [
        {
          "internalType": "address",
          "name": "supplyAsset",
          "type": "address"
        },
        {
          "internalType": "uint256",
          "name": "supplyAmount",
          "type": "uint256"
        },
        {
          "internalType": "address",
          "name": "borrowAsset",
          "type": "address"
        },
        {
          "internalType": "uint256",
          "name": "borrowAmount",
          "type": "uint256"
        },
        {
          "internalType": "uint256",
          "name": "borrowInterestRateMode",
          "type": "uint256"
        },
        {
          "internalType": "uint256",
          "name": "permitAmount",
          "type": "uint256"
        },
        {
          "internalType": "uint256",
          "name": "permitDeadline",
          "type": "uint256"
        },
        {
          "internalType": "uint8",
          "name": "permitV",
          "type": "uint8"
        },
        {
          "internalType": "bytes32",
          "name": "permitR",
          "type": "bytes32"
        },
        {
          "internalType": "bytes32",
          "name": "permitS",
          "type": "bytes32"
        }
      ],
      "name": "supplyAndBorrowWithPermit",
      "outputs": [],
      "stateMutability": "nonpayable",
      "type": "function"
    },
    {
      "inputs": [
        {
          "internalType": "uint256",
          "name": "version",
          "type": "uint256"
        }
      ],
      "name": "supplyETH",
      "outputs": [],
      "stateMutability": "payable",
      "type": "function"
    },
    {
      "inputs": [
        {
          "internalType": "uint256",
          "name": "version",
          "type": "uint256"
        },
        {
          "internalType": "address",
          "name": "borrowAsset",
          "type": "address"
        },
        {
          "internalType": "uint256",
          "name": "borrowAmount",
          "type": "uint256"
        },
        {
          "internalType": "uint256",
          "name": "borrowInterestRateMode",
          "type": "uint256"
        }
      ],
      "name": "supplyETHAndBorrow",
      "outputs": [],
      "stateMutability": "payable",
      "type": "function"
    },
    {
      "inputs": [
        {
          "internalType": "address",
          "name": "borrowAsset",
          "type": "address"
        },
        {
          "internalType": "uint256",
          "name": "borrowAmount",
          "type": "uint256"
        },
        {
          "internalType": "uint256",
          "name": "borrowInterestRateMode",
          "type": "uint256"
        },
        {
          "internalType": "uint256",
          "name": "permitAmount",
          "type": "uint256"
        },
        {
          "internalType": "uint256",
          "name": "permitDeadline",
          "type": "uint256"
        },
        {
          "internalType": "uint8",
          "name": "permitV",
          "type": "uint8"
        },
        {
          "internalType": "bytes32",
          "name": "permitR",
          "type": "bytes32"
        },
        {
          "internalType": "bytes32",
          "name": "permitS",
          "type": "bytes32"
        }
      ],
      "name": "supplyETHAndBorrowWithPermit",
      "outputs": [],
      "stateMutability": "payable",
      "type": "function"
    },
    {
      "inputs": [
        {
          "internalType": "address",
          "name": "newOwner",
          "type": "address"
        }
      ],
      "name": "transferOwnership",
      "outputs": [],
      "stateMutability": "nonpayable",
      "type": "function"
    },
    {
      "inputs": [],
      "name": "trustedForwarder",
      "outputs": [
        {
          "internalType": "address",
          "name": "",
          "type": "address"
        }
      ],
      "stateMutability": "view",
      "type": "function"
    },
    {
      "inputs": [],
      "name": "versionRecipient",
      "outputs": [
        {
          "internalType": "string",
          "name": "",
          "type": "string"
        }
      ],
      "stateMutability": "pure",
      "type": "function"
    },
    {
      "inputs": [
        {
          "internalType": "uint256",
          "name": "version",
          "type": "uint256"
        },
        {
          "internalType": "address",
          "name": "asset",
          "type": "address"
        },
        {
          "internalType": "uint256",
          "name": "amount",
          "type": "uint256"
        }
      ],
      "name": "withdraw",
      "outputs": [],
      "stateMutability": "nonpayable",
      "type": "function"
    },
    {
      "inputs": [
        {
          "internalType": "uint256",
          "name": "version",
          "type": "uint256"
        },
        {
          "internalType": "uint256",
          "name": "amount",
          "type": "uint256"
        }
      ],
      "name": "withdrawETH",
      "outputs": [],
      "stateMutability": "nonpayable",
      "type": "function"
    },
    {
      "inputs": [
        {
          "internalType": "uint256",
          "name": "version",
          "type": "uint256"
        },
        {
          "internalType": "uint256",
          "name": "amount",
          "type": "uint256"
        },
        {
          "internalType": "uint256",
          "name": "permitAmount",
          "type": "uint256"
        },
        {
          "internalType": "uint256",
          "name": "permitDeadline",
          "type": "uint256"
        },
        {
          "internalType": "uint8",
          "name": "permitV",
          "type": "uint8"
        },
        {
          "internalType": "bytes32",
          "name": "permitR",
          "type": "bytes32"
        },
        {
          "internalType": "bytes32",
          "name": "permitS",
          "type": "bytes32"
        }
      ],
      "name": "withdrawETHWithPermit",
      "outputs": [],
      "stateMutability": "nonpayable",
      "type": "function"
    },
    {
      "inputs": [
        {
          "internalType": "uint256",
          "name": "version",
          "type": "uint256"
        },
        {
          "internalType": "address",
          "name": "asset",
          "type": "address"
        },
        {
          "internalType": "uint256",
          "name": "amount",
          "type": "uint256"
        },
        {
          "internalType": "uint256",
          "name": "permitAmount",
          "type": "uint256"
        },
        {
          "internalType": "uint256",
          "name": "permitDeadline",
          "type": "uint256"
        },
        {
          "internalType": "uint8",
          "name": "permitV",
          "type": "uint8"
        },
        {
          "internalType": "bytes32",
          "name": "permitR",
          "type": "bytes32"
        },
        {
          "internalType": "bytes32",
          "name": "permitS",
          "type": "bytes32"
        }
      ],
      "name": "withdrawWithPermit",
      "outputs": [],
      "stateMutability": "nonpayable",
      "type": "function"
    },
    {
      "stateMutability": "payable",
      "type": "receive"
    }
  ],
  "transactionHash": "0x9e4aa1ec24066e2db1fd07cd2a801a05c41e815d70aa6975d3918462bade9a8b",
  "args": [
    "0x0000000000000000000000000000000000000000",
    "0x1775ECC8362dB6CaB0c7A9C0957cF656A5276c29",
    "0x407287b03D1167593AF113d32093942be13A535f",
    "0x0000000000000000000000000000000000000000"
  ],
  "numDeployments": 5,
  "solcInputHash": "b72179b1d2839e6b8502b4649b766d66",
  "bytecode": "0x6102806040523480156200001257600080fd5b50604051620053243803806200532483398101604081905262000035916200066a565b6200003f6200058b565b60006001600160a01b038516620000585760006200005b565b60015b6001600160a01b03861660a05290508062000078576000620000ef565b60a0516001600160a01b0316630542975c6040518163ffffffff1660e01b815260040160206040518083038186803b158015620000b457600080fd5b505afa158015620000c9573d6000803e3d6000fd5b505050506040513d601f19601f82011682018060405250810190620000ef9190620006c7565b6001600160a01b0316608052806200010957600062000180565b6080516001600160a01b0316630261bf8b6040518163ffffffff1660e01b815260040160206040518083038186803b1580156200014557600080fd5b505afa1580156200015a573d6000803e3d6000fd5b505050506040513d601f19601f82011682018060405250810190620001809190620006c7565b6001600160a01b0390811660c052828116610100526000908516620001a7576000620001aa565b60015b6001600160a01b03861661012052905080620001c857600062000240565b610120516001600160a01b031663e860accb6040518163ffffffff1660e01b815260040160206040518083038186803b1580156200020557600080fd5b505afa1580156200021a573d6000803e3d6000fd5b505050506040513d601f19601f82011682018060405250810190620002409190620006c7565b6001600160a01b031661014052806200025b576000620002d3565b610120516001600160a01b031663026b1d5f6040518163ffffffff1660e01b815260040160206040518083038186803b1580156200029857600080fd5b505afa158015620002ad573d6000803e3d6000fd5b505050506040513d601f19601f82011682018060405250810190620002d39190620006c7565b6001600160a01b03908116610160528481166101a05260a05116620002fd5760008060006200037e565b60a0516040516334924edb60e21b81526001600160a01b0386811660048301529091169063d2493b6c9060240160606040518083038186803b1580156200034357600080fd5b505afa15801562000358573d6000803e3d6000fd5b505050506040513d601f19601f820116820180604052508101906200037e9190620006ec565b6001600160a01b03908116610200529081166101e0529081166101c0526101405116620003b057600080600062000432565b610140516040516334924edb60e21b81526001600160a01b0386811660048301529091169063d2493b6c9060240160606040518083038186803b158015620003f757600080fd5b505afa1580156200040c573d6000803e3d6000fd5b505050506040513d601f19601f82011682018060405250810190620004329190620006ec565b6001600160a01b039081166102605290811661024052908116610220526101c0511662000461576000620004d9565b6101c0516001600160a01b03166375d264136040518163ffffffff1660e01b815260040160206040518083038186803b1580156200049e57600080fd5b505afa158015620004b3573d6000803e3d6000fd5b505050506040513d601f19601f82011682018060405250810190620004d99190620006c7565b6001600160a01b0390811660e0526102205116620004f957600062000571565b610220516001600160a01b03166375d264136040518163ffffffff1660e01b815260040160206040518083038186803b1580156200053657600080fd5b505afa1580156200054b573d6000803e3d6000fd5b505050506040513d601f19601f82011682018060405250810190620005719190620006c7565b6001600160a01b0316610180525062000736945050505050565b600054610100900460ff1615620005f85760405162461bcd60e51b815260206004820152602760248201527f496e697469616c697a61626c653a20636f6e747261637420697320696e697469604482015266616c697a696e6760c81b606482015260840160405180910390fd5b60005460ff90811610156200064b576000805460ff191660ff9081179091556040519081527f7f26b83ff96e1f2b6a682f133852f6798a09c465da95921460cefb38474024989060200160405180910390a15b565b80516001600160a01b03811681146200066557600080fd5b919050565b600080600080608085870312156200068157600080fd5b6200068c856200064d565b93506200069c602086016200064d565b9250620006ac604086016200064d565b9150620006bc606086016200064d565b905092959194509250565b600060208284031215620006da57600080fd5b620006e5826200064d565b9392505050565b6000806000606084860312156200070257600080fd5b6200070d846200064d565b92506200071d602085016200064d565b91506200072d604085016200064d565b90509250925092565b60805160a05160c05160e05161010051610120516101405161016051610180516101a0516101c0516101e05161020051610220516102405161026051614969620009bb600039600081816113b90152611b4b0152600081816113df0152611b7101526000818161051b015281816117a4015261320201526000611a7901526000611a9f015260008181610996015281816117ca0152613228015260008181610822015281816114b001528181611527015281816118bb01528181611967015281816119e101528181611c7601528181611d3d01528181611e0701528181611edd01528181611fa40152818161204501528181613333015281816133fb015261349101526000818161044601528181610fb20152610ff601526000818161032a01528181610cd6015281816111f00152818161131c01528181611481015281816116dd0152818161193a01528181611dda0152818161201801528181612ad801528181612f2d01528181612f5e0152818161303b015281816130d4015281816133ce015261363a01526000818161037b01528181610ae6015281816115c80152818161214c0152818161217b015281816126c201526128bc0152600061047a0152600081816106e1015261295d0152600081816103af01528181610dc401528181610e380152610f0701526000818161078601528181610c2c01528181611166015281816112900152818161188e01528181611d1001528181611f7701528181612a0e01528181612d4701528181612d7801528181612e5501528181612eee0152818161330601526135ea01526000818161060d01528181610a4101528181612081015281816120b00152818161261e0152612818015260006105d901526149696000f3fe6080604052600436106102975760003560e01c80638327c2141161015a578063b316ff89116100c1578063e16decdc1161007a578063e16decdc146108c4578063e63697c8146108e4578063ead64c6a14610904578063f2fde38b14610951578063fc20966314610971578063fd6349521461098457600080fd5b8063b316ff89146107ee578063b381cf4014610810578063b6b0b5d814610844578063c4d66de814610864578063c7cdea3714610884578063d3216848146108a457600080fd5b806397aa2f4f1161011357806397aa2f4f146107345780639b27832e14610754578063a6e9f01e14610774578063a709e187146107a8578063a88bb3d9146107bb578063ac84ca14146107db57600080fd5b80638327c2141461066f578063836dbe391461068f57806385234333146106af5780638524adc9146106cf5780638a712b80146107035780638da5cb5b1461071657600080fd5b8063572b6c05116101fe5780637b303b80116101b75780637b303b80146105875780637da0a877146105a75780637ec3d641146105c7578063800b71fd146105fb578063823225eb1461062f578063825a56201461064f57600080fd5b8063572b6c051461049c5780636a264718146104db5780636f5c3dff146105095780637032134e1461053d578063715018a61461055d5780637ad03c8f1461057257600080fd5b80632b3eed27116102505780632b3eed271461039d5780633bf8c391146103d157806346a86277146103f1578063486ff0cd146104045780634ded3252146104345780634f8ff3b01461046857600080fd5b806307535c74146102a35780630d8b76a8146102b857806313ce1064146102d8578063149078f2146102f85780631521589c1461031857806319d109131461036957600080fd5b3661029e57005b600080fd5b6102b66102b1366004613a76565b6109b8565b005b3480156102c457600080fd5b506102b66102d3366004613abf565b6109d5565b3480156102e457600080fd5b506102b66102f3366004613ae3565b6109ff565b34801561030457600080fd5b506102b6610313366004613b20565b610d6d565b34801561032457600080fd5b5061034c7f000000000000000000000000000000000000000000000000000000000000000081565b6040516001600160a01b0390911681526020015b60405180910390f35b34801561037557600080fd5b5061034c7f000000000000000000000000000000000000000000000000000000000000000081565b3480156103a957600080fd5b5061034c7f000000000000000000000000000000000000000000000000000000000000000081565b3480156103dd57600080fd5b506102b66103ec366004613b7c565b610d84565b6102b66103ff366004613ae3565b610d9b565b34801561041057600080fd5b5060408051808201825260018152603160f81b602082015290516103609190613c32565b34801561044057600080fd5b5061034c7f000000000000000000000000000000000000000000000000000000000000000081565b34801561047457600080fd5b5061034c7f000000000000000000000000000000000000000000000000000000000000000081565b3480156104a857600080fd5b506104cb6104b7366004613abf565b6065546001600160a01b0391821691161490565b6040519015158152602001610360565b3480156104e757600080fd5b506104fb6104f6366004613c45565b610db6565b604051610360929190613cd7565b34801561051557600080fd5b5061034c7f000000000000000000000000000000000000000000000000000000000000000081565b34801561054957600080fd5b506102b6610558366004613d71565b6110af565b34801561056957600080fd5b506102b66110d5565b34801561057e57600080fd5b506102b66110e9565b34801561059357600080fd5b506102b66105a2366004613dea565b6110f9565b3480156105b357600080fd5b5060655461034c906001600160a01b031681565b3480156105d357600080fd5b5061034c7f000000000000000000000000000000000000000000000000000000000000000081565b34801561060757600080fd5b5061034c7f000000000000000000000000000000000000000000000000000000000000000081565b34801561063b57600080fd5b506102b661064a366004613dea565b61110f565b34801561065b57600080fd5b506102b661066a366004613e32565b611125565b34801561067b57600080fd5b506102b661068a366004613ae3565b611264565b34801561069b57600080fd5b506102b66106aa366004613e6a565b6113a1565b3480156106bb57600080fd5b506102b66106ca366004613ec6565b611597565b3480156106db57600080fd5b5061034c7f000000000000000000000000000000000000000000000000000000000000000081565b6102b6610711366004613ec6565b611772565b34801561072257600080fd5b506033546001600160a01b031661034c565b34801561074057600080fd5b506102b661074f366004613e6a565b61178c565b34801561076057600080fd5b506102b661076f366004613f35565b611862565b34801561078057600080fd5b5061034c7f000000000000000000000000000000000000000000000000000000000000000081565b6102b66107b6366004613f35565b611a4f565b3480156107c757600080fd5b506102b66107d6366004613f61565b611ea7565b6102b66107e9366004613fee565b611ecf565b3480156107fa57600080fd5b50610803612078565b604051610360919061401d565b34801561081c57600080fd5b5061034c7f000000000000000000000000000000000000000000000000000000000000000081565b34801561085057600080fd5b506102b661085f3660046140c7565b612487565b34801561087057600080fd5b506102b661087f366004613abf565b6124a2565b34801561089057600080fd5b506102b661089f36600461412a565b6125d6565b3480156108b057600080fd5b506102b66108bf36600461414c565b6125e8565b3480156108d057600080fd5b506102b66108df36600461419e565b6127b9565b3480156108f057600080fd5b506102b66108ff366004613e32565b6127e2565b34801561091057600080fd5b5061092461091f366004614236565b612949565b604080519687526020870195909552938501929092526060840152608083015260a082015260c001610360565b34801561095d57600080fd5b506102b661096c366004613abf565b612b6c565b6102b661097f366004614266565b612be5565b34801561099057600080fd5b5061034c7f000000000000000000000000000000000000000000000000000000000000000081565b6109c3858585611a4f565b6109ce8583836127e2565b5050505050565b6109dd612c00565b606580546001600160a01b0319166001600160a01b0392909216919091179055565b6000610a09612c79565b905082600019811415610bf7576000808760021415610ac7576040516334924edb60e21b81526001600160a01b0388811660048301527f0000000000000000000000000000000000000000000000000000000000000000169063d2493b6c9060240160606040518083038186803b158015610a8357600080fd5b505afa158015610a97573d6000803e3d6000fd5b505050506040513d601f19601f82011682018060405250810190610abb91906142d4565b9093509150610b679050565b6040516334924edb60e21b81526001600160a01b0388811660048301527f0000000000000000000000000000000000000000000000000000000000000000169063d2493b6c9060240160606040518083038186803b158015610b2857600080fd5b505afa158015610b3c573d6000803e3d6000fd5b505050506040513d601f19601f82011682018060405250810190610b6091906142d4565b9093509150505b84600114610b755780610b77565b815b6040516370a0823160e01b81526001600160a01b03868116600483015291909116906370a082319060240160206040518083038186803b158015610bba57600080fd5b505afa158015610bce573d6000803e3d6000fd5b505050506040513d601f19601f82011682018060405250810190610bf29190614321565b925050505b610c0c6001600160a01b038616833084612c88565b8560021415610cbf5760405163573ade8160e01b81526001600160a01b037f0000000000000000000000000000000000000000000000000000000000000000169063573ade8190610c6790889085908890889060040161433a565b602060405180830381600087803b158015610c8157600080fd5b505af1158015610c95573d6000803e3d6000fd5b505050506040513d601f19601f82011682018060405250810190610cb99190614321565b50610d65565b60405163573ade8160e01b81526001600160a01b037f0000000000000000000000000000000000000000000000000000000000000000169063573ade8190610d1190889085908890889060040161433a565b602060405180830381600087803b158015610d2b57600080fd5b505af1158015610d3f573d6000803e3d6000fd5b505050506040513d601f19601f82011682018060405250810190610d639190614321565b505b505050505050565b610d78868686611125565b610d6586848484611264565b610d90868686866109ff565b610d658683836127e2565b610da484611ecf565b610db084848484611264565b50505050565b6060806002861415610fb0577f00000000000000000000000000000000000000000000000000000000000000006001600160a01b031615610fab576040805160018082528183019092526000916020808301908036833750506040805160018082528183019092529293506000929150602080830190803683370190505090507f00000000000000000000000000000000000000000000000000000000000000006001600160a01b03166399248ea76040518163ffffffff1660e01b815260040160206040518083038186803b158015610e8f57600080fd5b505afa158015610ea3573d6000803e3d6000fd5b505050506040513d601f19601f82011682018060405250810190610ec7919061437b565b82600081518110610eda57610eda614398565b6001600160a01b039283166020918202929092010152604051630cc7d40f60e11b815286821660048201527f00000000000000000000000000000000000000000000000000000000000000009091169063198fa81e9060240160206040518083038186803b158015610f4b57600080fd5b505afa158015610f5f573d6000803e3d6000fd5b505050506040513d601f19601f82011682018060405250810190610f839190614321565b81600081518110610f9657610f96614398565b602090810291909101015290925090506110a6565b61108c565b7f00000000000000000000000000000000000000000000000000000000000000006001600160a01b03161561108c57604051634c0369c360e01b81526001600160a01b037f00000000000000000000000000000000000000000000000000000000000000001690634c0369c39061102f908890889088906004016143ae565b60006040518083038186803b15801561104757600080fd5b505afa15801561105b573d6000803e3d6000fd5b505050506040513d6000823e601f3d908101601f191682016040526110839190810190614503565b915091506110a6565b505060408051600080825260208201908152818301909252905b94509492505050565b6110bb60038a8a611125565b6110ca878787878787876113a1565b505050505050505050565b6110dd612c00565b6110e76000612cf3565b565b6110f1612c00565b6110e7612d45565b611104858585611125565b6109ce858383611862565b61111b858585856109ff565b6109ce85826125d6565b600061112f612c79565b90506111466001600160a01b038416823085612c88565b83600214156111d95760405163e8eda9df60e01b81526001600160a01b037f0000000000000000000000000000000000000000000000000000000000000000169063e8eda9df906111a2908690869086906000906004016145be565b600060405180830381600087803b1580156111bc57600080fd5b505af11580156111d0573d6000803e3d6000fd5b50505050610db0565b60405163617ba03760e01b81526001600160a01b037f0000000000000000000000000000000000000000000000000000000000000000169063617ba0379061122c908690869086906000906004016145be565b600060405180830381600087803b15801561124657600080fd5b505af115801561125a573d6000803e3d6000fd5b5050505050505050565b600061126e612c79565b905084600214156113055760405163a415bcad60e01b81526001600160a01b037f0000000000000000000000000000000000000000000000000000000000000000169063a415bcad906112ce9087908790879060009088906004016145eb565b600060405180830381600087803b1580156112e857600080fd5b505af11580156112fc573d6000803e3d6000fd5b5050505061138d565b60405163a415bcad60e01b81526001600160a01b037f0000000000000000000000000000000000000000000000000000000000000000169063a415bcad9061135a9087908790879060009088906004016145eb565b600060405180830381600087803b15801561137457600080fd5b505af1158015611388573d6000803e3d6000fd5b505050505b6109ce6001600160a01b038516828561310e565b60006113ab612c79565b90506000600188146113dd577f00000000000000000000000000000000000000000000000000000000000000006113ff565b7f00000000000000000000000000000000000000000000000000000000000000005b60405163016a5aab60e31b81529091506001600160a01b03821690630b52d5589061143a90859030908c908c908c908c908c9060040161461f565b600060405180830381600087803b15801561145457600080fd5b505af1158015611468573d6000803e3d6000fd5b505060405163a415bcad60e01b81526001600160a01b037f000000000000000000000000000000000000000000000000000000000000000016925063a415bcad91506114e1907f0000000000000000000000000000000000000000000000000000000000000000908d908d9060009089906004016145eb565b600060405180830381600087803b1580156114fb57600080fd5b505af115801561150f573d6000803e3d6000fd5b5050604051632e1a7d4d60e01b8152600481018c90527f00000000000000000000000000000000000000000000000000000000000000006001600160a01b03169250632e1a7d4d9150602401600060405180830381600087803b15801561157557600080fd5b505af1158015611589573d6000803e3d6000fd5b505050506110ca828a613143565b60006115a1612c79565b6040516334924edb60e21b81526001600160a01b038b8116600483015291925060009182917f00000000000000000000000000000000000000000000000000000000000000009091169063d2493b6c9060240160606040518083038186803b15801561160c57600080fd5b505afa158015611620573d6000803e3d6000fd5b505050506040513d601f19601f8201168201806040525081019061164491906142d4565b9250925050600089600114611659578161165b565b825b60405163016a5aab60e31b81529091506001600160a01b03821690630b52d5589061169690879030908e908e908e908e908e9060040161461f565b600060405180830381600087803b1580156116b057600080fd5b505af11580156116c4573d6000803e3d6000fd5b505060405163a415bcad60e01b81526001600160a01b037f000000000000000000000000000000000000000000000000000000000000000016925063a415bcad915061171d908f908f908f906000908b906004016145eb565b600060405180830381600087803b15801561173757600080fd5b505af115801561174b573d6000803e3d6000fd5b50611764925050506001600160a01b038d16858d61310e565b505050505050505050505050565b61177c6003611ecf565b61125a8888888888888888611597565b6000611796612c79565b90506000600289146117c8577f00000000000000000000000000000000000000000000000000000000000000006117ea565b7f00000000000000000000000000000000000000000000000000000000000000005b60405163d505accf60e01b81529091506001600160a01b0382169063d505accf9061182590859030908c908c908c908c908c9060040161461f565b600060405180830381600087803b15801561183f57600080fd5b505af1158015611853573d6000803e3d6000fd5b505050506110ca8989846131f6565b600061186c612c79565b905083600214156119235760405163a415bcad60e01b81526001600160a01b037f0000000000000000000000000000000000000000000000000000000000000000169063a415bcad906118ec907f0000000000000000000000000000000000000000000000000000000000000000908790879060009088906004016145eb565b600060405180830381600087803b15801561190657600080fd5b505af115801561191a573d6000803e3d6000fd5b505050506119cb565b60405163a415bcad60e01b81526001600160a01b037f0000000000000000000000000000000000000000000000000000000000000000169063a415bcad90611998907f0000000000000000000000000000000000000000000000000000000000000000908790879060009088906004016145eb565b600060405180830381600087803b1580156119b257600080fd5b505af11580156119c6573d6000803e3d6000fd5b505050505b604051632e1a7d4d60e01b8152600481018490527f00000000000000000000000000000000000000000000000000000000000000006001600160a01b031690632e1a7d4d90602401600060405180830381600087803b158015611a2d57600080fd5b505af1158015611a41573d6000803e3d6000fd5b50505050610db08184613143565b6000611a59612c79565b905082600019811415611c0f576002851415611b415760018314611a9d577f0000000000000000000000000000000000000000000000000000000000000000611abf565b7f00000000000000000000000000000000000000000000000000000000000000005b6040516370a0823160e01b81526001600160a01b03848116600483015291909116906370a082319060240160206040518083038186803b158015611b0257600080fd5b505afa158015611b16573d6000803e3d6000fd5b505050506040513d601f19601f82011682018060405250810190611b3a9190614321565b9050611c0f565b60018314611b6f577f0000000000000000000000000000000000000000000000000000000000000000611b91565b7f00000000000000000000000000000000000000000000000000000000000000005b6040516370a0823160e01b81526001600160a01b03848116600483015291909116906370a082319060240160206040518083038186803b158015611bd457600080fd5b505afa158015611be8573d6000803e3d6000fd5b505050506040513d601f19601f82011682018060405250810190611c0c9190614321565b90505b80341015611c745760405162461bcd60e51b815260206004820152602760248201527f6d73672e76616c7565206973206c657373207468616e2072657061796d656e7460448201526608185b5bdd5b9d60ca1b60648201526084015b60405180910390fd5b7f00000000000000000000000000000000000000000000000000000000000000006001600160a01b031663d0e30db0826040518263ffffffff1660e01b81526004016000604051808303818588803b158015611ccf57600080fd5b505af1158015611ce3573d6000803e3d6000fd5b5088935060029250611cf3915050565b1415611dc35760405163573ade8160e01b81526001600160a01b037f0000000000000000000000000000000000000000000000000000000000000000169063573ade8190611d6b907f00000000000000000000000000000000000000000000000000000000000000009085908890889060040161433a565b602060405180830381600087803b158015611d8557600080fd5b505af1158015611d99573d6000803e3d6000fd5b505050506040513d601f19601f82011682018060405250810190611dbd9190614321565b50611e89565b60405163573ade8160e01b81526001600160a01b037f0000000000000000000000000000000000000000000000000000000000000000169063573ade8190611e35907f00000000000000000000000000000000000000000000000000000000000000009085908890889060040161433a565b602060405180830381600087803b158015611e4f57600080fd5b505af1158015611e63573d6000803e3d6000fd5b505050506040513d601f19601f82011682018060405250810190611e879190614321565b505b6000611e958234614676565b90508015610d6557610d658382613143565b611eb360038b8b611125565b611ec38888888888888888611597565b50505050505050505050565b6000611ed9612c79565b90507f00000000000000000000000000000000000000000000000000000000000000006001600160a01b031663d0e30db0346040518263ffffffff1660e01b81526004016000604051808303818588803b158015611f3657600080fd5b505af1158015611f4a573d6000803e3d6000fd5b5085935060029250611f5a915050565b14156120015760405163e8eda9df60e01b81526001600160a01b037f0000000000000000000000000000000000000000000000000000000000000000169063e8eda9df90611fd3907f000000000000000000000000000000000000000000000000000000000000000090349086906000906004016145be565b600060405180830381600087803b158015611fed57600080fd5b505af1158015610d65573d6000803e3d6000fd5b60405163617ba03760e01b81526001600160a01b037f0000000000000000000000000000000000000000000000000000000000000000169063617ba03790611fd3907f000000000000000000000000000000000000000000000000000000000000000090349086906000906004016145be565b5050565b606080600081817f00000000000000000000000000000000000000000000000000000000000000006001600160a01b03161561214a577f00000000000000000000000000000000000000000000000000000000000000006001600160a01b031663b316ff896040518163ffffffff1660e01b815260040160006040518083038186803b15801561210757600080fd5b505afa15801561211b573d6000803e3d6000fd5b505050506040513d6000823e601f3d908101601f19168201604052612143919081019061468d565b9350835192505b7f00000000000000000000000000000000000000000000000000000000000000006001600160a01b031615612215577f00000000000000000000000000000000000000000000000000000000000000006001600160a01b031663b316ff896040518163ffffffff1660e01b815260040160006040518083038186803b1580156121d257600080fd5b505afa1580156121e6573d6000803e3d6000fd5b505050506040513d6000823e601f3d908101601f1916820160405261220e919081019061468d565b9150815190505b61221f81846147d5565b67ffffffffffffffff81111561223757612237614365565b60405190808252806020026020018201604052801561228d57816020015b61227a6040805160608101909152806000815260606020820152600060409091015290565b8152602001906001900390816122555790505b50945060005b838110156123805760028682815181106122af576122af614398565b60200260200101516000019060038111156122cc576122cc614007565b908160038111156122df576122df614007565b815250508481815181106122f5576122f5614398565b60200260200101516000015186828151811061231357612313614398565b60200260200101516020018190525084818151811061233457612334614398565b60200260200101516020015186828151811061235257612352614398565b60209081029190910101516001600160a01b0390911660409091015280612378816147ed565b915050612293565b506000805b8281101561247e5761239781866147d5565b915060038783815181106123ad576123ad614398565b60200260200101516000019060038111156123ca576123ca614007565b908160038111156123dd576123dd614007565b815250508381815181106123f3576123f3614398565b60200260200101516000015187838151811061241157612411614398565b60200260200101516020018190525083818151811061243257612432614398565b60200260200101516020015187838151811061245057612450614398565b60209081029190910101516001600160a01b0390911660409091015280612476816147ed565b915050612385565b50505050505090565b6124938a8a8a8a6109ff565b611ec38a87878787878761178c565b600054610100900460ff16158080156124c25750600054600160ff909116105b806124dc5750303b1580156124dc575060005460ff166001145b61253f5760405162461bcd60e51b815260206004820152602e60248201527f496e697469616c697a61626c653a20636f6e747261637420697320616c72656160448201526d191e481a5b9a5d1a585b1a5e995960921b6064820152608401611c6b565b6000805460ff191660011790558015612562576000805461ff0019166101001790555b61256a6134ff565b606580546001600160a01b0319166001600160a01b03841617905561258d612d45565b8015612074576000805461ff0019169055604051600181527f7f26b83ff96e1f2b6a682f133852f6798a09c465da95921460cefb38474024989060200160405180910390a15050565b61207482826125e3612c79565b6131f6565b60006125f2612c79565b9050600089600214156126a3576040516334924edb60e21b81526001600160a01b038a811660048301527f0000000000000000000000000000000000000000000000000000000000000000169063d2493b6c9060240160606040518083038186803b15801561266057600080fd5b505afa158015612674573d6000803e3d6000fd5b505050506040513d601f19601f8201168201806040525081019061269891906142d4565b509091506127429050565b6040516334924edb60e21b81526001600160a01b038a811660048301527f0000000000000000000000000000000000000000000000000000000000000000169063d2493b6c9060240160606040518083038186803b15801561270457600080fd5b505afa158015612718573d6000803e3d6000fd5b505050506040513d601f19601f8201168201806040525081019061273c91906142d4565b50909150505b60405163d505accf60e01b81526001600160a01b0382169063d505accf9061277a90859030908c908c908c908c908c9060040161461f565b600060405180830381600087803b15801561279457600080fd5b505af11580156127a8573d6000803e3d6000fd5b50505050611ec38a8a8a858561352e565b6127c58b8b8b8b6109ff565b6127d58b888888888888886125e8565b5050505050505050505050565b60006127ec612c79565b90506000846002141561289d576040516334924edb60e21b81526001600160a01b0385811660048301527f0000000000000000000000000000000000000000000000000000000000000000169063d2493b6c9060240160606040518083038186803b15801561285a57600080fd5b505afa15801561286e573d6000803e3d6000fd5b505050506040513d601f19601f8201168201806040525081019061289291906142d4565b5090915061293c9050565b6040516334924edb60e21b81526001600160a01b0385811660048301527f0000000000000000000000000000000000000000000000000000000000000000169063d2493b6c9060240160606040518083038186803b1580156128fe57600080fd5b505afa158015612912573d6000803e3d6000fd5b505050506040513d601f19601f8201168201806040525081019061293691906142d4565b50909150505b6109ce858585858561352e565b600080808080808760021415612ab95760007f00000000000000000000000000000000000000000000000000000000000000006001600160a01b03166350d25bcd6040518163ffffffff1660e01b815260040160206040518083038186803b1580156129b457600080fd5b505afa1580156129c8573d6000803e3d6000fd5b505050506040513d601f19601f820116820180604052508101906129ec9190614321565b604051632fe4a15f60e21b81526001600160a01b038a811660048301529192507f00000000000000000000000000000000000000000000000000000000000000009091169063bf92857c9060240160c06040518083038186803b158015612a5257600080fd5b505afa158015612a66573d6000803e3d6000fd5b505050506040513d601f19601f82011682018060405250810190612a8a9190614808565b670de0b6b3a76400009587028690049c509386028590049a509190940292909204965091945092509050612b62565b604051632fe4a15f60e21b81526001600160a01b0388811660048301527f0000000000000000000000000000000000000000000000000000000000000000169063bf92857c9060240160c06040518083038186803b158015612b1a57600080fd5b505afa158015612b2e573d6000803e3d6000fd5b505050506040513d601f19601f82011682018060405250810190612b529190614808565b949a509298509096509450925090505b9295509295509295565b612b74612c00565b6001600160a01b038116612bd95760405162461bcd60e51b815260206004820152602660248201527f4f776e61626c653a206e6577206f776e657220697320746865207a65726f206160448201526564647265737360d01b6064820152608401611c6b565b612be281612cf3565b50565b612bf08a8a8a611a4f565b611ec38a888888888888886125e8565b612c08612c79565b6001600160a01b0316612c236033546001600160a01b031690565b6001600160a01b0316146110e75760405162461bcd60e51b815260206004820181905260248201527f4f776e61626c653a2063616c6c6572206973206e6f7420746865206f776e65726044820152606401611c6b565b6000612c83613673565b905090565b6040516001600160a01b0380851660248301528316604482015260648101829052610db09085906323b872dd60e01b906084015b60408051601f198184030181529190526020810180516001600160e01b03166001600160e01b0319909316929092179091526136a7565b603380546001600160a01b038381166001600160a01b0319831681179093556040519116919082907f8be0079c531659141344cd1fd0a4f28419497f9722a3daafe3b4186f6b6457e090600090a35050565b7f00000000000000000000000000000000000000000000000000000000000000006001600160a01b031615612f2b5760007f00000000000000000000000000000000000000000000000000000000000000006001600160a01b031663d1946dbc6040518163ffffffff1660e01b815260040160006040518083038186803b158015612dcf57600080fd5b505afa158015612de3573d6000803e3d6000fd5b505050506040513d6000823e601f3d908101601f19168201604052612e0b9190810190614852565b905060005b8151811015612f28576000828281518110612e2d57612e2d614398565b6020908102919091010151604051636eb1769f60e11b81523060048201526001600160a01b037f0000000000000000000000000000000000000000000000000000000000000000811660248301529192509082169063dd62ed3e9060440160206040518083038186803b158015612ea357600080fd5b505afa158015612eb7573d6000803e3d6000fd5b505050506040513d601f19601f82011682018060405250810190612edb9190614321565b612f1557612f156001600160a01b0382167f0000000000000000000000000000000000000000000000000000000000000000600019613779565b5080612f20816147ed565b915050612e10565b50505b7f00000000000000000000000000000000000000000000000000000000000000006001600160a01b0316156110e75760007f00000000000000000000000000000000000000000000000000000000000000006001600160a01b031663d1946dbc6040518163ffffffff1660e01b815260040160006040518083038186803b158015612fb557600080fd5b505afa158015612fc9573d6000803e3d6000fd5b505050506040513d6000823e601f3d908101601f19168201604052612ff19190810190614852565b905060005b815181101561207457600082828151811061301357613013614398565b6020908102919091010151604051636eb1769f60e11b81523060048201526001600160a01b037f0000000000000000000000000000000000000000000000000000000000000000811660248301529192509082169063dd62ed3e9060440160206040518083038186803b15801561308957600080fd5b505afa15801561309d573d6000803e3d6000fd5b505050506040513d601f19601f820116820180604052508101906130c19190614321565b6130fb576130fb6001600160a01b0382167f0000000000000000000000000000000000000000000000000000000000000000600019613779565b5080613106816147ed565b915050612ff6565b6040516001600160a01b03831660248201526044810182905261313e90849063a9059cbb60e01b90606401612cbc565b505050565b604080516000808252602082019092526001600160a01b03841690839060405161316d9190614887565b60006040518083038185875af1925050503d80600081146131aa576040519150601f19603f3d011682016040523d82523d6000602084013e6131af565b606091505b505090508061313e5760405162461bcd60e51b815260206004820152601360248201527211551217d514905394d1915497d19052531151606a1b6044820152606401611c6b565b600060028414613226577f0000000000000000000000000000000000000000000000000000000000000000613248565b7f00000000000000000000000000000000000000000000000000000000000000005b9050826000198114156132d1576040516370a0823160e01b81526001600160a01b0384811660048301528316906370a082319060240160206040518083038186803b15801561329657600080fd5b505afa1580156132aa573d6000803e3d6000fd5b505050506040513d601f19601f820116820180604052508101906132ce9190614321565b90505b6132e66001600160a01b038316843084612c88565b84600214156133b757604051631a4ca37b60e21b81526001600160a01b037f000000000000000000000000000000000000000000000000000000000000000016906369328dec9061335f907f000000000000000000000000000000000000000000000000000000000000000090859030906004016148a3565b602060405180830381600087803b15801561337957600080fd5b505af115801561338d573d6000803e3d6000fd5b505050506040513d601f19601f820116820180604052508101906133b19190614321565b5061347b565b604051631a4ca37b60e21b81526001600160a01b037f000000000000000000000000000000000000000000000000000000000000000016906369328dec90613427907f000000000000000000000000000000000000000000000000000000000000000090859030906004016148a3565b602060405180830381600087803b15801561344157600080fd5b505af1158015613455573d6000803e3d6000fd5b505050506040513d601f19601f820116820180604052508101906134799190614321565b505b604051632e1a7d4d60e01b8152600481018290527f00000000000000000000000000000000000000000000000000000000000000006001600160a01b031690632e1a7d4d90602401600060405180830381600087803b1580156134dd57600080fd5b505af11580156134f1573d6000803e3d6000fd5b505050506109ce8382613143565b600054610100900460ff166135265760405162461bcd60e51b8152600401611c6b906148c6565b6110e761389d565b826000198114156135b5576040516370a0823160e01b81526001600160a01b0384811660048301528316906370a082319060240160206040518083038186803b15801561357a57600080fd5b505afa15801561358e573d6000803e3d6000fd5b505050506040513d601f19601f820116820180604052508101906135b29190614321565b90505b6135ca6001600160a01b038316843084612c88565b856002141561362357604051631a4ca37b60e21b81526001600160a01b037f000000000000000000000000000000000000000000000000000000000000000016906369328dec90610c67908890859088906004016148a3565b604051631a4ca37b60e21b81526001600160a01b037f000000000000000000000000000000000000000000000000000000000000000016906369328dec90610d11908890859088906004016148a3565b60006018361080159061369057506065546001600160a01b031633145b156136a2575060131936013560601c90565b503390565b60006136fc826040518060400160405280602081526020017f5361666545524332303a206c6f772d6c6576656c2063616c6c206661696c6564815250856001600160a01b03166138d49092919063ffffffff16565b80519091501561313e578080602001905181019061371a9190614911565b61313e5760405162461bcd60e51b815260206004820152602a60248201527f5361666545524332303a204552433230206f7065726174696f6e20646964206e6044820152691bdd081cdd58d8d9595960b21b6064820152608401611c6b565b8015806138025750604051636eb1769f60e11b81523060048201526001600160a01b03838116602483015284169063dd62ed3e9060440160206040518083038186803b1580156137c857600080fd5b505afa1580156137dc573d6000803e3d6000fd5b505050506040513d601f19601f820116820180604052508101906138009190614321565b155b61386d5760405162461bcd60e51b815260206004820152603660248201527f5361666545524332303a20617070726f76652066726f6d206e6f6e2d7a65726f60448201527520746f206e6f6e2d7a65726f20616c6c6f77616e636560501b6064820152608401611c6b565b6040516001600160a01b03831660248201526044810182905261313e90849063095ea7b360e01b90606401612cbc565b600054610100900460ff166138c45760405162461bcd60e51b8152600401611c6b906148c6565b6110e76138cf612c79565b612cf3565b60606138e384846000856138eb565b949350505050565b60608247101561394c5760405162461bcd60e51b815260206004820152602660248201527f416464726573733a20696e73756666696369656e742062616c616e636520666f6044820152651c8818d85b1b60d21b6064820152608401611c6b565b600080866001600160a01b031685876040516139689190614887565b60006040518083038185875af1925050503d80600081146139a5576040519150601f19603f3d011682016040523d82523d6000602084013e6139aa565b606091505b50915091506139bb878383876139c6565b979650505050505050565b60608315613a32578251613a2b576001600160a01b0385163b613a2b5760405162461bcd60e51b815260206004820152601d60248201527f416464726573733a2063616c6c20746f206e6f6e2d636f6e74726163740000006044820152606401611c6b565b50816138e3565b6138e38383815115613a475781518083602001fd5b8060405162461bcd60e51b8152600401611c6b9190613c32565b6001600160a01b0381168114612be257600080fd5b600080600080600060a08688031215613a8e57600080fd5b8535945060208601359350604086013592506060860135613aae81613a61565b949793965091946080013592915050565b600060208284031215613ad157600080fd5b8135613adc81613a61565b9392505050565b60008060008060808587031215613af957600080fd5b843593506020850135613b0b81613a61565b93969395505050506040820135916060013590565b60008060008060008060c08789031215613b3957600080fd5b863595506020870135613b4b81613a61565b9450604087013593506060870135613b6281613a61565b9598949750929560808101359460a0909101359350915050565b60008060008060008060c08789031215613b9557600080fd5b863595506020870135613ba781613a61565b945060408701359350606087013592506080870135613bc581613a61565b8092505060a087013590509295509295509295565b60005b83811015613bf5578181015183820152602001613bdd565b83811115610db05750506000910152565b60008151808452613c1e816020860160208601613bda565b601f01601f19169290920160200192915050565b602081526000613adc6020830184613c06565b60008060008060608587031215613c5b57600080fd5b84359350602085013567ffffffffffffffff80821115613c7a57600080fd5b818701915087601f830112613c8e57600080fd5b813581811115613c9d57600080fd5b8860208260051b8501011115613cb257600080fd5b6020830195508094505050506040850135613ccc81613a61565b939692955090935050565b604080825283519082018190526000906020906060840190828701845b82811015613d195781516001600160a01b031684529284019290840190600101613cf4565b5050508381038285015284518082528583019183019060005b81811015613d4e57835183529284019291840191600101613d32565b5090979650505050505050565b803560ff81168114613d6c57600080fd5b919050565b60008060008060008060008060006101208a8c031215613d9057600080fd5b8935613d9b81613a61565b985060208a0135975060408a0135965060608a0135955060808a0135945060a08a01359350613dcc60c08b01613d5b565b925060e08a013591506101008a013590509295985092959850929598565b600080600080600060a08688031215613e0257600080fd5b853594506020860135613e1481613a61565b94979496505050506040830135926060810135926080909101359150565b600080600060608486031215613e4757600080fd5b833592506020840135613e5981613a61565b929592945050506040919091013590565b600080600080600080600060e0888a031215613e8557600080fd5b87359650602088013595506040880135945060608801359350613eaa60808901613d5b565b925060a0880135915060c0880135905092959891949750929550565b600080600080600080600080610100898b031215613ee357600080fd5b8835613eee81613a61565b975060208901359650604089013595506060890135945060808901359350613f1860a08a01613d5b565b925060c0890135915060e089013590509295985092959890939650565b600080600060608486031215613f4a57600080fd5b505081359360208301359350604090920135919050565b6000806000806000806000806000806101408b8d031215613f8157600080fd5b8a35613f8c81613a61565b995060208b0135985060408b0135613fa381613a61565b975060608b0135965060808b0135955060a08b0135945060c08b01359350613fcd60e08c01613d5b565b92506101008b013591506101208b013590509295989b9194979a5092959850565b60006020828403121561400057600080fd5b5035919050565b634e487b7160e01b600052602160045260246000fd5b60006020808301818452808551808352604092508286019150828160051b8701018488016000805b848110156140b857603f198a8503018652825160608151600480821061407857634e487b7160e01b865260218152602486fd5b508652818a01518a870182905261409182880182613c06565b928a01516001600160a01b0316968a01969096525095880195935091870191600101614045565b50919998505050505050505050565b6000806000806000806000806000806101408b8d0312156140e757600080fd5b8a35995060208b01356140f981613a61565b985060408b0135975060608b0135965060808b0135955060a08b0135945060c08b01359350613fcd60e08c01613d5b565b6000806040838503121561413d57600080fd5b50508035926020909101359150565b600080600080600080600080610100898b03121561416957600080fd5b88359750602089013561417b81613a61565b9650604089013595506060890135945060808901359350613f1860a08a01613d5b565b60008060008060008060008060008060006101608c8e0312156141c057600080fd5b8b359a5060208c01356141d281613a61565b995060408c0135985060608c0135975060808c01356141f081613a61565b965060a08c0135955060c08c0135945060e08c013593506142146101008d01613d5b565b92506101208c013591506101408c013590509295989b509295989b9093969950565b6000806040838503121561424957600080fd5b82359150602083013561425b81613a61565b809150509250929050565b6000806000806000806000806000806101408b8d03121561428657600080fd5b8a35995060208b0135985060408b0135975060608b01356142a681613a61565b965060808b0135955060a08b0135945060c08b01359350613fcd60e08c01613d5b565b8051613d6c81613a61565b6000806000606084860312156142e957600080fd5b83516142f481613a61565b602085015190935061430581613a61565b604085015190925061431681613a61565b809150509250925092565b60006020828403121561433357600080fd5b5051919050565b6001600160a01b03948516815260208101939093526040830191909152909116606082015260800190565b634e487b7160e01b600052604160045260246000fd5b60006020828403121561438d57600080fd5b8151613adc81613a61565b634e487b7160e01b600052603260045260246000fd5b6040808252810183905260008460608301825b868110156143f15782356143d481613a61565b6001600160a01b03168252602092830192909101906001016143c1565b506001600160a01b03949094166020939093019290925250909392505050565b6040805190810167ffffffffffffffff8111828210171561443457614434614365565b60405290565b604051601f8201601f1916810167ffffffffffffffff8111828210171561446357614463614365565b604052919050565b600067ffffffffffffffff82111561448557614485614365565b5060051b60200190565b600082601f8301126144a057600080fd5b815160206144b56144b08361446b565b61443a565b82815260059290921b840181019181810190868411156144d457600080fd5b8286015b848110156144f85780516144eb81613a61565b83529183019183016144d8565b509695505050505050565b6000806040838503121561451657600080fd5b825167ffffffffffffffff8082111561452e57600080fd5b61453a8683870161448f565b935060209150818501518181111561455157600080fd5b85019050601f8101861361456457600080fd5b80516145726144b08261446b565b81815260059190911b8201830190838101908883111561459157600080fd5b928401925b828410156145af57835182529284019290840190614596565b80955050505050509250929050565b6001600160a01b03948516815260208101939093529216604082015261ffff909116606082015260800190565b6001600160a01b0395861681526020810194909452604084019290925261ffff166060830152909116608082015260a00190565b6001600160a01b0397881681529590961660208601526040850193909352606084019190915260ff16608083015260a082015260c081019190915260e00190565b634e487b7160e01b600052601160045260246000fd5b60008282101561468857614688614660565b500390565b600060208083850312156146a057600080fd5b825167ffffffffffffffff808211156146b857600080fd5b818501915085601f8301126146cc57600080fd5b81516146da6144b08261446b565b81815260059190911b830184019084810190888311156146f957600080fd5b8585015b838110156147c8578051858111156147155760008081fd5b86016040601f19828d03810182131561472e5760008081fd5b614736614411565b8a840151898111156147485760008081fd5b8401603f81018f1361475a5760008081fd5b8b8101518a81111561476e5761476e614365565b61477e8d85601f8401160161443a565b93508084528f858284010111156147955760008081fd5b6147a4818e8601878501613bda565b50508181526147b48385016142c9565b818c015286525050509186019186016146fd565b5098975050505050505050565b600082198211156147e8576147e8614660565b500190565b600060001982141561480157614801614660565b5060010190565b60008060008060008060c0878903121561482157600080fd5b865195506020870151945060408701519350606087015192506080870151915060a087015190509295509295509295565b60006020828403121561486457600080fd5b815167ffffffffffffffff81111561487b57600080fd5b6138e38482850161448f565b60008251614899818460208701613bda565b9190910192915050565b6001600160a01b0393841681526020810192909252909116604082015260600190565b6020808252602b908201527f496e697469616c697a61626c653a20636f6e7472616374206973206e6f74206960408201526a6e697469616c697a696e6760a81b606082015260800190565b60006020828403121561492357600080fd5b81518015158114613adc57600080fdfea2646970667358221220f5aea1e34fc327ca53eb3f24f59bc5e0003cd0aaabdabf1c315b83991aaa508364736f6c63430008090033",
  "devdoc": {
    "kind": "dev",
    "methods": {
      "constructor": {
        "custom:oz-upgrades-unsafe-allow": "constructor"
      },
      "getAllUserRewards(uint256,address[],address)": {
        "details": "Returns a list all rewards of a user, including already accrued and unrealized claimable rewards",
        "params": {
          "assets": "List of incentivized assets to check eligible distributions. It's used only for v3. It should be address of AToken or VariableDebtToken",
          "user": "The address of the user"
        },
        "returns": {
          "_0": "The list of reward addresses",
          "_1": "The list of unclaimed amount of rewards*"
        }
      },
      "getUserAccountData(uint256,address)": {
        "params": {
          "user": "The address of the user"
        },
        "returns": {
          "availableBorrows": "The borrowing power left of the user in USD",
          "currentLiquidationThreshold": "The liquidation threshold of the user",
          "healthFactor": "The current health factor of the user",
          "ltv": "The loan to value of The user",
          "totalCollateral": "The total collateral of the user in USD. The unit is 100000000",
          "totalDebt": "The total debt of the user in USD"
        }
      },
      "owner()": {
        "details": "Returns the address of the current owner."
      },
      "renounceOwnership()": {
        "details": "Leaves the contract without owner. It will not be possible to call `onlyOwner` functions anymore. Can only be called by the current owner. NOTE: Renouncing ownership will leave the contract without an owner, thereby removing any functionality that is only available to the owner."
      },
      "transferOwnership(address)": {
        "details": "Transfers ownership of the contract to a new account (`newOwner`). Can only be called by the current owner."
      }
    },
    "version": 1
  },
  "userdoc": {
    "kind": "user",
    "methods": {
      "approvePool()": {
        "notice": "If new assets are added into the pool, it needs to be called."
      },
      "borrow(uint256,address,uint256,uint256)": {
        "notice": "The user must approve the delegation to this SC for the asset's debtToken."
      },
      "borrowETHWithPermit(uint256,uint256,uint256,uint256,uint8,bytes32,bytes32)": {
        "notice": "It works for only v3."
      },
      "borrowWithPermit(address,uint256,uint256,uint256,uint256,uint8,bytes32,bytes32)": {
        "notice": "It works for only v3."
      },
      "getUserAccountData(uint256,address)": {
        "notice": "Returns the user account data across all the reserves"
      },
      "isTrustedForwarder(address)": {
        "notice": "return if the forwarder is trusted to forward relayed transactions to us. the forwarder is required to verify the sender's signature, and verify the call is not a replay."
      },
      "repay(uint256,address,uint256,uint256)": {
        "notice": "The user must approve this SC for the asset."
      },
      "supply(uint256,address,uint256)": {
        "notice": "The user must approve this SC for the asset."
      },
      "supplyAndBorrowETHWithPermit(address,uint256,uint256,uint256,uint256,uint256,uint8,bytes32,bytes32)": {
        "notice": "It works for only v3."
      },
      "supplyAndBorrowWithPermit(address,uint256,address,uint256,uint256,uint256,uint256,uint8,bytes32,bytes32)": {
        "notice": "It works for only v3."
      },
      "supplyETHAndBorrowWithPermit(address,uint256,uint256,uint256,uint256,uint8,bytes32,bytes32)": {
        "notice": "It works for only v3."
      },
      "withdraw(uint256,address,uint256)": {
        "notice": "The user must approve this SC for the asset's aToken."
      }
    },
    "version": 1
  },
  "storageLayout": {
    "storage": [
      {
        "astId": 169,
        "contract": "contracts/AaveAdapter.sol:AaveAdapter",
        "label": "_initialized",
        "offset": 0,
        "slot": "0",
        "type": "t_uint8"
      },
      {
        "astId": 172,
        "contract": "contracts/AaveAdapter.sol:AaveAdapter",
        "label": "_initializing",
        "offset": 1,
        "slot": "0",
        "type": "t_bool"
      },
      {
        "astId": 1051,
        "contract": "contracts/AaveAdapter.sol:AaveAdapter",
        "label": "__gap",
        "offset": 0,
        "slot": "1",
        "type": "t_array(t_uint256)50_storage"
      },
      {
        "astId": 41,
        "contract": "contracts/AaveAdapter.sol:AaveAdapter",
        "label": "_owner",
        "offset": 0,
        "slot": "51",
        "type": "t_address"
      },
      {
        "astId": 161,
        "contract": "contracts/AaveAdapter.sol:AaveAdapter",
        "label": "__gap",
        "offset": 0,
        "slot": "52",
        "type": "t_array(t_uint256)49_storage"
      },
      {
        "astId": 4521,
        "contract": "contracts/AaveAdapter.sol:AaveAdapter",
        "label": "trustedForwarder",
        "offset": 0,
        "slot": "101",
        "type": "t_address"
      }
    ],
    "types": {
      "t_address": {
        "encoding": "inplace",
        "label": "address",
        "numberOfBytes": "20"
      },
      "t_array(t_uint256)49_storage": {
        "base": "t_uint256",
        "encoding": "inplace",
        "label": "uint256[49]",
        "numberOfBytes": "1568"
      },
      "t_array(t_uint256)50_storage": {
        "base": "t_uint256",
        "encoding": "inplace",
        "label": "uint256[50]",
        "numberOfBytes": "1600"
      },
      "t_bool": {
        "encoding": "inplace",
        "label": "bool",
        "numberOfBytes": "1"
      },
      "t_uint256": {
        "encoding": "inplace",
        "label": "uint256",
        "numberOfBytes": "32"
      },
      "t_uint8": {
        "encoding": "inplace",
        "label": "uint8",
        "numberOfBytes": "1"
      }
    }
  }
}