{
  "address": "0x2e313A66cf9fD7B485daC1d10ABE9Cac758e9542",
  "abi": [
    {
      "inputs": [
        {
          "internalType": "address",
          "name": "_v2DataProvider",
          "type": "address"
        },
        {
          "internalType": "address",
          "name": "_v3AddressesProvider",
          "type": "address"
        },
        {
          "internalType": "address",
          "name": "_wnative",
          "type": "address"
        },
        {
          "internalType": "address",
          "name": "_v2BaseCurrencyPriceSource",
          "type": "address"
        }
      ],
      "stateMutability": "nonpayable",
      "type": "constructor"
    },
    {
      "anonymous": false,
      "inputs": [
        {
          "indexed": true,
          "internalType": "address",
          "name": "account",
          "type": "address"
        },
        {
          "indexed": false,
          "internalType": "uint256",
          "name": "version",
          "type": "uint256"
        },
        {
          "indexed": true,
          "internalType": "address",
          "name": "asset",
          "type": "address"
        },
        {
          "indexed": true,
          "internalType": "uint256",
          "name": "amount",
          "type": "uint256"
        },
        {
          "indexed": false,
          "internalType": "uint256",
          "name": "interestRateMode",
          "type": "uint256"
        }
      ],
      "name": "Borrow",
      "type": "event"
    },
    {
      "anonymous": false,
      "inputs": [
        {
          "indexed": false,
          "internalType": "uint8",
          "name": "version",
          "type": "uint8"
        }
      ],
      "name": "Initialized",
      "type": "event"
    },
    {
      "anonymous": false,
      "inputs": [
        {
          "indexed": true,
          "internalType": "address",
          "name": "previousOwner",
          "type": "address"
        },
        {
          "indexed": true,
          "internalType": "address",
          "name": "newOwner",
          "type": "address"
        }
      ],
      "name": "OwnershipTransferred",
      "type": "event"
    },
    {
      "anonymous": false,
      "inputs": [
        {
          "indexed": true,
          "internalType": "address",
          "name": "account",
          "type": "address"
        },
        {
          "indexed": false,
          "internalType": "uint256",
          "name": "version",
          "type": "uint256"
        },
        {
          "indexed": true,
          "internalType": "address",
          "name": "asset",
          "type": "address"
        },
        {
          "indexed": true,
          "internalType": "uint256",
          "name": "amount",
          "type": "uint256"
        },
        {
          "indexed": false,
          "internalType": "uint256",
          "name": "interestRateMode",
          "type": "uint256"
        }
      ],
      "name": "Repay",
      "type": "event"
    },
    {
      "anonymous": false,
      "inputs": [
        {
          "indexed": true,
          "internalType": "address",
          "name": "account",
          "type": "address"
        },
        {
          "indexed": false,
          "internalType": "uint256",
          "name": "version",
          "type": "uint256"
        },
        {
          "indexed": true,
          "internalType": "address",
          "name": "asset",
          "type": "address"
        },
        {
          "indexed": true,
          "internalType": "uint256",
          "name": "amount",
          "type": "uint256"
        }
      ],
      "name": "Supply",
      "type": "event"
    },
    {
      "anonymous": false,
      "inputs": [
        {
          "indexed": true,
          "internalType": "address",
          "name": "account",
          "type": "address"
        },
        {
          "indexed": false,
          "internalType": "uint256",
          "name": "version",
          "type": "uint256"
        },
        {
          "indexed": true,
          "internalType": "address",
          "name": "asset",
          "type": "address"
        },
        {
          "indexed": true,
          "internalType": "uint256",
          "name": "amount",
          "type": "uint256"
        }
      ],
      "name": "Withdraw",
      "type": "event"
    },
    {
      "inputs": [],
      "name": "V2_ADDRESSES_PROVIDER",
      "outputs": [
        {
          "internalType": "contract ILendingPoolAddressesProvider",
          "name": "",
          "type": "address"
        }
      ],
      "stateMutability": "view",
      "type": "function"
    },
    {
      "inputs": [],
      "name": "V2_BASE_CURRENCY_PRICE_SOURCE",
      "outputs": [
        {
          "internalType": "contract IChainlinkAggregator",
          "name": "",
          "type": "address"
        }
      ],
      "stateMutability": "view",
      "type": "function"
    },
    {
      "inputs": [],
      "name": "V2_DATA_PROVIDER",
      "outputs": [
        {
          "internalType": "contract IAaveProtocolDataProvider",
          "name": "",
          "type": "address"
        }
      ],
      "stateMutability": "view",
      "type": "function"
    },
    {
      "inputs": [],
      "name": "V2_LENDING_POOL",
      "outputs": [
        {
          "internalType": "contract ILendingPool",
          "name": "",
          "type": "address"
        }
      ],
      "stateMutability": "view",
      "type": "function"
    },
    {
      "inputs": [],
      "name": "V2_REWARDS_CONTROLLER",
      "outputs": [
        {
          "internalType": "contract IAaveIncentivesController",
          "name": "",
          "type": "address"
        }
      ],
      "stateMutability": "view",
      "type": "function"
    },
    {
      "inputs": [],
      "name": "V2_aWNATIVE",
      "outputs": [
        {
          "internalType": "address",
          "name": "",
          "type": "address"
        }
      ],
      "stateMutability": "view",
      "type": "function"
    },
    {
      "inputs": [],
      "name": "V3_ADDRESSES_PROVIDER",
      "outputs": [
        {
          "internalType": "contract IPoolAddressesProvider",
          "name": "",
          "type": "address"
        }
      ],
      "stateMutability": "view",
      "type": "function"
    },
    {
      "inputs": [],
      "name": "V3_DATA_PROVIDER",
      "outputs": [
        {
          "internalType": "contract IPoolDataProvider",
          "name": "",
          "type": "address"
        }
      ],
      "stateMutability": "view",
      "type": "function"
    },
    {
      "inputs": [],
      "name": "V3_POOL",
      "outputs": [
        {
          "internalType": "contract IPool",
          "name": "",
          "type": "address"
        }
      ],
      "stateMutability": "view",
      "type": "function"
    },
    {
      "inputs": [],
      "name": "V3_REWARDS_CONTROLLER",
      "outputs": [
        {
          "internalType": "contract IRewardsController",
          "name": "",
          "type": "address"
        }
      ],
      "stateMutability": "view",
      "type": "function"
    },
    {
      "inputs": [],
      "name": "V3_aWNATIVE",
      "outputs": [
        {
          "internalType": "address",
          "name": "",
          "type": "address"
        }
      ],
      "stateMutability": "view",
      "type": "function"
    },
    {
      "inputs": [],
      "name": "WNATIVE",
      "outputs": [
        {
          "internalType": "contract IWETH",
          "name": "",
          "type": "address"
        }
      ],
      "stateMutability": "view",
      "type": "function"
    },
    {
      "inputs": [],
      "name": "approvePool",
      "outputs": [],
      "stateMutability": "nonpayable",
      "type": "function"
    },
    {
      "inputs": [
        {
          "internalType": "uint256",
          "name": "version",
          "type": "uint256"
        },
        {
          "internalType": "address",
          "name": "asset",
          "type": "address"
        },
        {
          "internalType": "uint256",
          "name": "amount",
          "type": "uint256"
        },
        {
          "internalType": "uint256",
          "name": "interestRateMode",
          "type": "uint256"
        }
      ],
      "name": "borrow",
      "outputs": [],
      "stateMutability": "nonpayable",
      "type": "function"
    },
    {
      "inputs": [
        {
          "internalType": "uint256",
          "name": "version",
          "type": "uint256"
        },
        {
          "internalType": "uint256",
          "name": "amount",
          "type": "uint256"
        },
        {
          "internalType": "uint256",
          "name": "interestRateMode",
          "type": "uint256"
        }
      ],
      "name": "borrowETH",
      "outputs": [],
      "stateMutability": "nonpayable",
      "type": "function"
    },
    {
      "inputs": [
        {
          "internalType": "uint256",
          "name": "amount",
          "type": "uint256"
        },
        {
          "internalType": "uint256",
          "name": "interestRateMode",
          "type": "uint256"
        },
        {
          "internalType": "uint256",
          "name": "permitAmount",
          "type": "uint256"
        },
        {
          "internalType": "uint256",
          "name": "permitDeadline",
          "type": "uint256"
        },
        {
          "internalType": "uint8",
          "name": "permitV",
          "type": "uint8"
        },
        {
          "internalType": "bytes32",
          "name": "permitR",
          "type": "bytes32"
        },
        {
          "internalType": "bytes32",
          "name": "permitS",
          "type": "bytes32"
        }
      ],
      "name": "borrowETHWithPermit",
      "outputs": [],
      "stateMutability": "nonpayable",
      "type": "function"
    },
    {
      "inputs": [
        {
          "internalType": "address",
          "name": "asset",
          "type": "address"
        },
        {
          "internalType": "uint256",
          "name": "amount",
          "type": "uint256"
        },
        {
          "internalType": "uint256",
          "name": "interestRateMode",
          "type": "uint256"
        },
        {
          "internalType": "uint256",
          "name": "permitAmount",
          "type": "uint256"
        },
        {
          "internalType": "uint256",
          "name": "permitDeadline",
          "type": "uint256"
        },
        {
          "internalType": "uint8",
          "name": "permitV",
          "type": "uint8"
        },
        {
          "internalType": "bytes32",
          "name": "permitR",
          "type": "bytes32"
        },
        {
          "internalType": "bytes32",
          "name": "permitS",
          "type": "bytes32"
        }
      ],
      "name": "borrowWithPermit",
      "outputs": [],
      "stateMutability": "nonpayable",
      "type": "function"
    },
    {
      "inputs": [],
      "name": "getAllReservesTokens",
      "outputs": [
        {
          "components": [
            {
              "internalType": "enum VERSION",
              "name": "version",
              "type": "uint8"
            },
            {
              "internalType": "string",
              "name": "symbol",
              "type": "string"
            },
            {
              "internalType": "address",
              "name": "tokenAddress",
              "type": "address"
            }
          ],
          "internalType": "struct TokenDataEx[]",
          "name": "tokens",
          "type": "tuple[]"
        }
      ],
      "stateMutability": "view",
      "type": "function"
    },
    {
      "inputs": [
        {
          "internalType": "uint256",
          "name": "version",
          "type": "uint256"
        },
        {
          "internalType": "address[]",
          "name": "assets",
          "type": "address[]"
        },
        {
          "internalType": "address",
          "name": "user",
          "type": "address"
        }
      ],
      "name": "getAllUserRewards",
      "outputs": [
        {
          "internalType": "address[]",
          "name": "",
          "type": "address[]"
        },
        {
          "internalType": "uint256[]",
          "name": "",
          "type": "uint256[]"
        }
      ],
      "stateMutability": "view",
      "type": "function"
    },
    {
      "inputs": [
        {
          "internalType": "uint256",
          "name": "version",
          "type": "uint256"
        },
        {
          "internalType": "address",
          "name": "user",
          "type": "address"
        }
      ],
      "name": "getUserAccountData",
      "outputs": [
        {
          "internalType": "uint256",
          "name": "totalCollateral",
          "type": "uint256"
        },
        {
          "internalType": "uint256",
          "name": "totalDebt",
          "type": "uint256"
        },
        {
          "internalType": "uint256",
          "name": "availableBorrows",
          "type": "uint256"
        },
        {
          "internalType": "uint256",
          "name": "currentLiquidationThreshold",
          "type": "uint256"
        },
        {
          "internalType": "uint256",
          "name": "ltv",
          "type": "uint256"
        },
        {
          "internalType": "uint256",
          "name": "healthFactor",
          "type": "uint256"
        }
      ],
      "stateMutability": "view",
      "type": "function"
    },
    {
      "inputs": [
        {
          "internalType": "address",
          "name": "_biconomy",
          "type": "address"
        }
      ],
      "name": "initialize",
      "outputs": [],
      "stateMutability": "nonpayable",
      "type": "function"
    },
    {
      "inputs": [
        {
          "internalType": "address",
          "name": "forwarder",
          "type": "address"
        }
      ],
      "name": "isTrustedForwarder",
      "outputs": [
        {
          "internalType": "bool",
          "name": "",
          "type": "bool"
        }
      ],
      "stateMutability": "view",
      "type": "function"
    },
    {
      "inputs": [],
      "name": "owner",
      "outputs": [
        {
          "internalType": "address",
          "name": "",
          "type": "address"
        }
      ],
      "stateMutability": "view",
      "type": "function"
    },
    {
      "inputs": [],
      "name": "renounceOwnership",
      "outputs": [],
      "stateMutability": "nonpayable",
      "type": "function"
    },
    {
      "inputs": [
        {
          "internalType": "uint256",
          "name": "version",
          "type": "uint256"
        },
        {
          "internalType": "address",
          "name": "asset",
          "type": "address"
        },
        {
          "internalType": "uint256",
          "name": "amount",
          "type": "uint256"
        },
        {
          "internalType": "uint256",
          "name": "interestRateMode",
          "type": "uint256"
        }
      ],
      "name": "repay",
      "outputs": [],
      "stateMutability": "nonpayable",
      "type": "function"
    },
    {
      "inputs": [
        {
          "internalType": "uint256",
          "name": "version",
          "type": "uint256"
        },
        {
          "internalType": "address",
          "name": "repayAsset",
          "type": "address"
        },
        {
          "internalType": "uint256",
          "name": "repayAmount",
          "type": "uint256"
        },
        {
          "internalType": "uint256",
          "name": "repayInterestRateMode",
          "type": "uint256"
        },
        {
          "internalType": "address",
          "name": "withdrawalAsset",
          "type": "address"
        },
        {
          "internalType": "uint256",
          "name": "withdrawalAmount",
          "type": "uint256"
        }
      ],
      "name": "repayAndWithdraw",
      "outputs": [],
      "stateMutability": "nonpayable",
      "type": "function"
    },
    {
      "inputs": [
        {
          "internalType": "uint256",
          "name": "version",
          "type": "uint256"
        },
        {
          "internalType": "address",
          "name": "repayAsset",
          "type": "address"
        },
        {
          "internalType": "uint256",
          "name": "repayAmount",
          "type": "uint256"
        },
        {
          "internalType": "uint256",
          "name": "repayInterestRateMode",
          "type": "uint256"
        },
        {
          "internalType": "uint256",
          "name": "withdrawalAmount",
          "type": "uint256"
        }
      ],
      "name": "repayAndWithdrawETH",
      "outputs": [],
      "stateMutability": "nonpayable",
      "type": "function"
    },
    {
      "inputs": [
        {
          "internalType": "uint256",
          "name": "version",
          "type": "uint256"
        },
        {
          "internalType": "address",
          "name": "repayAsset",
          "type": "address"
        },
        {
          "internalType": "uint256",
          "name": "repayAmount",
          "type": "uint256"
        },
        {
          "internalType": "uint256",
          "name": "repayInterestRateMode",
          "type": "uint256"
        },
        {
          "internalType": "uint256",
          "name": "withdrawalAmount",
          "type": "uint256"
        },
        {
          "internalType": "uint256",
          "name": "permitAmount",
          "type": "uint256"
        },
        {
          "internalType": "uint256",
          "name": "permitDeadline",
          "type": "uint256"
        },
        {
          "internalType": "uint8",
          "name": "permitV",
          "type": "uint8"
        },
        {
          "internalType": "bytes32",
          "name": "permitR",
          "type": "bytes32"
        },
        {
          "internalType": "bytes32",
          "name": "permitS",
          "type": "bytes32"
        }
      ],
      "name": "repayAndWithdrawETHWithPermit",
      "outputs": [],
      "stateMutability": "nonpayable",
      "type": "function"
    },
    {
      "inputs": [
        {
          "internalType": "uint256",
          "name": "version",
          "type": "uint256"
        },
        {
          "internalType": "address",
          "name": "repayAsset",
          "type": "address"
        },
        {
          "internalType": "uint256",
          "name": "repayAmount",
          "type": "uint256"
        },
        {
          "internalType": "uint256",
          "name": "repayInterestRateMode",
          "type": "uint256"
        },
        {
          "internalType": "address",
          "name": "withdrawalAsset",
          "type": "address"
        },
        {
          "internalType": "uint256",
          "name": "withdrawalAmount",
          "type": "uint256"
        },
        {
          "internalType": "uint256",
          "name": "permitAmount",
          "type": "uint256"
        },
        {
          "internalType": "uint256",
          "name": "permitDeadline",
          "type": "uint256"
        },
        {
          "internalType": "uint8",
          "name": "permitV",
          "type": "uint8"
        },
        {
          "internalType": "bytes32",
          "name": "permitR",
          "type": "bytes32"
        },
        {
          "internalType": "bytes32",
          "name": "permitS",
          "type": "bytes32"
        }
      ],
      "name": "repayAndWithdrawWithPermit",
      "outputs": [],
      "stateMutability": "nonpayable",
      "type": "function"
    },
    {
      "inputs": [
        {
          "internalType": "uint256",
          "name": "version",
          "type": "uint256"
        },
        {
          "internalType": "uint256",
          "name": "amount",
          "type": "uint256"
        },
        {
          "internalType": "uint256",
          "name": "interestRateMode",
          "type": "uint256"
        }
      ],
      "name": "repayETH",
      "outputs": [],
      "stateMutability": "payable",
      "type": "function"
    },
    {
      "inputs": [
        {
          "internalType": "uint256",
          "name": "version",
          "type": "uint256"
        },
        {
          "internalType": "uint256",
          "name": "repayAmount",
          "type": "uint256"
        },
        {
          "internalType": "uint256",
          "name": "repayInterestRateMode",
          "type": "uint256"
        },
        {
          "internalType": "address",
          "name": "withdrawalAsset",
          "type": "address"
        },
        {
          "internalType": "uint256",
          "name": "withdrawalAmount",
          "type": "uint256"
        }
      ],
      "name": "repayETHAndWithdraw",
      "outputs": [],
      "stateMutability": "payable",
      "type": "function"
    },
    {
      "inputs": [
        {
          "internalType": "uint256",
          "name": "version",
          "type": "uint256"
        },
        {
          "internalType": "uint256",
          "name": "repayAmount",
          "type": "uint256"
        },
        {
          "internalType": "uint256",
          "name": "repayInterestRateMode",
          "type": "uint256"
        },
        {
          "internalType": "address",
          "name": "withdrawalAsset",
          "type": "address"
        },
        {
          "internalType": "uint256",
          "name": "withdrawalAmount",
          "type": "uint256"
        },
        {
          "internalType": "uint256",
          "name": "permitAmount",
          "type": "uint256"
        },
        {
          "internalType": "uint256",
          "name": "permitDeadline",
          "type": "uint256"
        },
        {
          "internalType": "uint8",
          "name": "permitV",
          "type": "uint8"
        },
        {
          "internalType": "bytes32",
          "name": "permitR",
          "type": "bytes32"
        },
        {
          "internalType": "bytes32",
          "name": "permitS",
          "type": "bytes32"
        }
      ],
      "name": "repayETHAndWithdrawWithPermit",
      "outputs": [],
      "stateMutability": "payable",
      "type": "function"
    },
    {
      "inputs": [
        {
          "internalType": "address",
          "name": "_biconomy",
          "type": "address"
        }
      ],
      "name": "setBiconomy",
      "outputs": [],
      "stateMutability": "nonpayable",
      "type": "function"
    },
    {
      "inputs": [
        {
          "internalType": "uint256",
          "name": "version",
          "type": "uint256"
        },
        {
          "internalType": "address",
          "name": "asset",
          "type": "address"
        },
        {
          "internalType": "uint256",
          "name": "amount",
          "type": "uint256"
        }
      ],
      "name": "supply",
      "outputs": [],
      "stateMutability": "nonpayable",
      "type": "function"
    },
    {
      "inputs": [
        {
          "internalType": "uint256",
          "name": "version",
          "type": "uint256"
        },
        {
          "internalType": "address",
          "name": "supplyAsset",
          "type": "address"
        },
        {
          "internalType": "uint256",
          "name": "supplyAmount",
          "type": "uint256"
        },
        {
          "internalType": "address",
          "name": "borrowAsset",
          "type": "address"
        },
        {
          "internalType": "uint256",
          "name": "borrowAmount",
          "type": "uint256"
        },
        {
          "internalType": "uint256",
          "name": "borrowInterestRateMode",
          "type": "uint256"
        }
      ],
      "name": "supplyAndBorrow",
      "outputs": [],
      "stateMutability": "nonpayable",
      "type": "function"
    },
    {
      "inputs": [
        {
          "internalType": "uint256",
          "name": "version",
          "type": "uint256"
        },
        {
          "internalType": "address",
          "name": "supplyAsset",
          "type": "address"
        },
        {
          "internalType": "uint256",
          "name": "supplyAmount",
          "type": "uint256"
        },
        {
          "internalType": "uint256",
          "name": "borrowAmount",
          "type": "uint256"
        },
        {
          "internalType": "uint256",
          "name": "borrowInterestRateMode",
          "type": "uint256"
        }
      ],
      "name": "supplyAndBorrowETH",
      "outputs": [],
      "stateMutability": "nonpayable",
      "type": "function"
    },
    {
      "inputs": [
        {
          "internalType": "address",
          "name": "supplyAsset",
          "type": "address"
        },
        {
          "internalType": "uint256",
          "name": "supplyAmount",
          "type": "uint256"
        },
        {
          "internalType": "uint256",
          "name": "borrowAmount",
          "type": "uint256"
        },
        {
          "internalType": "uint256",
          "name": "borrowInterestRateMode",
          "type": "uint256"
        },
        {
          "internalType": "uint256",
          "name": "permitAmount",
          "type": "uint256"
        },
        {
          "internalType": "uint256",
          "name": "permitDeadline",
          "type": "uint256"
        },
        {
          "internalType": "uint8",
          "name": "permitV",
          "type": "uint8"
        },
        {
          "internalType": "bytes32",
          "name": "permitR",
          "type": "bytes32"
        },
        {
          "internalType": "bytes32",
          "name": "permitS",
          "type": "bytes32"
        }
      ],
      "name": "supplyAndBorrowETHWithPermit",
      "outputs": [],
      "stateMutability": "nonpayable",
      "type": "function"
    },
    {
      "inputs": [
        {
          "internalType": "address",
          "name": "supplyAsset",
          "type": "address"
        },
        {
          "internalType": "uint256",
          "name": "supplyAmount",
          "type": "uint256"
        },
        {
          "internalType": "address",
          "name": "borrowAsset",
          "type": "address"
        },
        {
          "internalType": "uint256",
          "name": "borrowAmount",
          "type": "uint256"
        },
        {
          "internalType": "uint256",
          "name": "borrowInterestRateMode",
          "type": "uint256"
        },
        {
          "internalType": "uint256",
          "name": "permitAmount",
          "type": "uint256"
        },
        {
          "internalType": "uint256",
          "name": "permitDeadline",
          "type": "uint256"
        },
        {
          "internalType": "uint8",
          "name": "permitV",
          "type": "uint8"
        },
        {
          "internalType": "bytes32",
          "name": "permitR",
          "type": "bytes32"
        },
        {
          "internalType": "bytes32",
          "name": "permitS",
          "type": "bytes32"
        }
      ],
      "name": "supplyAndBorrowWithPermit",
      "outputs": [],
      "stateMutability": "nonpayable",
      "type": "function"
    },
    {
      "inputs": [
        {
          "internalType": "uint256",
          "name": "version",
          "type": "uint256"
        }
      ],
      "name": "supplyETH",
      "outputs": [],
      "stateMutability": "payable",
      "type": "function"
    },
    {
      "inputs": [
        {
          "internalType": "uint256",
          "name": "version",
          "type": "uint256"
        },
        {
          "internalType": "address",
          "name": "borrowAsset",
          "type": "address"
        },
        {
          "internalType": "uint256",
          "name": "borrowAmount",
          "type": "uint256"
        },
        {
          "internalType": "uint256",
          "name": "borrowInterestRateMode",
          "type": "uint256"
        }
      ],
      "name": "supplyETHAndBorrow",
      "outputs": [],
      "stateMutability": "payable",
      "type": "function"
    },
    {
      "inputs": [
        {
          "internalType": "address",
          "name": "borrowAsset",
          "type": "address"
        },
        {
          "internalType": "uint256",
          "name": "borrowAmount",
          "type": "uint256"
        },
        {
          "internalType": "uint256",
          "name": "borrowInterestRateMode",
          "type": "uint256"
        },
        {
          "internalType": "uint256",
          "name": "permitAmount",
          "type": "uint256"
        },
        {
          "internalType": "uint256",
          "name": "permitDeadline",
          "type": "uint256"
        },
        {
          "internalType": "uint8",
          "name": "permitV",
          "type": "uint8"
        },
        {
          "internalType": "bytes32",
          "name": "permitR",
          "type": "bytes32"
        },
        {
          "internalType": "bytes32",
          "name": "permitS",
          "type": "bytes32"
        }
      ],
      "name": "supplyETHAndBorrowWithPermit",
      "outputs": [],
      "stateMutability": "payable",
      "type": "function"
    },
    {
      "inputs": [
        {
          "internalType": "address",
          "name": "newOwner",
          "type": "address"
        }
      ],
      "name": "transferOwnership",
      "outputs": [],
      "stateMutability": "nonpayable",
      "type": "function"
    },
    {
      "inputs": [],
      "name": "trustedForwarder",
      "outputs": [
        {
          "internalType": "address",
          "name": "",
          "type": "address"
        }
      ],
      "stateMutability": "view",
      "type": "function"
    },
    {
      "inputs": [],
      "name": "versionRecipient",
      "outputs": [
        {
          "internalType": "string",
          "name": "",
          "type": "string"
        }
      ],
      "stateMutability": "pure",
      "type": "function"
    },
    {
      "inputs": [
        {
          "internalType": "uint256",
          "name": "version",
          "type": "uint256"
        },
        {
          "internalType": "address",
          "name": "asset",
          "type": "address"
        },
        {
          "internalType": "uint256",
          "name": "amount",
          "type": "uint256"
        }
      ],
      "name": "withdraw",
      "outputs": [],
      "stateMutability": "nonpayable",
      "type": "function"
    },
    {
      "inputs": [
        {
          "internalType": "uint256",
          "name": "version",
          "type": "uint256"
        },
        {
          "internalType": "uint256",
          "name": "amount",
          "type": "uint256"
        }
      ],
      "name": "withdrawETH",
      "outputs": [],
      "stateMutability": "nonpayable",
      "type": "function"
    },
    {
      "inputs": [
        {
          "internalType": "uint256",
          "name": "version",
          "type": "uint256"
        },
        {
          "internalType": "uint256",
          "name": "amount",
          "type": "uint256"
        },
        {
          "internalType": "uint256",
          "name": "permitAmount",
          "type": "uint256"
        },
        {
          "internalType": "uint256",
          "name": "permitDeadline",
          "type": "uint256"
        },
        {
          "internalType": "uint8",
          "name": "permitV",
          "type": "uint8"
        },
        {
          "internalType": "bytes32",
          "name": "permitR",
          "type": "bytes32"
        },
        {
          "internalType": "bytes32",
          "name": "permitS",
          "type": "bytes32"
        }
      ],
      "name": "withdrawETHWithPermit",
      "outputs": [],
      "stateMutability": "nonpayable",
      "type": "function"
    },
    {
      "inputs": [
        {
          "internalType": "uint256",
          "name": "version",
          "type": "uint256"
        },
        {
          "internalType": "address",
          "name": "asset",
          "type": "address"
        },
        {
          "internalType": "uint256",
          "name": "amount",
          "type": "uint256"
        },
        {
          "internalType": "uint256",
          "name": "permitAmount",
          "type": "uint256"
        },
        {
          "internalType": "uint256",
          "name": "permitDeadline",
          "type": "uint256"
        },
        {
          "internalType": "uint8",
          "name": "permitV",
          "type": "uint8"
        },
        {
          "internalType": "bytes32",
          "name": "permitR",
          "type": "bytes32"
        },
        {
          "internalType": "bytes32",
          "name": "permitS",
          "type": "bytes32"
        }
      ],
      "name": "withdrawWithPermit",
      "outputs": [],
      "stateMutability": "nonpayable",
      "type": "function"
    },
    {
      "stateMutability": "payable",
      "type": "receive"
    }
  ],
  "transactionHash": "0x965be4eb2495cb893c22d909c1910fcc41ce6290779ce0c0bb1b07941d58d206",
  "args": [
    "0x0000000000000000000000000000000000000000",
    "0x74a328ED938160D702378Daeb7aB2504714B4E4b",
    "0x09bADef78f92F20fd5f7a402dbb1d25d4901aAb2",
    "0x0000000000000000000000000000000000000000"
  ],
  "numDeployments": 4,
  "solcInputHash": "7090a5b2cbd225d83161e0c507f63c08",
  "bytecode": "0x6102806040523480156200001257600080fd5b50604051620057663803806200576683398101604081905262000035916200066a565b6200003f6200058b565b60006001600160a01b038516620000585760006200005b565b60015b6001600160a01b03861660a05290508062000078576000620000ef565b60a0516001600160a01b0316630542975c6040518163ffffffff1660e01b815260040160206040518083038186803b158015620000b457600080fd5b505afa158015620000c9573d6000803e3d6000fd5b505050506040513d601f19601f82011682018060405250810190620000ef9190620006c7565b6001600160a01b0316608052806200010957600062000180565b6080516001600160a01b0316630261bf8b6040518163ffffffff1660e01b815260040160206040518083038186803b1580156200014557600080fd5b505afa1580156200015a573d6000803e3d6000fd5b505050506040513d601f19601f82011682018060405250810190620001809190620006c7565b6001600160a01b0390811660c052828116610100526000908516620001a7576000620001aa565b60015b6001600160a01b03861661012052905080620001c857600062000240565b610120516001600160a01b031663e860accb6040518163ffffffff1660e01b815260040160206040518083038186803b1580156200020557600080fd5b505afa1580156200021a573d6000803e3d6000fd5b505050506040513d601f19601f82011682018060405250810190620002409190620006c7565b6001600160a01b031661014052806200025b576000620002d3565b610120516001600160a01b031663026b1d5f6040518163ffffffff1660e01b815260040160206040518083038186803b1580156200029857600080fd5b505afa158015620002ad573d6000803e3d6000fd5b505050506040513d601f19601f82011682018060405250810190620002d39190620006c7565b6001600160a01b03908116610160528481166101a05260a05116620002fd5760008060006200037e565b60a0516040516334924edb60e21b81526001600160a01b0386811660048301529091169063d2493b6c9060240160606040518083038186803b1580156200034357600080fd5b505afa15801562000358573d6000803e3d6000fd5b505050506040513d601f19601f820116820180604052508101906200037e9190620006ec565b6001600160a01b03908116610200529081166101e0529081166101c0526101405116620003b057600080600062000432565b610140516040516334924edb60e21b81526001600160a01b0386811660048301529091169063d2493b6c9060240160606040518083038186803b158015620003f757600080fd5b505afa1580156200040c573d6000803e3d6000fd5b505050506040513d601f19601f82011682018060405250810190620004329190620006ec565b6001600160a01b039081166102605290811661024052908116610220526101c0511662000461576000620004d9565b6101c0516001600160a01b03166375d264136040518163ffffffff1660e01b815260040160206040518083038186803b1580156200049e57600080fd5b505afa158015620004b3573d6000803e3d6000fd5b505050506040513d601f19601f82011682018060405250810190620004d99190620006c7565b6001600160a01b0390811660e0526102205116620004f957600062000571565b610220516001600160a01b03166375d264136040518163ffffffff1660e01b815260040160206040518083038186803b1580156200053657600080fd5b505afa1580156200054b573d6000803e3d6000fd5b505050506040513d601f19601f82011682018060405250810190620005719190620006c7565b6001600160a01b0316610180525062000736945050505050565b600054610100900460ff1615620005f85760405162461bcd60e51b815260206004820152602760248201527f496e697469616c697a61626c653a20636f6e747261637420697320696e697469604482015266616c697a696e6760c81b606482015260840160405180910390fd5b60005460ff90811610156200064b576000805460ff191660ff9081179091556040519081527f7f26b83ff96e1f2b6a682f133852f6798a09c465da95921460cefb38474024989060200160405180910390a15b565b80516001600160a01b03811681146200066557600080fd5b919050565b600080600080608085870312156200068157600080fd5b6200068c856200064d565b93506200069c602086016200064d565b9250620006ac604086016200064d565b9150620006bc606086016200064d565b905092959194509250565b600060208284031215620006da57600080fd5b620006e5826200064d565b9392505050565b6000806000606084860312156200070257600080fd5b6200070d846200064d565b92506200071d602085016200064d565b91506200072d604085016200064d565b90509250925092565b60805160a05160c05160e05161010051610120516101405161016051610180516101a0516101c0516101e05161020051610220516102405161026051614dab620009bb600039600081816114b30152611d290152600081816114d90152611d4f01526000818161051b0152818161193b01526134d801526000611c5701526000611c7d0152600081816109960152818161196101526134fe015260008181610822015281816115aa0152818161162101528181611a5201528181611afe01528181611b7801528181611e5401528181611f1b01528181611fe501528181612114015281816121db0152818161228501528181613609015281816136d1015261376701526000818161044601528181611011015261105501526000818161032a01528181610cd60152818161124f015281816113ca0152818161157b0152818161182a01528181611ad101528181611fb80152818161225801528181612dae015281816132030152818161323401528181613311015281816133aa015281816136a401526139c201526000818161037b01528181610ae6015281816117150152818161242101528181612450015281816129980152612b920152600061047a0152600081816106e10152612c330152600081816103af01528181610e2301528181610e970152610f6601526000818161078601528181610c2c015281816111c50152818161133e01528181611a2501528181611eee015281816121ae01528181612ce40152818161301d0152818161304e0152818161312b015281816131c4015281816135dc015261391a01526000818161060d01528181610a410152818161235601528181612385015281816128f40152612aee015260006105d90152614dab6000f3fe6080604052600436106102975760003560e01c80638327c2141161015a578063b316ff89116100c1578063e16decdc1161007a578063e16decdc146108c4578063e63697c8146108e4578063ead64c6a14610904578063f2fde38b14610951578063fc20966314610971578063fd6349521461098457600080fd5b8063b316ff89146107ee578063b381cf4014610810578063b6b0b5d814610844578063c4d66de814610864578063c7cdea3714610884578063d3216848146108a457600080fd5b806397aa2f4f1161011357806397aa2f4f146107345780639b27832e14610754578063a6e9f01e14610774578063a709e187146107a8578063a88bb3d9146107bb578063ac84ca14146107db57600080fd5b80638327c2141461066f578063836dbe391461068f57806385234333146106af5780638524adc9146106cf5780638a712b80146107035780638da5cb5b1461071657600080fd5b8063572b6c05116101fe5780637b303b80116101b75780637b303b80146105875780637da0a877146105a75780637ec3d641146105c7578063800b71fd146105fb578063823225eb1461062f578063825a56201461064f57600080fd5b8063572b6c051461049c5780636a264718146104db5780636f5c3dff146105095780637032134e1461053d578063715018a61461055d5780637ad03c8f1461057257600080fd5b80632b3eed27116102505780632b3eed271461039d5780633bf8c391146103d157806346a86277146103f1578063486ff0cd146104045780634ded3252146104345780634f8ff3b01461046857600080fd5b806307535c74146102a35780630d8b76a8146102b857806313ce1064146102d8578063149078f2146102f85780631521589c1461031857806319d109131461036957600080fd5b3661029e57005b600080fd5b6102b66102b1366004613e98565b6109b8565b005b3480156102c457600080fd5b506102b66102d3366004613ee1565b6109d5565b3480156102e457600080fd5b506102b66102f3366004613f05565b6109ff565b34801561030457600080fd5b506102b6610313366004613f42565b610dc4565b34801561032457600080fd5b5061034c7f000000000000000000000000000000000000000000000000000000000000000081565b6040516001600160a01b0390911681526020015b60405180910390f35b34801561037557600080fd5b5061034c7f000000000000000000000000000000000000000000000000000000000000000081565b3480156103a957600080fd5b5061034c7f000000000000000000000000000000000000000000000000000000000000000081565b3480156103dd57600080fd5b506102b66103ec366004613f9e565b610de3565b6102b66103ff366004613f05565b610dfa565b34801561041057600080fd5b5060408051808201825260018152603160f81b602082015290516103609190614054565b34801561044057600080fd5b5061034c7f000000000000000000000000000000000000000000000000000000000000000081565b34801561047457600080fd5b5061034c7f000000000000000000000000000000000000000000000000000000000000000081565b3480156104a857600080fd5b506104cb6104b7366004613ee1565b6065546001600160a01b0391821691161490565b6040519015158152602001610360565b3480156104e757600080fd5b506104fb6104f6366004614067565b610e15565b6040516103609291906140f9565b34801561051557600080fd5b5061034c7f000000000000000000000000000000000000000000000000000000000000000081565b34801561054957600080fd5b506102b6610558366004614193565b61110e565b34801561056957600080fd5b506102b6611134565b34801561057e57600080fd5b506102b6611148565b34801561059357600080fd5b506102b66105a236600461420c565b611158565b3480156105b357600080fd5b5060655461034c906001600160a01b031681565b3480156105d357600080fd5b5061034c7f000000000000000000000000000000000000000000000000000000000000000081565b34801561060757600080fd5b5061034c7f000000000000000000000000000000000000000000000000000000000000000081565b34801561063b57600080fd5b506102b661064a36600461420c565b61116e565b34801561065b57600080fd5b506102b661066a366004614254565b611184565b34801561067b57600080fd5b506102b661068a366004613f05565b611312565b34801561069b57600080fd5b506102b66106aa36600461428c565b61149b565b3480156106bb57600080fd5b506102b66106ca3660046142e8565b6116e4565b3480156106db57600080fd5b5061034c7f000000000000000000000000000000000000000000000000000000000000000081565b6102b66107113660046142e8565b6118ff565b34801561072257600080fd5b506033546001600160a01b031661034c565b34801561074057600080fd5b506102b661074f36600461428c565b611923565b34801561076057600080fd5b506102b661076f366004614357565b6119f9565b34801561078057600080fd5b5061034c7f000000000000000000000000000000000000000000000000000000000000000081565b6102b66107b6366004614357565b611c2d565b3480156107c757600080fd5b506102b66107d6366004614383565b6120de565b6102b66107e9366004614410565b612106565b3480156107fa57600080fd5b5061080361234d565b604051610360919061443f565b34801561081c57600080fd5b5061034c7f000000000000000000000000000000000000000000000000000000000000000081565b34801561085057600080fd5b506102b661085f3660046144e9565b61275c565b34801561087057600080fd5b506102b661087f366004613ee1565b612777565b34801561089057600080fd5b506102b661089f36600461454c565b6128ac565b3480156108b057600080fd5b506102b66108bf36600461456e565b6128be565b3480156108d057600080fd5b506102b66108df3660046145c0565b612a8f565b3480156108f057600080fd5b506102b66108ff366004614254565b612ab8565b34801561091057600080fd5b5061092461091f366004614658565b612c1f565b604080519687526020870195909552938501929092526060840152608083015260a082015260c001610360565b34801561095d57600080fd5b506102b661096c366004613ee1565b612e42565b6102b661097f366004614688565b612ebb565b34801561099057600080fd5b5061034c7f000000000000000000000000000000000000000000000000000000000000000081565b6109c3858585611c2d565b6109ce858383612ab8565b5050505050565b6109dd612ed6565b606580546001600160a01b0319166001600160a01b0392909216919091179055565b6000610a09612f4f565b905082600019811415610bf7576000808760021415610ac7576040516334924edb60e21b81526001600160a01b0388811660048301527f0000000000000000000000000000000000000000000000000000000000000000169063d2493b6c9060240160606040518083038186803b158015610a8357600080fd5b505afa158015610a97573d6000803e3d6000fd5b505050506040513d601f19601f82011682018060405250810190610abb91906146f6565b9093509150610b679050565b6040516334924edb60e21b81526001600160a01b0388811660048301527f0000000000000000000000000000000000000000000000000000000000000000169063d2493b6c9060240160606040518083038186803b158015610b2857600080fd5b505afa158015610b3c573d6000803e3d6000fd5b505050506040513d601f19601f82011682018060405250810190610b6091906146f6565b9093509150505b84600114610b755780610b77565b815b6040516370a0823160e01b81526001600160a01b03868116600483015291909116906370a082319060240160206040518083038186803b158015610bba57600080fd5b505afa158015610bce573d6000803e3d6000fd5b505050506040513d601f19601f82011682018060405250810190610bf29190614743565b925050505b610c0c6001600160a01b038616833084612f5e565b8560021415610cbf5760405163573ade8160e01b81526001600160a01b037f0000000000000000000000000000000000000000000000000000000000000000169063573ade8190610c6790889085908890889060040161475c565b602060405180830381600087803b158015610c8157600080fd5b505af1158015610c95573d6000803e3d6000fd5b505050506040513d601f19601f82011682018060405250810190610cb99190614743565b50610d65565b60405163573ade8160e01b81526001600160a01b037f0000000000000000000000000000000000000000000000000000000000000000169063573ade8190610d1190889085908890889060040161475c565b602060405180830381600087803b158015610d2b57600080fd5b505af1158015610d3f573d6000803e3d6000fd5b505050506040513d601f19601f82011682018060405250810190610d639190614743565b505b80856001600160a01b0316836001600160a01b03167f77673b670822baca14a7caf6f8038f811649ab73e4c06083b0e58a53389bece78987604051610db4929190918252602082015260400190565b60405180910390a4505050505050565b610dcf868686611184565b610ddb86848484611312565b505050505050565b610def868686866109ff565b610ddb868383612ab8565b610e0384612106565b610e0f84848484611312565b50505050565b606080600286141561100f577f00000000000000000000000000000000000000000000000000000000000000006001600160a01b03161561100a576040805160018082528183019092526000916020808301908036833750506040805160018082528183019092529293506000929150602080830190803683370190505090507f00000000000000000000000000000000000000000000000000000000000000006001600160a01b03166399248ea76040518163ffffffff1660e01b815260040160206040518083038186803b158015610eee57600080fd5b505afa158015610f02573d6000803e3d6000fd5b505050506040513d601f19601f82011682018060405250810190610f26919061479d565b82600081518110610f3957610f396147ba565b6001600160a01b039283166020918202929092010152604051630cc7d40f60e11b815286821660048201527f00000000000000000000000000000000000000000000000000000000000000009091169063198fa81e9060240160206040518083038186803b158015610faa57600080fd5b505afa158015610fbe573d6000803e3d6000fd5b505050506040513d601f19601f82011682018060405250810190610fe29190614743565b81600081518110610ff557610ff56147ba565b60209081029190910101529092509050611105565b6110eb565b7f00000000000000000000000000000000000000000000000000000000000000006001600160a01b0316156110eb57604051634c0369c360e01b81526001600160a01b037f00000000000000000000000000000000000000000000000000000000000000001690634c0369c39061108e908890889088906004016147d0565b60006040518083038186803b1580156110a657600080fd5b505afa1580156110ba573d6000803e3d6000fd5b505050506040513d6000823e601f3d908101601f191682016040526110e29190810190614925565b91509150611105565b505060408051600080825260208201908152818301909252905b94509492505050565b61111a60038a8a611184565b6111298787878787878761149b565b505050505050505050565b61113c612ed6565b6111466000612fc9565b565b611150612ed6565b61114661301b565b611163858585611184565b6109ce8583836119f9565b61117a858585856109ff565b6109ce85826128ac565b600061118e612f4f565b90506111a56001600160a01b038416823085612f5e565b83600214156112385760405163e8eda9df60e01b81526001600160a01b037f0000000000000000000000000000000000000000000000000000000000000000169063e8eda9df90611201908690869086906000906004016149e0565b600060405180830381600087803b15801561121b57600080fd5b505af115801561122f573d6000803e3d6000fd5b505050506112be565b60405163617ba03760e01b81526001600160a01b037f0000000000000000000000000000000000000000000000000000000000000000169063617ba0379061128b908690869086906000906004016149e0565b600060405180830381600087803b1580156112a557600080fd5b505af11580156112b9573d6000803e3d6000fd5b505050505b81836001600160a01b0316826001600160a01b03167f5cedcce6a827e65624771bcd2fafdeb4c7e1dfdf5a44d4fe904c4ee870eecd528760405161130491815260200190565b60405180910390a450505050565b600061131c612f4f565b905084600214156113b35760405163a415bcad60e01b81526001600160a01b037f0000000000000000000000000000000000000000000000000000000000000000169063a415bcad9061137c908790879087906000908890600401614a0d565b600060405180830381600087803b15801561139657600080fd5b505af11580156113aa573d6000803e3d6000fd5b5050505061143b565b60405163a415bcad60e01b81526001600160a01b037f0000000000000000000000000000000000000000000000000000000000000000169063a415bcad90611408908790879087906000908890600401614a0d565b600060405180830381600087803b15801561142257600080fd5b505af1158015611436573d6000803e3d6000fd5b505050505b61144f6001600160a01b03851682856133e4565b82846001600160a01b0316826001600160a01b0316600080516020614d56833981519152888660405161148c929190918252602082015260400190565b60405180910390a45050505050565b60006114a5612f4f565b90506000600188146114d7577f00000000000000000000000000000000000000000000000000000000000000006114f9565b7f00000000000000000000000000000000000000000000000000000000000000005b60405163016a5aab60e31b81529091506001600160a01b03821690630b52d5589061153490859030908c908c908c908c908c90600401614a41565b600060405180830381600087803b15801561154e57600080fd5b505af1158015611562573d6000803e3d6000fd5b505060405163a415bcad60e01b81526001600160a01b037f000000000000000000000000000000000000000000000000000000000000000016925063a415bcad91506115db907f0000000000000000000000000000000000000000000000000000000000000000908d908d906000908990600401614a0d565b600060405180830381600087803b1580156115f557600080fd5b505af1158015611609573d6000803e3d6000fd5b5050604051632e1a7d4d60e01b8152600481018c90527f00000000000000000000000000000000000000000000000000000000000000006001600160a01b03169250632e1a7d4d9150602401600060405180830381600087803b15801561166f57600080fd5b505af1158015611683573d6000803e3d6000fd5b50505050611691828a613419565b8873eeeeeeeeeeeeeeeeeeeeeeeeeeeeeeeeeeeeeeee6001600160a01b038416600080516020614d56833981519152600360408051918252602082018e90520160405180910390a4505050505050505050565b60006116ee612f4f565b6040516334924edb60e21b81526001600160a01b038b8116600483015291925060009182917f00000000000000000000000000000000000000000000000000000000000000009091169063d2493b6c9060240160606040518083038186803b15801561175957600080fd5b505afa15801561176d573d6000803e3d6000fd5b505050506040513d601f19601f8201168201806040525081019061179191906146f6565b92509250506000896001146117a657816117a8565b825b60405163016a5aab60e31b81529091506001600160a01b03821690630b52d558906117e390879030908e908e908e908e908e90600401614a41565b600060405180830381600087803b1580156117fd57600080fd5b505af1158015611811573d6000803e3d6000fd5b505060405163a415bcad60e01b81526001600160a01b037f000000000000000000000000000000000000000000000000000000000000000016925063a415bcad915061186a908f908f908f906000908b90600401614a0d565b600060405180830381600087803b15801561188457600080fd5b505af1158015611898573d6000803e3d6000fd5b506118b1925050506001600160a01b038d16858d6133e4565b8a6001600160a01b03808e16908616600080516020614d5683398151915260038e6040516118e9929190918252602082015260400190565b60405180910390a4505050505050505050505050565b6119096003612106565b61191988888888888888886116e4565b5050505050505050565b600061192d612f4f565b905060006002891461195f577f0000000000000000000000000000000000000000000000000000000000000000611981565b7f00000000000000000000000000000000000000000000000000000000000000005b60405163d505accf60e01b81529091506001600160a01b0382169063d505accf906119bc90859030908c908c908c908c908c90600401614a41565b600060405180830381600087803b1580156119d657600080fd5b505af11580156119ea573d6000803e3d6000fd5b505050506111298989846134cc565b6000611a03612f4f565b90508360021415611aba5760405163a415bcad60e01b81526001600160a01b037f0000000000000000000000000000000000000000000000000000000000000000169063a415bcad90611a83907f000000000000000000000000000000000000000000000000000000000000000090879087906000908890600401614a0d565b600060405180830381600087803b158015611a9d57600080fd5b505af1158015611ab1573d6000803e3d6000fd5b50505050611b62565b60405163a415bcad60e01b81526001600160a01b037f0000000000000000000000000000000000000000000000000000000000000000169063a415bcad90611b2f907f000000000000000000000000000000000000000000000000000000000000000090879087906000908890600401614a0d565b600060405180830381600087803b158015611b4957600080fd5b505af1158015611b5d573d6000803e3d6000fd5b505050505b604051632e1a7d4d60e01b8152600481018490527f00000000000000000000000000000000000000000000000000000000000000006001600160a01b031690632e1a7d4d90602401600060405180830381600087803b158015611bc457600080fd5b505af1158015611bd8573d6000803e3d6000fd5b50505050611be68184613419565b6040805185815260208101849052849173eeeeeeeeeeeeeeeeeeeeeeeeeeeeeeeeeeeeeeee916001600160a01b03851691600080516020614d568339815191529101611304565b6000611c37612f4f565b905082600019811415611ded576002851415611d1f5760018314611c7b577f0000000000000000000000000000000000000000000000000000000000000000611c9d565b7f00000000000000000000000000000000000000000000000000000000000000005b6040516370a0823160e01b81526001600160a01b03848116600483015291909116906370a082319060240160206040518083038186803b158015611ce057600080fd5b505afa158015611cf4573d6000803e3d6000fd5b505050506040513d601f19601f82011682018060405250810190611d189190614743565b9050611ded565b60018314611d4d577f0000000000000000000000000000000000000000000000000000000000000000611d6f565b7f00000000000000000000000000000000000000000000000000000000000000005b6040516370a0823160e01b81526001600160a01b03848116600483015291909116906370a082319060240160206040518083038186803b158015611db257600080fd5b505afa158015611dc6573d6000803e3d6000fd5b505050506040513d601f19601f82011682018060405250810190611dea9190614743565b90505b80341015611e525760405162461bcd60e51b815260206004820152602760248201527f6d73672e76616c7565206973206c657373207468616e2072657061796d656e7460448201526608185b5bdd5b9d60ca1b60648201526084015b60405180910390fd5b7f00000000000000000000000000000000000000000000000000000000000000006001600160a01b031663d0e30db0826040518263ffffffff1660e01b81526004016000604051808303818588803b158015611ead57600080fd5b505af1158015611ec1573d6000803e3d6000fd5b5088935060029250611ed1915050565b1415611fa15760405163573ade8160e01b81526001600160a01b037f0000000000000000000000000000000000000000000000000000000000000000169063573ade8190611f49907f00000000000000000000000000000000000000000000000000000000000000009085908890889060040161475c565b602060405180830381600087803b158015611f6357600080fd5b505af1158015611f77573d6000803e3d6000fd5b505050506040513d601f19601f82011682018060405250810190611f9b9190614743565b50612067565b60405163573ade8160e01b81526001600160a01b037f0000000000000000000000000000000000000000000000000000000000000000169063573ade8190612013907f00000000000000000000000000000000000000000000000000000000000000009085908890889060040161475c565b602060405180830381600087803b15801561202d57600080fd5b505af1158015612041573d6000803e3d6000fd5b505050506040513d601f19601f820116820180604052508101906120659190614743565b505b60006120738234614a98565b90508015612085576120858382613419565b6040805187815260208101869052839173eeeeeeeeeeeeeeeeeeeeeeeeeeeeeeeeeeeeeeee916001600160a01b038716917f77673b670822baca14a7caf6f8038f811649ab73e4c06083b0e58a53389bece79101610db4565b6120ea60038b8b611184565b6120fa88888888888888886116e4565b50505050505050505050565b6000612110612f4f565b90507f00000000000000000000000000000000000000000000000000000000000000006001600160a01b031663d0e30db0346040518263ffffffff1660e01b81526004016000604051808303818588803b15801561216d57600080fd5b505af1158015612181573d6000803e3d6000fd5b5085935060029250612191915050565b14156122415760405163e8eda9df60e01b81526001600160a01b037f0000000000000000000000000000000000000000000000000000000000000000169063e8eda9df9061220a907f000000000000000000000000000000000000000000000000000000000000000090349086906000906004016149e0565b600060405180830381600087803b15801561222457600080fd5b505af1158015612238573d6000803e3d6000fd5b505050506122e7565b60405163617ba03760e01b81526001600160a01b037f0000000000000000000000000000000000000000000000000000000000000000169063617ba037906122b4907f000000000000000000000000000000000000000000000000000000000000000090349086906000906004016149e0565b600060405180830381600087803b1580156122ce57600080fd5b505af11580156122e2573d6000803e3d6000fd5b505050505b3473eeeeeeeeeeeeeeeeeeeeeeeeeeeeeeeeeeeeeeee6001600160a01b0316826001600160a01b03167f5cedcce6a827e65624771bcd2fafdeb4c7e1dfdf5a44d4fe904c4ee870eecd528560405161234191815260200190565b60405180910390a45050565b606080600081817f00000000000000000000000000000000000000000000000000000000000000006001600160a01b03161561241f577f00000000000000000000000000000000000000000000000000000000000000006001600160a01b031663b316ff896040518163ffffffff1660e01b815260040160006040518083038186803b1580156123dc57600080fd5b505afa1580156123f0573d6000803e3d6000fd5b505050506040513d6000823e601f3d908101601f191682016040526124189190810190614aaf565b9350835192505b7f00000000000000000000000000000000000000000000000000000000000000006001600160a01b0316156124ea577f00000000000000000000000000000000000000000000000000000000000000006001600160a01b031663b316ff896040518163ffffffff1660e01b815260040160006040518083038186803b1580156124a757600080fd5b505afa1580156124bb573d6000803e3d6000fd5b505050506040513d6000823e601f3d908101601f191682016040526124e39190810190614aaf565b9150815190505b6124f48184614bf7565b67ffffffffffffffff81111561250c5761250c614787565b60405190808252806020026020018201604052801561256257816020015b61254f6040805160608101909152806000815260606020820152600060409091015290565b81526020019060019003908161252a5790505b50945060005b83811015612655576002868281518110612584576125846147ba565b60200260200101516000019060038111156125a1576125a1614429565b908160038111156125b4576125b4614429565b815250508481815181106125ca576125ca6147ba565b6020026020010151600001518682815181106125e8576125e86147ba565b602002602001015160200181905250848181518110612609576126096147ba565b602002602001015160200151868281518110612627576126276147ba565b60209081029190910101516001600160a01b039091166040909101528061264d81614c0f565b915050612568565b506000805b828110156127535761266c8186614bf7565b91506003878381518110612682576126826147ba565b602002602001015160000190600381111561269f5761269f614429565b908160038111156126b2576126b2614429565b815250508381815181106126c8576126c86147ba565b6020026020010151600001518783815181106126e6576126e66147ba565b602002602001015160200181905250838181518110612707576127076147ba565b602002602001015160200151878381518110612725576127256147ba565b60209081029190910101516001600160a01b039091166040909101528061274b81614c0f565b91505061265a565b50505050505090565b6127688a8a8a8a6109ff565b6120fa8a878787878787611923565b600054610100900460ff16158080156127975750600054600160ff909116105b806127b15750303b1580156127b1575060005460ff166001145b6128145760405162461bcd60e51b815260206004820152602e60248201527f496e697469616c697a61626c653a20636f6e747261637420697320616c72656160448201526d191e481a5b9a5d1a585b1a5e995960921b6064820152608401611e49565b6000805460ff191660011790558015612837576000805461ff0019166101001790555b61283f61382f565b606580546001600160a01b0319166001600160a01b03841617905561286261301b565b80156128a8576000805461ff0019169055604051600181527f7f26b83ff96e1f2b6a682f133852f6798a09c465da95921460cefb38474024989060200160405180910390a15b5050565b6128a882826128b9612f4f565b6134cc565b60006128c8612f4f565b905060008960021415612979576040516334924edb60e21b81526001600160a01b038a811660048301527f0000000000000000000000000000000000000000000000000000000000000000169063d2493b6c9060240160606040518083038186803b15801561293657600080fd5b505afa15801561294a573d6000803e3d6000fd5b505050506040513d601f19601f8201168201806040525081019061296e91906146f6565b50909150612a189050565b6040516334924edb60e21b81526001600160a01b038a811660048301527f0000000000000000000000000000000000000000000000000000000000000000169063d2493b6c9060240160606040518083038186803b1580156129da57600080fd5b505afa1580156129ee573d6000803e3d6000fd5b505050506040513d601f19601f82011682018060405250810190612a1291906146f6565b50909150505b60405163d505accf60e01b81526001600160a01b0382169063d505accf90612a5090859030908c908c908c908c908c90600401614a41565b600060405180830381600087803b158015612a6a57600080fd5b505af1158015612a7e573d6000803e3d6000fd5b505050506120fa8a8a8a858561385e565b612a9b8b8b8b8b6109ff565b612aab8b888888888888886128be565b5050505050505050505050565b6000612ac2612f4f565b905060008460021415612b73576040516334924edb60e21b81526001600160a01b0385811660048301527f0000000000000000000000000000000000000000000000000000000000000000169063d2493b6c9060240160606040518083038186803b158015612b3057600080fd5b505afa158015612b44573d6000803e3d6000fd5b505050506040513d601f19601f82011682018060405250810190612b6891906146f6565b50909150612c129050565b6040516334924edb60e21b81526001600160a01b0385811660048301527f0000000000000000000000000000000000000000000000000000000000000000169063d2493b6c9060240160606040518083038186803b158015612bd457600080fd5b505afa158015612be8573d6000803e3d6000fd5b505050506040513d601f19601f82011682018060405250810190612c0c91906146f6565b50909150505b6109ce858585858561385e565b600080808080808760021415612d8f5760007f00000000000000000000000000000000000000000000000000000000000000006001600160a01b03166350d25bcd6040518163ffffffff1660e01b815260040160206040518083038186803b158015612c8a57600080fd5b505afa158015612c9e573d6000803e3d6000fd5b505050506040513d601f19601f82011682018060405250810190612cc29190614743565b604051632fe4a15f60e21b81526001600160a01b038a811660048301529192507f00000000000000000000000000000000000000000000000000000000000000009091169063bf92857c9060240160c06040518083038186803b158015612d2857600080fd5b505afa158015612d3c573d6000803e3d6000fd5b505050506040513d601f19601f82011682018060405250810190612d609190614c2a565b670de0b6b3a76400009587028690049c509386028590049a509190940292909204965091945092509050612e38565b604051632fe4a15f60e21b81526001600160a01b0388811660048301527f0000000000000000000000000000000000000000000000000000000000000000169063bf92857c9060240160c06040518083038186803b158015612df057600080fd5b505afa158015612e04573d6000803e3d6000fd5b505050506040513d601f19601f82011682018060405250810190612e289190614c2a565b949a509298509096509450925090505b9295509295509295565b612e4a612ed6565b6001600160a01b038116612eaf5760405162461bcd60e51b815260206004820152602660248201527f4f776e61626c653a206e6577206f776e657220697320746865207a65726f206160448201526564647265737360d01b6064820152608401611e49565b612eb881612fc9565b50565b612ec68a8a8a611c2d565b6120fa8a888888888888886128be565b612ede612f4f565b6001600160a01b0316612ef96033546001600160a01b031690565b6001600160a01b0316146111465760405162461bcd60e51b815260206004820181905260248201527f4f776e61626c653a2063616c6c6572206973206e6f7420746865206f776e65726044820152606401611e49565b6000612f59613a95565b905090565b6040516001600160a01b0380851660248301528316604482015260648101829052610e0f9085906323b872dd60e01b906084015b60408051601f198184030181529190526020810180516001600160e01b03166001600160e01b031990931692909217909152613ac9565b603380546001600160a01b038381166001600160a01b0319831681179093556040519116919082907f8be0079c531659141344cd1fd0a4f28419497f9722a3daafe3b4186f6b6457e090600090a35050565b7f00000000000000000000000000000000000000000000000000000000000000006001600160a01b0316156132015760007f00000000000000000000000000000000000000000000000000000000000000006001600160a01b031663d1946dbc6040518163ffffffff1660e01b815260040160006040518083038186803b1580156130a557600080fd5b505afa1580156130b9573d6000803e3d6000fd5b505050506040513d6000823e601f3d908101601f191682016040526130e19190810190614c74565b905060005b81518110156131fe576000828281518110613103576131036147ba565b6020908102919091010151604051636eb1769f60e11b81523060048201526001600160a01b037f0000000000000000000000000000000000000000000000000000000000000000811660248301529192509082169063dd62ed3e9060440160206040518083038186803b15801561317957600080fd5b505afa15801561318d573d6000803e3d6000fd5b505050506040513d601f19601f820116820180604052508101906131b19190614743565b6131eb576131eb6001600160a01b0382167f0000000000000000000000000000000000000000000000000000000000000000600019613b9b565b50806131f681614c0f565b9150506130e6565b50505b7f00000000000000000000000000000000000000000000000000000000000000006001600160a01b0316156111465760007f00000000000000000000000000000000000000000000000000000000000000006001600160a01b031663d1946dbc6040518163ffffffff1660e01b815260040160006040518083038186803b15801561328b57600080fd5b505afa15801561329f573d6000803e3d6000fd5b505050506040513d6000823e601f3d908101601f191682016040526132c79190810190614c74565b905060005b81518110156128a85760008282815181106132e9576132e96147ba565b6020908102919091010151604051636eb1769f60e11b81523060048201526001600160a01b037f0000000000000000000000000000000000000000000000000000000000000000811660248301529192509082169063dd62ed3e9060440160206040518083038186803b15801561335f57600080fd5b505afa158015613373573d6000803e3d6000fd5b505050506040513d601f19601f820116820180604052508101906133979190614743565b6133d1576133d16001600160a01b0382167f0000000000000000000000000000000000000000000000000000000000000000600019613b9b565b50806133dc81614c0f565b9150506132cc565b6040516001600160a01b03831660248201526044810182905261341490849063a9059cbb60e01b90606401612f92565b505050565b604080516000808252602082019092526001600160a01b0384169083906040516134439190614ca9565b60006040518083038185875af1925050503d8060008114613480576040519150601f19603f3d011682016040523d82523d6000602084013e613485565b606091505b50509050806134145760405162461bcd60e51b815260206004820152601360248201527211551217d514905394d1915497d19052531151606a1b6044820152606401611e49565b6000600284146134fc577f000000000000000000000000000000000000000000000000000000000000000061351e565b7f00000000000000000000000000000000000000000000000000000000000000005b9050826000198114156135a7576040516370a0823160e01b81526001600160a01b0384811660048301528316906370a082319060240160206040518083038186803b15801561356c57600080fd5b505afa158015613580573d6000803e3d6000fd5b505050506040513d601f19601f820116820180604052508101906135a49190614743565b90505b6135bc6001600160a01b038316843084612f5e565b846002141561368d57604051631a4ca37b60e21b81526001600160a01b037f000000000000000000000000000000000000000000000000000000000000000016906369328dec90613635907f00000000000000000000000000000000000000000000000000000000000000009085903090600401614cc5565b602060405180830381600087803b15801561364f57600080fd5b505af1158015613663573d6000803e3d6000fd5b505050506040513d601f19601f820116820180604052508101906136879190614743565b50613751565b604051631a4ca37b60e21b81526001600160a01b037f000000000000000000000000000000000000000000000000000000000000000016906369328dec906136fd907f00000000000000000000000000000000000000000000000000000000000000009085903090600401614cc5565b602060405180830381600087803b15801561371757600080fd5b505af115801561372b573d6000803e3d6000fd5b505050506040513d601f19601f8201168201806040525081019061374f9190614743565b505b604051632e1a7d4d60e01b8152600481018290527f00000000000000000000000000000000000000000000000000000000000000006001600160a01b031690632e1a7d4d90602401600060405180830381600087803b1580156137b357600080fd5b505af11580156137c7573d6000803e3d6000fd5b505050506137d58382613419565b8073eeeeeeeeeeeeeeeeeeeeeeeeeeeeeeeeeeeeeeee6001600160a01b0316846001600160a01b03167f457f950b75085c30ff780acd57bde642ff1316cc4aad9f286af2c1ffc4163a788860405161148c91815260200190565b600054610100900460ff166138565760405162461bcd60e51b8152600401611e4990614ce8565b611146613cbf565b826000198114156138e5576040516370a0823160e01b81526001600160a01b0384811660048301528316906370a082319060240160206040518083038186803b1580156138aa57600080fd5b505afa1580156138be573d6000803e3d6000fd5b505050506040513d601f19601f820116820180604052508101906138e29190614743565b90505b6138fa6001600160a01b038316843084612f5e565b85600214156139ab57604051631a4ca37b60e21b81526001600160a01b037f000000000000000000000000000000000000000000000000000000000000000016906369328dec9061395390889085908890600401614cc5565b602060405180830381600087803b15801561396d57600080fd5b505af1158015613981573d6000803e3d6000fd5b505050506040513d601f19601f820116820180604052508101906139a59190614743565b50613a4f565b604051631a4ca37b60e21b81526001600160a01b037f000000000000000000000000000000000000000000000000000000000000000016906369328dec906139fb90889085908890600401614cc5565b602060405180830381600087803b158015613a1557600080fd5b505af1158015613a29573d6000803e3d6000fd5b505050506040513d601f19601f82011682018060405250810190613a4d9190614743565b505b80856001600160a01b0316846001600160a01b03167f457f950b75085c30ff780acd57bde642ff1316cc4aad9f286af2c1ffc4163a7889604051610db491815260200190565b600060183610801590613ab257506065546001600160a01b031633145b15613ac4575060131936013560601c90565b503390565b6000613b1e826040518060400160405280602081526020017f5361666545524332303a206c6f772d6c6576656c2063616c6c206661696c6564815250856001600160a01b0316613cf69092919063ffffffff16565b8051909150156134145780806020019051810190613b3c9190614d33565b6134145760405162461bcd60e51b815260206004820152602a60248201527f5361666545524332303a204552433230206f7065726174696f6e20646964206e6044820152691bdd081cdd58d8d9595960b21b6064820152608401611e49565b801580613c245750604051636eb1769f60e11b81523060048201526001600160a01b03838116602483015284169063dd62ed3e9060440160206040518083038186803b158015613bea57600080fd5b505afa158015613bfe573d6000803e3d6000fd5b505050506040513d601f19601f82011682018060405250810190613c229190614743565b155b613c8f5760405162461bcd60e51b815260206004820152603660248201527f5361666545524332303a20617070726f76652066726f6d206e6f6e2d7a65726f60448201527520746f206e6f6e2d7a65726f20616c6c6f77616e636560501b6064820152608401611e49565b6040516001600160a01b03831660248201526044810182905261341490849063095ea7b360e01b90606401612f92565b600054610100900460ff16613ce65760405162461bcd60e51b8152600401611e4990614ce8565b611146613cf1612f4f565b612fc9565b6060613d058484600085613d0d565b949350505050565b606082471015613d6e5760405162461bcd60e51b815260206004820152602660248201527f416464726573733a20696e73756666696369656e742062616c616e636520666f6044820152651c8818d85b1b60d21b6064820152608401611e49565b600080866001600160a01b03168587604051613d8a9190614ca9565b60006040518083038185875af1925050503d8060008114613dc7576040519150601f19603f3d011682016040523d82523d6000602084013e613dcc565b606091505b5091509150613ddd87838387613de8565b979650505050505050565b60608315613e54578251613e4d576001600160a01b0385163b613e4d5760405162461bcd60e51b815260206004820152601d60248201527f416464726573733a2063616c6c20746f206e6f6e2d636f6e74726163740000006044820152606401611e49565b5081613d05565b613d058383815115613e695781518083602001fd5b8060405162461bcd60e51b8152600401611e499190614054565b6001600160a01b0381168114612eb857600080fd5b600080600080600060a08688031215613eb057600080fd5b8535945060208601359350604086013592506060860135613ed081613e83565b949793965091946080013592915050565b600060208284031215613ef357600080fd5b8135613efe81613e83565b9392505050565b60008060008060808587031215613f1b57600080fd5b843593506020850135613f2d81613e83565b93969395505050506040820135916060013590565b60008060008060008060c08789031215613f5b57600080fd5b863595506020870135613f6d81613e83565b9450604087013593506060870135613f8481613e83565b9598949750929560808101359460a0909101359350915050565b60008060008060008060c08789031215613fb757600080fd5b863595506020870135613fc981613e83565b945060408701359350606087013592506080870135613fe781613e83565b8092505060a087013590509295509295509295565b60005b83811015614017578181015183820152602001613fff565b83811115610e0f5750506000910152565b60008151808452614040816020860160208601613ffc565b601f01601f19169290920160200192915050565b602081526000613efe6020830184614028565b6000806000806060858703121561407d57600080fd5b84359350602085013567ffffffffffffffff8082111561409c57600080fd5b818701915087601f8301126140b057600080fd5b8135818111156140bf57600080fd5b8860208260051b85010111156140d457600080fd5b60208301955080945050505060408501356140ee81613e83565b939692955090935050565b604080825283519082018190526000906020906060840190828701845b8281101561413b5781516001600160a01b031684529284019290840190600101614116565b5050508381038285015284518082528583019183019060005b8181101561417057835183529284019291840191600101614154565b5090979650505050505050565b803560ff8116811461418e57600080fd5b919050565b60008060008060008060008060006101208a8c0312156141b257600080fd5b89356141bd81613e83565b985060208a0135975060408a0135965060608a0135955060808a0135945060a08a013593506141ee60c08b0161417d565b925060e08a013591506101008a013590509295985092959850929598565b600080600080600060a0868803121561422457600080fd5b85359450602086013561423681613e83565b94979496505050506040830135926060810135926080909101359150565b60008060006060848603121561426957600080fd5b83359250602084013561427b81613e83565b929592945050506040919091013590565b600080600080600080600060e0888a0312156142a757600080fd5b873596506020880135955060408801359450606088013593506142cc6080890161417d565b925060a0880135915060c0880135905092959891949750929550565b600080600080600080600080610100898b03121561430557600080fd5b883561431081613e83565b97506020890135965060408901359550606089013594506080890135935061433a60a08a0161417d565b925060c0890135915060e089013590509295985092959890939650565b60008060006060848603121561436c57600080fd5b505081359360208301359350604090920135919050565b6000806000806000806000806000806101408b8d0312156143a357600080fd5b8a356143ae81613e83565b995060208b0135985060408b01356143c581613e83565b975060608b0135965060808b0135955060a08b0135945060c08b013593506143ef60e08c0161417d565b92506101008b013591506101208b013590509295989b9194979a5092959850565b60006020828403121561442257600080fd5b5035919050565b634e487b7160e01b600052602160045260246000fd5b60006020808301818452808551808352604092508286019150828160051b8701018488016000805b848110156144da57603f198a8503018652825160608151600480821061449a57634e487b7160e01b865260218152602486fd5b508652818a01518a87018290526144b382880182614028565b928a01516001600160a01b0316968a01969096525095880195935091870191600101614467565b50919998505050505050505050565b6000806000806000806000806000806101408b8d03121561450957600080fd5b8a35995060208b013561451b81613e83565b985060408b0135975060608b0135965060808b0135955060a08b0135945060c08b013593506143ef60e08c0161417d565b6000806040838503121561455f57600080fd5b50508035926020909101359150565b600080600080600080600080610100898b03121561458b57600080fd5b88359750602089013561459d81613e83565b965060408901359550606089013594506080890135935061433a60a08a0161417d565b60008060008060008060008060008060006101608c8e0312156145e257600080fd5b8b359a5060208c01356145f481613e83565b995060408c0135985060608c0135975060808c013561461281613e83565b965060a08c0135955060c08c0135945060e08c013593506146366101008d0161417d565b92506101208c013591506101408c013590509295989b509295989b9093969950565b6000806040838503121561466b57600080fd5b82359150602083013561467d81613e83565b809150509250929050565b6000806000806000806000806000806101408b8d0312156146a857600080fd5b8a35995060208b0135985060408b0135975060608b01356146c881613e83565b965060808b0135955060a08b0135945060c08b013593506143ef60e08c0161417d565b805161418e81613e83565b60008060006060848603121561470b57600080fd5b835161471681613e83565b602085015190935061472781613e83565b604085015190925061473881613e83565b809150509250925092565b60006020828403121561475557600080fd5b5051919050565b6001600160a01b03948516815260208101939093526040830191909152909116606082015260800190565b634e487b7160e01b600052604160045260246000fd5b6000602082840312156147af57600080fd5b8151613efe81613e83565b634e487b7160e01b600052603260045260246000fd5b6040808252810183905260008460608301825b868110156148135782356147f681613e83565b6001600160a01b03168252602092830192909101906001016147e3565b506001600160a01b03949094166020939093019290925250909392505050565b6040805190810167ffffffffffffffff8111828210171561485657614856614787565b60405290565b604051601f8201601f1916810167ffffffffffffffff8111828210171561488557614885614787565b604052919050565b600067ffffffffffffffff8211156148a7576148a7614787565b5060051b60200190565b600082601f8301126148c257600080fd5b815160206148d76148d28361488d565b61485c565b82815260059290921b840181019181810190868411156148f657600080fd5b8286015b8481101561491a57805161490d81613e83565b83529183019183016148fa565b509695505050505050565b6000806040838503121561493857600080fd5b825167ffffffffffffffff8082111561495057600080fd5b61495c868387016148b1565b935060209150818501518181111561497357600080fd5b85019050601f8101861361498657600080fd5b80516149946148d28261488d565b81815260059190911b820183019083810190888311156149b357600080fd5b928401925b828410156149d1578351825292840192908401906149b8565b80955050505050509250929050565b6001600160a01b03948516815260208101939093529216604082015261ffff909116606082015260800190565b6001600160a01b0395861681526020810194909452604084019290925261ffff166060830152909116608082015260a00190565b6001600160a01b0397881681529590961660208601526040850193909352606084019190915260ff16608083015260a082015260c081019190915260e00190565b634e487b7160e01b600052601160045260246000fd5b600082821015614aaa57614aaa614a82565b500390565b60006020808385031215614ac257600080fd5b825167ffffffffffffffff80821115614ada57600080fd5b818501915085601f830112614aee57600080fd5b8151614afc6148d28261488d565b81815260059190911b83018401908481019088831115614b1b57600080fd5b8585015b83811015614bea57805185811115614b375760008081fd5b86016040601f19828d038101821315614b505760008081fd5b614b58614833565b8a84015189811115614b6a5760008081fd5b8401603f81018f13614b7c5760008081fd5b8b8101518a811115614b9057614b90614787565b614ba08d85601f8401160161485c565b93508084528f85828401011115614bb75760008081fd5b614bc6818e8601878501613ffc565b5050818152614bd68385016146eb565b818c01528652505050918601918601614b1f565b5098975050505050505050565b60008219821115614c0a57614c0a614a82565b500190565b6000600019821415614c2357614c23614a82565b5060010190565b60008060008060008060c08789031215614c4357600080fd5b865195506020870151945060408701519350606087015192506080870151915060a087015190509295509295509295565b600060208284031215614c8657600080fd5b815167ffffffffffffffff811115614c9d57600080fd5b613d05848285016148b1565b60008251614cbb818460208701613ffc565b9190910192915050565b6001600160a01b0393841681526020810192909252909116604082015260600190565b6020808252602b908201527f496e697469616c697a61626c653a20636f6e7472616374206973206e6f74206960408201526a6e697469616c697a696e6760a81b606082015260800190565b600060208284031215614d4557600080fd5b81518015158114613efe57600080fdfe49dd87b26edb1c92c93f83b092bd5a425c6bf7a562c0fed02f2576c49f477ba4a264697066735822122041862c9cef60645ae4cda2d5a9170ae86a5d212e6b959f5a7553581f793bd38264736f6c63430008090033",
  "devdoc": {
    "kind": "dev",
    "methods": {
      "constructor": {
        "custom:oz-upgrades-unsafe-allow": "constructor"
      },
      "getAllUserRewards(uint256,address[],address)": {
        "details": "Returns a list all rewards of a user, including already accrued and unrealized claimable rewards",
        "params": {
          "assets": "List of incentivized assets to check eligible distributions. It's used only for v3. It should be address of AToken or VariableDebtToken",
          "user": "The address of the user"
        },
        "returns": {
          "_0": "The list of reward addresses",
          "_1": "The list of unclaimed amount of rewards*"
        }
      },
      "getUserAccountData(uint256,address)": {
        "params": {
          "user": "The address of the user"
        },
        "returns": {
          "availableBorrows": "The borrowing power left of the user in USD",
          "currentLiquidationThreshold": "The liquidation threshold of the user",
          "healthFactor": "The current health factor of the user",
          "ltv": "The loan to value of The user",
          "totalCollateral": "The total collateral of the user in USD. The unit is 100000000",
          "totalDebt": "The total debt of the user in USD"
        }
      },
      "owner()": {
        "details": "Returns the address of the current owner."
      },
      "renounceOwnership()": {
        "details": "Leaves the contract without owner. It will not be possible to call `onlyOwner` functions anymore. Can only be called by the current owner. NOTE: Renouncing ownership will leave the contract without an owner, thereby removing any functionality that is only available to the owner."
      },
      "transferOwnership(address)": {
        "details": "Transfers ownership of the contract to a new account (`newOwner`). Can only be called by the current owner."
      }
    },
    "version": 1
  },
  "userdoc": {
    "kind": "user",
    "methods": {
      "approvePool()": {
        "notice": "If new assets are added into the pool, it needs to be called."
      },
      "borrow(uint256,address,uint256,uint256)": {
        "notice": "The user must approve the delegation to this SC for the asset's debtToken."
      },
      "borrowETHWithPermit(uint256,uint256,uint256,uint256,uint8,bytes32,bytes32)": {
        "notice": "It works for only v3."
      },
      "borrowWithPermit(address,uint256,uint256,uint256,uint256,uint8,bytes32,bytes32)": {
        "notice": "It works for only v3."
      },
      "getUserAccountData(uint256,address)": {
        "notice": "Returns the user account data across all the reserves"
      },
      "isTrustedForwarder(address)": {
        "notice": "return if the forwarder is trusted to forward relayed transactions to us. the forwarder is required to verify the sender's signature, and verify the call is not a replay."
      },
      "repay(uint256,address,uint256,uint256)": {
        "notice": "The user must approve this SC for the asset."
      },
      "supply(uint256,address,uint256)": {
        "notice": "The user must approve this SC for the asset."
      },
      "supplyAndBorrowETHWithPermit(address,uint256,uint256,uint256,uint256,uint256,uint8,bytes32,bytes32)": {
        "notice": "It works for only v3."
      },
      "supplyAndBorrowWithPermit(address,uint256,address,uint256,uint256,uint256,uint256,uint8,bytes32,bytes32)": {
        "notice": "It works for only v3."
      },
      "supplyETHAndBorrowWithPermit(address,uint256,uint256,uint256,uint256,uint8,bytes32,bytes32)": {
        "notice": "It works for only v3."
      },
      "withdraw(uint256,address,uint256)": {
        "notice": "The user must approve this SC for the asset's aToken."
      }
    },
    "version": 1
  },
  "storageLayout": {
    "storage": [
      {
        "astId": 169,
        "contract": "contracts/AaveAdapter.sol:AaveAdapter",
        "label": "_initialized",
        "offset": 0,
        "slot": "0",
        "type": "t_uint8"
      },
      {
        "astId": 172,
        "contract": "contracts/AaveAdapter.sol:AaveAdapter",
        "label": "_initializing",
        "offset": 1,
        "slot": "0",
        "type": "t_bool"
      },
      {
        "astId": 1051,
        "contract": "contracts/AaveAdapter.sol:AaveAdapter",
        "label": "__gap",
        "offset": 0,
        "slot": "1",
        "type": "t_array(t_uint256)50_storage"
      },
      {
        "astId": 41,
        "contract": "contracts/AaveAdapter.sol:AaveAdapter",
        "label": "_owner",
        "offset": 0,
        "slot": "51",
        "type": "t_address"
      },
      {
        "astId": 161,
        "contract": "contracts/AaveAdapter.sol:AaveAdapter",
        "label": "__gap",
        "offset": 0,
        "slot": "52",
        "type": "t_array(t_uint256)49_storage"
      },
      {
        "astId": 4653,
        "contract": "contracts/AaveAdapter.sol:AaveAdapter",
        "label": "trustedForwarder",
        "offset": 0,
        "slot": "101",
        "type": "t_address"
      }
    ],
    "types": {
      "t_address": {
        "encoding": "inplace",
        "label": "address",
        "numberOfBytes": "20"
      },
      "t_array(t_uint256)49_storage": {
        "base": "t_uint256",
        "encoding": "inplace",
        "label": "uint256[49]",
        "numberOfBytes": "1568"
      },
      "t_array(t_uint256)50_storage": {
        "base": "t_uint256",
        "encoding": "inplace",
        "label": "uint256[50]",
        "numberOfBytes": "1600"
      },
      "t_bool": {
        "encoding": "inplace",
        "label": "bool",
        "numberOfBytes": "1"
      },
      "t_uint256": {
        "encoding": "inplace",
        "label": "uint256",
        "numberOfBytes": "32"
      },
      "t_uint8": {
        "encoding": "inplace",
        "label": "uint8",
        "numberOfBytes": "1"
      }
    }
  }
}