{
  "address": "0x48Ef64b90c7c04AE5353Bdaab075242D8B325170",
  "abi": [
    {
      "inputs": [
        {
          "internalType": "address",
          "name": "_v2DataProvider",
          "type": "address"
        },
        {
          "internalType": "address",
          "name": "_v3AddressesProvider",
          "type": "address"
        },
        {
          "internalType": "address",
          "name": "_wnative",
          "type": "address"
        },
        {
          "internalType": "address",
          "name": "_v2BaseCurrencyPriceSource",
          "type": "address"
        }
      ],
      "stateMutability": "nonpayable",
      "type": "constructor"
    },
    {
      "anonymous": false,
      "inputs": [
        {
          "indexed": true,
          "internalType": "address",
          "name": "account",
          "type": "address"
        },
        {
          "indexed": false,
          "internalType": "uint256",
          "name": "version",
          "type": "uint256"
        },
        {
          "indexed": true,
          "internalType": "address",
          "name": "asset",
          "type": "address"
        },
        {
          "indexed": true,
          "internalType": "uint256",
          "name": "amount",
          "type": "uint256"
        },
        {
          "indexed": false,
          "internalType": "uint256",
          "name": "interestRateMode",
          "type": "uint256"
        }
      ],
      "name": "Borrow",
      "type": "event"
    },
    {
      "anonymous": false,
      "inputs": [
        {
          "indexed": false,
          "internalType": "uint8",
          "name": "version",
          "type": "uint8"
        }
      ],
      "name": "Initialized",
      "type": "event"
    },
    {
      "anonymous": false,
      "inputs": [
        {
          "indexed": true,
          "internalType": "address",
          "name": "previousOwner",
          "type": "address"
        },
        {
          "indexed": true,
          "internalType": "address",
          "name": "newOwner",
          "type": "address"
        }
      ],
      "name": "OwnershipTransferred",
      "type": "event"
    },
    {
      "anonymous": false,
      "inputs": [
        {
          "indexed": true,
          "internalType": "address",
          "name": "account",
          "type": "address"
        },
        {
          "indexed": false,
          "internalType": "uint256",
          "name": "version",
          "type": "uint256"
        },
        {
          "indexed": true,
          "internalType": "address",
          "name": "asset",
          "type": "address"
        },
        {
          "indexed": true,
          "internalType": "uint256",
          "name": "amount",
          "type": "uint256"
        },
        {
          "indexed": false,
          "internalType": "uint256",
          "name": "interestRateMode",
          "type": "uint256"
        }
      ],
      "name": "Repay",
      "type": "event"
    },
    {
      "anonymous": false,
      "inputs": [
        {
          "indexed": true,
          "internalType": "address",
          "name": "account",
          "type": "address"
        },
        {
          "indexed": false,
          "internalType": "uint256",
          "name": "version",
          "type": "uint256"
        },
        {
          "indexed": true,
          "internalType": "address",
          "name": "asset",
          "type": "address"
        },
        {
          "indexed": true,
          "internalType": "uint256",
          "name": "amount",
          "type": "uint256"
        }
      ],
      "name": "Supply",
      "type": "event"
    },
    {
      "anonymous": false,
      "inputs": [
        {
          "indexed": true,
          "internalType": "address",
          "name": "account",
          "type": "address"
        },
        {
          "indexed": false,
          "internalType": "uint256",
          "name": "version",
          "type": "uint256"
        },
        {
          "indexed": true,
          "internalType": "address",
          "name": "asset",
          "type": "address"
        },
        {
          "indexed": true,
          "internalType": "uint256",
          "name": "amount",
          "type": "uint256"
        }
      ],
      "name": "Withdraw",
      "type": "event"
    },
    {
      "inputs": [],
      "name": "V2_ADDRESSES_PROVIDER",
      "outputs": [
        {
          "internalType": "contract ILendingPoolAddressesProvider",
          "name": "",
          "type": "address"
        }
      ],
      "stateMutability": "view",
      "type": "function"
    },
    {
      "inputs": [],
      "name": "V2_BASE_CURRENCY_PRICE_SOURCE",
      "outputs": [
        {
          "internalType": "contract IChainlinkAggregator",
          "name": "",
          "type": "address"
        }
      ],
      "stateMutability": "view",
      "type": "function"
    },
    {
      "inputs": [],
      "name": "V2_DATA_PROVIDER",
      "outputs": [
        {
          "internalType": "contract IAaveProtocolDataProvider",
          "name": "",
          "type": "address"
        }
      ],
      "stateMutability": "view",
      "type": "function"
    },
    {
      "inputs": [],
      "name": "V2_LENDING_POOL",
      "outputs": [
        {
          "internalType": "contract ILendingPool",
          "name": "",
          "type": "address"
        }
      ],
      "stateMutability": "view",
      "type": "function"
    },
    {
      "inputs": [],
      "name": "V2_PRICE_ORACLE",
      "outputs": [
        {
          "internalType": "contract IAaveOracle",
          "name": "",
          "type": "address"
        }
      ],
      "stateMutability": "view",
      "type": "function"
    },
    {
      "inputs": [],
      "name": "V2_REWARDS_CONTROLLER",
      "outputs": [
        {
          "internalType": "contract IAaveIncentivesController",
          "name": "",
          "type": "address"
        }
      ],
      "stateMutability": "view",
      "type": "function"
    },
    {
      "inputs": [],
      "name": "V2_aWNATIVE",
      "outputs": [
        {
          "internalType": "address",
          "name": "",
          "type": "address"
        }
      ],
      "stateMutability": "view",
      "type": "function"
    },
    {
      "inputs": [],
      "name": "V3_ADDRESSES_PROVIDER",
      "outputs": [
        {
          "internalType": "contract IPoolAddressesProvider",
          "name": "",
          "type": "address"
        }
      ],
      "stateMutability": "view",
      "type": "function"
    },
    {
      "inputs": [],
      "name": "V3_DATA_PROVIDER",
      "outputs": [
        {
          "internalType": "contract IPoolDataProvider",
          "name": "",
          "type": "address"
        }
      ],
      "stateMutability": "view",
      "type": "function"
    },
    {
      "inputs": [],
      "name": "V3_POOL",
      "outputs": [
        {
          "internalType": "contract IPool",
          "name": "",
          "type": "address"
        }
      ],
      "stateMutability": "view",
      "type": "function"
    },
    {
      "inputs": [],
      "name": "V3_PRICE_ORACLE",
      "outputs": [
        {
          "internalType": "contract IAaveOracle",
          "name": "",
          "type": "address"
        }
      ],
      "stateMutability": "view",
      "type": "function"
    },
    {
      "inputs": [],
      "name": "V3_REWARDS_CONTROLLER",
      "outputs": [
        {
          "internalType": "contract IRewardsController",
          "name": "",
          "type": "address"
        }
      ],
      "stateMutability": "view",
      "type": "function"
    },
    {
      "inputs": [],
      "name": "V3_aWNATIVE",
      "outputs": [
        {
          "internalType": "address",
          "name": "",
          "type": "address"
        }
      ],
      "stateMutability": "view",
      "type": "function"
    },
    {
      "inputs": [],
      "name": "WNATIVE",
      "outputs": [
        {
          "internalType": "contract IWETH",
          "name": "",
          "type": "address"
        }
      ],
      "stateMutability": "view",
      "type": "function"
    },
    {
      "inputs": [],
      "name": "approvePool",
      "outputs": [],
      "stateMutability": "nonpayable",
      "type": "function"
    },
    {
      "inputs": [
        {
          "internalType": "uint256",
          "name": "version",
          "type": "uint256"
        },
        {
          "internalType": "address",
          "name": "asset",
          "type": "address"
        },
        {
          "internalType": "uint256",
          "name": "amount",
          "type": "uint256"
        },
        {
          "internalType": "uint256",
          "name": "interestRateMode",
          "type": "uint256"
        }
      ],
      "name": "borrow",
      "outputs": [],
      "stateMutability": "nonpayable",
      "type": "function"
    },
    {
      "inputs": [
        {
          "internalType": "uint256",
          "name": "version",
          "type": "uint256"
        },
        {
          "internalType": "uint256",
          "name": "amount",
          "type": "uint256"
        },
        {
          "internalType": "uint256",
          "name": "interestRateMode",
          "type": "uint256"
        }
      ],
      "name": "borrowETH",
      "outputs": [],
      "stateMutability": "nonpayable",
      "type": "function"
    },
    {
      "inputs": [
        {
          "internalType": "uint256",
          "name": "amount",
          "type": "uint256"
        },
        {
          "internalType": "uint256",
          "name": "interestRateMode",
          "type": "uint256"
        },
        {
          "internalType": "uint256",
          "name": "permitAmount",
          "type": "uint256"
        },
        {
          "internalType": "uint256",
          "name": "permitDeadline",
          "type": "uint256"
        },
        {
          "internalType": "uint8",
          "name": "permitV",
          "type": "uint8"
        },
        {
          "internalType": "bytes32",
          "name": "permitR",
          "type": "bytes32"
        },
        {
          "internalType": "bytes32",
          "name": "permitS",
          "type": "bytes32"
        }
      ],
      "name": "borrowETHWithPermit",
      "outputs": [],
      "stateMutability": "nonpayable",
      "type": "function"
    },
    {
      "inputs": [
        {
          "internalType": "address",
          "name": "asset",
          "type": "address"
        },
        {
          "internalType": "uint256",
          "name": "amount",
          "type": "uint256"
        },
        {
          "internalType": "uint256",
          "name": "interestRateMode",
          "type": "uint256"
        },
        {
          "internalType": "uint256",
          "name": "permitAmount",
          "type": "uint256"
        },
        {
          "internalType": "uint256",
          "name": "permitDeadline",
          "type": "uint256"
        },
        {
          "internalType": "uint8",
          "name": "permitV",
          "type": "uint8"
        },
        {
          "internalType": "bytes32",
          "name": "permitR",
          "type": "bytes32"
        },
        {
          "internalType": "bytes32",
          "name": "permitS",
          "type": "bytes32"
        }
      ],
      "name": "borrowWithPermit",
      "outputs": [],
      "stateMutability": "nonpayable",
      "type": "function"
    },
    {
      "inputs": [],
      "name": "getAllReservesTokens",
      "outputs": [
        {
          "components": [
            {
              "internalType": "enum VERSION",
              "name": "version",
              "type": "uint8"
            },
            {
              "internalType": "string",
              "name": "symbol",
              "type": "string"
            },
            {
              "internalType": "address",
              "name": "tokenAddress",
              "type": "address"
            }
          ],
          "internalType": "struct TokenDataEx[]",
          "name": "tokens",
          "type": "tuple[]"
        }
      ],
      "stateMutability": "view",
      "type": "function"
    },
    {
      "inputs": [
        {
          "internalType": "uint256",
          "name": "version",
          "type": "uint256"
        },
        {
          "internalType": "address[]",
          "name": "scaledBalanceTokens",
          "type": "address[]"
        },
        {
          "internalType": "address",
          "name": "user",
          "type": "address"
        }
      ],
      "name": "getAllUserRewards",
      "outputs": [
        {
          "components": [
            {
              "internalType": "address",
              "name": "token",
              "type": "address"
            },
            {
              "internalType": "string",
              "name": "symbol",
              "type": "string"
            },
            {
              "internalType": "uint8",
              "name": "decimals",
              "type": "uint8"
            },
            {
              "internalType": "uint256",
              "name": "rewardAmount",
              "type": "uint256"
            },
            {
              "internalType": "uint256",
              "name": "rewardValueInUSD",
              "type": "uint256"
            }
          ],
          "internalType": "struct AaveAdapter.Reward[]",
          "name": "",
          "type": "tuple[]"
        }
      ],
      "stateMutability": "view",
      "type": "function"
    },
    {
      "inputs": [
        {
          "internalType": "uint256",
          "name": "version",
          "type": "uint256"
        },
        {
          "internalType": "address",
          "name": "asset",
          "type": "address"
        }
      ],
      "name": "getRewardAPRs",
      "outputs": [
        {
          "internalType": "uint256",
          "name": "supplyAPR",
          "type": "uint256"
        },
        {
          "internalType": "uint256",
          "name": "stableBorrowAPR",
          "type": "uint256"
        },
        {
          "internalType": "uint256",
          "name": "variableBorrowAPR",
          "type": "uint256"
        }
      ],
      "stateMutability": "view",
      "type": "function"
    },
    {
      "inputs": [
        {
          "internalType": "uint256",
          "name": "version",
          "type": "uint256"
        },
        {
          "internalType": "address",
          "name": "user",
          "type": "address"
        }
      ],
      "name": "getUserAccountData",
      "outputs": [
        {
          "internalType": "uint256",
          "name": "totalCollateral",
          "type": "uint256"
        },
        {
          "internalType": "uint256",
          "name": "totalDebt",
          "type": "uint256"
        },
        {
          "internalType": "uint256",
          "name": "availableBorrows",
          "type": "uint256"
        },
        {
          "internalType": "uint256",
          "name": "currentLiquidationThreshold",
          "type": "uint256"
        },
        {
          "internalType": "uint256",
          "name": "ltv",
          "type": "uint256"
        },
        {
          "internalType": "uint256",
          "name": "healthFactor",
          "type": "uint256"
        }
      ],
      "stateMutability": "view",
      "type": "function"
    },
    {
      "inputs": [
        {
          "internalType": "address",
          "name": "_biconomy",
          "type": "address"
        }
      ],
      "name": "initialize",
      "outputs": [],
      "stateMutability": "nonpayable",
      "type": "function"
    },
    {
      "inputs": [
        {
          "internalType": "address",
          "name": "forwarder",
          "type": "address"
        }
      ],
      "name": "isTrustedForwarder",
      "outputs": [
        {
          "internalType": "bool",
          "name": "",
          "type": "bool"
        }
      ],
      "stateMutability": "view",
      "type": "function"
    },
    {
      "inputs": [],
      "name": "owner",
      "outputs": [
        {
          "internalType": "address",
          "name": "",
          "type": "address"
        }
      ],
      "stateMutability": "view",
      "type": "function"
    },
    {
      "inputs": [],
      "name": "renounceOwnership",
      "outputs": [],
      "stateMutability": "nonpayable",
      "type": "function"
    },
    {
      "inputs": [
        {
          "internalType": "uint256",
          "name": "version",
          "type": "uint256"
        },
        {
          "internalType": "address",
          "name": "asset",
          "type": "address"
        },
        {
          "internalType": "uint256",
          "name": "amount",
          "type": "uint256"
        },
        {
          "internalType": "uint256",
          "name": "interestRateMode",
          "type": "uint256"
        }
      ],
      "name": "repay",
      "outputs": [],
      "stateMutability": "nonpayable",
      "type": "function"
    },
    {
      "inputs": [
        {
          "internalType": "uint256",
          "name": "version",
          "type": "uint256"
        },
        {
          "internalType": "address",
          "name": "repayAsset",
          "type": "address"
        },
        {
          "internalType": "uint256",
          "name": "repayAmount",
          "type": "uint256"
        },
        {
          "internalType": "uint256",
          "name": "repayInterestRateMode",
          "type": "uint256"
        },
        {
          "internalType": "address",
          "name": "withdrawalAsset",
          "type": "address"
        },
        {
          "internalType": "uint256",
          "name": "withdrawalAmount",
          "type": "uint256"
        }
      ],
      "name": "repayAndWithdraw",
      "outputs": [],
      "stateMutability": "nonpayable",
      "type": "function"
    },
    {
      "inputs": [
        {
          "internalType": "uint256",
          "name": "version",
          "type": "uint256"
        },
        {
          "internalType": "address",
          "name": "repayAsset",
          "type": "address"
        },
        {
          "internalType": "uint256",
          "name": "repayAmount",
          "type": "uint256"
        },
        {
          "internalType": "uint256",
          "name": "repayInterestRateMode",
          "type": "uint256"
        },
        {
          "internalType": "uint256",
          "name": "withdrawalAmount",
          "type": "uint256"
        }
      ],
      "name": "repayAndWithdrawETH",
      "outputs": [],
      "stateMutability": "nonpayable",
      "type": "function"
    },
    {
      "inputs": [
        {
          "internalType": "uint256",
          "name": "version",
          "type": "uint256"
        },
        {
          "internalType": "address",
          "name": "repayAsset",
          "type": "address"
        },
        {
          "internalType": "uint256",
          "name": "repayAmount",
          "type": "uint256"
        },
        {
          "internalType": "uint256",
          "name": "repayInterestRateMode",
          "type": "uint256"
        },
        {
          "internalType": "uint256",
          "name": "withdrawalAmount",
          "type": "uint256"
        },
        {
          "internalType": "uint256",
          "name": "permitAmount",
          "type": "uint256"
        },
        {
          "internalType": "uint256",
          "name": "permitDeadline",
          "type": "uint256"
        },
        {
          "internalType": "uint8",
          "name": "permitV",
          "type": "uint8"
        },
        {
          "internalType": "bytes32",
          "name": "permitR",
          "type": "bytes32"
        },
        {
          "internalType": "bytes32",
          "name": "permitS",
          "type": "bytes32"
        }
      ],
      "name": "repayAndWithdrawETHWithPermit",
      "outputs": [],
      "stateMutability": "nonpayable",
      "type": "function"
    },
    {
      "inputs": [
        {
          "internalType": "uint256",
          "name": "version",
          "type": "uint256"
        },
        {
          "internalType": "address",
          "name": "repayAsset",
          "type": "address"
        },
        {
          "internalType": "uint256",
          "name": "repayAmount",
          "type": "uint256"
        },
        {
          "internalType": "uint256",
          "name": "repayInterestRateMode",
          "type": "uint256"
        },
        {
          "internalType": "address",
          "name": "withdrawalAsset",
          "type": "address"
        },
        {
          "internalType": "uint256",
          "name": "withdrawalAmount",
          "type": "uint256"
        },
        {
          "internalType": "uint256",
          "name": "permitAmount",
          "type": "uint256"
        },
        {
          "internalType": "uint256",
          "name": "permitDeadline",
          "type": "uint256"
        },
        {
          "internalType": "uint8",
          "name": "permitV",
          "type": "uint8"
        },
        {
          "internalType": "bytes32",
          "name": "permitR",
          "type": "bytes32"
        },
        {
          "internalType": "bytes32",
          "name": "permitS",
          "type": "bytes32"
        }
      ],
      "name": "repayAndWithdrawWithPermit",
      "outputs": [],
      "stateMutability": "nonpayable",
      "type": "function"
    },
    {
      "inputs": [
        {
          "internalType": "uint256",
          "name": "version",
          "type": "uint256"
        },
        {
          "internalType": "uint256",
          "name": "amount",
          "type": "uint256"
        },
        {
          "internalType": "uint256",
          "name": "interestRateMode",
          "type": "uint256"
        }
      ],
      "name": "repayETH",
      "outputs": [],
      "stateMutability": "payable",
      "type": "function"
    },
    {
      "inputs": [
        {
          "internalType": "uint256",
          "name": "version",
          "type": "uint256"
        },
        {
          "internalType": "uint256",
          "name": "repayAmount",
          "type": "uint256"
        },
        {
          "internalType": "uint256",
          "name": "repayInterestRateMode",
          "type": "uint256"
        },
        {
          "internalType": "address",
          "name": "withdrawalAsset",
          "type": "address"
        },
        {
          "internalType": "uint256",
          "name": "withdrawalAmount",
          "type": "uint256"
        }
      ],
      "name": "repayETHAndWithdraw",
      "outputs": [],
      "stateMutability": "payable",
      "type": "function"
    },
    {
      "inputs": [
        {
          "internalType": "uint256",
          "name": "version",
          "type": "uint256"
        },
        {
          "internalType": "uint256",
          "name": "repayAmount",
          "type": "uint256"
        },
        {
          "internalType": "uint256",
          "name": "repayInterestRateMode",
          "type": "uint256"
        },
        {
          "internalType": "address",
          "name": "withdrawalAsset",
          "type": "address"
        },
        {
          "internalType": "uint256",
          "name": "withdrawalAmount",
          "type": "uint256"
        },
        {
          "internalType": "uint256",
          "name": "permitAmount",
          "type": "uint256"
        },
        {
          "internalType": "uint256",
          "name": "permitDeadline",
          "type": "uint256"
        },
        {
          "internalType": "uint8",
          "name": "permitV",
          "type": "uint8"
        },
        {
          "internalType": "bytes32",
          "name": "permitR",
          "type": "bytes32"
        },
        {
          "internalType": "bytes32",
          "name": "permitS",
          "type": "bytes32"
        }
      ],
      "name": "repayETHAndWithdrawWithPermit",
      "outputs": [],
      "stateMutability": "payable",
      "type": "function"
    },
    {
      "inputs": [
        {
          "internalType": "address",
          "name": "_biconomy",
          "type": "address"
        }
      ],
      "name": "setBiconomy",
      "outputs": [],
      "stateMutability": "nonpayable",
      "type": "function"
    },
    {
      "inputs": [
        {
          "internalType": "uint256",
          "name": "version",
          "type": "uint256"
        },
        {
          "internalType": "address",
          "name": "asset",
          "type": "address"
        },
        {
          "internalType": "uint256",
          "name": "amount",
          "type": "uint256"
        }
      ],
      "name": "supply",
      "outputs": [],
      "stateMutability": "nonpayable",
      "type": "function"
    },
    {
      "inputs": [
        {
          "internalType": "uint256",
          "name": "version",
          "type": "uint256"
        },
        {
          "internalType": "address",
          "name": "supplyAsset",
          "type": "address"
        },
        {
          "internalType": "uint256",
          "name": "supplyAmount",
          "type": "uint256"
        },
        {
          "internalType": "address",
          "name": "borrowAsset",
          "type": "address"
        },
        {
          "internalType": "uint256",
          "name": "borrowAmount",
          "type": "uint256"
        },
        {
          "internalType": "uint256",
          "name": "borrowInterestRateMode",
          "type": "uint256"
        }
      ],
      "name": "supplyAndBorrow",
      "outputs": [],
      "stateMutability": "nonpayable",
      "type": "function"
    },
    {
      "inputs": [
        {
          "internalType": "uint256",
          "name": "version",
          "type": "uint256"
        },
        {
          "internalType": "address",
          "name": "supplyAsset",
          "type": "address"
        },
        {
          "internalType": "uint256",
          "name": "supplyAmount",
          "type": "uint256"
        },
        {
          "internalType": "uint256",
          "name": "borrowAmount",
          "type": "uint256"
        },
        {
          "internalType": "uint256",
          "name": "borrowInterestRateMode",
          "type": "uint256"
        }
      ],
      "name": "supplyAndBorrowETH",
      "outputs": [],
      "stateMutability": "nonpayable",
      "type": "function"
    },
    {
      "inputs": [
        {
          "internalType": "address",
          "name": "supplyAsset",
          "type": "address"
        },
        {
          "internalType": "uint256",
          "name": "supplyAmount",
          "type": "uint256"
        },
        {
          "internalType": "uint256",
          "name": "borrowAmount",
          "type": "uint256"
        },
        {
          "internalType": "uint256",
          "name": "borrowInterestRateMode",
          "type": "uint256"
        },
        {
          "internalType": "uint256",
          "name": "permitAmount",
          "type": "uint256"
        },
        {
          "internalType": "uint256",
          "name": "permitDeadline",
          "type": "uint256"
        },
        {
          "internalType": "uint8",
          "name": "permitV",
          "type": "uint8"
        },
        {
          "internalType": "bytes32",
          "name": "permitR",
          "type": "bytes32"
        },
        {
          "internalType": "bytes32",
          "name": "permitS",
          "type": "bytes32"
        }
      ],
      "name": "supplyAndBorrowETHWithPermit",
      "outputs": [],
      "stateMutability": "nonpayable",
      "type": "function"
    },
    {
      "inputs": [
        {
          "internalType": "address",
          "name": "supplyAsset",
          "type": "address"
        },
        {
          "internalType": "uint256",
          "name": "supplyAmount",
          "type": "uint256"
        },
        {
          "internalType": "address",
          "name": "borrowAsset",
          "type": "address"
        },
        {
          "internalType": "uint256",
          "name": "borrowAmount",
          "type": "uint256"
        },
        {
          "internalType": "uint256",
          "name": "borrowInterestRateMode",
          "type": "uint256"
        },
        {
          "internalType": "uint256",
          "name": "permitAmount",
          "type": "uint256"
        },
        {
          "internalType": "uint256",
          "name": "permitDeadline",
          "type": "uint256"
        },
        {
          "internalType": "uint8",
          "name": "permitV",
          "type": "uint8"
        },
        {
          "internalType": "bytes32",
          "name": "permitR",
          "type": "bytes32"
        },
        {
          "internalType": "bytes32",
          "name": "permitS",
          "type": "bytes32"
        }
      ],
      "name": "supplyAndBorrowWithPermit",
      "outputs": [],
      "stateMutability": "nonpayable",
      "type": "function"
    },
    {
      "inputs": [
        {
          "internalType": "uint256",
          "name": "version",
          "type": "uint256"
        }
      ],
      "name": "supplyETH",
      "outputs": [],
      "stateMutability": "payable",
      "type": "function"
    },
    {
      "inputs": [
        {
          "internalType": "uint256",
          "name": "version",
          "type": "uint256"
        },
        {
          "internalType": "address",
          "name": "borrowAsset",
          "type": "address"
        },
        {
          "internalType": "uint256",
          "name": "borrowAmount",
          "type": "uint256"
        },
        {
          "internalType": "uint256",
          "name": "borrowInterestRateMode",
          "type": "uint256"
        }
      ],
      "name": "supplyETHAndBorrow",
      "outputs": [],
      "stateMutability": "payable",
      "type": "function"
    },
    {
      "inputs": [
        {
          "internalType": "address",
          "name": "borrowAsset",
          "type": "address"
        },
        {
          "internalType": "uint256",
          "name": "borrowAmount",
          "type": "uint256"
        },
        {
          "internalType": "uint256",
          "name": "borrowInterestRateMode",
          "type": "uint256"
        },
        {
          "internalType": "uint256",
          "name": "permitAmount",
          "type": "uint256"
        },
        {
          "internalType": "uint256",
          "name": "permitDeadline",
          "type": "uint256"
        },
        {
          "internalType": "uint8",
          "name": "permitV",
          "type": "uint8"
        },
        {
          "internalType": "bytes32",
          "name": "permitR",
          "type": "bytes32"
        },
        {
          "internalType": "bytes32",
          "name": "permitS",
          "type": "bytes32"
        }
      ],
      "name": "supplyETHAndBorrowWithPermit",
      "outputs": [],
      "stateMutability": "payable",
      "type": "function"
    },
    {
      "inputs": [
        {
          "internalType": "address",
          "name": "newOwner",
          "type": "address"
        }
      ],
      "name": "transferOwnership",
      "outputs": [],
      "stateMutability": "nonpayable",
      "type": "function"
    },
    {
      "inputs": [],
      "name": "trustedForwarder",
      "outputs": [
        {
          "internalType": "address",
          "name": "",
          "type": "address"
        }
      ],
      "stateMutability": "view",
      "type": "function"
    },
    {
      "inputs": [],
      "name": "versionRecipient",
      "outputs": [
        {
          "internalType": "string",
          "name": "",
          "type": "string"
        }
      ],
      "stateMutability": "pure",
      "type": "function"
    },
    {
      "inputs": [
        {
          "internalType": "uint256",
          "name": "version",
          "type": "uint256"
        },
        {
          "internalType": "address",
          "name": "asset",
          "type": "address"
        },
        {
          "internalType": "uint256",
          "name": "amount",
          "type": "uint256"
        }
      ],
      "name": "withdraw",
      "outputs": [],
      "stateMutability": "nonpayable",
      "type": "function"
    },
    {
      "inputs": [
        {
          "internalType": "uint256",
          "name": "version",
          "type": "uint256"
        },
        {
          "internalType": "uint256",
          "name": "amount",
          "type": "uint256"
        }
      ],
      "name": "withdrawETH",
      "outputs": [],
      "stateMutability": "nonpayable",
      "type": "function"
    },
    {
      "inputs": [
        {
          "internalType": "uint256",
          "name": "version",
          "type": "uint256"
        },
        {
          "internalType": "uint256",
          "name": "amount",
          "type": "uint256"
        },
        {
          "internalType": "uint256",
          "name": "permitAmount",
          "type": "uint256"
        },
        {
          "internalType": "uint256",
          "name": "permitDeadline",
          "type": "uint256"
        },
        {
          "internalType": "uint8",
          "name": "permitV",
          "type": "uint8"
        },
        {
          "internalType": "bytes32",
          "name": "permitR",
          "type": "bytes32"
        },
        {
          "internalType": "bytes32",
          "name": "permitS",
          "type": "bytes32"
        }
      ],
      "name": "withdrawETHWithPermit",
      "outputs": [],
      "stateMutability": "nonpayable",
      "type": "function"
    },
    {
      "inputs": [
        {
          "internalType": "uint256",
          "name": "version",
          "type": "uint256"
        },
        {
          "internalType": "address",
          "name": "asset",
          "type": "address"
        },
        {
          "internalType": "uint256",
          "name": "amount",
          "type": "uint256"
        },
        {
          "internalType": "uint256",
          "name": "permitAmount",
          "type": "uint256"
        },
        {
          "internalType": "uint256",
          "name": "permitDeadline",
          "type": "uint256"
        },
        {
          "internalType": "uint8",
          "name": "permitV",
          "type": "uint8"
        },
        {
          "internalType": "bytes32",
          "name": "permitR",
          "type": "bytes32"
        },
        {
          "internalType": "bytes32",
          "name": "permitS",
          "type": "bytes32"
        }
      ],
      "name": "withdrawWithPermit",
      "outputs": [],
      "stateMutability": "nonpayable",
      "type": "function"
    },
    {
      "stateMutability": "payable",
      "type": "receive"
    }
  ],
  "transactionHash": "0x44c0bbb7d6377efccb9088a2c11353cee26280090bdb8fb68a9c2e9b83efe8e6",
  "args": [
    "0x0000000000000000000000000000000000000000",
    "0x4EEE0BB72C2717310318f27628B3c8a708E4951C",
    "0xb83C277172198E8Ec6b841Ff9bEF2d7fa524f797",
    "0x0000000000000000000000000000000000000000"
  ],
  "numDeployments": 10,
  "solcInputHash": "8e2fc1fcd56441082790041a3db012c4",
  "bytecode": "0x6102c06040523480156200001257600080fd5b5060405162006af438038062006af483398101604081905262000035916200078f565b6200003f620006b0565b60006001600160a01b038516620000585760006200005b565b60015b6001600160a01b03861660a05290508062000078576000620000ef565b60a0516001600160a01b0316630542975c6040518163ffffffff1660e01b815260040160206040518083038186803b158015620000b457600080fd5b505afa158015620000c9573d6000803e3d6000fd5b505050506040513d601f19601f82011682018060405250810190620000ef9190620007ec565b6001600160a01b0316608052806200010957600062000180565b6080516001600160a01b0316630261bf8b6040518163ffffffff1660e01b815260040160206040518083038186803b1580156200014557600080fd5b505afa1580156200015a573d6000803e3d6000fd5b505050506040513d601f19601f82011682018060405250810190620001809190620007ec565b6001600160a01b031660c052806200019a57600062000211565b6080516001600160a01b031663fca513a86040518163ffffffff1660e01b815260040160206040518083038186803b158015620001d657600080fd5b505afa158015620001eb573d6000803e3d6000fd5b505050506040513d601f19601f82011682018060405250810190620002119190620007ec565b6001600160a01b0390811661010052828116610120526000908516620002395760006200023c565b60015b6001600160a01b038616610140529050806200025a576000620002d2565b610140516001600160a01b031663e860accb6040518163ffffffff1660e01b815260040160206040518083038186803b1580156200029757600080fd5b505afa158015620002ac573d6000803e3d6000fd5b505050506040513d601f19601f82011682018060405250810190620002d29190620007ec565b6001600160a01b03166101605280620002ed57600062000365565b610140516001600160a01b031663026b1d5f6040518163ffffffff1660e01b815260040160206040518083038186803b1580156200032a57600080fd5b505afa1580156200033f573d6000803e3d6000fd5b505050506040513d601f19601f82011682018060405250810190620003659190620007ec565b6001600160a01b0316610180528062000380576000620003f8565b610140516001600160a01b031663fca513a86040518163ffffffff1660e01b815260040160206040518083038186803b158015620003bd57600080fd5b505afa158015620003d2573d6000803e3d6000fd5b505050506040513d601f19601f82011682018060405250810190620003f89190620007ec565b6001600160a01b039081166101c0528481166101e05260a0511662000422576000806000620004a3565b60a0516040516334924edb60e21b81526001600160a01b0386811660048301529091169063d2493b6c9060240160606040518083038186803b1580156200046857600080fd5b505afa1580156200047d573d6000803e3d6000fd5b505050506040513d601f19601f82011682018060405250810190620004a3919062000811565b6001600160a01b039081166102405290811661022052908116610200526101605116620004d557600080600062000557565b610160516040516334924edb60e21b81526001600160a01b0386811660048301529091169063d2493b6c9060240160606040518083038186803b1580156200051c57600080fd5b505afa15801562000531573d6000803e3d6000fd5b505050506040513d601f19601f8201168201806040525081019062000557919062000811565b6001600160a01b039081166102a0529081166102805290811661026052610200511662000586576000620005fe565b610200516001600160a01b03166375d264136040518163ffffffff1660e01b815260040160206040518083038186803b158015620005c357600080fd5b505afa158015620005d8573d6000803e3d6000fd5b505050506040513d601f19601f82011682018060405250810190620005fe9190620007ec565b6001600160a01b0390811660e05261026051166200061e57600062000696565b610260516001600160a01b03166375d264136040518163ffffffff1660e01b815260040160206040518083038186803b1580156200065b57600080fd5b505afa15801562000670573d6000803e3d6000fd5b505050506040513d601f19601f82011682018060405250810190620006969190620007ec565b6001600160a01b03166101a052506200085b945050505050565b600054610100900460ff16156200071d5760405162461bcd60e51b815260206004820152602760248201527f496e697469616c697a61626c653a20636f6e747261637420697320696e697469604482015266616c697a696e6760c81b606482015260840160405180910390fd5b60005460ff908116101562000770576000805460ff191660ff9081179091556040519081527f7f26b83ff96e1f2b6a682f133852f6798a09c465da95921460cefb38474024989060200160405180910390a15b565b80516001600160a01b03811681146200078a57600080fd5b919050565b60008060008060808587031215620007a657600080fd5b620007b18562000772565b9350620007c16020860162000772565b9250620007d16040860162000772565b9150620007e16060860162000772565b905092959194509250565b600060208284031215620007ff57600080fd5b6200080a8262000772565b9392505050565b6000806000606084860312156200082757600080fd5b620008328462000772565b9250620008426020850162000772565b9150620008526040850162000772565b90509250925092565b60805160a05160c05160e05161010051610120516101405161016051610180516101a0516101c0516101e05161020051610220516102405161026051610280516102a051615f6b62000b8960003960008181611b4e01526125f5015260008181611b74015261261b01526000818161059f01528181611fe501526140b40152600061252301526000612549015260008181610a890152818161200b01526140da01526000818161091501528181611c4501528181611cbc01528181611d37015281816120fc015281816121a801528181612222015281816122930152818161272b015281816127f2015281816128bc0152818161295b01528181612a0d01528181612ad401528181612b7e01528181612be3015281816141e5015281816142ad0152818161434301526143b401526000818161053e015281816117030152818161464a0152614783015260008181610497015281816113fa0152818161142c01528181612410015281816145c301526146fe01526000818161037b01528181610dc9015281816118ea01528181611a6501528181611c1601528181611ed40152818161217b0152818161288f01528181612b51015281816136b301528181613e1401528181613e4501528181613f2201528181613fbb01528181614280015261498f0152600081816103cc01528181610bd901528181611dbf0152818161246101528181612d2601528181612d550152818161329d0152613497015260006104cb0152600081816107650152818161131501526135380152600081816107ca015281816112e20152818161441f015261455f01526000818161040001528181610fb501528181610fe60152818161109a015281816122fc015281816139080152818161399b01526144da01526000818161087901528181610d1f01528181611860015281816119d9015281816120cf015281816127c501528181612aa7015281816135e901528181613c2e01528181613c5f01528181613d3c01528181613dd5015281816141b801526148e701526000818161069101528181610b340152818161234f01528181612c5b01528181612c8a015281816131f901526133f30152600061065d0152615f6b6000f3fe6080604052600436106102e85760003560e01c80638327c21411610190578063ac84ca14116100dc578063d321684811610095578063ead64c6a1161006f578063ead64c6a146109f7578063f2fde38b14610a44578063fc20966314610a64578063fd63495214610a7757600080fd5b8063d321684814610997578063e16decdc146109b7578063e63697c8146109d757600080fd5b8063ac84ca14146108ce578063b316ff89146108e1578063b381cf4014610903578063b6b0b5d814610937578063c4d66de814610957578063c7cdea371461097757600080fd5b8063961358fb116101495780639dc1c657116101235780639dc1c6571461082c578063a6e9f01e14610867578063a709e1871461089b578063a88bb3d9146108ae57600080fd5b8063961358fb146107b857806397aa2f4f146107ec5780639b27832e1461080c57600080fd5b80638327c214146106f3578063836dbe391461071357806385234333146107335780638524adc9146107535780638a712b80146107875780638da5cb5b1461079a57600080fd5b8063572b6c051161024f5780637ad03c8f116102085780637ec3d641116101e25780637ec3d6411461064b578063800b71fd1461067f578063823225eb146106b3578063825a5620146106d357600080fd5b80637ad03c8f146105f65780637b303b801461060b5780637da0a8771461062b57600080fd5b8063572b6c05146104ed57806366f708011461052c5780636a264718146105605780636f5c3dff1461058d5780637032134e146105c1578063715018a6146105e157600080fd5b80632b3eed27116102a15780632b3eed27146103ee5780633bf8c3911461042257806346a8627714610442578063486ff0cd146104555780634ded3252146104855780634f8ff3b0146104b957600080fd5b806307535c74146102f45780630d8b76a81461030957806313ce106414610329578063149078f2146103495780631521589c1461036957806319d10913146103ba57600080fd5b366102ef57005b600080fd5b610307610302366004614e33565b610aab565b005b34801561031557600080fd5b50610307610324366004614e7c565b610ac8565b34801561033557600080fd5b50610307610344366004614ea0565b610af2565b34801561035557600080fd5b50610307610364366004614edd565b610f57565b34801561037557600080fd5b5061039d7f000000000000000000000000000000000000000000000000000000000000000081565b6040516001600160a01b0390911681526020015b60405180910390f35b3480156103c657600080fd5b5061039d7f000000000000000000000000000000000000000000000000000000000000000081565b3480156103fa57600080fd5b5061039d7f000000000000000000000000000000000000000000000000000000000000000081565b34801561042e57600080fd5b5061030761043d366004614f39565b610f76565b610307610450366004614ea0565b610f8d565b34801561046157600080fd5b5060408051808201825260018152603160f81b602082015290516103b19190614fef565b34801561049157600080fd5b5061039d7f000000000000000000000000000000000000000000000000000000000000000081565b3480156104c557600080fd5b5061039d7f000000000000000000000000000000000000000000000000000000000000000081565b3480156104f957600080fd5b5061051c610508366004614e7c565b6065546001600160a01b0391821691161490565b60405190151581526020016103b1565b34801561053857600080fd5b5061039d7f000000000000000000000000000000000000000000000000000000000000000081565b34801561056c57600080fd5b5061058061057b366004615002565b610fa8565b6040516103b19190615094565b34801561059957600080fd5b5061039d7f000000000000000000000000000000000000000000000000000000000000000081565b3480156105cd57600080fd5b506103076105dc366004615146565b6117a9565b3480156105ed57600080fd5b506103076117cf565b34801561060257600080fd5b506103076117e3565b34801561061757600080fd5b506103076106263660046151c3565b6117f3565b34801561063757600080fd5b5060655461039d906001600160a01b031681565b34801561065757600080fd5b5061039d7f000000000000000000000000000000000000000000000000000000000000000081565b34801561068b57600080fd5b5061039d7f000000000000000000000000000000000000000000000000000000000000000081565b3480156106bf57600080fd5b506103076106ce3660046151c3565b611809565b3480156106df57600080fd5b506103076106ee36600461520b565b61181f565b3480156106ff57600080fd5b5061030761070e366004614ea0565b6119ad565b34801561071f57600080fd5b5061030761072e366004615243565b611b36565b34801561073f57600080fd5b5061030761074e3660046152a2565b611d8e565b34801561075f57600080fd5b5061039d7f000000000000000000000000000000000000000000000000000000000000000081565b6103076107953660046152a2565b611fa9565b3480156107a657600080fd5b506033546001600160a01b031661039d565b3480156107c457600080fd5b5061039d7f000000000000000000000000000000000000000000000000000000000000000081565b3480156107f857600080fd5b50610307610807366004615243565b611fcd565b34801561081857600080fd5b50610307610827366004615313565b6120a3565b34801561083857600080fd5b5061084c61084736600461533f565b6122ed565b604080519384526020840192909252908201526060016103b1565b34801561087357600080fd5b5061039d7f000000000000000000000000000000000000000000000000000000000000000081565b6103076108a9366004615313565b612502565b3480156108ba57600080fd5b506103076108c936600461536f565b6129d7565b6103076108dc366004615400565b6129ff565b3480156108ed57600080fd5b506108f6612c52565b6040516103b1919061542f565b34801561090f57600080fd5b5061039d7f000000000000000000000000000000000000000000000000000000000000000081565b34801561094357600080fd5b506103076109523660046154d9565b613061565b34801561096357600080fd5b50610307610972366004614e7c565b61307c565b34801561098357600080fd5b5061030761099236600461553e565b6131b1565b3480156109a357600080fd5b506103076109b2366004615560565b6131c3565b3480156109c357600080fd5b506103076109d23660046155b4565b613394565b3480156109e357600080fd5b506103076109f236600461520b565b6133bd565b348015610a0357600080fd5b50610a17610a1236600461533f565b613524565b604080519687526020870195909552938501929092526060840152608083015260a082015260c0016103b1565b348015610a5057600080fd5b50610307610a5f366004614e7c565b613747565b610307610a72366004615650565b6137c0565b348015610a8357600080fd5b5061039d7f000000000000000000000000000000000000000000000000000000000000000081565b610ab6858585612502565b610ac18583836133bd565b5050505050565b610ad06137db565b606580546001600160a01b0319166001600160a01b0392909216919091179055565b6000610afc613854565b905082600019811415610cea576000808760021415610bba576040516334924edb60e21b81526001600160a01b0388811660048301527f0000000000000000000000000000000000000000000000000000000000000000169063d2493b6c9060240160606040518083038186803b158015610b7657600080fd5b505afa158015610b8a573d6000803e3d6000fd5b505050506040513d601f19601f82011682018060405250810190610bae91906156b5565b9093509150610c5a9050565b6040516334924edb60e21b81526001600160a01b0388811660048301527f0000000000000000000000000000000000000000000000000000000000000000169063d2493b6c9060240160606040518083038186803b158015610c1b57600080fd5b505afa158015610c2f573d6000803e3d6000fd5b505050506040513d601f19601f82011682018060405250810190610c5391906156b5565b9093509150505b84600114610c685780610c6a565b815b6040516370a0823160e01b81526001600160a01b03868116600483015291909116906370a082319060240160206040518083038186803b158015610cad57600080fd5b505afa158015610cc1573d6000803e3d6000fd5b505050506040513d601f19601f82011682018060405250810190610ce59190615702565b925050505b610cff6001600160a01b038616833084613863565b8560021415610db25760405163573ade8160e01b81526001600160a01b037f0000000000000000000000000000000000000000000000000000000000000000169063573ade8190610d5a90889085908890889060040161571b565b602060405180830381600087803b158015610d7457600080fd5b505af1158015610d88573d6000803e3d6000fd5b505050506040513d601f19601f82011682018060405250810190610dac9190615702565b50610e58565b60405163573ade8160e01b81526001600160a01b037f0000000000000000000000000000000000000000000000000000000000000000169063573ade8190610e0490889085908890889060040161571b565b602060405180830381600087803b158015610e1e57600080fd5b505af1158015610e32573d6000803e3d6000fd5b505050506040513d601f19601f82011682018060405250810190610e569190615702565b505b6040516370a0823160e01b81523060048201526000906001600160a01b038716906370a082319060240160206040518083038186803b158015610e9a57600080fd5b505afa158015610eae573d6000803e3d6000fd5b505050506040513d601f19601f82011682018060405250810190610ed29190615702565b90508015610eee57610eee6001600160a01b03871684836138ce565b610ef8818361575c565b866001600160a01b0316846001600160a01b03167f77673b670822baca14a7caf6f8038f811649ab73e4c06083b0e58a53389bece78a88604051610f46929190918252602082015260400190565b60405180910390a450505050505050565b610f6286868661181f565b610f6e868484846119ad565b505050505050565b610f8286868686610af2565b610f6e8683836133bd565b610f96846129ff565b610fa2848484846119ad565b50505050565b606060028514156113f8577f00000000000000000000000000000000000000000000000000000000000000006001600160a01b0316156113f35760007f00000000000000000000000000000000000000000000000000000000000000006001600160a01b03166399248ea76040518163ffffffff1660e01b815260040160206040518083038186803b15801561103d57600080fd5b505afa158015611051573d6000803e3d6000fd5b505050506040513d601f19601f820116820180604052508101906110759190615773565b604051630cc7d40f60e11b81526001600160a01b0385811660048301529192506000917f0000000000000000000000000000000000000000000000000000000000000000169063198fa81e9060240160206040518083038186803b1580156110dc57600080fd5b505afa1580156110f0573d6000803e3d6000fd5b505050506040513d601f19601f820116820180604052508101906111149190615702565b60408051600180825281830190925291925060009190816020015b611137614de3565b81526020019060019003908161112f5790505090508281600081518110611160576111606157a6565b6020026020010151600001906001600160a01b031690816001600160a01b031681525050826001600160a01b03166395d89b416040518163ffffffff1660e01b815260040160006040518083038186803b1580156111bd57600080fd5b505afa1580156111d1573d6000803e3d6000fd5b505050506040513d6000823e601f3d908101601f191682016040526111f9919081019061587a565b8160008151811061120c5761120c6157a6565b602002602001015160200181905250826001600160a01b031663313ce5676040518163ffffffff1660e01b815260040160206040518083038186803b15801561125457600080fd5b505afa158015611268573d6000803e3d6000fd5b505050506040513d601f19601f8201168201806040525081019061128c91906158af565b8160008151811061129f5761129f6157a6565b60200260200101516040019060ff16908160ff168152505081816000815181106112cb576112cb6157a6565b60200260200101516060018181525050600061130f7f0000000000000000000000000000000000000000000000000000000000000000611309613903565b85613abc565b905060007f00000000000000000000000000000000000000000000000000000000000000006001600160a01b03166350d25bcd6040518163ffffffff1660e01b815260040160206040518083038186803b15801561136c57600080fd5b505afa158015611380573d6000803e3d6000fd5b505050506040513d601f19601f820116820180604052508101906113a49190615702565b9050670de0b6b3a76400006113b982846158cc565b6113c391906158eb565b836000815181106113d6576113d66157a6565b6020026020010151608001818152505082955050505050506117a1565b61176c565b7f00000000000000000000000000000000000000000000000000000000000000006001600160a01b03161561176c576000807f00000000000000000000000000000000000000000000000000000000000000006001600160a01b0316634c0369c38787876040518463ffffffff1660e01b815260040161147a9392919061590d565b60006040518083038186803b15801561149257600080fd5b505afa1580156114a6573d6000803e3d6000fd5b505050506040513d6000823e601f3d908101601f191682016040526114ce9190810190615a08565b8051919350915060008167ffffffffffffffff8111156114f0576114f0615790565b60405190808252806020026020018201604052801561152957816020015b611516614de3565b81526020019060019003908161150e5790505b50905060005b8281101561176057600085828151811061154b5761154b6157a6565b602002602001015190506000858381518110611569576115696157a6565b6020026020010151905081848481518110611586576115866157a6565b6020026020010151600001906001600160a01b031690816001600160a01b031681525050816001600160a01b03166395d89b416040518163ffffffff1660e01b815260040160006040518083038186803b1580156115e357600080fd5b505afa1580156115f7573d6000803e3d6000fd5b505050506040513d6000823e601f3d908101601f1916820160405261161f919081019061587a565b848481518110611631576116316157a6565b602002602001015160200181905250816001600160a01b031663313ce5676040518163ffffffff1660e01b815260040160206040518083038186803b15801561167957600080fd5b505afa15801561168d573d6000803e3d6000fd5b505050506040513d601f19601f820116820180604052508101906116b191906158af565b8484815181106116c3576116c36157a6565b60200260200101516040019060ff16908160ff1681525050808484815181106116ee576116ee6157a6565b602002602001015160600181815250506117297f00000000000000000000000000000000000000000000000000000000000000008383613abc565b84848151811061173b5761173b6157a6565b602002602001015160800181815250505050808061175890615ac3565b91505061152f565b5093506117a192505050565b604080516000808252602082019092529061179d565b61178a614de3565b8152602001906001900390816117825790505b5090505b949350505050565b6117b560038a8a61181f565b6117c487878787878787611b36565b505050505050505050565b6117d76137db565b6117e16000613bda565b565b6117eb6137db565b6117e1613c2c565b6117fe85858561181f565b610ac18583836120a3565b61181585858585610af2565b610ac185826131b1565b6000611829613854565b90506118406001600160a01b038416823085613863565b83600214156118d35760405163e8eda9df60e01b81526001600160a01b037f0000000000000000000000000000000000000000000000000000000000000000169063e8eda9df9061189c90869086908690600090600401615ade565b600060405180830381600087803b1580156118b657600080fd5b505af11580156118ca573d6000803e3d6000fd5b50505050611959565b60405163617ba03760e01b81526001600160a01b037f0000000000000000000000000000000000000000000000000000000000000000169063617ba0379061192690869086908690600090600401615ade565b600060405180830381600087803b15801561194057600080fd5b505af1158015611954573d6000803e3d6000fd5b505050505b81836001600160a01b0316826001600160a01b03167f5cedcce6a827e65624771bcd2fafdeb4c7e1dfdf5a44d4fe904c4ee870eecd528760405161199f91815260200190565b60405180910390a450505050565b60006119b7613854565b90508460021415611a4e5760405163a415bcad60e01b81526001600160a01b037f0000000000000000000000000000000000000000000000000000000000000000169063a415bcad90611a17908790879087906000908890600401615b0b565b600060405180830381600087803b158015611a3157600080fd5b505af1158015611a45573d6000803e3d6000fd5b50505050611ad6565b60405163a415bcad60e01b81526001600160a01b037f0000000000000000000000000000000000000000000000000000000000000000169063a415bcad90611aa3908790879087906000908890600401615b0b565b600060405180830381600087803b158015611abd57600080fd5b505af1158015611ad1573d6000803e3d6000fd5b505050505b611aea6001600160a01b03851682856138ce565b82846001600160a01b0316826001600160a01b0316600080516020615f168339815191528886604051611b27929190918252602082015260400190565b60405180910390a45050505050565b6000611b40613854565b9050600060018814611b72577f0000000000000000000000000000000000000000000000000000000000000000611b94565b7f00000000000000000000000000000000000000000000000000000000000000005b60405163016a5aab60e31b81529091506001600160a01b03821690630b52d55890611bcf90859030908c908c908c908c908c90600401615b3f565b600060405180830381600087803b158015611be957600080fd5b505af1158015611bfd573d6000803e3d6000fd5b505060405163a415bcad60e01b81526001600160a01b037f000000000000000000000000000000000000000000000000000000000000000016925063a415bcad9150611c76907f0000000000000000000000000000000000000000000000000000000000000000908d908d906000908990600401615b0b565b600060405180830381600087803b158015611c9057600080fd5b505af1158015611ca4573d6000803e3d6000fd5b5050604051632e1a7d4d60e01b8152600481018c90527f00000000000000000000000000000000000000000000000000000000000000006001600160a01b03169250632e1a7d4d9150602401600060405180830381600087803b158015611d0a57600080fd5b505af1158015611d1e573d6000803e3d6000fd5b50505050611d2c828a613ff5565b886001600160a01b037f00000000000000000000000000000000000000000000000000000000000000008116908416600080516020615f16833981519152600360408051918252602082018e90520160405180910390a4505050505050505050565b6000611d98613854565b6040516334924edb60e21b81526001600160a01b038b8116600483015291925060009182917f00000000000000000000000000000000000000000000000000000000000000009091169063d2493b6c9060240160606040518083038186803b158015611e0357600080fd5b505afa158015611e17573d6000803e3d6000fd5b505050506040513d601f19601f82011682018060405250810190611e3b91906156b5565b9250925050600089600114611e505781611e52565b825b60405163016a5aab60e31b81529091506001600160a01b03821690630b52d55890611e8d90879030908e908e908e908e908e90600401615b3f565b600060405180830381600087803b158015611ea757600080fd5b505af1158015611ebb573d6000803e3d6000fd5b505060405163a415bcad60e01b81526001600160a01b037f000000000000000000000000000000000000000000000000000000000000000016925063a415bcad9150611f14908f908f908f906000908b90600401615b0b565b600060405180830381600087803b158015611f2e57600080fd5b505af1158015611f42573d6000803e3d6000fd5b50611f5b925050506001600160a01b038d16858d6138ce565b8a6001600160a01b03808e16908616600080516020615f1683398151915260038e604051611f93929190918252602082015260400190565b60405180910390a4505050505050505050505050565b611fb360036129ff565b611fc38888888888888888611d8e565b5050505050505050565b6000611fd7613854565b9050600060028914612009577f000000000000000000000000000000000000000000000000000000000000000061202b565b7f00000000000000000000000000000000000000000000000000000000000000005b60405163d505accf60e01b81529091506001600160a01b0382169063d505accf9061206690859030908c908c908c908c908c90600401615b3f565b600060405180830381600087803b15801561208057600080fd5b505af1158015612094573d6000803e3d6000fd5b505050506117c48989846140a8565b60006120ad613854565b905083600214156121645760405163a415bcad60e01b81526001600160a01b037f0000000000000000000000000000000000000000000000000000000000000000169063a415bcad9061212d907f000000000000000000000000000000000000000000000000000000000000000090879087906000908890600401615b0b565b600060405180830381600087803b15801561214757600080fd5b505af115801561215b573d6000803e3d6000fd5b5050505061220c565b60405163a415bcad60e01b81526001600160a01b037f0000000000000000000000000000000000000000000000000000000000000000169063a415bcad906121d9907f000000000000000000000000000000000000000000000000000000000000000090879087906000908890600401615b0b565b600060405180830381600087803b1580156121f357600080fd5b505af1158015612207573d6000803e3d6000fd5b505050505b604051632e1a7d4d60e01b8152600481018490527f00000000000000000000000000000000000000000000000000000000000000006001600160a01b031690632e1a7d4d90602401600060405180830381600087803b15801561226e57600080fd5b505af1158015612282573d6000803e3d6000fd5b505050506122908184613ff5565b827f00000000000000000000000000000000000000000000000000000000000000006001600160a01b0316826001600160a01b0316600080516020615f16833981519152878660405161199f929190918252602082015260400190565b60008080600285141561240e577f00000000000000000000000000000000000000000000000000000000000000006001600160a01b031615612409576040516334924edb60e21b81526001600160a01b038581166004830152600091829182917f00000000000000000000000000000000000000000000000000000000000000009091169063d2493b6c9060240160606040518083038186803b15801561239357600080fd5b505afa1580156123a7573d6000803e3d6000fd5b505050506040513d601f19601f820116820180604052508101906123cb91906156b5565b92509250925060006123db613903565b90506123e8888583614417565b96506123f5888483614417565b9550612402888383614417565b9450505050505b6124fb565b7f00000000000000000000000000000000000000000000000000000000000000006001600160a01b0316156124fb576040516334924edb60e21b81526001600160a01b03858116600483015260009182917f0000000000000000000000000000000000000000000000000000000000000000169063d2493b6c9060240160606040518083038186803b1580156124a357600080fd5b505afa1580156124b7573d6000803e3d6000fd5b505050506040513d601f19601f820116820180604052508101906124db91906156b5565b92505091506124ea868361459f565b94506124f6868261459f565b925050505b9250925092565b600061250c613854565b9050600060028514156125eb5760018314612547577f0000000000000000000000000000000000000000000000000000000000000000612569565b7f00000000000000000000000000000000000000000000000000000000000000005b6040516370a0823160e01b81526001600160a01b03848116600483015291909116906370a082319060240160206040518083038186803b1580156125ac57600080fd5b505afa1580156125c0573d6000803e3d6000fd5b505050506040513d601f19601f820116820180604052508101906125e49190615702565b90506126b9565b60018314612619577f000000000000000000000000000000000000000000000000000000000000000061263b565b7f00000000000000000000000000000000000000000000000000000000000000005b6040516370a0823160e01b81526001600160a01b03848116600483015291909116906370a082319060240160206040518083038186803b15801561267e57600080fd5b505afa158015612692573d6000803e3d6000fd5b505050506040513d601f19601f820116820180604052508101906126b69190615702565b90505b808410156126c45750825b803410156127295760405162461bcd60e51b815260206004820152602760248201527f6d73672e76616c7565206973206c657373207468616e2072657061796d656e7460448201526608185b5bdd5b9d60ca1b60648201526084015b60405180910390fd5b7f00000000000000000000000000000000000000000000000000000000000000006001600160a01b031663d0e30db0826040518263ffffffff1660e01b81526004016000604051808303818588803b15801561278457600080fd5b505af1158015612798573d6000803e3d6000fd5b50889350600292506127a8915050565b14156128785760405163573ade8160e01b81526001600160a01b037f0000000000000000000000000000000000000000000000000000000000000000169063573ade8190612820907f00000000000000000000000000000000000000000000000000000000000000009085908890889060040161571b565b602060405180830381600087803b15801561283a57600080fd5b505af115801561284e573d6000803e3d6000fd5b505050506040513d601f19601f820116820180604052508101906128729190615702565b5061293e565b60405163573ade8160e01b81526001600160a01b037f0000000000000000000000000000000000000000000000000000000000000000169063573ade81906128ea907f00000000000000000000000000000000000000000000000000000000000000009085908890889060040161571b565b602060405180830381600087803b15801561290457600080fd5b505af1158015612918573d6000803e3d6000fd5b505050506040513d601f19601f8201168201806040525081019061293c9190615702565b505b47801561294f5761294f8382613ff5565b612959818361575c565b7f00000000000000000000000000000000000000000000000000000000000000006001600160a01b0316846001600160a01b03167f77673b670822baca14a7caf6f8038f811649ab73e4c06083b0e58a53389bece789886040516129c7929190918252602082015260400190565b60405180910390a4505050505050565b6129e360038b8b61181f565b6129f38888888888888888611d8e565b50505050505050505050565b6000612a09613854565b90507f00000000000000000000000000000000000000000000000000000000000000006001600160a01b031663d0e30db0346040518263ffffffff1660e01b81526004016000604051808303818588803b158015612a6657600080fd5b505af1158015612a7a573d6000803e3d6000fd5b5085935060029250612a8a915050565b1415612b3a5760405163e8eda9df60e01b81526001600160a01b037f0000000000000000000000000000000000000000000000000000000000000000169063e8eda9df90612b03907f00000000000000000000000000000000000000000000000000000000000000009034908690600090600401615ade565b600060405180830381600087803b158015612b1d57600080fd5b505af1158015612b31573d6000803e3d6000fd5b50505050612be0565b60405163617ba03760e01b81526001600160a01b037f0000000000000000000000000000000000000000000000000000000000000000169063617ba03790612bad907f00000000000000000000000000000000000000000000000000000000000000009034908690600090600401615ade565b600060405180830381600087803b158015612bc757600080fd5b505af1158015612bdb573d6000803e3d6000fd5b505050505b347f00000000000000000000000000000000000000000000000000000000000000006001600160a01b0316826001600160a01b03167f5cedcce6a827e65624771bcd2fafdeb4c7e1dfdf5a44d4fe904c4ee870eecd5285604051612c4691815260200190565b60405180910390a45050565b606080600081817f00000000000000000000000000000000000000000000000000000000000000006001600160a01b031615612d24577f00000000000000000000000000000000000000000000000000000000000000006001600160a01b031663b316ff896040518163ffffffff1660e01b815260040160006040518083038186803b158015612ce157600080fd5b505afa158015612cf5573d6000803e3d6000fd5b505050506040513d6000823e601f3d908101601f19168201604052612d1d9190810190615b80565b9350835192505b7f00000000000000000000000000000000000000000000000000000000000000006001600160a01b031615612def577f00000000000000000000000000000000000000000000000000000000000000006001600160a01b031663b316ff896040518163ffffffff1660e01b815260040160006040518083038186803b158015612dac57600080fd5b505afa158015612dc0573d6000803e3d6000fd5b505050506040513d6000823e601f3d908101601f19168201604052612de89190810190615b80565b9150815190505b612df98184615c7b565b67ffffffffffffffff811115612e1157612e11615790565b604051908082528060200260200182016040528015612e6757816020015b612e546040805160608101909152806000815260606020820152600060409091015290565b815260200190600190039081612e2f5790505b50945060005b83811015612f5a576002868281518110612e8957612e896157a6565b6020026020010151600001906003811115612ea657612ea6615419565b90816003811115612eb957612eb9615419565b81525050848181518110612ecf57612ecf6157a6565b602002602001015160000151868281518110612eed57612eed6157a6565b602002602001015160200181905250848181518110612f0e57612f0e6157a6565b602002602001015160200151868281518110612f2c57612f2c6157a6565b60209081029190910101516001600160a01b0390911660409091015280612f5281615ac3565b915050612e6d565b506000805b8281101561305857612f718186615c7b565b91506003878381518110612f8757612f876157a6565b6020026020010151600001906003811115612fa457612fa4615419565b90816003811115612fb757612fb7615419565b81525050838181518110612fcd57612fcd6157a6565b602002602001015160000151878381518110612feb57612feb6157a6565b60200260200101516020018190525083818151811061300c5761300c6157a6565b60200260200101516020015187838151811061302a5761302a6157a6565b60209081029190910101516001600160a01b039091166040909101528061305081615ac3565b915050612f5f565b50505050505090565b61306d8a8a8a8a610af2565b6129f38a878787878787611fcd565b600054610100900460ff161580801561309c5750600054600160ff909116105b806130b65750303b1580156130b6575060005460ff166001145b6131195760405162461bcd60e51b815260206004820152602e60248201527f496e697469616c697a61626c653a20636f6e747261637420697320616c72656160448201526d191e481a5b9a5d1a585b1a5e995960921b6064820152608401612720565b6000805460ff19166001179055801561313c576000805461ff0019166101001790555b6131446147fc565b606580546001600160a01b0319166001600160a01b038416179055613167613c2c565b80156131ad576000805461ff0019169055604051600181527f7f26b83ff96e1f2b6a682f133852f6798a09c465da95921460cefb38474024989060200160405180910390a15b5050565b6131ad82826131be613854565b6140a8565b60006131cd613854565b90506000896002141561327e576040516334924edb60e21b81526001600160a01b038a811660048301527f0000000000000000000000000000000000000000000000000000000000000000169063d2493b6c9060240160606040518083038186803b15801561323b57600080fd5b505afa15801561324f573d6000803e3d6000fd5b505050506040513d601f19601f8201168201806040525081019061327391906156b5565b5090915061331d9050565b6040516334924edb60e21b81526001600160a01b038a811660048301527f0000000000000000000000000000000000000000000000000000000000000000169063d2493b6c9060240160606040518083038186803b1580156132df57600080fd5b505afa1580156132f3573d6000803e3d6000fd5b505050506040513d601f19601f8201168201806040525081019061331791906156b5565b50909150505b60405163d505accf60e01b81526001600160a01b0382169063d505accf9061335590859030908c908c908c908c908c90600401615b3f565b600060405180830381600087803b15801561336f57600080fd5b505af1158015613383573d6000803e3d6000fd5b505050506129f38a8a8a858561482b565b6133a08b8b8b8b610af2565b6133b08b888888888888886131c3565b5050505050505050505050565b60006133c7613854565b905060008460021415613478576040516334924edb60e21b81526001600160a01b0385811660048301527f0000000000000000000000000000000000000000000000000000000000000000169063d2493b6c9060240160606040518083038186803b15801561343557600080fd5b505afa158015613449573d6000803e3d6000fd5b505050506040513d601f19601f8201168201806040525081019061346d91906156b5565b509091506135179050565b6040516334924edb60e21b81526001600160a01b0385811660048301527f0000000000000000000000000000000000000000000000000000000000000000169063d2493b6c9060240160606040518083038186803b1580156134d957600080fd5b505afa1580156134ed573d6000803e3d6000fd5b505050506040513d601f19601f8201168201806040525081019061351191906156b5565b50909150505b610ac1858585858561482b565b6000808080808087600214156136945760007f00000000000000000000000000000000000000000000000000000000000000006001600160a01b03166350d25bcd6040518163ffffffff1660e01b815260040160206040518083038186803b15801561358f57600080fd5b505afa1580156135a3573d6000803e3d6000fd5b505050506040513d601f19601f820116820180604052508101906135c79190615702565b604051632fe4a15f60e21b81526001600160a01b038a811660048301529192507f00000000000000000000000000000000000000000000000000000000000000009091169063bf92857c9060240160c06040518083038186803b15801561362d57600080fd5b505afa158015613641573d6000803e3d6000fd5b505050506040513d601f19601f820116820180604052508101906136659190615c93565b670de0b6b3a76400009587028690049c509386028590049a50919094029290920496509194509250905061373d565b604051632fe4a15f60e21b81526001600160a01b0388811660048301527f0000000000000000000000000000000000000000000000000000000000000000169063bf92857c9060240160c06040518083038186803b1580156136f557600080fd5b505afa158015613709573d6000803e3d6000fd5b505050506040513d601f19601f8201168201806040525081019061372d9190615c93565b949a509298509096509450925090505b9295509295509295565b61374f6137db565b6001600160a01b0381166137b45760405162461bcd60e51b815260206004820152602660248201527f4f776e61626c653a206e6577206f776e657220697320746865207a65726f206160448201526564647265737360d01b6064820152608401612720565b6137bd81613bda565b50565b6137cb8a8a8a612502565b6129f38a888888888888886131c3565b6137e3613854565b6001600160a01b03166137fe6033546001600160a01b031690565b6001600160a01b0316146117e15760405162461bcd60e51b815260206004820181905260248201527f4f776e61626c653a2063616c6c6572206973206e6f7420746865206f776e65726044820152606401612720565b600061385e614a62565b905090565b6040516001600160a01b0380851660248301528316604482015260648101829052610fa29085906323b872dd60e01b906084015b60408051601f198184030181529190526020810180516001600160e01b03166001600160e01b031990931692909217909152614a96565b6040516001600160a01b0383166024820152604481018290526138fe90849063a9059cbb60e01b90606401613897565b505050565b6000807f00000000000000000000000000000000000000000000000000000000000000006001600160a01b03166399248ea76040518163ffffffff1660e01b815260040160206040518083038186803b15801561395f57600080fd5b505afa158015613973573d6000803e3d6000fd5b505050506040513d601f19601f820116820180604052508101906139979190615773565b90507f00000000000000000000000000000000000000000000000000000000000000006001600160a01b0316631c39b6726040518163ffffffff1660e01b815260040160206040518083038186803b1580156139f257600080fd5b505afa158015613a06573d6000803e3d6000fd5b505050506040513d601f19601f82011682018060405250810190613a2a9190615773565b6001600160a01b0316816001600160a01b03161415613ab757806001600160a01b031663312f6b836040518163ffffffff1660e01b815260040160206040518083038186803b158015613a7c57600080fd5b505afa158015613a90573d6000803e3d6000fd5b505050506040513d601f19601f82011682018060405250810190613ab49190615773565b90505b919050565b60405163b3596f0760e01b81526001600160a01b038381166004830152600091829186169063b3596f079060240160206040518083038186803b158015613b0257600080fd5b505afa158015613b16573d6000803e3d6000fd5b505050506040513d601f19601f82011682018060405250810190613b3a9190615702565b90506000846001600160a01b031663313ce5676040518163ffffffff1660e01b815260040160206040518083038186803b158015613b7757600080fd5b505afa158015613b8b573d6000803e3d6000fd5b505050506040513d601f19601f82011682018060405250810190613baf91906158af565b9050613bbc81600a615dc1565b613bc683866158cc565b613bd091906158eb565b9695505050505050565b603380546001600160a01b038381166001600160a01b0319831681179093556040519116919082907f8be0079c531659141344cd1fd0a4f28419497f9722a3daafe3b4186f6b6457e090600090a35050565b7f00000000000000000000000000000000000000000000000000000000000000006001600160a01b031615613e125760007f00000000000000000000000000000000000000000000000000000000000000006001600160a01b031663d1946dbc6040518163ffffffff1660e01b815260040160006040518083038186803b158015613cb657600080fd5b505afa158015613cca573d6000803e3d6000fd5b505050506040513d6000823e601f3d908101601f19168201604052613cf29190810190615dd0565b905060005b8151811015613e0f576000828281518110613d1457613d146157a6565b6020908102919091010151604051636eb1769f60e11b81523060048201526001600160a01b037f0000000000000000000000000000000000000000000000000000000000000000811660248301529192509082169063dd62ed3e9060440160206040518083038186803b158015613d8a57600080fd5b505afa158015613d9e573d6000803e3d6000fd5b505050506040513d601f19601f82011682018060405250810190613dc29190615702565b613dfc57613dfc6001600160a01b0382167f0000000000000000000000000000000000000000000000000000000000000000600019614b68565b5080613e0781615ac3565b915050613cf7565b50505b7f00000000000000000000000000000000000000000000000000000000000000006001600160a01b0316156117e15760007f00000000000000000000000000000000000000000000000000000000000000006001600160a01b031663d1946dbc6040518163ffffffff1660e01b815260040160006040518083038186803b158015613e9c57600080fd5b505afa158015613eb0573d6000803e3d6000fd5b505050506040513d6000823e601f3d908101601f19168201604052613ed89190810190615dd0565b905060005b81518110156131ad576000828281518110613efa57613efa6157a6565b6020908102919091010151604051636eb1769f60e11b81523060048201526001600160a01b037f0000000000000000000000000000000000000000000000000000000000000000811660248301529192509082169063dd62ed3e9060440160206040518083038186803b158015613f7057600080fd5b505afa158015613f84573d6000803e3d6000fd5b505050506040513d601f19601f82011682018060405250810190613fa89190615702565b613fe257613fe26001600160a01b0382167f0000000000000000000000000000000000000000000000000000000000000000600019614b68565b5080613fed81615ac3565b915050613edd565b604080516000808252602082019092526001600160a01b03841690839060405161401f9190615e05565b60006040518083038185875af1925050503d806000811461405c576040519150601f19603f3d011682016040523d82523d6000602084013e614061565b606091505b50509050806138fe5760405162461bcd60e51b815260206004820152601360248201527211551217d514905394d1915497d19052531151606a1b6044820152606401612720565b6000600284146140d8577f00000000000000000000000000000000000000000000000000000000000000006140fa565b7f00000000000000000000000000000000000000000000000000000000000000005b905082600019811415614183576040516370a0823160e01b81526001600160a01b0384811660048301528316906370a082319060240160206040518083038186803b15801561414857600080fd5b505afa15801561415c573d6000803e3d6000fd5b505050506040513d601f19601f820116820180604052508101906141809190615702565b90505b6141986001600160a01b038316843084613863565b846002141561426957604051631a4ca37b60e21b81526001600160a01b037f000000000000000000000000000000000000000000000000000000000000000016906369328dec90614211907f00000000000000000000000000000000000000000000000000000000000000009085903090600401615e21565b602060405180830381600087803b15801561422b57600080fd5b505af115801561423f573d6000803e3d6000fd5b505050506040513d601f19601f820116820180604052508101906142639190615702565b5061432d565b604051631a4ca37b60e21b81526001600160a01b037f000000000000000000000000000000000000000000000000000000000000000016906369328dec906142d9907f00000000000000000000000000000000000000000000000000000000000000009085903090600401615e21565b602060405180830381600087803b1580156142f357600080fd5b505af1158015614307573d6000803e3d6000fd5b505050506040513d601f19601f8201168201806040525081019061432b9190615702565b505b604051632e1a7d4d60e01b8152600481018290527f00000000000000000000000000000000000000000000000000000000000000006001600160a01b031690632e1a7d4d90602401600060405180830381600087803b15801561438f57600080fd5b505af11580156143a3573d6000803e3d6000fd5b505050506143b18382613ff5565b807f00000000000000000000000000000000000000000000000000000000000000006001600160a01b0316846001600160a01b03167f457f950b75085c30ff780acd57bde642ff1316cc4aad9f286af2c1ffc4163a7888604051611b2791815260200190565b6000806144b57f000000000000000000000000000000000000000000000000000000000000000086866001600160a01b03166318160ddd6040518163ffffffff1660e01b815260040160206040518083038186803b15801561447857600080fd5b505afa15801561448c573d6000803e3d6000fd5b505050506040513d601f19601f820116820180604052508101906144b09190615702565b613abc565b604051631652e7b760e01b81526001600160a01b0386811660048301529192506000917f00000000000000000000000000000000000000000000000000000000000000001690631652e7b79060240160606040518083038186803b15801561451c57600080fd5b505afa158015614530573d6000803e3d6000fd5b505050506040513d601f19601f820116820180604052508101906145549190615e44565b50915082905061458d7f0000000000000000000000000000000000000000000000000000000000000000866144b0856301e133806158cc565b613bc690670de0b6b3a76400006158cc565b604051636657732f60e01b81526001600160a01b03828116600483015260009182917f00000000000000000000000000000000000000000000000000000000000000001690636657732f9060240160006040518083038186803b15801561460557600080fd5b505afa158015614619573d6000803e3d6000fd5b505050506040513d6000823e601f3d908101601f191682016040526146419190810190615dd0565b905060006146a37f000000000000000000000000000000000000000000000000000000000000000086866001600160a01b03166318160ddd6040518163ffffffff1660e01b815260040160206040518083038186803b15801561447857600080fd5b90506000805b83518110156147f05760008482815181106146c6576146c66157a6565b6020908102919091010151604051630fdfe97560e31b81526001600160a01b03898116600483015280831660248301529192506000917f00000000000000000000000000000000000000000000000000000000000000001690637eff4ba89060440160806040518083038186803b15801561474057600080fd5b505afa158015614754573d6000803e3d6000fd5b505050506040513d601f19601f820116820180604052508101906147789190615e72565b5050915050846147b37f000000000000000000000000000000000000000000000000000000000000000084846301e133806144b091906158cc565b6147c590670de0b6b3a76400006158cc565b6147cf91906158eb565b6147d99085615c7b565b9350505080806147e890615ac3565b9150506146a9565b50925050505b92915050565b600054610100900460ff166148235760405162461bcd60e51b815260040161272090615ea8565b6117e1614c8c565b826000198114156148b2576040516370a0823160e01b81526001600160a01b0384811660048301528316906370a082319060240160206040518083038186803b15801561487757600080fd5b505afa15801561488b573d6000803e3d6000fd5b505050506040513d601f19601f820116820180604052508101906148af9190615702565b90505b6148c76001600160a01b038316843084613863565b856002141561497857604051631a4ca37b60e21b81526001600160a01b037f000000000000000000000000000000000000000000000000000000000000000016906369328dec9061492090889085908890600401615e21565b602060405180830381600087803b15801561493a57600080fd5b505af115801561494e573d6000803e3d6000fd5b505050506040513d601f19601f820116820180604052508101906149729190615702565b50614a1c565b604051631a4ca37b60e21b81526001600160a01b037f000000000000000000000000000000000000000000000000000000000000000016906369328dec906149c890889085908890600401615e21565b602060405180830381600087803b1580156149e257600080fd5b505af11580156149f6573d6000803e3d6000fd5b505050506040513d601f19601f82011682018060405250810190614a1a9190615702565b505b80856001600160a01b0316846001600160a01b03167f457f950b75085c30ff780acd57bde642ff1316cc4aad9f286af2c1ffc4163a78896040516129c791815260200190565b600060183610801590614a7f57506065546001600160a01b031633145b15614a91575060131936013560601c90565b503390565b6000614aeb826040518060400160405280602081526020017f5361666545524332303a206c6f772d6c6576656c2063616c6c206661696c6564815250856001600160a01b0316614cc39092919063ffffffff16565b8051909150156138fe5780806020019051810190614b099190615ef3565b6138fe5760405162461bcd60e51b815260206004820152602a60248201527f5361666545524332303a204552433230206f7065726174696f6e20646964206e6044820152691bdd081cdd58d8d9595960b21b6064820152608401612720565b801580614bf15750604051636eb1769f60e11b81523060048201526001600160a01b03838116602483015284169063dd62ed3e9060440160206040518083038186803b158015614bb757600080fd5b505afa158015614bcb573d6000803e3d6000fd5b505050506040513d601f19601f82011682018060405250810190614bef9190615702565b155b614c5c5760405162461bcd60e51b815260206004820152603660248201527f5361666545524332303a20617070726f76652066726f6d206e6f6e2d7a65726f60448201527520746f206e6f6e2d7a65726f20616c6c6f77616e636560501b6064820152608401612720565b6040516001600160a01b0383166024820152604481018290526138fe90849063095ea7b360e01b90606401613897565b600054610100900460ff16614cb35760405162461bcd60e51b815260040161272090615ea8565b6117e1614cbe613854565b613bda565b60606117a1848460008585600080866001600160a01b03168587604051614cea9190615e05565b60006040518083038185875af1925050503d8060008114614d27576040519150601f19603f3d011682016040523d82523d6000602084013e614d2c565b606091505b5091509150614d3d87838387614d48565b979650505050505050565b60608315614db4578251614dad576001600160a01b0385163b614dad5760405162461bcd60e51b815260206004820152601d60248201527f416464726573733a2063616c6c20746f206e6f6e2d636f6e74726163740000006044820152606401612720565b50816117a1565b6117a18383815115614dc95781518083602001fd5b8060405162461bcd60e51b81526004016127209190614fef565b6040518060a0016040528060006001600160a01b0316815260200160608152602001600060ff16815260200160008152602001600081525090565b6001600160a01b03811681146137bd57600080fd5b600080600080600060a08688031215614e4b57600080fd5b8535945060208601359350604086013592506060860135614e6b81614e1e565b949793965091946080013592915050565b600060208284031215614e8e57600080fd5b8135614e9981614e1e565b9392505050565b60008060008060808587031215614eb657600080fd5b843593506020850135614ec881614e1e565b93969395505050506040820135916060013590565b60008060008060008060c08789031215614ef657600080fd5b863595506020870135614f0881614e1e565b9450604087013593506060870135614f1f81614e1e565b9598949750929560808101359460a0909101359350915050565b60008060008060008060c08789031215614f5257600080fd5b863595506020870135614f6481614e1e565b945060408701359350606087013592506080870135614f8281614e1e565b8092505060a087013590509295509295509295565b60005b83811015614fb2578181015183820152602001614f9a565b83811115610fa25750506000910152565b60008151808452614fdb816020860160208601614f97565b601f01601f19169290920160200192915050565b602081526000614e996020830184614fc3565b6000806000806060858703121561501857600080fd5b84359350602085013567ffffffffffffffff8082111561503757600080fd5b818701915087601f83011261504b57600080fd5b81358181111561505a57600080fd5b8860208260051b850101111561506f57600080fd5b602083019550809450505050604085013561508981614e1e565b939692955090935050565b60006020808301818452808551808352604092508286019150828160051b87010184880160005b8381101561512957888303603f19018552815180516001600160a01b031684528781015160a0898601819052906150f482870182614fc3565b838a015160ff16878b0152606080850151908801526080938401519390960192909252505093860193908601906001016150bb565b509098975050505050505050565b60ff811681146137bd57600080fd5b60008060008060008060008060006101208a8c03121561516557600080fd5b893561517081614e1e565b985060208a0135975060408a0135965060608a0135955060808a0135945060a08a0135935060c08a01356151a381615137565b8093505060e08a013591506101008a013590509295985092959850929598565b600080600080600060a086880312156151db57600080fd5b8535945060208601356151ed81614e1e565b94979496505050506040830135926060810135926080909101359150565b60008060006060848603121561522057600080fd5b83359250602084013561523281614e1e565b929592945050506040919091013590565b600080600080600080600060e0888a03121561525e57600080fd5b87359650602088013595506040880135945060608801359350608088013561528581615137565b9699959850939692959460a0840135945060c09093013592915050565b600080600080600080600080610100898b0312156152bf57600080fd5b88356152ca81614e1e565b97506020890135965060408901359550606089013594506080890135935060a08901356152f681615137565b979a969950949793969295929450505060c08201359160e0013590565b60008060006060848603121561532857600080fd5b505081359360208301359350604090920135919050565b6000806040838503121561535257600080fd5b82359150602083013561536481614e1e565b809150509250929050565b6000806000806000806000806000806101408b8d03121561538f57600080fd5b8a3561539a81614e1e565b995060208b0135985060408b01356153b181614e1e565b975060608b0135965060808b0135955060a08b0135945060c08b0135935060e08b01356153dd81615137565b809350506101008b013591506101208b013590509295989b9194979a5092959850565b60006020828403121561541257600080fd5b5035919050565b634e487b7160e01b600052602160045260246000fd5b60006020808301818452808551808352604092508286019150828160051b8701018488016000805b848110156154ca57603f198a8503018652825160608151600480821061548a57634e487b7160e01b865260218152602486fd5b508652818a01518a87018290526154a382880182614fc3565b928a01516001600160a01b0316968a01969096525095880195935091870191600101615457565b50919998505050505050505050565b6000806000806000806000806000806101408b8d0312156154f957600080fd5b8a35995060208b013561550b81614e1e565b985060408b0135975060608b0135965060808b0135955060a08b0135945060c08b0135935060e08b01356153dd81615137565b6000806040838503121561555157600080fd5b50508035926020909101359150565b600080600080600080600080610100898b03121561557d57600080fd5b88359750602089013561558f81614e1e565b965060408901359550606089013594506080890135935060a08901356152f681615137565b60008060008060008060008060008060006101608c8e0312156155d657600080fd5b8b359a5060208c01356155e881614e1e565b995060408c0135985060608c0135975060808c013561560681614e1e565b965060a08c0135955060c08c0135945060e08c013593506101008c013561562c81615137565b809350506101208c013591506101408c013590509295989b509295989b9093969950565b6000806000806000806000806000806101408b8d03121561567057600080fd5b8a35995060208b0135985060408b0135975060608b013561569081614e1e565b965060808b0135955060a08b0135945060c08b0135935060e08b01356153dd81615137565b6000806000606084860312156156ca57600080fd5b83516156d581614e1e565b60208501519093506156e681614e1e565b60408501519092506156f781614e1e565b809150509250925092565b60006020828403121561571457600080fd5b5051919050565b6001600160a01b03948516815260208101939093526040830191909152909116606082015260800190565b634e487b7160e01b600052601160045260246000fd5b60008282101561576e5761576e615746565b500390565b60006020828403121561578557600080fd5b8151614e9981614e1e565b634e487b7160e01b600052604160045260246000fd5b634e487b7160e01b600052603260045260246000fd5b6040805190810167ffffffffffffffff811182821017156157df576157df615790565b60405290565b604051601f8201601f1916810167ffffffffffffffff8111828210171561580e5761580e615790565b604052919050565b600082601f83011261582757600080fd5b815167ffffffffffffffff81111561584157615841615790565b615854601f8201601f19166020016157e5565b81815284602083860101111561586957600080fd5b6117a1826020830160208701614f97565b60006020828403121561588c57600080fd5b815167ffffffffffffffff8111156158a357600080fd5b6117a184828501615816565b6000602082840312156158c157600080fd5b8151614e9981615137565b60008160001904831182151516156158e6576158e6615746565b500290565b60008261590857634e487b7160e01b600052601260045260246000fd5b500490565b6040808252810183905260008460608301825b8681101561595057823561593381614e1e565b6001600160a01b0316825260209283019290910190600101615920565b506001600160a01b03949094166020939093019290925250909392505050565b600067ffffffffffffffff82111561598a5761598a615790565b5060051b60200190565b600082601f8301126159a557600080fd5b815160206159ba6159b583615970565b6157e5565b82815260059290921b840181019181810190868411156159d957600080fd5b8286015b848110156159fd5780516159f081614e1e565b83529183019183016159dd565b509695505050505050565b60008060408385031215615a1b57600080fd5b825167ffffffffffffffff80821115615a3357600080fd5b615a3f86838701615994565b9350602091508185015181811115615a5657600080fd5b85019050601f81018613615a6957600080fd5b8051615a776159b582615970565b81815260059190911b82018301908381019088831115615a9657600080fd5b928401925b82841015615ab457835182529284019290840190615a9b565b80955050505050509250929050565b6000600019821415615ad757615ad7615746565b5060010190565b6001600160a01b03948516815260208101939093529216604082015261ffff909116606082015260800190565b6001600160a01b0395861681526020810194909452604084019290925261ffff166060830152909116608082015260a00190565b6001600160a01b0397881681529590961660208601526040850193909352606084019190915260ff16608083015260a082015260c081019190915260e00190565b60006020808385031215615b9357600080fd5b825167ffffffffffffffff80821115615bab57600080fd5b818501915085601f830112615bbf57600080fd5b8151615bcd6159b582615970565b81815260059190911b83018401908481019088831115615bec57600080fd5b8585015b83811015615c6e57805185811115615c085760008081fd5b86016040818c03601f1901811315615c205760008081fd5b615c286157bc565b8983015188811115615c3a5760008081fd5b615c488e8c83870101615816565b8252509181015191615c5983614e1e565b808a0192909252508352918601918601615bf0565b5098975050505050505050565b60008219821115615c8e57615c8e615746565b500190565b60008060008060008060c08789031215615cac57600080fd5b865195506020870151945060408701519350606087015192506080870151915060a087015190509295509295509295565b600181815b80851115615d18578160001904821115615cfe57615cfe615746565b80851615615d0b57918102915b93841c9390800290615ce2565b509250929050565b600082615d2f575060016147f6565b81615d3c575060006147f6565b8160018114615d525760028114615d5c57615d78565b60019150506147f6565b60ff841115615d6d57615d6d615746565b50506001821b6147f6565b5060208310610133831016604e8410600b8410161715615d9b575081810a6147f6565b615da58383615cdd565b8060001904821115615db957615db9615746565b029392505050565b6000614e9960ff841683615d20565b600060208284031215615de257600080fd5b815167ffffffffffffffff811115615df957600080fd5b6117a184828501615994565b60008251615e17818460208701614f97565b9190910192915050565b6001600160a01b0393841681526020810192909252909116604082015260600190565b600080600060608486031215615e5957600080fd5b8351925060208401519150604084015190509250925092565b60008060008060808587031215615e8857600080fd5b505082516020840151604085015160609095015191969095509092509050565b6020808252602b908201527f496e697469616c697a61626c653a20636f6e7472616374206973206e6f74206960408201526a6e697469616c697a696e6760a81b606082015260800190565b600060208284031215615f0557600080fd5b81518015158114614e9957600080fdfe49dd87b26edb1c92c93f83b092bd5a425c6bf7a562c0fed02f2576c49f477ba4a2646970667358221220dc6e03b6bad76dd659eedbcd71f0a6e3f9ea239a50c595266ad73846292a438464736f6c63430008090033",
  "devdoc": {
    "kind": "dev",
    "methods": {
      "constructor": {
        "custom:oz-upgrades-unsafe-allow": "constructor"
      },
      "getAllUserRewards(uint256,address[],address)": {
        "details": "Returns a list all rewards of a user, including already accrued and unrealized claimable rewards",
        "params": {
          "scaledBalanceTokens": "List of incentivized assets to check eligible distributions. It's used only for v3. It should be address of AToken or VariableDebtToken",
          "user": "The address of the user"
        },
        "returns": {
          "_0": "The list of reward data*"
        }
      },
      "getUserAccountData(uint256,address)": {
        "params": {
          "user": "The address of the user"
        },
        "returns": {
          "availableBorrows": "The borrowing power left of the user in USD",
          "currentLiquidationThreshold": "The liquidation threshold of the user",
          "healthFactor": "The current health factor of the user",
          "ltv": "The loan to value of The user",
          "totalCollateral": "The total collateral of the user in USD. The unit is 100000000",
          "totalDebt": "The total debt of the user in USD"
        }
      },
      "owner()": {
        "details": "Returns the address of the current owner."
      },
      "renounceOwnership()": {
        "details": "Leaves the contract without owner. It will not be possible to call `onlyOwner` functions anymore. Can only be called by the current owner. NOTE: Renouncing ownership will leave the contract without an owner, thereby removing any functionality that is only available to the owner."
      },
      "transferOwnership(address)": {
        "details": "Transfers ownership of the contract to a new account (`newOwner`). Can only be called by the current owner."
      }
    },
    "version": 1
  },
  "userdoc": {
    "kind": "user",
    "methods": {
      "approvePool()": {
        "notice": "If new assets are added into the pool, it needs to be called."
      },
      "borrow(uint256,address,uint256,uint256)": {
        "notice": "The user must approve the delegation to this SC for the asset's debtToken."
      },
      "borrowETHWithPermit(uint256,uint256,uint256,uint256,uint8,bytes32,bytes32)": {
        "notice": "It works for only v3."
      },
      "borrowWithPermit(address,uint256,uint256,uint256,uint256,uint8,bytes32,bytes32)": {
        "notice": "It works for only v3."
      },
      "getRewardAPRs(uint256,address)": {
        "notice": "The returned APRs are scaneld by 18"
      },
      "getUserAccountData(uint256,address)": {
        "notice": "Returns the user account data across all the reserves"
      },
      "isTrustedForwarder(address)": {
        "notice": "return if the forwarder is trusted to forward relayed transactions to us. the forwarder is required to verify the sender's signature, and verify the call is not a replay."
      },
      "repay(uint256,address,uint256,uint256)": {
        "notice": "The user must approve this SC for the asset."
      },
      "supply(uint256,address,uint256)": {
        "notice": "The user must approve this SC for the asset."
      },
      "supplyAndBorrowETHWithPermit(address,uint256,uint256,uint256,uint256,uint256,uint8,bytes32,bytes32)": {
        "notice": "It works for only v3."
      },
      "supplyAndBorrowWithPermit(address,uint256,address,uint256,uint256,uint256,uint256,uint8,bytes32,bytes32)": {
        "notice": "It works for only v3."
      },
      "supplyETHAndBorrowWithPermit(address,uint256,uint256,uint256,uint256,uint8,bytes32,bytes32)": {
        "notice": "It works for only v3."
      },
      "withdraw(uint256,address,uint256)": {
        "notice": "The user must approve this SC for the asset's aToken."
      }
    },
    "version": 1
  },
  "storageLayout": {
    "storage": [
      {
        "astId": 169,
        "contract": "contracts/AaveAdapter.sol:AaveAdapter",
        "label": "_initialized",
        "offset": 0,
        "slot": "0",
        "type": "t_uint8"
      },
      {
        "astId": 172,
        "contract": "contracts/AaveAdapter.sol:AaveAdapter",
        "label": "_initializing",
        "offset": 1,
        "slot": "0",
        "type": "t_bool"
      },
      {
        "astId": 1051,
        "contract": "contracts/AaveAdapter.sol:AaveAdapter",
        "label": "__gap",
        "offset": 0,
        "slot": "1",
        "type": "t_array(t_uint256)50_storage"
      },
      {
        "astId": 41,
        "contract": "contracts/AaveAdapter.sol:AaveAdapter",
        "label": "_owner",
        "offset": 0,
        "slot": "51",
        "type": "t_address"
      },
      {
        "astId": 161,
        "contract": "contracts/AaveAdapter.sol:AaveAdapter",
        "label": "__gap",
        "offset": 0,
        "slot": "52",
        "type": "t_array(t_uint256)49_storage"
      },
      {
        "astId": 5219,
        "contract": "contracts/AaveAdapter.sol:AaveAdapter",
        "label": "trustedForwarder",
        "offset": 0,
        "slot": "101",
        "type": "t_address"
      }
    ],
    "types": {
      "t_address": {
        "encoding": "inplace",
        "label": "address",
        "numberOfBytes": "20"
      },
      "t_array(t_uint256)49_storage": {
        "base": "t_uint256",
        "encoding": "inplace",
        "label": "uint256[49]",
        "numberOfBytes": "1568"
      },
      "t_array(t_uint256)50_storage": {
        "base": "t_uint256",
        "encoding": "inplace",
        "label": "uint256[50]",
        "numberOfBytes": "1600"
      },
      "t_bool": {
        "encoding": "inplace",
        "label": "bool",
        "numberOfBytes": "1"
      },
      "t_uint256": {
        "encoding": "inplace",
        "label": "uint256",
        "numberOfBytes": "32"
      },
      "t_uint8": {
        "encoding": "inplace",
        "label": "uint8",
        "numberOfBytes": "1"
      }
    }
  }
}