{
  "address": "0xb02068AE04Bf5d184EFDe3583e09f2185a30da0e",
  "abi": [
    {
      "inputs": [
        {
          "internalType": "address",
          "name": "_v2DataProvider",
          "type": "address"
        },
        {
          "internalType": "address",
          "name": "_v3AddressesProvider",
          "type": "address"
        },
        {
          "internalType": "address",
          "name": "_wnative",
          "type": "address"
        },
        {
          "internalType": "address",
          "name": "_v2BaseCurrencyPriceSource",
          "type": "address"
        }
      ],
      "stateMutability": "nonpayable",
      "type": "constructor"
    },
    {
      "anonymous": false,
      "inputs": [
        {
          "indexed": false,
          "internalType": "uint8",
          "name": "version",
          "type": "uint8"
        }
      ],
      "name": "Initialized",
      "type": "event"
    },
    {
      "anonymous": false,
      "inputs": [
        {
          "indexed": true,
          "internalType": "address",
          "name": "previousOwner",
          "type": "address"
        },
        {
          "indexed": true,
          "internalType": "address",
          "name": "newOwner",
          "type": "address"
        }
      ],
      "name": "OwnershipTransferred",
      "type": "event"
    },
    {
      "inputs": [],
      "name": "V2_ADDRESSES_PROVIDER",
      "outputs": [
        {
          "internalType": "contract ILendingPoolAddressesProvider",
          "name": "",
          "type": "address"
        }
      ],
      "stateMutability": "view",
      "type": "function"
    },
    {
      "inputs": [],
      "name": "V2_BASE_CURRENCY_PRICE_SOURCE",
      "outputs": [
        {
          "internalType": "contract IChainlinkAggregator",
          "name": "",
          "type": "address"
        }
      ],
      "stateMutability": "view",
      "type": "function"
    },
    {
      "inputs": [],
      "name": "V2_DATA_PROVIDER",
      "outputs": [
        {
          "internalType": "contract IAaveProtocolDataProvider",
          "name": "",
          "type": "address"
        }
      ],
      "stateMutability": "view",
      "type": "function"
    },
    {
      "inputs": [],
      "name": "V2_LENDING_POOL",
      "outputs": [
        {
          "internalType": "contract ILendingPool",
          "name": "",
          "type": "address"
        }
      ],
      "stateMutability": "view",
      "type": "function"
    },
    {
      "inputs": [],
      "name": "V3_ADDRESSES_PROVIDER",
      "outputs": [
        {
          "internalType": "contract IPoolAddressesProvider",
          "name": "",
          "type": "address"
        }
      ],
      "stateMutability": "view",
      "type": "function"
    },
    {
      "inputs": [],
      "name": "V3_DATA_PROVIDER",
      "outputs": [
        {
          "internalType": "contract IPoolDataProvider",
          "name": "",
          "type": "address"
        }
      ],
      "stateMutability": "view",
      "type": "function"
    },
    {
      "inputs": [],
      "name": "V3_POOL",
      "outputs": [
        {
          "internalType": "contract IPool",
          "name": "",
          "type": "address"
        }
      ],
      "stateMutability": "view",
      "type": "function"
    },
    {
      "inputs": [],
      "name": "WNATIVE",
      "outputs": [
        {
          "internalType": "contract IWETH",
          "name": "",
          "type": "address"
        }
      ],
      "stateMutability": "view",
      "type": "function"
    },
    {
      "inputs": [],
      "name": "aWNATIVE",
      "outputs": [
        {
          "internalType": "address",
          "name": "",
          "type": "address"
        }
      ],
      "stateMutability": "view",
      "type": "function"
    },
    {
      "inputs": [],
      "name": "approvePool",
      "outputs": [],
      "stateMutability": "nonpayable",
      "type": "function"
    },
    {
      "inputs": [
        {
          "internalType": "uint256",
          "name": "version",
          "type": "uint256"
        },
        {
          "internalType": "address",
          "name": "asset",
          "type": "address"
        },
        {
          "internalType": "uint256",
          "name": "amount",
          "type": "uint256"
        },
        {
          "internalType": "uint256",
          "name": "interestRateMode",
          "type": "uint256"
        }
      ],
      "name": "borrow",
      "outputs": [],
      "stateMutability": "nonpayable",
      "type": "function"
    },
    {
      "inputs": [
        {
          "internalType": "uint256",
          "name": "version",
          "type": "uint256"
        },
        {
          "internalType": "uint256",
          "name": "amount",
          "type": "uint256"
        },
        {
          "internalType": "uint256",
          "name": "interestRateMode",
          "type": "uint256"
        }
      ],
      "name": "borrowETH",
      "outputs": [],
      "stateMutability": "nonpayable",
      "type": "function"
    },
    {
      "inputs": [
        {
          "internalType": "uint256",
          "name": "amount",
          "type": "uint256"
        },
        {
          "internalType": "uint256",
          "name": "interestRateMode",
          "type": "uint256"
        },
        {
          "internalType": "uint256",
          "name": "permitAmount",
          "type": "uint256"
        },
        {
          "internalType": "uint256",
          "name": "permitDeadline",
          "type": "uint256"
        },
        {
          "internalType": "uint8",
          "name": "permitV",
          "type": "uint8"
        },
        {
          "internalType": "bytes32",
          "name": "permitR",
          "type": "bytes32"
        },
        {
          "internalType": "bytes32",
          "name": "permitS",
          "type": "bytes32"
        }
      ],
      "name": "borrowETHWithPermit",
      "outputs": [],
      "stateMutability": "nonpayable",
      "type": "function"
    },
    {
      "inputs": [
        {
          "internalType": "address",
          "name": "asset",
          "type": "address"
        },
        {
          "internalType": "uint256",
          "name": "amount",
          "type": "uint256"
        },
        {
          "internalType": "uint256",
          "name": "interestRateMode",
          "type": "uint256"
        },
        {
          "internalType": "uint256",
          "name": "permitAmount",
          "type": "uint256"
        },
        {
          "internalType": "uint256",
          "name": "permitDeadline",
          "type": "uint256"
        },
        {
          "internalType": "uint8",
          "name": "permitV",
          "type": "uint8"
        },
        {
          "internalType": "bytes32",
          "name": "permitR",
          "type": "bytes32"
        },
        {
          "internalType": "bytes32",
          "name": "permitS",
          "type": "bytes32"
        }
      ],
      "name": "borrowWithPermit",
      "outputs": [],
      "stateMutability": "nonpayable",
      "type": "function"
    },
    {
      "inputs": [],
      "name": "getAllReservesTokens",
      "outputs": [
        {
          "components": [
            {
              "internalType": "enum VERSION",
              "name": "version",
              "type": "uint8"
            },
            {
              "internalType": "string",
              "name": "symbol",
              "type": "string"
            },
            {
              "internalType": "address",
              "name": "tokenAddress",
              "type": "address"
            }
          ],
          "internalType": "struct TokenDataEx[]",
          "name": "tokens",
          "type": "tuple[]"
        }
      ],
      "stateMutability": "view",
      "type": "function"
    },
    {
      "inputs": [
        {
          "internalType": "uint256",
          "name": "version",
          "type": "uint256"
        },
        {
          "internalType": "address",
          "name": "user",
          "type": "address"
        }
      ],
      "name": "getUserAccountData",
      "outputs": [
        {
          "internalType": "uint256",
          "name": "totalCollateral",
          "type": "uint256"
        },
        {
          "internalType": "uint256",
          "name": "totalDebt",
          "type": "uint256"
        },
        {
          "internalType": "uint256",
          "name": "availableBorrows",
          "type": "uint256"
        },
        {
          "internalType": "uint256",
          "name": "currentLiquidationThreshold",
          "type": "uint256"
        },
        {
          "internalType": "uint256",
          "name": "ltv",
          "type": "uint256"
        },
        {
          "internalType": "uint256",
          "name": "healthFactor",
          "type": "uint256"
        }
      ],
      "stateMutability": "view",
      "type": "function"
    },
    {
      "inputs": [
        {
          "internalType": "address",
          "name": "_biconomy",
          "type": "address"
        }
      ],
      "name": "initialize",
      "outputs": [],
      "stateMutability": "nonpayable",
      "type": "function"
    },
    {
      "inputs": [
        {
          "internalType": "address",
          "name": "forwarder",
          "type": "address"
        }
      ],
      "name": "isTrustedForwarder",
      "outputs": [
        {
          "internalType": "bool",
          "name": "",
          "type": "bool"
        }
      ],
      "stateMutability": "view",
      "type": "function"
    },
    {
      "inputs": [],
      "name": "owner",
      "outputs": [
        {
          "internalType": "address",
          "name": "",
          "type": "address"
        }
      ],
      "stateMutability": "view",
      "type": "function"
    },
    {
      "inputs": [],
      "name": "renounceOwnership",
      "outputs": [],
      "stateMutability": "nonpayable",
      "type": "function"
    },
    {
      "inputs": [
        {
          "internalType": "uint256",
          "name": "version",
          "type": "uint256"
        },
        {
          "internalType": "address",
          "name": "asset",
          "type": "address"
        },
        {
          "internalType": "uint256",
          "name": "amount",
          "type": "uint256"
        },
        {
          "internalType": "uint256",
          "name": "interestRateMode",
          "type": "uint256"
        }
      ],
      "name": "repay",
      "outputs": [],
      "stateMutability": "nonpayable",
      "type": "function"
    },
    {
      "inputs": [
        {
          "internalType": "uint256",
          "name": "version",
          "type": "uint256"
        },
        {
          "internalType": "address",
          "name": "repayAsset",
          "type": "address"
        },
        {
          "internalType": "uint256",
          "name": "repayAmount",
          "type": "uint256"
        },
        {
          "internalType": "uint256",
          "name": "repayInterestRateMode",
          "type": "uint256"
        },
        {
          "internalType": "address",
          "name": "withdrawalAsset",
          "type": "address"
        },
        {
          "internalType": "uint256",
          "name": "withdrawalAmount",
          "type": "uint256"
        }
      ],
      "name": "repayAndWithdraw",
      "outputs": [],
      "stateMutability": "nonpayable",
      "type": "function"
    },
    {
      "inputs": [
        {
          "internalType": "uint256",
          "name": "version",
          "type": "uint256"
        },
        {
          "internalType": "address",
          "name": "repayAsset",
          "type": "address"
        },
        {
          "internalType": "uint256",
          "name": "repayAmount",
          "type": "uint256"
        },
        {
          "internalType": "uint256",
          "name": "repayInterestRateMode",
          "type": "uint256"
        },
        {
          "internalType": "uint256",
          "name": "withdrawalAmount",
          "type": "uint256"
        }
      ],
      "name": "repayAndWithdrawETH",
      "outputs": [],
      "stateMutability": "nonpayable",
      "type": "function"
    },
    {
      "inputs": [
        {
          "internalType": "uint256",
          "name": "version",
          "type": "uint256"
        },
        {
          "internalType": "address",
          "name": "repayAsset",
          "type": "address"
        },
        {
          "internalType": "uint256",
          "name": "repayAmount",
          "type": "uint256"
        },
        {
          "internalType": "uint256",
          "name": "repayInterestRateMode",
          "type": "uint256"
        },
        {
          "internalType": "uint256",
          "name": "withdrawalAmount",
          "type": "uint256"
        },
        {
          "internalType": "uint256",
          "name": "permitAmount",
          "type": "uint256"
        },
        {
          "internalType": "uint256",
          "name": "permitDeadline",
          "type": "uint256"
        },
        {
          "internalType": "uint8",
          "name": "permitV",
          "type": "uint8"
        },
        {
          "internalType": "bytes32",
          "name": "permitR",
          "type": "bytes32"
        },
        {
          "internalType": "bytes32",
          "name": "permitS",
          "type": "bytes32"
        }
      ],
      "name": "repayAndWithdrawETHWithPermit",
      "outputs": [],
      "stateMutability": "nonpayable",
      "type": "function"
    },
    {
      "inputs": [
        {
          "internalType": "uint256",
          "name": "version",
          "type": "uint256"
        },
        {
          "internalType": "address",
          "name": "repayAsset",
          "type": "address"
        },
        {
          "internalType": "uint256",
          "name": "repayAmount",
          "type": "uint256"
        },
        {
          "internalType": "uint256",
          "name": "repayInterestRateMode",
          "type": "uint256"
        },
        {
          "internalType": "address",
          "name": "withdrawalAsset",
          "type": "address"
        },
        {
          "internalType": "uint256",
          "name": "withdrawalAmount",
          "type": "uint256"
        },
        {
          "internalType": "uint256",
          "name": "permitAmount",
          "type": "uint256"
        },
        {
          "internalType": "uint256",
          "name": "permitDeadline",
          "type": "uint256"
        },
        {
          "internalType": "uint8",
          "name": "permitV",
          "type": "uint8"
        },
        {
          "internalType": "bytes32",
          "name": "permitR",
          "type": "bytes32"
        },
        {
          "internalType": "bytes32",
          "name": "permitS",
          "type": "bytes32"
        }
      ],
      "name": "repayAndWithdrawWithPermit",
      "outputs": [],
      "stateMutability": "nonpayable",
      "type": "function"
    },
    {
      "inputs": [
        {
          "internalType": "uint256",
          "name": "version",
          "type": "uint256"
        },
        {
          "internalType": "uint256",
          "name": "amount",
          "type": "uint256"
        },
        {
          "internalType": "uint256",
          "name": "interestRateMode",
          "type": "uint256"
        }
      ],
      "name": "repayETH",
      "outputs": [],
      "stateMutability": "payable",
      "type": "function"
    },
    {
      "inputs": [
        {
          "internalType": "uint256",
          "name": "version",
          "type": "uint256"
        },
        {
          "internalType": "uint256",
          "name": "repayAmount",
          "type": "uint256"
        },
        {
          "internalType": "uint256",
          "name": "repayInterestRateMode",
          "type": "uint256"
        },
        {
          "internalType": "address",
          "name": "withdrawalAsset",
          "type": "address"
        },
        {
          "internalType": "uint256",
          "name": "withdrawalAmount",
          "type": "uint256"
        }
      ],
      "name": "repayETHAndWithdraw",
      "outputs": [],
      "stateMutability": "payable",
      "type": "function"
    },
    {
      "inputs": [
        {
          "internalType": "uint256",
          "name": "version",
          "type": "uint256"
        },
        {
          "internalType": "uint256",
          "name": "repayAmount",
          "type": "uint256"
        },
        {
          "internalType": "uint256",
          "name": "repayInterestRateMode",
          "type": "uint256"
        },
        {
          "internalType": "address",
          "name": "withdrawalAsset",
          "type": "address"
        },
        {
          "internalType": "uint256",
          "name": "withdrawalAmount",
          "type": "uint256"
        },
        {
          "internalType": "uint256",
          "name": "permitAmount",
          "type": "uint256"
        },
        {
          "internalType": "uint256",
          "name": "permitDeadline",
          "type": "uint256"
        },
        {
          "internalType": "uint8",
          "name": "permitV",
          "type": "uint8"
        },
        {
          "internalType": "bytes32",
          "name": "permitR",
          "type": "bytes32"
        },
        {
          "internalType": "bytes32",
          "name": "permitS",
          "type": "bytes32"
        }
      ],
      "name": "repayETHAndWithdrawWithPermit",
      "outputs": [],
      "stateMutability": "payable",
      "type": "function"
    },
    {
      "inputs": [
        {
          "internalType": "address",
          "name": "_biconomy",
          "type": "address"
        }
      ],
      "name": "setBiconomy",
      "outputs": [],
      "stateMutability": "nonpayable",
      "type": "function"
    },
    {
      "inputs": [
        {
          "internalType": "uint256",
          "name": "version",
          "type": "uint256"
        },
        {
          "internalType": "address",
          "name": "asset",
          "type": "address"
        },
        {
          "internalType": "uint256",
          "name": "amount",
          "type": "uint256"
        }
      ],
      "name": "supply",
      "outputs": [],
      "stateMutability": "nonpayable",
      "type": "function"
    },
    {
      "inputs": [
        {
          "internalType": "uint256",
          "name": "version",
          "type": "uint256"
        },
        {
          "internalType": "address",
          "name": "supplyAsset",
          "type": "address"
        },
        {
          "internalType": "uint256",
          "name": "supplyAmount",
          "type": "uint256"
        },
        {
          "internalType": "address",
          "name": "borrowAsset",
          "type": "address"
        },
        {
          "internalType": "uint256",
          "name": "borrowAmount",
          "type": "uint256"
        },
        {
          "internalType": "uint256",
          "name": "borrowInterestRateMode",
          "type": "uint256"
        }
      ],
      "name": "supplyAndBorrow",
      "outputs": [],
      "stateMutability": "nonpayable",
      "type": "function"
    },
    {
      "inputs": [
        {
          "internalType": "uint256",
          "name": "version",
          "type": "uint256"
        },
        {
          "internalType": "address",
          "name": "supplyAsset",
          "type": "address"
        },
        {
          "internalType": "uint256",
          "name": "supplyAmount",
          "type": "uint256"
        },
        {
          "internalType": "uint256",
          "name": "borrowAmount",
          "type": "uint256"
        },
        {
          "internalType": "uint256",
          "name": "borrowInterestRateMode",
          "type": "uint256"
        }
      ],
      "name": "supplyAndBorrowETH",
      "outputs": [],
      "stateMutability": "nonpayable",
      "type": "function"
    },
    {
      "inputs": [
        {
          "internalType": "address",
          "name": "supplyAsset",
          "type": "address"
        },
        {
          "internalType": "uint256",
          "name": "supplyAmount",
          "type": "uint256"
        },
        {
          "internalType": "uint256",
          "name": "borrowAmount",
          "type": "uint256"
        },
        {
          "internalType": "uint256",
          "name": "borrowInterestRateMode",
          "type": "uint256"
        },
        {
          "internalType": "uint256",
          "name": "permitAmount",
          "type": "uint256"
        },
        {
          "internalType": "uint256",
          "name": "permitDeadline",
          "type": "uint256"
        },
        {
          "internalType": "uint8",
          "name": "permitV",
          "type": "uint8"
        },
        {
          "internalType": "bytes32",
          "name": "permitR",
          "type": "bytes32"
        },
        {
          "internalType": "bytes32",
          "name": "permitS",
          "type": "bytes32"
        }
      ],
      "name": "supplyAndBorrowETHWithPermit",
      "outputs": [],
      "stateMutability": "nonpayable",
      "type": "function"
    },
    {
      "inputs": [
        {
          "internalType": "address",
          "name": "supplyAsset",
          "type": "address"
        },
        {
          "internalType": "uint256",
          "name": "supplyAmount",
          "type": "uint256"
        },
        {
          "internalType": "address",
          "name": "borrowAsset",
          "type": "address"
        },
        {
          "internalType": "uint256",
          "name": "borrowAmount",
          "type": "uint256"
        },
        {
          "internalType": "uint256",
          "name": "borrowInterestRateMode",
          "type": "uint256"
        },
        {
          "internalType": "uint256",
          "name": "permitAmount",
          "type": "uint256"
        },
        {
          "internalType": "uint256",
          "name": "permitDeadline",
          "type": "uint256"
        },
        {
          "internalType": "uint8",
          "name": "permitV",
          "type": "uint8"
        },
        {
          "internalType": "bytes32",
          "name": "permitR",
          "type": "bytes32"
        },
        {
          "internalType": "bytes32",
          "name": "permitS",
          "type": "bytes32"
        }
      ],
      "name": "supplyAndBorrowWithPermit",
      "outputs": [],
      "stateMutability": "nonpayable",
      "type": "function"
    },
    {
      "inputs": [
        {
          "internalType": "uint256",
          "name": "version",
          "type": "uint256"
        }
      ],
      "name": "supplyETH",
      "outputs": [],
      "stateMutability": "payable",
      "type": "function"
    },
    {
      "inputs": [
        {
          "internalType": "uint256",
          "name": "version",
          "type": "uint256"
        },
        {
          "internalType": "address",
          "name": "borrowAsset",
          "type": "address"
        },
        {
          "internalType": "uint256",
          "name": "borrowAmount",
          "type": "uint256"
        },
        {
          "internalType": "uint256",
          "name": "borrowInterestRateMode",
          "type": "uint256"
        }
      ],
      "name": "supplyETHAndBorrow",
      "outputs": [],
      "stateMutability": "payable",
      "type": "function"
    },
    {
      "inputs": [
        {
          "internalType": "address",
          "name": "borrowAsset",
          "type": "address"
        },
        {
          "internalType": "uint256",
          "name": "borrowAmount",
          "type": "uint256"
        },
        {
          "internalType": "uint256",
          "name": "borrowInterestRateMode",
          "type": "uint256"
        },
        {
          "internalType": "uint256",
          "name": "permitAmount",
          "type": "uint256"
        },
        {
          "internalType": "uint256",
          "name": "permitDeadline",
          "type": "uint256"
        },
        {
          "internalType": "uint8",
          "name": "permitV",
          "type": "uint8"
        },
        {
          "internalType": "bytes32",
          "name": "permitR",
          "type": "bytes32"
        },
        {
          "internalType": "bytes32",
          "name": "permitS",
          "type": "bytes32"
        }
      ],
      "name": "supplyETHAndBorrowWithPermit",
      "outputs": [],
      "stateMutability": "payable",
      "type": "function"
    },
    {
      "inputs": [
        {
          "internalType": "address",
          "name": "newOwner",
          "type": "address"
        }
      ],
      "name": "transferOwnership",
      "outputs": [],
      "stateMutability": "nonpayable",
      "type": "function"
    },
    {
      "inputs": [],
      "name": "trustedForwarder",
      "outputs": [
        {
          "internalType": "address",
          "name": "",
          "type": "address"
        }
      ],
      "stateMutability": "view",
      "type": "function"
    },
    {
      "inputs": [],
      "name": "versionRecipient",
      "outputs": [
        {
          "internalType": "string",
          "name": "",
          "type": "string"
        }
      ],
      "stateMutability": "pure",
      "type": "function"
    },
    {
      "inputs": [
        {
          "internalType": "uint256",
          "name": "version",
          "type": "uint256"
        },
        {
          "internalType": "address",
          "name": "asset",
          "type": "address"
        },
        {
          "internalType": "uint256",
          "name": "amount",
          "type": "uint256"
        }
      ],
      "name": "withdraw",
      "outputs": [],
      "stateMutability": "nonpayable",
      "type": "function"
    },
    {
      "inputs": [
        {
          "internalType": "uint256",
          "name": "version",
          "type": "uint256"
        },
        {
          "internalType": "uint256",
          "name": "amount",
          "type": "uint256"
        }
      ],
      "name": "withdrawETH",
      "outputs": [],
      "stateMutability": "nonpayable",
      "type": "function"
    },
    {
      "inputs": [
        {
          "internalType": "uint256",
          "name": "version",
          "type": "uint256"
        },
        {
          "internalType": "uint256",
          "name": "amount",
          "type": "uint256"
        },
        {
          "internalType": "uint256",
          "name": "permitAmount",
          "type": "uint256"
        },
        {
          "internalType": "uint256",
          "name": "permitDeadline",
          "type": "uint256"
        },
        {
          "internalType": "uint8",
          "name": "permitV",
          "type": "uint8"
        },
        {
          "internalType": "bytes32",
          "name": "permitR",
          "type": "bytes32"
        },
        {
          "internalType": "bytes32",
          "name": "permitS",
          "type": "bytes32"
        }
      ],
      "name": "withdrawETHWithPermit",
      "outputs": [],
      "stateMutability": "nonpayable",
      "type": "function"
    },
    {
      "inputs": [
        {
          "internalType": "uint256",
          "name": "version",
          "type": "uint256"
        },
        {
          "internalType": "address",
          "name": "asset",
          "type": "address"
        },
        {
          "internalType": "uint256",
          "name": "amount",
          "type": "uint256"
        },
        {
          "internalType": "uint256",
          "name": "permitAmount",
          "type": "uint256"
        },
        {
          "internalType": "uint256",
          "name": "permitDeadline",
          "type": "uint256"
        },
        {
          "internalType": "uint8",
          "name": "permitV",
          "type": "uint8"
        },
        {
          "internalType": "bytes32",
          "name": "permitR",
          "type": "bytes32"
        },
        {
          "internalType": "bytes32",
          "name": "permitS",
          "type": "bytes32"
        }
      ],
      "name": "withdrawWithPermit",
      "outputs": [],
      "stateMutability": "nonpayable",
      "type": "function"
    },
    {
      "stateMutability": "payable",
      "type": "receive"
    }
  ],
  "transactionHash": "0x572839196866d824bd2afe7ddab01be8eaacc94592be1f172714923722aeb005",
  "args": [
    "0x0000000000000000000000000000000000000000",
    "0xF8aa90E66B8BAe13f2e4aDe6104abAb8eeDaBfdc",
    "0xCDa739D69067333974cD73A722aB92E5e0ad8a4F",
    "0x0000000000000000000000000000000000000000"
  ],
  "numDeployments": 2,
  "solcInputHash": "f83ad960b928834ef83ef6eecb8025a1",
  "bytecode": "0x6101e06040523480156200001257600080fd5b50604051620049e2380380620049e2833981016040819052620000359162000501565b6200003f62000422565b60006001600160a01b038516620000585760006200005b565b60015b6001600160a01b03861660a05290508062000078576000620000ef565b60a0516001600160a01b0316630542975c6040518163ffffffff1660e01b815260040160206040518083038186803b158015620000b457600080fd5b505afa158015620000c9573d6000803e3d6000fd5b505050506040513d601f19601f82011682018060405250810190620000ef91906200055e565b6001600160a01b0316608052806200010957600062000180565b6080516001600160a01b0316630261bf8b6040518163ffffffff1660e01b815260040160206040518083038186803b1580156200014557600080fd5b505afa1580156200015a573d6000803e3d6000fd5b505050506040513d601f19601f820116820180604052508101906200018091906200055e565b6001600160a01b0390811660c05282811660e0526000908516620001a6576000620001a9565b60015b6001600160a01b03861661010052905080620001c75760006200023f565b610100516001600160a01b031663e860accb6040518163ffffffff1660e01b815260040160206040518083038186803b1580156200020457600080fd5b505afa15801562000219573d6000803e3d6000fd5b505050506040513d601f19601f820116820180604052508101906200023f91906200055e565b6001600160a01b031661012052806200025a576000620002d2565b610100516001600160a01b031663026b1d5f6040518163ffffffff1660e01b815260040160206040518083038186803b1580156200029757600080fd5b505afa158015620002ac573d6000803e3d6000fd5b505050506040513d601f19601f82011682018060405250810190620002d291906200055e565b6001600160a01b03908116610140528481166101605260a051166200037957610120516040516334924edb60e21b81526001600160a01b0386811660048301529091169063d2493b6c9060240160606040518083038186803b1580156200033857600080fd5b505afa1580156200034d573d6000803e3d6000fd5b505050506040513d601f19601f8201168201806040525081019062000373919062000583565b620003fa565b60a0516040516334924edb60e21b81526001600160a01b0386811660048301529091169063d2493b6c9060240160606040518083038186803b158015620003bf57600080fd5b505afa158015620003d4573d6000803e3d6000fd5b505050506040513d601f19601f82011682018060405250810190620003fa919062000583565b6001600160a01b039081166101c0529081166101a052166101805250620005cd945050505050565b600054610100900460ff16156200048f5760405162461bcd60e51b815260206004820152602760248201527f496e697469616c697a61626c653a20636f6e747261637420697320696e697469604482015266616c697a696e6760c81b606482015260840160405180910390fd5b60005460ff9081161015620004e2576000805460ff191660ff9081179091556040519081527f7f26b83ff96e1f2b6a682f133852f6798a09c465da95921460cefb38474024989060200160405180910390a15b565b80516001600160a01b0381168114620004fc57600080fd5b919050565b600080600080608085870312156200051857600080fd5b6200052385620004e4565b93506200053360208601620004e4565b92506200054360408601620004e4565b91506200055360608601620004e4565b905092959194509250565b6000602082840312156200057157600080fd5b6200057c82620004e4565b9392505050565b6000806000606084860312156200059957600080fd5b620005a484620004e4565b9250620005b460208501620004e4565b9150620005c460408501620004e4565b90509250925092565b60805160a05160c05160e05161010051610120516101405161016051610180516101a0516101c0516141f1620007f160003960008181610fca015261164d015260008181610ff00152611673015260008181610383015281816113c101528181612d220152612dac015260008181610760015281816110c1015281816111380152818161149801528181611544015281816115be015281816117780152818161183f01528181611909015281816119df01528181611aa601528181611b4701528181612e2101528181612ee90152612f7f0152600081816102fe01528181610be001528181610e0101528181610f2d01528181611092015281816112ee01528181611517015281816118dc01528181611b1a015281816125da01528181612a2f01528181612a6001528181612b3d01528181612bd601528181612ebc015261312801526000818161034f015281816109f0015281816111d901528181611c4e01528181611c7d015281816121c401526123be0152600061041a01526000818161061f015261245f0152600081816106c401528181610b3601528181610d7701528181610ea10152818161146b0152818161181201528181611a7901528181612510015281816128490152818161287a01528181612957015281816129f001528181612df401526130d801526000818161054b0152818161094b01528181611b8301528181611bb201528181612120015261231a0152600061051701526141f16000f3fe60806040526004361061026b5760003560e01c8063836dbe3911610144578063b316ff89116100b6578063d32168481161007a578063d3216848146107e2578063e16decdc14610802578063e63697c814610822578063ead64c6a14610842578063f2fde38b1461088f578063fc209663146108af57600080fd5b8063b316ff891461072c578063b381cf401461074e578063b6b0b5d814610782578063c4d66de8146107a2578063c7cdea37146107c257600080fd5b806397aa2f4f1161010857806397aa2f4f146106725780639b27832e14610692578063a6e9f01e146106b2578063a709e187146106e6578063a88bb3d9146106f9578063ac84ca141461071957600080fd5b8063836dbe39146105cd57806385234333146105ed5780638524adc91461060d5780638a712b80146106415780638da5cb5b1461065457600080fd5b8063572b6c05116101dd5780637da0a877116101a15780637da0a877146104e55780637ec3d64114610505578063800b71fd14610539578063823225eb1461056d578063825a56201461058d5780638327c214146105ad57600080fd5b8063572b6c051461043c5780637032134e1461047b578063715018a61461049b5780637ad03c8f146104b05780637b303b80146104c557600080fd5b806319d109131161022f57806319d109131461033d5780632ff67203146103715780633bf8c391146103a557806346a86277146103c5578063486ff0cd146103d85780634f8ff3b01461040857600080fd5b806307535c74146102775780630d8b76a81461028c57806313ce1064146102ac578063149078f2146102cc5780631521589c146102ec57600080fd5b3661027257005b600080fd5b61028a610285366004613564565b6108c2565b005b34801561029857600080fd5b5061028a6102a73660046135ad565b6108df565b3480156102b857600080fd5b5061028a6102c73660046135d1565b610909565b3480156102d857600080fd5b5061028a6102e736600461360e565b610c77565b3480156102f857600080fd5b506103207f000000000000000000000000000000000000000000000000000000000000000081565b6040516001600160a01b0390911681526020015b60405180910390f35b34801561034957600080fd5b506103207f000000000000000000000000000000000000000000000000000000000000000081565b34801561037d57600080fd5b506103207f000000000000000000000000000000000000000000000000000000000000000081565b3480156103b157600080fd5b5061028a6103c036600461366a565b610c8e565b61028a6103d33660046135d1565b610ca5565b3480156103e457600080fd5b5060408051808201825260018152603160f81b602082015290516103349190613720565b34801561041457600080fd5b506103207f000000000000000000000000000000000000000000000000000000000000000081565b34801561044857600080fd5b5061046b6104573660046135ad565b6065546001600160a01b0391821691161490565b6040519015158152602001610334565b34801561048757600080fd5b5061028a610496366004613749565b610cc0565b3480156104a757600080fd5b5061028a610ce6565b3480156104bc57600080fd5b5061028a610cfa565b3480156104d157600080fd5b5061028a6104e03660046137c2565b610d0a565b3480156104f157600080fd5b50606554610320906001600160a01b031681565b34801561051157600080fd5b506103207f000000000000000000000000000000000000000000000000000000000000000081565b34801561054557600080fd5b506103207f000000000000000000000000000000000000000000000000000000000000000081565b34801561057957600080fd5b5061028a6105883660046137c2565b610d20565b34801561059957600080fd5b5061028a6105a836600461380a565b610d36565b3480156105b957600080fd5b5061028a6105c83660046135d1565b610e75565b3480156105d957600080fd5b5061028a6105e8366004613842565b610fb2565b3480156105f957600080fd5b5061028a61060836600461389e565b6111a8565b34801561061957600080fd5b506103207f000000000000000000000000000000000000000000000000000000000000000081565b61028a61064f36600461389e565b611383565b34801561066057600080fd5b506033546001600160a01b0316610320565b34801561067e57600080fd5b5061028a61068d366004613842565b61139d565b34801561069e57600080fd5b5061028a6106ad36600461390d565b61143f565b3480156106be57600080fd5b506103207f000000000000000000000000000000000000000000000000000000000000000081565b61028a6106f436600461390d565b61162c565b34801561070557600080fd5b5061028a610714366004613939565b6119a9565b61028a6107273660046139c6565b6119d1565b34801561073857600080fd5b50610741611b7a565b60405161033491906139f5565b34801561075a57600080fd5b506103207f000000000000000000000000000000000000000000000000000000000000000081565b34801561078e57600080fd5b5061028a61079d366004613a9f565b611f89565b3480156107ae57600080fd5b5061028a6107bd3660046135ad565b611fa4565b3480156107ce57600080fd5b5061028a6107dd366004613b02565b6120d8565b3480156107ee57600080fd5b5061028a6107fd366004613b24565b6120ea565b34801561080e57600080fd5b5061028a61081d366004613b76565b6122bb565b34801561082e57600080fd5b5061028a61083d36600461380a565b6122e4565b34801561084e57600080fd5b5061086261085d366004613c0e565b61244b565b604080519687526020870195909552938501929092526060840152608083015260a082015260c001610334565b34801561089b57600080fd5b5061028a6108aa3660046135ad565b61266e565b61028a6108bd366004613c3e565b6126e7565b6108cd85858561162c565b6108d88583836122e4565b5050505050565b6108e7612702565b606580546001600160a01b0319166001600160a01b0392909216919091179055565b600061091361277b565b905082600019811415610b015760008087600214156109d1576040516334924edb60e21b81526001600160a01b0388811660048301527f0000000000000000000000000000000000000000000000000000000000000000169063d2493b6c9060240160606040518083038186803b15801561098d57600080fd5b505afa1580156109a1573d6000803e3d6000fd5b505050506040513d601f19601f820116820180604052508101906109c59190613cac565b9093509150610a719050565b6040516334924edb60e21b81526001600160a01b0388811660048301527f0000000000000000000000000000000000000000000000000000000000000000169063d2493b6c9060240160606040518083038186803b158015610a3257600080fd5b505afa158015610a46573d6000803e3d6000fd5b505050506040513d601f19601f82011682018060405250810190610a6a9190613cac565b9093509150505b84600114610a7f5780610a81565b815b6040516370a0823160e01b81526001600160a01b03868116600483015291909116906370a082319060240160206040518083038186803b158015610ac457600080fd5b505afa158015610ad8573d6000803e3d6000fd5b505050506040513d601f19601f82011682018060405250810190610afc9190613cf9565b925050505b610b166001600160a01b03861683308461278a565b8560021415610bc95760405163573ade8160e01b81526001600160a01b037f0000000000000000000000000000000000000000000000000000000000000000169063573ade8190610b71908890859088908890600401613d12565b602060405180830381600087803b158015610b8b57600080fd5b505af1158015610b9f573d6000803e3d6000fd5b505050506040513d601f19601f82011682018060405250810190610bc39190613cf9565b50610c6f565b60405163573ade8160e01b81526001600160a01b037f0000000000000000000000000000000000000000000000000000000000000000169063573ade8190610c1b908890859088908890600401613d12565b602060405180830381600087803b158015610c3557600080fd5b505af1158015610c49573d6000803e3d6000fd5b505050506040513d601f19601f82011682018060405250810190610c6d9190613cf9565b505b505050505050565b610c82868686610d36565b610c6f86848484610e75565b610c9a86868686610909565b610c6f8683836122e4565b610cae846119d1565b610cba84848484610e75565b50505050565b610ccc60038a8a610d36565b610cdb87878787878787610fb2565b505050505050505050565b610cee612702565b610cf860006127f5565b565b610d02612702565b610cf8612847565b610d15858585610d36565b6108d885838361143f565b610d2c85858585610909565b6108d885826120d8565b6000610d4061277b565b9050610d576001600160a01b03841682308561278a565b8360021415610dea5760405163e8eda9df60e01b81526001600160a01b037f0000000000000000000000000000000000000000000000000000000000000000169063e8eda9df90610db390869086908690600090600401613d3d565b600060405180830381600087803b158015610dcd57600080fd5b505af1158015610de1573d6000803e3d6000fd5b50505050610cba565b60405163617ba03760e01b81526001600160a01b037f0000000000000000000000000000000000000000000000000000000000000000169063617ba03790610e3d90869086908690600090600401613d3d565b600060405180830381600087803b158015610e5757600080fd5b505af1158015610e6b573d6000803e3d6000fd5b5050505050505050565b6000610e7f61277b565b90508460021415610f165760405163a415bcad60e01b81526001600160a01b037f0000000000000000000000000000000000000000000000000000000000000000169063a415bcad90610edf908790879087906000908890600401613d6a565b600060405180830381600087803b158015610ef957600080fd5b505af1158015610f0d573d6000803e3d6000fd5b50505050610f9e565b60405163a415bcad60e01b81526001600160a01b037f0000000000000000000000000000000000000000000000000000000000000000169063a415bcad90610f6b908790879087906000908890600401613d6a565b600060405180830381600087803b158015610f8557600080fd5b505af1158015610f99573d6000803e3d6000fd5b505050505b6108d86001600160a01b0385168285612c10565b6000610fbc61277b565b9050600087600114610fee577f0000000000000000000000000000000000000000000000000000000000000000611010565b7f00000000000000000000000000000000000000000000000000000000000000005b60405163016a5aab60e31b81529091506001600160a01b03821690630b52d5589061104b90859030908c908c908c908c908c90600401613d9e565b600060405180830381600087803b15801561106557600080fd5b505af1158015611079573d6000803e3d6000fd5b505060405163a415bcad60e01b81526001600160a01b037f000000000000000000000000000000000000000000000000000000000000000016925063a415bcad91506110f2907f0000000000000000000000000000000000000000000000000000000000000000908d908d906000908990600401613d6a565b600060405180830381600087803b15801561110c57600080fd5b505af1158015611120573d6000803e3d6000fd5b5050604051632e1a7d4d60e01b8152600481018c90527f00000000000000000000000000000000000000000000000000000000000000006001600160a01b03169250632e1a7d4d9150602401600060405180830381600087803b15801561118657600080fd5b505af115801561119a573d6000803e3d6000fd5b50505050610cdb828a612c45565b60006111b261277b565b6040516334924edb60e21b81526001600160a01b038b8116600483015291925060009182917f00000000000000000000000000000000000000000000000000000000000000009091169063d2493b6c9060240160606040518083038186803b15801561121d57600080fd5b505afa158015611231573d6000803e3d6000fd5b505050506040513d601f19601f820116820180604052508101906112559190613cac565b925092505060008960011461126a578161126c565b825b60405163016a5aab60e31b81529091506001600160a01b03821690630b52d558906112a790879030908e908e908e908e908e90600401613d9e565b600060405180830381600087803b1580156112c157600080fd5b505af11580156112d5573d6000803e3d6000fd5b505060405163a415bcad60e01b81526001600160a01b037f000000000000000000000000000000000000000000000000000000000000000016925063a415bcad915061132e908f908f908f906000908b90600401613d6a565b600060405180830381600087803b15801561134857600080fd5b505af115801561135c573d6000803e3d6000fd5b50611375925050506001600160a01b038d16858d612c10565b505050505050505050505050565b61138d60036119d1565b610e6b88888888888888886111a8565b60006113a761277b565b60405163d505accf60e01b81529091506001600160a01b037f0000000000000000000000000000000000000000000000000000000000000000169063d505accf9061140290849030908b908b908b908b908b90600401613d9e565b600060405180830381600087803b15801561141c57600080fd5b505af1158015611430573d6000803e3d6000fd5b50505050610e6b888883612cf8565b600061144961277b565b905083600214156115005760405163a415bcad60e01b81526001600160a01b037f0000000000000000000000000000000000000000000000000000000000000000169063a415bcad906114c9907f000000000000000000000000000000000000000000000000000000000000000090879087906000908890600401613d6a565b600060405180830381600087803b1580156114e357600080fd5b505af11580156114f7573d6000803e3d6000fd5b505050506115a8565b60405163a415bcad60e01b81526001600160a01b037f0000000000000000000000000000000000000000000000000000000000000000169063a415bcad90611575907f000000000000000000000000000000000000000000000000000000000000000090879087906000908890600401613d6a565b600060405180830381600087803b15801561158f57600080fd5b505af11580156115a3573d6000803e3d6000fd5b505050505b604051632e1a7d4d60e01b8152600481018490527f00000000000000000000000000000000000000000000000000000000000000006001600160a01b031690632e1a7d4d90602401600060405180830381600087803b15801561160a57600080fd5b505af115801561161e573d6000803e3d6000fd5b50505050610cba8184612c45565b600061163661277b565b9050826000198114156117115782600114611671577f0000000000000000000000000000000000000000000000000000000000000000611693565b7f00000000000000000000000000000000000000000000000000000000000000005b6040516370a0823160e01b81526001600160a01b03848116600483015291909116906370a082319060240160206040518083038186803b1580156116d657600080fd5b505afa1580156116ea573d6000803e3d6000fd5b505050506040513d601f19601f8201168201806040525081019061170e9190613cf9565b90505b803410156117765760405162461bcd60e51b815260206004820152602760248201527f6d73672e76616c7565206973206c657373207468616e2072657061796d656e7460448201526608185b5bdd5b9d60ca1b60648201526084015b60405180910390fd5b7f00000000000000000000000000000000000000000000000000000000000000006001600160a01b031663d0e30db0826040518263ffffffff1660e01b81526004016000604051808303818588803b1580156117d157600080fd5b505af11580156117e5573d6000803e3d6000fd5b50889350600292506117f5915050565b14156118c55760405163573ade8160e01b81526001600160a01b037f0000000000000000000000000000000000000000000000000000000000000000169063573ade819061186d907f000000000000000000000000000000000000000000000000000000000000000090859088908890600401613d12565b602060405180830381600087803b15801561188757600080fd5b505af115801561189b573d6000803e3d6000fd5b505050506040513d601f19601f820116820180604052508101906118bf9190613cf9565b5061198b565b60405163573ade8160e01b81526001600160a01b037f0000000000000000000000000000000000000000000000000000000000000000169063573ade8190611937907f000000000000000000000000000000000000000000000000000000000000000090859088908890600401613d12565b602060405180830381600087803b15801561195157600080fd5b505af1158015611965573d6000803e3d6000fd5b505050506040513d601f19601f820116820180604052508101906119899190613cf9565b505b60006119978234613df5565b90508015610c6f57610c6f8382612c45565b6119b560038b8b610d36565b6119c588888888888888886111a8565b50505050505050505050565b60006119db61277b565b90507f00000000000000000000000000000000000000000000000000000000000000006001600160a01b031663d0e30db0346040518263ffffffff1660e01b81526004016000604051808303818588803b158015611a3857600080fd5b505af1158015611a4c573d6000803e3d6000fd5b5085935060029250611a5c915050565b1415611b035760405163e8eda9df60e01b81526001600160a01b037f0000000000000000000000000000000000000000000000000000000000000000169063e8eda9df90611ad5907f00000000000000000000000000000000000000000000000000000000000000009034908690600090600401613d3d565b600060405180830381600087803b158015611aef57600080fd5b505af1158015610c6f573d6000803e3d6000fd5b60405163617ba03760e01b81526001600160a01b037f0000000000000000000000000000000000000000000000000000000000000000169063617ba03790611ad5907f00000000000000000000000000000000000000000000000000000000000000009034908690600090600401613d3d565b5050565b606080600081817f00000000000000000000000000000000000000000000000000000000000000006001600160a01b031615611c4c577f00000000000000000000000000000000000000000000000000000000000000006001600160a01b031663b316ff896040518163ffffffff1660e01b815260040160006040518083038186803b158015611c0957600080fd5b505afa158015611c1d573d6000803e3d6000fd5b505050506040513d6000823e601f3d908101601f19168201604052611c459190810190613ea0565b9350835192505b7f00000000000000000000000000000000000000000000000000000000000000006001600160a01b031615611d17577f00000000000000000000000000000000000000000000000000000000000000006001600160a01b031663b316ff896040518163ffffffff1660e01b815260040160006040518083038186803b158015611cd457600080fd5b505afa158015611ce8573d6000803e3d6000fd5b505050506040513d6000823e601f3d908101601f19168201604052611d109190810190613ea0565b9150815190505b611d218184613fed565b67ffffffffffffffff811115611d3957611d39613e0c565b604051908082528060200260200182016040528015611d8f57816020015b611d7c6040805160608101909152806000815260606020820152600060409091015290565b815260200190600190039081611d575790505b50945060005b83811015611e82576002868281518110611db157611db1614005565b6020026020010151600001906003811115611dce57611dce6139df565b90816003811115611de157611de16139df565b81525050848181518110611df757611df7614005565b602002602001015160000151868281518110611e1557611e15614005565b602002602001015160200181905250848181518110611e3657611e36614005565b602002602001015160200151868281518110611e5457611e54614005565b60209081029190910101516001600160a01b0390911660409091015280611e7a8161401b565b915050611d95565b506000805b82811015611f8057611e998186613fed565b91506003878381518110611eaf57611eaf614005565b6020026020010151600001906003811115611ecc57611ecc6139df565b90816003811115611edf57611edf6139df565b81525050838181518110611ef557611ef5614005565b602002602001015160000151878381518110611f1357611f13614005565b602002602001015160200181905250838181518110611f3457611f34614005565b602002602001015160200151878381518110611f5257611f52614005565b60209081029190910101516001600160a01b0390911660409091015280611f788161401b565b915050611e87565b50505050505090565b611f958a8a8a8a610909565b6119c58a87878787878761139d565b600054610100900460ff1615808015611fc45750600054600160ff909116105b80611fde5750303b158015611fde575060005460ff166001145b6120415760405162461bcd60e51b815260206004820152602e60248201527f496e697469616c697a61626c653a20636f6e747261637420697320616c72656160448201526d191e481a5b9a5d1a585b1a5e995960921b606482015260840161176d565b6000805460ff191660011790558015612064576000805461ff0019166101001790555b61206c612fed565b606580546001600160a01b0319166001600160a01b03841617905561208f612847565b8015611b76576000805461ff0019169055604051600181527f7f26b83ff96e1f2b6a682f133852f6798a09c465da95921460cefb38474024989060200160405180910390a15050565b611b7682826120e561277b565b612cf8565b60006120f461277b565b9050600089600214156121a5576040516334924edb60e21b81526001600160a01b038a811660048301527f0000000000000000000000000000000000000000000000000000000000000000169063d2493b6c9060240160606040518083038186803b15801561216257600080fd5b505afa158015612176573d6000803e3d6000fd5b505050506040513d601f19601f8201168201806040525081019061219a9190613cac565b509091506122449050565b6040516334924edb60e21b81526001600160a01b038a811660048301527f0000000000000000000000000000000000000000000000000000000000000000169063d2493b6c9060240160606040518083038186803b15801561220657600080fd5b505afa15801561221a573d6000803e3d6000fd5b505050506040513d601f19601f8201168201806040525081019061223e9190613cac565b50909150505b60405163d505accf60e01b81526001600160a01b0382169063d505accf9061227c90859030908c908c908c908c908c90600401613d9e565b600060405180830381600087803b15801561229657600080fd5b505af11580156122aa573d6000803e3d6000fd5b505050506119c58a8a8a858561301c565b6122c78b8b8b8b610909565b6122d78b888888888888886120ea565b5050505050505050505050565b60006122ee61277b565b90506000846002141561239f576040516334924edb60e21b81526001600160a01b0385811660048301527f0000000000000000000000000000000000000000000000000000000000000000169063d2493b6c9060240160606040518083038186803b15801561235c57600080fd5b505afa158015612370573d6000803e3d6000fd5b505050506040513d601f19601f820116820180604052508101906123949190613cac565b5090915061243e9050565b6040516334924edb60e21b81526001600160a01b0385811660048301527f0000000000000000000000000000000000000000000000000000000000000000169063d2493b6c9060240160606040518083038186803b15801561240057600080fd5b505afa158015612414573d6000803e3d6000fd5b505050506040513d601f19601f820116820180604052508101906124389190613cac565b50909150505b6108d8858585858561301c565b6000808080808087600214156125bb5760007f00000000000000000000000000000000000000000000000000000000000000006001600160a01b03166350d25bcd6040518163ffffffff1660e01b815260040160206040518083038186803b1580156124b657600080fd5b505afa1580156124ca573d6000803e3d6000fd5b505050506040513d601f19601f820116820180604052508101906124ee9190613cf9565b604051632fe4a15f60e21b81526001600160a01b038a811660048301529192507f00000000000000000000000000000000000000000000000000000000000000009091169063bf92857c9060240160c06040518083038186803b15801561255457600080fd5b505afa158015612568573d6000803e3d6000fd5b505050506040513d601f19601f8201168201806040525081019061258c9190614036565b670de0b6b3a76400009587028690049c509386028590049a509190940292909204965091945092509050612664565b604051632fe4a15f60e21b81526001600160a01b0388811660048301527f0000000000000000000000000000000000000000000000000000000000000000169063bf92857c9060240160c06040518083038186803b15801561261c57600080fd5b505afa158015612630573d6000803e3d6000fd5b505050506040513d601f19601f820116820180604052508101906126549190614036565b949a509298509096509450925090505b9295509295509295565b612676612702565b6001600160a01b0381166126db5760405162461bcd60e51b815260206004820152602660248201527f4f776e61626c653a206e6577206f776e657220697320746865207a65726f206160448201526564647265737360d01b606482015260840161176d565b6126e4816127f5565b50565b6126f28a8a8a61162c565b6119c58a888888888888886120ea565b61270a61277b565b6001600160a01b03166127256033546001600160a01b031690565b6001600160a01b031614610cf85760405162461bcd60e51b815260206004820181905260248201527f4f776e61626c653a2063616c6c6572206973206e6f7420746865206f776e6572604482015260640161176d565b6000612785613161565b905090565b6040516001600160a01b0380851660248301528316604482015260648101829052610cba9085906323b872dd60e01b906084015b60408051601f198184030181529190526020810180516001600160e01b03166001600160e01b031990931692909217909152613195565b603380546001600160a01b038381166001600160a01b0319831681179093556040519116919082907f8be0079c531659141344cd1fd0a4f28419497f9722a3daafe3b4186f6b6457e090600090a35050565b7f00000000000000000000000000000000000000000000000000000000000000006001600160a01b031615612a2d5760007f00000000000000000000000000000000000000000000000000000000000000006001600160a01b031663d1946dbc6040518163ffffffff1660e01b815260040160006040518083038186803b1580156128d157600080fd5b505afa1580156128e5573d6000803e3d6000fd5b505050506040513d6000823e601f3d908101601f1916820160405261290d9190810190614080565b905060005b8151811015612a2a57600082828151811061292f5761292f614005565b6020908102919091010151604051636eb1769f60e11b81523060048201526001600160a01b037f0000000000000000000000000000000000000000000000000000000000000000811660248301529192509082169063dd62ed3e9060440160206040518083038186803b1580156129a557600080fd5b505afa1580156129b9573d6000803e3d6000fd5b505050506040513d601f19601f820116820180604052508101906129dd9190613cf9565b612a1757612a176001600160a01b0382167f0000000000000000000000000000000000000000000000000000000000000000600019613267565b5080612a228161401b565b915050612912565b50505b7f00000000000000000000000000000000000000000000000000000000000000006001600160a01b031615610cf85760007f00000000000000000000000000000000000000000000000000000000000000006001600160a01b031663d1946dbc6040518163ffffffff1660e01b815260040160006040518083038186803b158015612ab757600080fd5b505afa158015612acb573d6000803e3d6000fd5b505050506040513d6000823e601f3d908101601f19168201604052612af39190810190614080565b905060005b8151811015611b76576000828281518110612b1557612b15614005565b6020908102919091010151604051636eb1769f60e11b81523060048201526001600160a01b037f0000000000000000000000000000000000000000000000000000000000000000811660248301529192509082169063dd62ed3e9060440160206040518083038186803b158015612b8b57600080fd5b505afa158015612b9f573d6000803e3d6000fd5b505050506040513d601f19601f82011682018060405250810190612bc39190613cf9565b612bfd57612bfd6001600160a01b0382167f0000000000000000000000000000000000000000000000000000000000000000600019613267565b5080612c088161401b565b915050612af8565b6040516001600160a01b038316602482015260448101829052612c4090849063a9059cbb60e01b906064016127be565b505050565b604080516000808252602082019092526001600160a01b038416908390604051612c6f919061410f565b60006040518083038185875af1925050503d8060008114612cac576040519150601f19603f3d011682016040523d82523d6000602084013e612cb1565b606091505b5050905080612c405760405162461bcd60e51b815260206004820152601360248201527211551217d514905394d1915497d19052531151606a1b604482015260640161176d565b81600019811415612d9f576040516370a0823160e01b81526001600160a01b0383811660048301527f000000000000000000000000000000000000000000000000000000000000000016906370a082319060240160206040518083038186803b158015612d6457600080fd5b505afa158015612d78573d6000803e3d6000fd5b505050506040513d601f19601f82011682018060405250810190612d9c9190613cf9565b90505b612dd46001600160a01b037f00000000000000000000000000000000000000000000000000000000000000001683308461278a565b8360021415612ea557604051631a4ca37b60e21b81526001600160a01b037f000000000000000000000000000000000000000000000000000000000000000016906369328dec90612e4d907f0000000000000000000000000000000000000000000000000000000000000000908590309060040161412b565b602060405180830381600087803b158015612e6757600080fd5b505af1158015612e7b573d6000803e3d6000fd5b505050506040513d601f19601f82011682018060405250810190612e9f9190613cf9565b50612f69565b604051631a4ca37b60e21b81526001600160a01b037f000000000000000000000000000000000000000000000000000000000000000016906369328dec90612f15907f0000000000000000000000000000000000000000000000000000000000000000908590309060040161412b565b602060405180830381600087803b158015612f2f57600080fd5b505af1158015612f43573d6000803e3d6000fd5b505050506040513d601f19601f82011682018060405250810190612f679190613cf9565b505b604051632e1a7d4d60e01b8152600481018290527f00000000000000000000000000000000000000000000000000000000000000006001600160a01b031690632e1a7d4d90602401600060405180830381600087803b158015612fcb57600080fd5b505af1158015612fdf573d6000803e3d6000fd5b50505050610cba8282612c45565b600054610100900460ff166130145760405162461bcd60e51b815260040161176d9061414e565b610cf861338b565b826000198114156130a3576040516370a0823160e01b81526001600160a01b0384811660048301528316906370a082319060240160206040518083038186803b15801561306857600080fd5b505afa15801561307c573d6000803e3d6000fd5b505050506040513d601f19601f820116820180604052508101906130a09190613cf9565b90505b6130b86001600160a01b03831684308461278a565b856002141561311157604051631a4ca37b60e21b81526001600160a01b037f000000000000000000000000000000000000000000000000000000000000000016906369328dec90610b719088908590889060040161412b565b604051631a4ca37b60e21b81526001600160a01b037f000000000000000000000000000000000000000000000000000000000000000016906369328dec90610c1b9088908590889060040161412b565b60006018361080159061317e57506065546001600160a01b031633145b15613190575060131936013560601c90565b503390565b60006131ea826040518060400160405280602081526020017f5361666545524332303a206c6f772d6c6576656c2063616c6c206661696c6564815250856001600160a01b03166133c29092919063ffffffff16565b805190915015612c4057808060200190518101906132089190614199565b612c405760405162461bcd60e51b815260206004820152602a60248201527f5361666545524332303a204552433230206f7065726174696f6e20646964206e6044820152691bdd081cdd58d8d9595960b21b606482015260840161176d565b8015806132f05750604051636eb1769f60e11b81523060048201526001600160a01b03838116602483015284169063dd62ed3e9060440160206040518083038186803b1580156132b657600080fd5b505afa1580156132ca573d6000803e3d6000fd5b505050506040513d601f19601f820116820180604052508101906132ee9190613cf9565b155b61335b5760405162461bcd60e51b815260206004820152603660248201527f5361666545524332303a20617070726f76652066726f6d206e6f6e2d7a65726f60448201527520746f206e6f6e2d7a65726f20616c6c6f77616e636560501b606482015260840161176d565b6040516001600160a01b038316602482015260448101829052612c4090849063095ea7b360e01b906064016127be565b600054610100900460ff166133b25760405162461bcd60e51b815260040161176d9061414e565b610cf86133bd61277b565b6127f5565b60606133d184846000856133d9565b949350505050565b60608247101561343a5760405162461bcd60e51b815260206004820152602660248201527f416464726573733a20696e73756666696369656e742062616c616e636520666f6044820152651c8818d85b1b60d21b606482015260840161176d565b600080866001600160a01b03168587604051613456919061410f565b60006040518083038185875af1925050503d8060008114613493576040519150601f19603f3d011682016040523d82523d6000602084013e613498565b606091505b50915091506134a9878383876134b4565b979650505050505050565b60608315613520578251613519576001600160a01b0385163b6135195760405162461bcd60e51b815260206004820152601d60248201527f416464726573733a2063616c6c20746f206e6f6e2d636f6e7472616374000000604482015260640161176d565b50816133d1565b6133d183838151156135355781518083602001fd5b8060405162461bcd60e51b815260040161176d9190613720565b6001600160a01b03811681146126e457600080fd5b600080600080600060a0868803121561357c57600080fd5b853594506020860135935060408601359250606086013561359c8161354f565b949793965091946080013592915050565b6000602082840312156135bf57600080fd5b81356135ca8161354f565b9392505050565b600080600080608085870312156135e757600080fd5b8435935060208501356135f98161354f565b93969395505050506040820135916060013590565b60008060008060008060c0878903121561362757600080fd5b8635955060208701356136398161354f565b94506040870135935060608701356136508161354f565b9598949750929560808101359460a0909101359350915050565b60008060008060008060c0878903121561368357600080fd5b8635955060208701356136958161354f565b9450604087013593506060870135925060808701356136b38161354f565b8092505060a087013590509295509295509295565b60005b838110156136e35781810151838201526020016136cb565b83811115610cba5750506000910152565b6000815180845261370c8160208601602086016136c8565b601f01601f19169290920160200192915050565b6020815260006135ca60208301846136f4565b803560ff8116811461374457600080fd5b919050565b60008060008060008060008060006101208a8c03121561376857600080fd5b89356137738161354f565b985060208a0135975060408a0135965060608a0135955060808a0135945060a08a013593506137a460c08b01613733565b925060e08a013591506101008a013590509295985092959850929598565b600080600080600060a086880312156137da57600080fd5b8535945060208601356137ec8161354f565b94979496505050506040830135926060810135926080909101359150565b60008060006060848603121561381f57600080fd5b8335925060208401356138318161354f565b929592945050506040919091013590565b600080600080600080600060e0888a03121561385d57600080fd5b8735965060208801359550604088013594506060880135935061388260808901613733565b925060a0880135915060c0880135905092959891949750929550565b600080600080600080600080610100898b0312156138bb57600080fd5b88356138c68161354f565b9750602089013596506040890135955060608901359450608089013593506138f060a08a01613733565b925060c0890135915060e089013590509295985092959890939650565b60008060006060848603121561392257600080fd5b505081359360208301359350604090920135919050565b6000806000806000806000806000806101408b8d03121561395957600080fd5b8a356139648161354f565b995060208b0135985060408b013561397b8161354f565b975060608b0135965060808b0135955060a08b0135945060c08b013593506139a560e08c01613733565b92506101008b013591506101208b013590509295989b9194979a5092959850565b6000602082840312156139d857600080fd5b5035919050565b634e487b7160e01b600052602160045260246000fd5b60006020808301818452808551808352604092508286019150828160051b8701018488016000805b84811015613a9057603f198a85030186528251606081516004808210613a5057634e487b7160e01b865260218152602486fd5b508652818a01518a8701829052613a69828801826136f4565b928a01516001600160a01b0316968a01969096525095880195935091870191600101613a1d565b50919998505050505050505050565b6000806000806000806000806000806101408b8d031215613abf57600080fd5b8a35995060208b0135613ad18161354f565b985060408b0135975060608b0135965060808b0135955060a08b0135945060c08b013593506139a560e08c01613733565b60008060408385031215613b1557600080fd5b50508035926020909101359150565b600080600080600080600080610100898b031215613b4157600080fd5b883597506020890135613b538161354f565b96506040890135955060608901359450608089013593506138f060a08a01613733565b60008060008060008060008060008060006101608c8e031215613b9857600080fd5b8b359a5060208c0135613baa8161354f565b995060408c0135985060608c0135975060808c0135613bc88161354f565b965060a08c0135955060c08c0135945060e08c01359350613bec6101008d01613733565b92506101208c013591506101408c013590509295989b509295989b9093969950565b60008060408385031215613c2157600080fd5b823591506020830135613c338161354f565b809150509250929050565b6000806000806000806000806000806101408b8d031215613c5e57600080fd5b8a35995060208b0135985060408b0135975060608b0135613c7e8161354f565b965060808b0135955060a08b0135945060c08b013593506139a560e08c01613733565b80516137448161354f565b600080600060608486031215613cc157600080fd5b8351613ccc8161354f565b6020850151909350613cdd8161354f565b6040850151909250613cee8161354f565b809150509250925092565b600060208284031215613d0b57600080fd5b5051919050565b6001600160a01b03948516815260208101939093526040830191909152909116606082015260800190565b6001600160a01b03948516815260208101939093529216604082015261ffff909116606082015260800190565b6001600160a01b0395861681526020810194909452604084019290925261ffff166060830152909116608082015260a00190565b6001600160a01b0397881681529590961660208601526040850193909352606084019190915260ff16608083015260a082015260c081019190915260e00190565b634e487b7160e01b600052601160045260246000fd5b600082821015613e0757613e07613ddf565b500390565b634e487b7160e01b600052604160045260246000fd5b6040805190810167ffffffffffffffff81118282101715613e4557613e45613e0c565b60405290565b604051601f8201601f1916810167ffffffffffffffff81118282101715613e7457613e74613e0c565b604052919050565b600067ffffffffffffffff821115613e9657613e96613e0c565b5060051b60200190565b60006020808385031215613eb357600080fd5b825167ffffffffffffffff80821115613ecb57600080fd5b818501915085601f830112613edf57600080fd5b8151613ef2613eed82613e7c565b613e4b565b81815260059190911b83018401908481019088831115613f1157600080fd5b8585015b83811015613fe057805185811115613f2d5760008081fd5b86016040601f19828d038101821315613f465760008081fd5b613f4e613e22565b8a84015189811115613f605760008081fd5b8401603f81018f13613f725760008081fd5b8b8101518a811115613f8657613f86613e0c565b613f968d85601f84011601613e4b565b93508084528f85828401011115613fad5760008081fd5b613fbc818e86018785016136c8565b5050818152613fcc838501613ca1565b818c01528652505050918601918601613f15565b5098975050505050505050565b6000821982111561400057614000613ddf565b500190565b634e487b7160e01b600052603260045260246000fd5b600060001982141561402f5761402f613ddf565b5060010190565b60008060008060008060c0878903121561404f57600080fd5b865195506020870151945060408701519350606087015192506080870151915060a087015190509295509295509295565b6000602080838503121561409357600080fd5b825167ffffffffffffffff8111156140aa57600080fd5b8301601f810185136140bb57600080fd5b80516140c9613eed82613e7c565b81815260059190911b820183019083810190878311156140e857600080fd5b928401925b828410156134a95783516141008161354f565b825292840192908401906140ed565b600082516141218184602087016136c8565b9190910192915050565b6001600160a01b0393841681526020810192909252909116604082015260600190565b6020808252602b908201527f496e697469616c697a61626c653a20636f6e7472616374206973206e6f74206960408201526a6e697469616c697a696e6760a81b606082015260800190565b6000602082840312156141ab57600080fd5b815180151581146135ca57600080fdfea2646970667358221220a1c8be14a9371e78199d34181c3e7caacec2c9f5fdc07d7cd1897621c0385a8e64736f6c63430008090033",
  "devdoc": {
    "kind": "dev",
    "methods": {
      "constructor": {
        "custom:oz-upgrades-unsafe-allow": "constructor"
      },
      "getUserAccountData(uint256,address)": {
        "params": {
          "user": "The address of the user"
        },
        "returns": {
          "availableBorrows": "The borrowing power left of the user in USD",
          "currentLiquidationThreshold": "The liquidation threshold of the user",
          "healthFactor": "The current health factor of the user",
          "ltv": "The loan to value of The user",
          "totalCollateral": "The total collateral of the user in USD. The unit is 100000000",
          "totalDebt": "The total debt of the user in USD"
        }
      },
      "owner()": {
        "details": "Returns the address of the current owner."
      },
      "renounceOwnership()": {
        "details": "Leaves the contract without owner. It will not be possible to call `onlyOwner` functions anymore. Can only be called by the current owner. NOTE: Renouncing ownership will leave the contract without an owner, thereby removing any functionality that is only available to the owner."
      },
      "transferOwnership(address)": {
        "details": "Transfers ownership of the contract to a new account (`newOwner`). Can only be called by the current owner."
      }
    },
    "version": 1
  },
  "userdoc": {
    "kind": "user",
    "methods": {
      "approvePool()": {
        "notice": "If new assets are added into the pool, it needs to be called."
      },
      "borrow(uint256,address,uint256,uint256)": {
        "notice": "The user must approve the delegation to this SC for the asset's debtToken."
      },
      "borrowETHWithPermit(uint256,uint256,uint256,uint256,uint8,bytes32,bytes32)": {
        "notice": "It works for only v3."
      },
      "borrowWithPermit(address,uint256,uint256,uint256,uint256,uint8,bytes32,bytes32)": {
        "notice": "It works for only v3."
      },
      "getUserAccountData(uint256,address)": {
        "notice": "Returns the user account data across all the reserves"
      },
      "isTrustedForwarder(address)": {
        "notice": "return if the forwarder is trusted to forward relayed transactions to us. the forwarder is required to verify the sender's signature, and verify the call is not a replay."
      },
      "repay(uint256,address,uint256,uint256)": {
        "notice": "The user must approve this SC for the asset."
      },
      "supply(uint256,address,uint256)": {
        "notice": "The user must approve this SC for the asset."
      },
      "supplyAndBorrowETHWithPermit(address,uint256,uint256,uint256,uint256,uint256,uint8,bytes32,bytes32)": {
        "notice": "It works for only v3."
      },
      "supplyAndBorrowWithPermit(address,uint256,address,uint256,uint256,uint256,uint256,uint8,bytes32,bytes32)": {
        "notice": "It works for only v3."
      },
      "supplyETHAndBorrowWithPermit(address,uint256,uint256,uint256,uint256,uint8,bytes32,bytes32)": {
        "notice": "It works for only v3."
      },
      "withdraw(uint256,address,uint256)": {
        "notice": "The user must approve this SC for the asset's aToken."
      }
    },
    "version": 1
  },
  "storageLayout": {
    "storage": [
      {
        "astId": 169,
        "contract": "contracts/AaveAdapter.sol:AaveAdapter",
        "label": "_initialized",
        "offset": 0,
        "slot": "0",
        "type": "t_uint8"
      },
      {
        "astId": 172,
        "contract": "contracts/AaveAdapter.sol:AaveAdapter",
        "label": "_initializing",
        "offset": 1,
        "slot": "0",
        "type": "t_bool"
      },
      {
        "astId": 1051,
        "contract": "contracts/AaveAdapter.sol:AaveAdapter",
        "label": "__gap",
        "offset": 0,
        "slot": "1",
        "type": "t_array(t_uint256)50_storage"
      },
      {
        "astId": 41,
        "contract": "contracts/AaveAdapter.sol:AaveAdapter",
        "label": "_owner",
        "offset": 0,
        "slot": "51",
        "type": "t_address"
      },
      {
        "astId": 161,
        "contract": "contracts/AaveAdapter.sol:AaveAdapter",
        "label": "__gap",
        "offset": 0,
        "slot": "52",
        "type": "t_array(t_uint256)49_storage"
      },
      {
        "astId": 4163,
        "contract": "contracts/AaveAdapter.sol:AaveAdapter",
        "label": "trustedForwarder",
        "offset": 0,
        "slot": "101",
        "type": "t_address"
      }
    ],
    "types": {
      "t_address": {
        "encoding": "inplace",
        "label": "address",
        "numberOfBytes": "20"
      },
      "t_array(t_uint256)49_storage": {
        "base": "t_uint256",
        "encoding": "inplace",
        "label": "uint256[49]",
        "numberOfBytes": "1568"
      },
      "t_array(t_uint256)50_storage": {
        "base": "t_uint256",
        "encoding": "inplace",
        "label": "uint256[50]",
        "numberOfBytes": "1600"
      },
      "t_bool": {
        "encoding": "inplace",
        "label": "bool",
        "numberOfBytes": "1"
      },
      "t_uint256": {
        "encoding": "inplace",
        "label": "uint256",
        "numberOfBytes": "32"
      },
      "t_uint8": {
        "encoding": "inplace",
        "label": "uint8",
        "numberOfBytes": "1"
      }
    }
  }
}