{
  "address": "0x41BD783562E4814385A1D2Ff9cf2693910FdE9CB",
  "abi": [
    {
      "inputs": [
        {
          "internalType": "address",
          "name": "_v2DataProvider",
          "type": "address"
        },
        {
          "internalType": "address",
          "name": "_v3AddressesProvider",
          "type": "address"
        },
        {
          "internalType": "address",
          "name": "_wnative",
          "type": "address"
        },
        {
          "internalType": "address",
          "name": "_v2BaseCurrencyPriceSource",
          "type": "address"
        }
      ],
      "stateMutability": "nonpayable",
      "type": "constructor"
    },
    {
      "anonymous": false,
      "inputs": [
        {
          "indexed": true,
          "internalType": "address",
          "name": "account",
          "type": "address"
        },
        {
          "indexed": false,
          "internalType": "uint256",
          "name": "version",
          "type": "uint256"
        },
        {
          "indexed": true,
          "internalType": "address",
          "name": "asset",
          "type": "address"
        },
        {
          "indexed": true,
          "internalType": "uint256",
          "name": "amount",
          "type": "uint256"
        },
        {
          "indexed": false,
          "internalType": "uint256",
          "name": "interestRateMode",
          "type": "uint256"
        }
      ],
      "name": "Borrow",
      "type": "event"
    },
    {
      "anonymous": false,
      "inputs": [
        {
          "indexed": false,
          "internalType": "uint8",
          "name": "version",
          "type": "uint8"
        }
      ],
      "name": "Initialized",
      "type": "event"
    },
    {
      "anonymous": false,
      "inputs": [
        {
          "indexed": true,
          "internalType": "address",
          "name": "previousOwner",
          "type": "address"
        },
        {
          "indexed": true,
          "internalType": "address",
          "name": "newOwner",
          "type": "address"
        }
      ],
      "name": "OwnershipTransferred",
      "type": "event"
    },
    {
      "anonymous": false,
      "inputs": [
        {
          "indexed": true,
          "internalType": "address",
          "name": "account",
          "type": "address"
        },
        {
          "indexed": false,
          "internalType": "uint256",
          "name": "version",
          "type": "uint256"
        },
        {
          "indexed": true,
          "internalType": "address",
          "name": "asset",
          "type": "address"
        },
        {
          "indexed": true,
          "internalType": "uint256",
          "name": "amount",
          "type": "uint256"
        },
        {
          "indexed": false,
          "internalType": "uint256",
          "name": "interestRateMode",
          "type": "uint256"
        }
      ],
      "name": "Repay",
      "type": "event"
    },
    {
      "anonymous": false,
      "inputs": [
        {
          "indexed": true,
          "internalType": "address",
          "name": "account",
          "type": "address"
        },
        {
          "indexed": false,
          "internalType": "uint256",
          "name": "version",
          "type": "uint256"
        },
        {
          "indexed": true,
          "internalType": "address",
          "name": "asset",
          "type": "address"
        },
        {
          "indexed": true,
          "internalType": "uint256",
          "name": "amount",
          "type": "uint256"
        }
      ],
      "name": "Supply",
      "type": "event"
    },
    {
      "anonymous": false,
      "inputs": [
        {
          "indexed": true,
          "internalType": "address",
          "name": "account",
          "type": "address"
        },
        {
          "indexed": false,
          "internalType": "uint256",
          "name": "version",
          "type": "uint256"
        },
        {
          "indexed": true,
          "internalType": "address",
          "name": "asset",
          "type": "address"
        },
        {
          "indexed": true,
          "internalType": "uint256",
          "name": "amount",
          "type": "uint256"
        }
      ],
      "name": "Withdraw",
      "type": "event"
    },
    {
      "inputs": [],
      "name": "V2_ADDRESSES_PROVIDER",
      "outputs": [
        {
          "internalType": "contract ILendingPoolAddressesProvider",
          "name": "",
          "type": "address"
        }
      ],
      "stateMutability": "view",
      "type": "function"
    },
    {
      "inputs": [],
      "name": "V2_BASE_CURRENCY_PRICE_SOURCE",
      "outputs": [
        {
          "internalType": "contract IChainlinkAggregator",
          "name": "",
          "type": "address"
        }
      ],
      "stateMutability": "view",
      "type": "function"
    },
    {
      "inputs": [],
      "name": "V2_DATA_PROVIDER",
      "outputs": [
        {
          "internalType": "contract IAaveProtocolDataProvider",
          "name": "",
          "type": "address"
        }
      ],
      "stateMutability": "view",
      "type": "function"
    },
    {
      "inputs": [],
      "name": "V2_LENDING_POOL",
      "outputs": [
        {
          "internalType": "contract ILendingPool",
          "name": "",
          "type": "address"
        }
      ],
      "stateMutability": "view",
      "type": "function"
    },
    {
      "inputs": [],
      "name": "V2_PRICE_ORACLE",
      "outputs": [
        {
          "internalType": "contract IAaveOracle",
          "name": "",
          "type": "address"
        }
      ],
      "stateMutability": "view",
      "type": "function"
    },
    {
      "inputs": [],
      "name": "V2_REWARDS_CONTROLLER",
      "outputs": [
        {
          "internalType": "contract IAaveIncentivesController",
          "name": "",
          "type": "address"
        }
      ],
      "stateMutability": "view",
      "type": "function"
    },
    {
      "inputs": [],
      "name": "V2_aWNATIVE",
      "outputs": [
        {
          "internalType": "address",
          "name": "",
          "type": "address"
        }
      ],
      "stateMutability": "view",
      "type": "function"
    },
    {
      "inputs": [],
      "name": "V3_ADDRESSES_PROVIDER",
      "outputs": [
        {
          "internalType": "contract IPoolAddressesProvider",
          "name": "",
          "type": "address"
        }
      ],
      "stateMutability": "view",
      "type": "function"
    },
    {
      "inputs": [],
      "name": "V3_DATA_PROVIDER",
      "outputs": [
        {
          "internalType": "contract IPoolDataProvider",
          "name": "",
          "type": "address"
        }
      ],
      "stateMutability": "view",
      "type": "function"
    },
    {
      "inputs": [],
      "name": "V3_POOL",
      "outputs": [
        {
          "internalType": "contract IPool",
          "name": "",
          "type": "address"
        }
      ],
      "stateMutability": "view",
      "type": "function"
    },
    {
      "inputs": [],
      "name": "V3_PRICE_ORACLE",
      "outputs": [
        {
          "internalType": "contract IAaveOracle",
          "name": "",
          "type": "address"
        }
      ],
      "stateMutability": "view",
      "type": "function"
    },
    {
      "inputs": [],
      "name": "V3_REWARDS_CONTROLLER",
      "outputs": [
        {
          "internalType": "contract IRewardsController",
          "name": "",
          "type": "address"
        }
      ],
      "stateMutability": "view",
      "type": "function"
    },
    {
      "inputs": [],
      "name": "V3_aWNATIVE",
      "outputs": [
        {
          "internalType": "address",
          "name": "",
          "type": "address"
        }
      ],
      "stateMutability": "view",
      "type": "function"
    },
    {
      "inputs": [],
      "name": "WNATIVE",
      "outputs": [
        {
          "internalType": "contract IWETH",
          "name": "",
          "type": "address"
        }
      ],
      "stateMutability": "view",
      "type": "function"
    },
    {
      "inputs": [],
      "name": "approvePool",
      "outputs": [],
      "stateMutability": "nonpayable",
      "type": "function"
    },
    {
      "inputs": [
        {
          "internalType": "uint256",
          "name": "version",
          "type": "uint256"
        },
        {
          "internalType": "address",
          "name": "asset",
          "type": "address"
        },
        {
          "internalType": "uint256",
          "name": "amount",
          "type": "uint256"
        },
        {
          "internalType": "uint256",
          "name": "interestRateMode",
          "type": "uint256"
        }
      ],
      "name": "borrow",
      "outputs": [],
      "stateMutability": "nonpayable",
      "type": "function"
    },
    {
      "inputs": [
        {
          "internalType": "uint256",
          "name": "version",
          "type": "uint256"
        },
        {
          "internalType": "uint256",
          "name": "amount",
          "type": "uint256"
        },
        {
          "internalType": "uint256",
          "name": "interestRateMode",
          "type": "uint256"
        }
      ],
      "name": "borrowETH",
      "outputs": [],
      "stateMutability": "nonpayable",
      "type": "function"
    },
    {
      "inputs": [
        {
          "internalType": "uint256",
          "name": "amount",
          "type": "uint256"
        },
        {
          "internalType": "uint256",
          "name": "interestRateMode",
          "type": "uint256"
        },
        {
          "internalType": "uint256",
          "name": "permitAmount",
          "type": "uint256"
        },
        {
          "internalType": "uint256",
          "name": "permitDeadline",
          "type": "uint256"
        },
        {
          "internalType": "uint8",
          "name": "permitV",
          "type": "uint8"
        },
        {
          "internalType": "bytes32",
          "name": "permitR",
          "type": "bytes32"
        },
        {
          "internalType": "bytes32",
          "name": "permitS",
          "type": "bytes32"
        }
      ],
      "name": "borrowETHWithPermit",
      "outputs": [],
      "stateMutability": "nonpayable",
      "type": "function"
    },
    {
      "inputs": [
        {
          "internalType": "address",
          "name": "asset",
          "type": "address"
        },
        {
          "internalType": "uint256",
          "name": "amount",
          "type": "uint256"
        },
        {
          "internalType": "uint256",
          "name": "interestRateMode",
          "type": "uint256"
        },
        {
          "internalType": "uint256",
          "name": "permitAmount",
          "type": "uint256"
        },
        {
          "internalType": "uint256",
          "name": "permitDeadline",
          "type": "uint256"
        },
        {
          "internalType": "uint8",
          "name": "permitV",
          "type": "uint8"
        },
        {
          "internalType": "bytes32",
          "name": "permitR",
          "type": "bytes32"
        },
        {
          "internalType": "bytes32",
          "name": "permitS",
          "type": "bytes32"
        }
      ],
      "name": "borrowWithPermit",
      "outputs": [],
      "stateMutability": "nonpayable",
      "type": "function"
    },
    {
      "inputs": [],
      "name": "getAllReservesTokens",
      "outputs": [
        {
          "components": [
            {
              "internalType": "enum VERSION",
              "name": "version",
              "type": "uint8"
            },
            {
              "internalType": "string",
              "name": "symbol",
              "type": "string"
            },
            {
              "internalType": "address",
              "name": "tokenAddress",
              "type": "address"
            }
          ],
          "internalType": "struct TokenDataEx[]",
          "name": "tokens",
          "type": "tuple[]"
        }
      ],
      "stateMutability": "view",
      "type": "function"
    },
    {
      "inputs": [
        {
          "internalType": "uint256",
          "name": "version",
          "type": "uint256"
        },
        {
          "internalType": "address[]",
          "name": "scaledBalanceTokens",
          "type": "address[]"
        },
        {
          "internalType": "address",
          "name": "user",
          "type": "address"
        }
      ],
      "name": "getAllUserRewards",
      "outputs": [
        {
          "components": [
            {
              "internalType": "address",
              "name": "token",
              "type": "address"
            },
            {
              "internalType": "string",
              "name": "symbol",
              "type": "string"
            },
            {
              "internalType": "uint8",
              "name": "decimals",
              "type": "uint8"
            },
            {
              "internalType": "uint256",
              "name": "rewardAmount",
              "type": "uint256"
            },
            {
              "internalType": "uint256",
              "name": "rewardValueInUSD",
              "type": "uint256"
            }
          ],
          "internalType": "struct AaveAdapter.Reward[]",
          "name": "",
          "type": "tuple[]"
        }
      ],
      "stateMutability": "view",
      "type": "function"
    },
    {
      "inputs": [
        {
          "internalType": "uint256",
          "name": "version",
          "type": "uint256"
        },
        {
          "internalType": "address",
          "name": "asset",
          "type": "address"
        }
      ],
      "name": "getRewardAPRs",
      "outputs": [
        {
          "internalType": "uint256",
          "name": "supplyAPR",
          "type": "uint256"
        },
        {
          "internalType": "uint256",
          "name": "stableBorrowAPR",
          "type": "uint256"
        },
        {
          "internalType": "uint256",
          "name": "variableBorrowAPR",
          "type": "uint256"
        }
      ],
      "stateMutability": "view",
      "type": "function"
    },
    {
      "inputs": [
        {
          "internalType": "uint256",
          "name": "version",
          "type": "uint256"
        },
        {
          "internalType": "address",
          "name": "user",
          "type": "address"
        }
      ],
      "name": "getUserAccountData",
      "outputs": [
        {
          "internalType": "uint256",
          "name": "totalCollateral",
          "type": "uint256"
        },
        {
          "internalType": "uint256",
          "name": "totalDebt",
          "type": "uint256"
        },
        {
          "internalType": "uint256",
          "name": "availableBorrows",
          "type": "uint256"
        },
        {
          "internalType": "uint256",
          "name": "currentLiquidationThreshold",
          "type": "uint256"
        },
        {
          "internalType": "uint256",
          "name": "ltv",
          "type": "uint256"
        },
        {
          "internalType": "uint256",
          "name": "healthFactor",
          "type": "uint256"
        }
      ],
      "stateMutability": "view",
      "type": "function"
    },
    {
      "inputs": [
        {
          "internalType": "address",
          "name": "_biconomy",
          "type": "address"
        }
      ],
      "name": "initialize",
      "outputs": [],
      "stateMutability": "nonpayable",
      "type": "function"
    },
    {
      "inputs": [
        {
          "internalType": "address",
          "name": "forwarder",
          "type": "address"
        }
      ],
      "name": "isTrustedForwarder",
      "outputs": [
        {
          "internalType": "bool",
          "name": "",
          "type": "bool"
        }
      ],
      "stateMutability": "view",
      "type": "function"
    },
    {
      "inputs": [],
      "name": "owner",
      "outputs": [
        {
          "internalType": "address",
          "name": "",
          "type": "address"
        }
      ],
      "stateMutability": "view",
      "type": "function"
    },
    {
      "inputs": [],
      "name": "renounceOwnership",
      "outputs": [],
      "stateMutability": "nonpayable",
      "type": "function"
    },
    {
      "inputs": [
        {
          "internalType": "uint256",
          "name": "version",
          "type": "uint256"
        },
        {
          "internalType": "address",
          "name": "asset",
          "type": "address"
        },
        {
          "internalType": "uint256",
          "name": "amount",
          "type": "uint256"
        },
        {
          "internalType": "uint256",
          "name": "interestRateMode",
          "type": "uint256"
        }
      ],
      "name": "repay",
      "outputs": [],
      "stateMutability": "nonpayable",
      "type": "function"
    },
    {
      "inputs": [
        {
          "internalType": "uint256",
          "name": "version",
          "type": "uint256"
        },
        {
          "internalType": "address",
          "name": "repayAsset",
          "type": "address"
        },
        {
          "internalType": "uint256",
          "name": "repayAmount",
          "type": "uint256"
        },
        {
          "internalType": "uint256",
          "name": "repayInterestRateMode",
          "type": "uint256"
        },
        {
          "internalType": "address",
          "name": "withdrawalAsset",
          "type": "address"
        },
        {
          "internalType": "uint256",
          "name": "withdrawalAmount",
          "type": "uint256"
        }
      ],
      "name": "repayAndWithdraw",
      "outputs": [],
      "stateMutability": "nonpayable",
      "type": "function"
    },
    {
      "inputs": [
        {
          "internalType": "uint256",
          "name": "version",
          "type": "uint256"
        },
        {
          "internalType": "address",
          "name": "repayAsset",
          "type": "address"
        },
        {
          "internalType": "uint256",
          "name": "repayAmount",
          "type": "uint256"
        },
        {
          "internalType": "uint256",
          "name": "repayInterestRateMode",
          "type": "uint256"
        },
        {
          "internalType": "uint256",
          "name": "withdrawalAmount",
          "type": "uint256"
        }
      ],
      "name": "repayAndWithdrawETH",
      "outputs": [],
      "stateMutability": "nonpayable",
      "type": "function"
    },
    {
      "inputs": [
        {
          "internalType": "uint256",
          "name": "version",
          "type": "uint256"
        },
        {
          "internalType": "address",
          "name": "repayAsset",
          "type": "address"
        },
        {
          "internalType": "uint256",
          "name": "repayAmount",
          "type": "uint256"
        },
        {
          "internalType": "uint256",
          "name": "repayInterestRateMode",
          "type": "uint256"
        },
        {
          "internalType": "uint256",
          "name": "withdrawalAmount",
          "type": "uint256"
        },
        {
          "internalType": "uint256",
          "name": "permitAmount",
          "type": "uint256"
        },
        {
          "internalType": "uint256",
          "name": "permitDeadline",
          "type": "uint256"
        },
        {
          "internalType": "uint8",
          "name": "permitV",
          "type": "uint8"
        },
        {
          "internalType": "bytes32",
          "name": "permitR",
          "type": "bytes32"
        },
        {
          "internalType": "bytes32",
          "name": "permitS",
          "type": "bytes32"
        }
      ],
      "name": "repayAndWithdrawETHWithPermit",
      "outputs": [],
      "stateMutability": "nonpayable",
      "type": "function"
    },
    {
      "inputs": [
        {
          "internalType": "uint256",
          "name": "version",
          "type": "uint256"
        },
        {
          "internalType": "address",
          "name": "repayAsset",
          "type": "address"
        },
        {
          "internalType": "uint256",
          "name": "repayAmount",
          "type": "uint256"
        },
        {
          "internalType": "uint256",
          "name": "repayInterestRateMode",
          "type": "uint256"
        },
        {
          "internalType": "address",
          "name": "withdrawalAsset",
          "type": "address"
        },
        {
          "internalType": "uint256",
          "name": "withdrawalAmount",
          "type": "uint256"
        },
        {
          "internalType": "uint256",
          "name": "permitAmount",
          "type": "uint256"
        },
        {
          "internalType": "uint256",
          "name": "permitDeadline",
          "type": "uint256"
        },
        {
          "internalType": "uint8",
          "name": "permitV",
          "type": "uint8"
        },
        {
          "internalType": "bytes32",
          "name": "permitR",
          "type": "bytes32"
        },
        {
          "internalType": "bytes32",
          "name": "permitS",
          "type": "bytes32"
        }
      ],
      "name": "repayAndWithdrawWithPermit",
      "outputs": [],
      "stateMutability": "nonpayable",
      "type": "function"
    },
    {
      "inputs": [
        {
          "internalType": "uint256",
          "name": "version",
          "type": "uint256"
        },
        {
          "internalType": "uint256",
          "name": "amount",
          "type": "uint256"
        },
        {
          "internalType": "uint256",
          "name": "interestRateMode",
          "type": "uint256"
        }
      ],
      "name": "repayETH",
      "outputs": [],
      "stateMutability": "payable",
      "type": "function"
    },
    {
      "inputs": [
        {
          "internalType": "uint256",
          "name": "version",
          "type": "uint256"
        },
        {
          "internalType": "uint256",
          "name": "repayAmount",
          "type": "uint256"
        },
        {
          "internalType": "uint256",
          "name": "repayInterestRateMode",
          "type": "uint256"
        },
        {
          "internalType": "address",
          "name": "withdrawalAsset",
          "type": "address"
        },
        {
          "internalType": "uint256",
          "name": "withdrawalAmount",
          "type": "uint256"
        }
      ],
      "name": "repayETHAndWithdraw",
      "outputs": [],
      "stateMutability": "payable",
      "type": "function"
    },
    {
      "inputs": [
        {
          "internalType": "uint256",
          "name": "version",
          "type": "uint256"
        },
        {
          "internalType": "uint256",
          "name": "repayAmount",
          "type": "uint256"
        },
        {
          "internalType": "uint256",
          "name": "repayInterestRateMode",
          "type": "uint256"
        },
        {
          "internalType": "address",
          "name": "withdrawalAsset",
          "type": "address"
        },
        {
          "internalType": "uint256",
          "name": "withdrawalAmount",
          "type": "uint256"
        },
        {
          "internalType": "uint256",
          "name": "permitAmount",
          "type": "uint256"
        },
        {
          "internalType": "uint256",
          "name": "permitDeadline",
          "type": "uint256"
        },
        {
          "internalType": "uint8",
          "name": "permitV",
          "type": "uint8"
        },
        {
          "internalType": "bytes32",
          "name": "permitR",
          "type": "bytes32"
        },
        {
          "internalType": "bytes32",
          "name": "permitS",
          "type": "bytes32"
        }
      ],
      "name": "repayETHAndWithdrawWithPermit",
      "outputs": [],
      "stateMutability": "payable",
      "type": "function"
    },
    {
      "inputs": [
        {
          "internalType": "address",
          "name": "_biconomy",
          "type": "address"
        }
      ],
      "name": "setBiconomy",
      "outputs": [],
      "stateMutability": "nonpayable",
      "type": "function"
    },
    {
      "inputs": [
        {
          "internalType": "uint256",
          "name": "version",
          "type": "uint256"
        },
        {
          "internalType": "address",
          "name": "asset",
          "type": "address"
        },
        {
          "internalType": "uint256",
          "name": "amount",
          "type": "uint256"
        }
      ],
      "name": "supply",
      "outputs": [],
      "stateMutability": "nonpayable",
      "type": "function"
    },
    {
      "inputs": [
        {
          "internalType": "uint256",
          "name": "version",
          "type": "uint256"
        },
        {
          "internalType": "address",
          "name": "supplyAsset",
          "type": "address"
        },
        {
          "internalType": "uint256",
          "name": "supplyAmount",
          "type": "uint256"
        },
        {
          "internalType": "address",
          "name": "borrowAsset",
          "type": "address"
        },
        {
          "internalType": "uint256",
          "name": "borrowAmount",
          "type": "uint256"
        },
        {
          "internalType": "uint256",
          "name": "borrowInterestRateMode",
          "type": "uint256"
        }
      ],
      "name": "supplyAndBorrow",
      "outputs": [],
      "stateMutability": "nonpayable",
      "type": "function"
    },
    {
      "inputs": [
        {
          "internalType": "uint256",
          "name": "version",
          "type": "uint256"
        },
        {
          "internalType": "address",
          "name": "supplyAsset",
          "type": "address"
        },
        {
          "internalType": "uint256",
          "name": "supplyAmount",
          "type": "uint256"
        },
        {
          "internalType": "uint256",
          "name": "borrowAmount",
          "type": "uint256"
        },
        {
          "internalType": "uint256",
          "name": "borrowInterestRateMode",
          "type": "uint256"
        }
      ],
      "name": "supplyAndBorrowETH",
      "outputs": [],
      "stateMutability": "nonpayable",
      "type": "function"
    },
    {
      "inputs": [
        {
          "internalType": "address",
          "name": "supplyAsset",
          "type": "address"
        },
        {
          "internalType": "uint256",
          "name": "supplyAmount",
          "type": "uint256"
        },
        {
          "internalType": "uint256",
          "name": "borrowAmount",
          "type": "uint256"
        },
        {
          "internalType": "uint256",
          "name": "borrowInterestRateMode",
          "type": "uint256"
        },
        {
          "internalType": "uint256",
          "name": "permitAmount",
          "type": "uint256"
        },
        {
          "internalType": "uint256",
          "name": "permitDeadline",
          "type": "uint256"
        },
        {
          "internalType": "uint8",
          "name": "permitV",
          "type": "uint8"
        },
        {
          "internalType": "bytes32",
          "name": "permitR",
          "type": "bytes32"
        },
        {
          "internalType": "bytes32",
          "name": "permitS",
          "type": "bytes32"
        }
      ],
      "name": "supplyAndBorrowETHWithPermit",
      "outputs": [],
      "stateMutability": "nonpayable",
      "type": "function"
    },
    {
      "inputs": [
        {
          "internalType": "address",
          "name": "supplyAsset",
          "type": "address"
        },
        {
          "internalType": "uint256",
          "name": "supplyAmount",
          "type": "uint256"
        },
        {
          "internalType": "address",
          "name": "borrowAsset",
          "type": "address"
        },
        {
          "internalType": "uint256",
          "name": "borrowAmount",
          "type": "uint256"
        },
        {
          "internalType": "uint256",
          "name": "borrowInterestRateMode",
          "type": "uint256"
        },
        {
          "internalType": "uint256",
          "name": "permitAmount",
          "type": "uint256"
        },
        {
          "internalType": "uint256",
          "name": "permitDeadline",
          "type": "uint256"
        },
        {
          "internalType": "uint8",
          "name": "permitV",
          "type": "uint8"
        },
        {
          "internalType": "bytes32",
          "name": "permitR",
          "type": "bytes32"
        },
        {
          "internalType": "bytes32",
          "name": "permitS",
          "type": "bytes32"
        }
      ],
      "name": "supplyAndBorrowWithPermit",
      "outputs": [],
      "stateMutability": "nonpayable",
      "type": "function"
    },
    {
      "inputs": [
        {
          "internalType": "uint256",
          "name": "version",
          "type": "uint256"
        }
      ],
      "name": "supplyETH",
      "outputs": [],
      "stateMutability": "payable",
      "type": "function"
    },
    {
      "inputs": [
        {
          "internalType": "uint256",
          "name": "version",
          "type": "uint256"
        },
        {
          "internalType": "address",
          "name": "borrowAsset",
          "type": "address"
        },
        {
          "internalType": "uint256",
          "name": "borrowAmount",
          "type": "uint256"
        },
        {
          "internalType": "uint256",
          "name": "borrowInterestRateMode",
          "type": "uint256"
        }
      ],
      "name": "supplyETHAndBorrow",
      "outputs": [],
      "stateMutability": "payable",
      "type": "function"
    },
    {
      "inputs": [
        {
          "internalType": "address",
          "name": "borrowAsset",
          "type": "address"
        },
        {
          "internalType": "uint256",
          "name": "borrowAmount",
          "type": "uint256"
        },
        {
          "internalType": "uint256",
          "name": "borrowInterestRateMode",
          "type": "uint256"
        },
        {
          "internalType": "uint256",
          "name": "permitAmount",
          "type": "uint256"
        },
        {
          "internalType": "uint256",
          "name": "permitDeadline",
          "type": "uint256"
        },
        {
          "internalType": "uint8",
          "name": "permitV",
          "type": "uint8"
        },
        {
          "internalType": "bytes32",
          "name": "permitR",
          "type": "bytes32"
        },
        {
          "internalType": "bytes32",
          "name": "permitS",
          "type": "bytes32"
        }
      ],
      "name": "supplyETHAndBorrowWithPermit",
      "outputs": [],
      "stateMutability": "payable",
      "type": "function"
    },
    {
      "inputs": [
        {
          "internalType": "address",
          "name": "newOwner",
          "type": "address"
        }
      ],
      "name": "transferOwnership",
      "outputs": [],
      "stateMutability": "nonpayable",
      "type": "function"
    },
    {
      "inputs": [],
      "name": "trustedForwarder",
      "outputs": [
        {
          "internalType": "address",
          "name": "",
          "type": "address"
        }
      ],
      "stateMutability": "view",
      "type": "function"
    },
    {
      "inputs": [],
      "name": "versionRecipient",
      "outputs": [
        {
          "internalType": "string",
          "name": "",
          "type": "string"
        }
      ],
      "stateMutability": "pure",
      "type": "function"
    },
    {
      "inputs": [
        {
          "internalType": "uint256",
          "name": "version",
          "type": "uint256"
        },
        {
          "internalType": "address",
          "name": "asset",
          "type": "address"
        },
        {
          "internalType": "uint256",
          "name": "amount",
          "type": "uint256"
        }
      ],
      "name": "withdraw",
      "outputs": [],
      "stateMutability": "nonpayable",
      "type": "function"
    },
    {
      "inputs": [
        {
          "internalType": "uint256",
          "name": "version",
          "type": "uint256"
        },
        {
          "internalType": "uint256",
          "name": "amount",
          "type": "uint256"
        }
      ],
      "name": "withdrawETH",
      "outputs": [],
      "stateMutability": "nonpayable",
      "type": "function"
    },
    {
      "inputs": [
        {
          "internalType": "uint256",
          "name": "version",
          "type": "uint256"
        },
        {
          "internalType": "uint256",
          "name": "amount",
          "type": "uint256"
        },
        {
          "internalType": "uint256",
          "name": "permitAmount",
          "type": "uint256"
        },
        {
          "internalType": "uint256",
          "name": "permitDeadline",
          "type": "uint256"
        },
        {
          "internalType": "uint8",
          "name": "permitV",
          "type": "uint8"
        },
        {
          "internalType": "bytes32",
          "name": "permitR",
          "type": "bytes32"
        },
        {
          "internalType": "bytes32",
          "name": "permitS",
          "type": "bytes32"
        }
      ],
      "name": "withdrawETHWithPermit",
      "outputs": [],
      "stateMutability": "nonpayable",
      "type": "function"
    },
    {
      "inputs": [
        {
          "internalType": "uint256",
          "name": "version",
          "type": "uint256"
        },
        {
          "internalType": "address",
          "name": "asset",
          "type": "address"
        },
        {
          "internalType": "uint256",
          "name": "amount",
          "type": "uint256"
        },
        {
          "internalType": "uint256",
          "name": "permitAmount",
          "type": "uint256"
        },
        {
          "internalType": "uint256",
          "name": "permitDeadline",
          "type": "uint256"
        },
        {
          "internalType": "uint8",
          "name": "permitV",
          "type": "uint8"
        },
        {
          "internalType": "bytes32",
          "name": "permitR",
          "type": "bytes32"
        },
        {
          "internalType": "bytes32",
          "name": "permitS",
          "type": "bytes32"
        }
      ],
      "name": "withdrawWithPermit",
      "outputs": [],
      "stateMutability": "nonpayable",
      "type": "function"
    },
    {
      "stateMutability": "payable",
      "type": "receive"
    }
  ],
  "transactionHash": "0x03707007327e320537d9185b566b4ddf99e03f33e56109333f62dae00ca22cdd",
  "args": [
    "0x0000000000000000000000000000000000000000",
    "0x4EEE0BB72C2717310318f27628B3c8a708E4951C",
    "0xb83C277172198E8Ec6b841Ff9bEF2d7fa524f797",
    "0x0000000000000000000000000000000000000000"
  ],
  "numDeployments": 9,
  "solcInputHash": "9ad89acf1f860cfda5b24aea45d5911a",
  "bytecode": "0x6102c06040523480156200001257600080fd5b5060405162006a7738038062006a7783398101604081905262000035916200078f565b6200003f620006b0565b60006001600160a01b038516620000585760006200005b565b60015b6001600160a01b03861660a05290508062000078576000620000ef565b60a0516001600160a01b0316630542975c6040518163ffffffff1660e01b815260040160206040518083038186803b158015620000b457600080fd5b505afa158015620000c9573d6000803e3d6000fd5b505050506040513d601f19601f82011682018060405250810190620000ef9190620007ec565b6001600160a01b0316608052806200010957600062000180565b6080516001600160a01b0316630261bf8b6040518163ffffffff1660e01b815260040160206040518083038186803b1580156200014557600080fd5b505afa1580156200015a573d6000803e3d6000fd5b505050506040513d601f19601f82011682018060405250810190620001809190620007ec565b6001600160a01b031660c052806200019a57600062000211565b6080516001600160a01b031663fca513a86040518163ffffffff1660e01b815260040160206040518083038186803b158015620001d657600080fd5b505afa158015620001eb573d6000803e3d6000fd5b505050506040513d601f19601f82011682018060405250810190620002119190620007ec565b6001600160a01b0390811661010052828116610120526000908516620002395760006200023c565b60015b6001600160a01b038616610140529050806200025a576000620002d2565b610140516001600160a01b031663e860accb6040518163ffffffff1660e01b815260040160206040518083038186803b1580156200029757600080fd5b505afa158015620002ac573d6000803e3d6000fd5b505050506040513d601f19601f82011682018060405250810190620002d29190620007ec565b6001600160a01b03166101605280620002ed57600062000365565b610140516001600160a01b031663026b1d5f6040518163ffffffff1660e01b815260040160206040518083038186803b1580156200032a57600080fd5b505afa1580156200033f573d6000803e3d6000fd5b505050506040513d601f19601f82011682018060405250810190620003659190620007ec565b6001600160a01b0316610180528062000380576000620003f8565b610140516001600160a01b031663fca513a86040518163ffffffff1660e01b815260040160206040518083038186803b158015620003bd57600080fd5b505afa158015620003d2573d6000803e3d6000fd5b505050506040513d601f19601f82011682018060405250810190620003f89190620007ec565b6001600160a01b039081166101c0528481166101e05260a0511662000422576000806000620004a3565b60a0516040516334924edb60e21b81526001600160a01b0386811660048301529091169063d2493b6c9060240160606040518083038186803b1580156200046857600080fd5b505afa1580156200047d573d6000803e3d6000fd5b505050506040513d601f19601f82011682018060405250810190620004a3919062000811565b6001600160a01b039081166102405290811661022052908116610200526101605116620004d557600080600062000557565b610160516040516334924edb60e21b81526001600160a01b0386811660048301529091169063d2493b6c9060240160606040518083038186803b1580156200051c57600080fd5b505afa15801562000531573d6000803e3d6000fd5b505050506040513d601f19601f8201168201806040525081019062000557919062000811565b6001600160a01b039081166102a0529081166102805290811661026052610200511662000586576000620005fe565b610200516001600160a01b03166375d264136040518163ffffffff1660e01b815260040160206040518083038186803b158015620005c357600080fd5b505afa158015620005d8573d6000803e3d6000fd5b505050506040513d601f19601f82011682018060405250810190620005fe9190620007ec565b6001600160a01b0390811660e05261026051166200061e57600062000696565b610260516001600160a01b03166375d264136040518163ffffffff1660e01b815260040160206040518083038186803b1580156200065b57600080fd5b505afa15801562000670573d6000803e3d6000fd5b505050506040513d601f19601f82011682018060405250810190620006969190620007ec565b6001600160a01b03166101a052506200085b945050505050565b600054610100900460ff16156200071d5760405162461bcd60e51b815260206004820152602760248201527f496e697469616c697a61626c653a20636f6e747261637420697320696e697469604482015266616c697a696e6760c81b606482015260840160405180910390fd5b60005460ff908116101562000770576000805460ff191660ff9081179091556040519081527f7f26b83ff96e1f2b6a682f133852f6798a09c465da95921460cefb38474024989060200160405180910390a15b565b80516001600160a01b03811681146200078a57600080fd5b919050565b60008060008060808587031215620007a657600080fd5b620007b18562000772565b9350620007c16020860162000772565b9250620007d16040860162000772565b9150620007e16060860162000772565b905092959194509250565b600060208284031215620007ff57600080fd5b6200080a8262000772565b9392505050565b6000806000606084860312156200082757600080fd5b620008328462000772565b9250620008426020850162000772565b9150620008526040850162000772565b90509250925092565b60805160a05160c05160e05161010051610120516101405161016051610180516101a0516101c0516101e05161020051610220516102405161026051610280516102a051615f1162000b6660003960008181611b4e01526125d9015260008181611b7401526125ff01526000818161059f01528181611fd60152614066015260006125070152600061252d015260008181610a8901528181611ffc015261408c01526000818161091501528181611c4501528181611cbc015281816120ed015281816121990152818161221301528181612704015281816127cb01528181612895015281816129cb01528181612a9201528181612b3c015281816141970152818161425f01526142f501526000818161053e01528181611703015281816145f00152614729015260008181610497015281816113fa0152818161142c015281816123eb0152818161456901526146a401526000818161037b01528181610dc9015281816118ea01528181611a6501528181611c1601528181611ec50152818161216c0152818161286801528181612b0f0152818161366501528181613dc601528181613df701528181613ed401528181613f6d0152818161423201526149350152600081816103cc01528181610bd901528181611db00152818161243c01528181612cd801528181612d070152818161324f0152613449015260006104cb0152600081816107650152818161131501526134ea0152600081816107ca015281816112e2015281816143c5015261450501526000818161040001528181610fb501528181610fe60152818161109a015281816122d7015281816138ba0152818161394d015261448001526000818161087901528181610d1f01528181611860015281816119d9015281816120c00152818161279e01528181612a650152818161359b01528181613be001528181613c1101528181613cee01528181613d870152818161416a015261488d01526000818161069101528181610b340152818161232a01528181612c0d01528181612c3c015281816131ab01526133a50152600061065d0152615f116000f3fe6080604052600436106102e85760003560e01c80638327c21411610190578063ac84ca14116100dc578063d321684811610095578063ead64c6a1161006f578063ead64c6a146109f7578063f2fde38b14610a44578063fc20966314610a64578063fd63495214610a7757600080fd5b8063d321684814610997578063e16decdc146109b7578063e63697c8146109d757600080fd5b8063ac84ca14146108ce578063b316ff89146108e1578063b381cf4014610903578063b6b0b5d814610937578063c4d66de814610957578063c7cdea371461097757600080fd5b8063961358fb116101495780639dc1c657116101235780639dc1c6571461082c578063a6e9f01e14610867578063a709e1871461089b578063a88bb3d9146108ae57600080fd5b8063961358fb146107b857806397aa2f4f146107ec5780639b27832e1461080c57600080fd5b80638327c214146106f3578063836dbe391461071357806385234333146107335780638524adc9146107535780638a712b80146107875780638da5cb5b1461079a57600080fd5b8063572b6c051161024f5780637ad03c8f116102085780637ec3d641116101e25780637ec3d6411461064b578063800b71fd1461067f578063823225eb146106b3578063825a5620146106d357600080fd5b80637ad03c8f146105f65780637b303b801461060b5780637da0a8771461062b57600080fd5b8063572b6c05146104ed57806366f708011461052c5780636a264718146105605780636f5c3dff1461058d5780637032134e146105c1578063715018a6146105e157600080fd5b80632b3eed27116102a15780632b3eed27146103ee5780633bf8c3911461042257806346a8627714610442578063486ff0cd146104555780634ded3252146104855780634f8ff3b0146104b957600080fd5b806307535c74146102f45780630d8b76a81461030957806313ce106414610329578063149078f2146103495780631521589c1461036957806319d10913146103ba57600080fd5b366102ef57005b600080fd5b610307610302366004614dd9565b610aab565b005b34801561031557600080fd5b50610307610324366004614e22565b610ac8565b34801561033557600080fd5b50610307610344366004614e46565b610af2565b34801561035557600080fd5b50610307610364366004614e83565b610f57565b34801561037557600080fd5b5061039d7f000000000000000000000000000000000000000000000000000000000000000081565b6040516001600160a01b0390911681526020015b60405180910390f35b3480156103c657600080fd5b5061039d7f000000000000000000000000000000000000000000000000000000000000000081565b3480156103fa57600080fd5b5061039d7f000000000000000000000000000000000000000000000000000000000000000081565b34801561042e57600080fd5b5061030761043d366004614edf565b610f76565b610307610450366004614e46565b610f8d565b34801561046157600080fd5b5060408051808201825260018152603160f81b602082015290516103b19190614f95565b34801561049157600080fd5b5061039d7f000000000000000000000000000000000000000000000000000000000000000081565b3480156104c557600080fd5b5061039d7f000000000000000000000000000000000000000000000000000000000000000081565b3480156104f957600080fd5b5061051c610508366004614e22565b6065546001600160a01b0391821691161490565b60405190151581526020016103b1565b34801561053857600080fd5b5061039d7f000000000000000000000000000000000000000000000000000000000000000081565b34801561056c57600080fd5b5061058061057b366004614fa8565b610fa8565b6040516103b1919061503a565b34801561059957600080fd5b5061039d7f000000000000000000000000000000000000000000000000000000000000000081565b3480156105cd57600080fd5b506103076105dc3660046150ec565b6117a9565b3480156105ed57600080fd5b506103076117cf565b34801561060257600080fd5b506103076117e3565b34801561061757600080fd5b50610307610626366004615169565b6117f3565b34801561063757600080fd5b5060655461039d906001600160a01b031681565b34801561065757600080fd5b5061039d7f000000000000000000000000000000000000000000000000000000000000000081565b34801561068b57600080fd5b5061039d7f000000000000000000000000000000000000000000000000000000000000000081565b3480156106bf57600080fd5b506103076106ce366004615169565b611809565b3480156106df57600080fd5b506103076106ee3660046151b1565b61181f565b3480156106ff57600080fd5b5061030761070e366004614e46565b6119ad565b34801561071f57600080fd5b5061030761072e3660046151e9565b611b36565b34801561073f57600080fd5b5061030761074e366004615248565b611d7f565b34801561075f57600080fd5b5061039d7f000000000000000000000000000000000000000000000000000000000000000081565b610307610795366004615248565b611f9a565b3480156107a657600080fd5b506033546001600160a01b031661039d565b3480156107c457600080fd5b5061039d7f000000000000000000000000000000000000000000000000000000000000000081565b3480156107f857600080fd5b506103076108073660046151e9565b611fbe565b34801561081857600080fd5b506103076108273660046152b9565b612094565b34801561083857600080fd5b5061084c6108473660046152e5565b6122c8565b604080519384526020840192909252908201526060016103b1565b34801561087357600080fd5b5061039d7f000000000000000000000000000000000000000000000000000000000000000081565b6103076108a93660046152b9565b6124dd565b3480156108ba57600080fd5b506103076108c9366004615315565b612995565b6103076108dc3660046153a6565b6129bd565b3480156108ed57600080fd5b506108f6612c04565b6040516103b191906153d5565b34801561090f57600080fd5b5061039d7f000000000000000000000000000000000000000000000000000000000000000081565b34801561094357600080fd5b5061030761095236600461547f565b613013565b34801561096357600080fd5b50610307610972366004614e22565b61302e565b34801561098357600080fd5b506103076109923660046154e4565b613163565b3480156109a357600080fd5b506103076109b2366004615506565b613175565b3480156109c357600080fd5b506103076109d236600461555a565b613346565b3480156109e357600080fd5b506103076109f23660046151b1565b61336f565b348015610a0357600080fd5b50610a17610a123660046152e5565b6134d6565b604080519687526020870195909552938501929092526060840152608083015260a082015260c0016103b1565b348015610a5057600080fd5b50610307610a5f366004614e22565b6136f9565b610307610a723660046155f6565b613772565b348015610a8357600080fd5b5061039d7f000000000000000000000000000000000000000000000000000000000000000081565b610ab68585856124dd565b610ac185838361336f565b5050505050565b610ad061378d565b606580546001600160a01b0319166001600160a01b0392909216919091179055565b6000610afc613806565b905082600019811415610cea576000808760021415610bba576040516334924edb60e21b81526001600160a01b0388811660048301527f0000000000000000000000000000000000000000000000000000000000000000169063d2493b6c9060240160606040518083038186803b158015610b7657600080fd5b505afa158015610b8a573d6000803e3d6000fd5b505050506040513d601f19601f82011682018060405250810190610bae919061565b565b9093509150610c5a9050565b6040516334924edb60e21b81526001600160a01b0388811660048301527f0000000000000000000000000000000000000000000000000000000000000000169063d2493b6c9060240160606040518083038186803b158015610c1b57600080fd5b505afa158015610c2f573d6000803e3d6000fd5b505050506040513d601f19601f82011682018060405250810190610c53919061565b565b9093509150505b84600114610c685780610c6a565b815b6040516370a0823160e01b81526001600160a01b03868116600483015291909116906370a082319060240160206040518083038186803b158015610cad57600080fd5b505afa158015610cc1573d6000803e3d6000fd5b505050506040513d601f19601f82011682018060405250810190610ce591906156a8565b925050505b610cff6001600160a01b038616833084613815565b8560021415610db25760405163573ade8160e01b81526001600160a01b037f0000000000000000000000000000000000000000000000000000000000000000169063573ade8190610d5a9088908590889088906004016156c1565b602060405180830381600087803b158015610d7457600080fd5b505af1158015610d88573d6000803e3d6000fd5b505050506040513d601f19601f82011682018060405250810190610dac91906156a8565b50610e58565b60405163573ade8160e01b81526001600160a01b037f0000000000000000000000000000000000000000000000000000000000000000169063573ade8190610e049088908590889088906004016156c1565b602060405180830381600087803b158015610e1e57600080fd5b505af1158015610e32573d6000803e3d6000fd5b505050506040513d601f19601f82011682018060405250810190610e5691906156a8565b505b6040516370a0823160e01b81523060048201526000906001600160a01b038716906370a082319060240160206040518083038186803b158015610e9a57600080fd5b505afa158015610eae573d6000803e3d6000fd5b505050506040513d601f19601f82011682018060405250810190610ed291906156a8565b90508015610eee57610eee6001600160a01b0387168483613880565b610ef88183615702565b866001600160a01b0316846001600160a01b03167f77673b670822baca14a7caf6f8038f811649ab73e4c06083b0e58a53389bece78a88604051610f46929190918252602082015260400190565b60405180910390a450505050505050565b610f6286868661181f565b610f6e868484846119ad565b505050505050565b610f8286868686610af2565b610f6e86838361336f565b610f96846129bd565b610fa2848484846119ad565b50505050565b606060028514156113f8577f00000000000000000000000000000000000000000000000000000000000000006001600160a01b0316156113f35760007f00000000000000000000000000000000000000000000000000000000000000006001600160a01b03166399248ea76040518163ffffffff1660e01b815260040160206040518083038186803b15801561103d57600080fd5b505afa158015611051573d6000803e3d6000fd5b505050506040513d601f19601f820116820180604052508101906110759190615719565b604051630cc7d40f60e11b81526001600160a01b0385811660048301529192506000917f0000000000000000000000000000000000000000000000000000000000000000169063198fa81e9060240160206040518083038186803b1580156110dc57600080fd5b505afa1580156110f0573d6000803e3d6000fd5b505050506040513d601f19601f8201168201806040525081019061111491906156a8565b60408051600180825281830190925291925060009190816020015b611137614d89565b81526020019060019003908161112f57905050905082816000815181106111605761116061574c565b6020026020010151600001906001600160a01b031690816001600160a01b031681525050826001600160a01b03166395d89b416040518163ffffffff1660e01b815260040160006040518083038186803b1580156111bd57600080fd5b505afa1580156111d1573d6000803e3d6000fd5b505050506040513d6000823e601f3d908101601f191682016040526111f99190810190615820565b8160008151811061120c5761120c61574c565b602002602001015160200181905250826001600160a01b031663313ce5676040518163ffffffff1660e01b815260040160206040518083038186803b15801561125457600080fd5b505afa158015611268573d6000803e3d6000fd5b505050506040513d601f19601f8201168201806040525081019061128c9190615855565b8160008151811061129f5761129f61574c565b60200260200101516040019060ff16908160ff168152505081816000815181106112cb576112cb61574c565b60200260200101516060018181525050600061130f7f00000000000000000000000000000000000000000000000000000000000000006113096138b5565b85613a6e565b905060007f00000000000000000000000000000000000000000000000000000000000000006001600160a01b03166350d25bcd6040518163ffffffff1660e01b815260040160206040518083038186803b15801561136c57600080fd5b505afa158015611380573d6000803e3d6000fd5b505050506040513d601f19601f820116820180604052508101906113a491906156a8565b9050670de0b6b3a76400006113b98284615872565b6113c39190615891565b836000815181106113d6576113d661574c565b6020026020010151608001818152505082955050505050506117a1565b61176c565b7f00000000000000000000000000000000000000000000000000000000000000006001600160a01b03161561176c576000807f00000000000000000000000000000000000000000000000000000000000000006001600160a01b0316634c0369c38787876040518463ffffffff1660e01b815260040161147a939291906158b3565b60006040518083038186803b15801561149257600080fd5b505afa1580156114a6573d6000803e3d6000fd5b505050506040513d6000823e601f3d908101601f191682016040526114ce91908101906159ae565b8051919350915060008167ffffffffffffffff8111156114f0576114f0615736565b60405190808252806020026020018201604052801561152957816020015b611516614d89565b81526020019060019003908161150e5790505b50905060005b8281101561176057600085828151811061154b5761154b61574c565b6020026020010151905060008583815181106115695761156961574c565b60200260200101519050818484815181106115865761158661574c565b6020026020010151600001906001600160a01b031690816001600160a01b031681525050816001600160a01b03166395d89b416040518163ffffffff1660e01b815260040160006040518083038186803b1580156115e357600080fd5b505afa1580156115f7573d6000803e3d6000fd5b505050506040513d6000823e601f3d908101601f1916820160405261161f9190810190615820565b8484815181106116315761163161574c565b602002602001015160200181905250816001600160a01b031663313ce5676040518163ffffffff1660e01b815260040160206040518083038186803b15801561167957600080fd5b505afa15801561168d573d6000803e3d6000fd5b505050506040513d601f19601f820116820180604052508101906116b19190615855565b8484815181106116c3576116c361574c565b60200260200101516040019060ff16908160ff1681525050808484815181106116ee576116ee61574c565b602002602001015160600181815250506117297f00000000000000000000000000000000000000000000000000000000000000008383613a6e565b84848151811061173b5761173b61574c565b602002602001015160800181815250505050808061175890615a69565b91505061152f565b5093506117a192505050565b604080516000808252602082019092529061179d565b61178a614d89565b8152602001906001900390816117825790505b5090505b949350505050565b6117b560038a8a61181f565b6117c487878787878787611b36565b505050505050505050565b6117d761378d565b6117e16000613b8c565b565b6117eb61378d565b6117e1613bde565b6117fe85858561181f565b610ac1858383612094565b61181585858585610af2565b610ac18582613163565b6000611829613806565b90506118406001600160a01b038416823085613815565b83600214156118d35760405163e8eda9df60e01b81526001600160a01b037f0000000000000000000000000000000000000000000000000000000000000000169063e8eda9df9061189c90869086908690600090600401615a84565b600060405180830381600087803b1580156118b657600080fd5b505af11580156118ca573d6000803e3d6000fd5b50505050611959565b60405163617ba03760e01b81526001600160a01b037f0000000000000000000000000000000000000000000000000000000000000000169063617ba0379061192690869086908690600090600401615a84565b600060405180830381600087803b15801561194057600080fd5b505af1158015611954573d6000803e3d6000fd5b505050505b81836001600160a01b0316826001600160a01b03167f5cedcce6a827e65624771bcd2fafdeb4c7e1dfdf5a44d4fe904c4ee870eecd528760405161199f91815260200190565b60405180910390a450505050565b60006119b7613806565b90508460021415611a4e5760405163a415bcad60e01b81526001600160a01b037f0000000000000000000000000000000000000000000000000000000000000000169063a415bcad90611a17908790879087906000908890600401615ab1565b600060405180830381600087803b158015611a3157600080fd5b505af1158015611a45573d6000803e3d6000fd5b50505050611ad6565b60405163a415bcad60e01b81526001600160a01b037f0000000000000000000000000000000000000000000000000000000000000000169063a415bcad90611aa3908790879087906000908890600401615ab1565b600060405180830381600087803b158015611abd57600080fd5b505af1158015611ad1573d6000803e3d6000fd5b505050505b611aea6001600160a01b0385168285613880565b82846001600160a01b0316826001600160a01b0316600080516020615ebc8339815191528886604051611b27929190918252602082015260400190565b60405180910390a45050505050565b6000611b40613806565b9050600060018814611b72577f0000000000000000000000000000000000000000000000000000000000000000611b94565b7f00000000000000000000000000000000000000000000000000000000000000005b60405163016a5aab60e31b81529091506001600160a01b03821690630b52d55890611bcf90859030908c908c908c908c908c90600401615ae5565b600060405180830381600087803b158015611be957600080fd5b505af1158015611bfd573d6000803e3d6000fd5b505060405163a415bcad60e01b81526001600160a01b037f000000000000000000000000000000000000000000000000000000000000000016925063a415bcad9150611c76907f0000000000000000000000000000000000000000000000000000000000000000908d908d906000908990600401615ab1565b600060405180830381600087803b158015611c9057600080fd5b505af1158015611ca4573d6000803e3d6000fd5b5050604051632e1a7d4d60e01b8152600481018c90527f00000000000000000000000000000000000000000000000000000000000000006001600160a01b03169250632e1a7d4d9150602401600060405180830381600087803b158015611d0a57600080fd5b505af1158015611d1e573d6000803e3d6000fd5b50505050611d2c828a613fa7565b8873eeeeeeeeeeeeeeeeeeeeeeeeeeeeeeeeeeeeeeee6001600160a01b038416600080516020615ebc833981519152600360408051918252602082018e90520160405180910390a4505050505050505050565b6000611d89613806565b6040516334924edb60e21b81526001600160a01b038b8116600483015291925060009182917f00000000000000000000000000000000000000000000000000000000000000009091169063d2493b6c9060240160606040518083038186803b158015611df457600080fd5b505afa158015611e08573d6000803e3d6000fd5b505050506040513d601f19601f82011682018060405250810190611e2c919061565b565b9250925050600089600114611e415781611e43565b825b60405163016a5aab60e31b81529091506001600160a01b03821690630b52d55890611e7e90879030908e908e908e908e908e90600401615ae5565b600060405180830381600087803b158015611e9857600080fd5b505af1158015611eac573d6000803e3d6000fd5b505060405163a415bcad60e01b81526001600160a01b037f000000000000000000000000000000000000000000000000000000000000000016925063a415bcad9150611f05908f908f908f906000908b90600401615ab1565b600060405180830381600087803b158015611f1f57600080fd5b505af1158015611f33573d6000803e3d6000fd5b50611f4c925050506001600160a01b038d16858d613880565b8a6001600160a01b03808e16908616600080516020615ebc83398151915260038e604051611f84929190918252602082015260400190565b60405180910390a4505050505050505050505050565b611fa460036129bd565b611fb48888888888888888611d7f565b5050505050505050565b6000611fc8613806565b9050600060028914611ffa577f000000000000000000000000000000000000000000000000000000000000000061201c565b7f00000000000000000000000000000000000000000000000000000000000000005b60405163d505accf60e01b81529091506001600160a01b0382169063d505accf9061205790859030908c908c908c908c908c90600401615ae5565b600060405180830381600087803b15801561207157600080fd5b505af1158015612085573d6000803e3d6000fd5b505050506117c489898461405a565b600061209e613806565b905083600214156121555760405163a415bcad60e01b81526001600160a01b037f0000000000000000000000000000000000000000000000000000000000000000169063a415bcad9061211e907f000000000000000000000000000000000000000000000000000000000000000090879087906000908890600401615ab1565b600060405180830381600087803b15801561213857600080fd5b505af115801561214c573d6000803e3d6000fd5b505050506121fd565b60405163a415bcad60e01b81526001600160a01b037f0000000000000000000000000000000000000000000000000000000000000000169063a415bcad906121ca907f000000000000000000000000000000000000000000000000000000000000000090879087906000908890600401615ab1565b600060405180830381600087803b1580156121e457600080fd5b505af11580156121f8573d6000803e3d6000fd5b505050505b604051632e1a7d4d60e01b8152600481018490527f00000000000000000000000000000000000000000000000000000000000000006001600160a01b031690632e1a7d4d90602401600060405180830381600087803b15801561225f57600080fd5b505af1158015612273573d6000803e3d6000fd5b505050506122818184613fa7565b6040805185815260208101849052849173eeeeeeeeeeeeeeeeeeeeeeeeeeeeeeeeeeeeeeee916001600160a01b03851691600080516020615ebc833981519152910161199f565b6000808060028514156123e9577f00000000000000000000000000000000000000000000000000000000000000006001600160a01b0316156123e4576040516334924edb60e21b81526001600160a01b038581166004830152600091829182917f00000000000000000000000000000000000000000000000000000000000000009091169063d2493b6c9060240160606040518083038186803b15801561236e57600080fd5b505afa158015612382573d6000803e3d6000fd5b505050506040513d601f19601f820116820180604052508101906123a6919061565b565b92509250925060006123b66138b5565b90506123c38885836143bd565b96506123d08884836143bd565b95506123dd8883836143bd565b9450505050505b6124d6565b7f00000000000000000000000000000000000000000000000000000000000000006001600160a01b0316156124d6576040516334924edb60e21b81526001600160a01b03858116600483015260009182917f0000000000000000000000000000000000000000000000000000000000000000169063d2493b6c9060240160606040518083038186803b15801561247e57600080fd5b505afa158015612492573d6000803e3d6000fd5b505050506040513d601f19601f820116820180604052508101906124b6919061565b565b92505091506124c58683614545565b94506124d18682614545565b925050505b9250925092565b60006124e7613806565b90508260001981141561269d5760028514156125cf576001831461252b577f000000000000000000000000000000000000000000000000000000000000000061254d565b7f00000000000000000000000000000000000000000000000000000000000000005b6040516370a0823160e01b81526001600160a01b03848116600483015291909116906370a082319060240160206040518083038186803b15801561259057600080fd5b505afa1580156125a4573d6000803e3d6000fd5b505050506040513d601f19601f820116820180604052508101906125c891906156a8565b905061269d565b600183146125fd577f000000000000000000000000000000000000000000000000000000000000000061261f565b7f00000000000000000000000000000000000000000000000000000000000000005b6040516370a0823160e01b81526001600160a01b03848116600483015291909116906370a082319060240160206040518083038186803b15801561266257600080fd5b505afa158015612676573d6000803e3d6000fd5b505050506040513d601f19601f8201168201806040525081019061269a91906156a8565b90505b803410156127025760405162461bcd60e51b815260206004820152602760248201527f6d73672e76616c7565206973206c657373207468616e2072657061796d656e7460448201526608185b5bdd5b9d60ca1b60648201526084015b60405180910390fd5b7f00000000000000000000000000000000000000000000000000000000000000006001600160a01b031663d0e30db0826040518263ffffffff1660e01b81526004016000604051808303818588803b15801561275d57600080fd5b505af1158015612771573d6000803e3d6000fd5b5088935060029250612781915050565b14156128515760405163573ade8160e01b81526001600160a01b037f0000000000000000000000000000000000000000000000000000000000000000169063573ade81906127f9907f0000000000000000000000000000000000000000000000000000000000000000908590889088906004016156c1565b602060405180830381600087803b15801561281357600080fd5b505af1158015612827573d6000803e3d6000fd5b505050506040513d601f19601f8201168201806040525081019061284b91906156a8565b50612917565b60405163573ade8160e01b81526001600160a01b037f0000000000000000000000000000000000000000000000000000000000000000169063573ade81906128c3907f0000000000000000000000000000000000000000000000000000000000000000908590889088906004016156c1565b602060405180830381600087803b1580156128dd57600080fd5b505af11580156128f1573d6000803e3d6000fd5b505050506040513d601f19601f8201168201806040525081019061291591906156a8565b505b478015612928576129288382613fa7565b6129328183615702565b604080518881526020810187905273eeeeeeeeeeeeeeeeeeeeeeeeeeeeeeeeeeeeeeee916001600160a01b038716917f77673b670822baca14a7caf6f8038f811649ab73e4c06083b0e58a53389bece791015b60405180910390a4505050505050565b6129a160038b8b61181f565b6129b18888888888888888611d7f565b50505050505050505050565b60006129c7613806565b90507f00000000000000000000000000000000000000000000000000000000000000006001600160a01b031663d0e30db0346040518263ffffffff1660e01b81526004016000604051808303818588803b158015612a2457600080fd5b505af1158015612a38573d6000803e3d6000fd5b5085935060029250612a48915050565b1415612af85760405163e8eda9df60e01b81526001600160a01b037f0000000000000000000000000000000000000000000000000000000000000000169063e8eda9df90612ac1907f00000000000000000000000000000000000000000000000000000000000000009034908690600090600401615a84565b600060405180830381600087803b158015612adb57600080fd5b505af1158015612aef573d6000803e3d6000fd5b50505050612b9e565b60405163617ba03760e01b81526001600160a01b037f0000000000000000000000000000000000000000000000000000000000000000169063617ba03790612b6b907f00000000000000000000000000000000000000000000000000000000000000009034908690600090600401615a84565b600060405180830381600087803b158015612b8557600080fd5b505af1158015612b99573d6000803e3d6000fd5b505050505b3473eeeeeeeeeeeeeeeeeeeeeeeeeeeeeeeeeeeeeeee6001600160a01b0316826001600160a01b03167f5cedcce6a827e65624771bcd2fafdeb4c7e1dfdf5a44d4fe904c4ee870eecd5285604051612bf891815260200190565b60405180910390a45050565b606080600081817f00000000000000000000000000000000000000000000000000000000000000006001600160a01b031615612cd6577f00000000000000000000000000000000000000000000000000000000000000006001600160a01b031663b316ff896040518163ffffffff1660e01b815260040160006040518083038186803b158015612c9357600080fd5b505afa158015612ca7573d6000803e3d6000fd5b505050506040513d6000823e601f3d908101601f19168201604052612ccf9190810190615b26565b9350835192505b7f00000000000000000000000000000000000000000000000000000000000000006001600160a01b031615612da1577f00000000000000000000000000000000000000000000000000000000000000006001600160a01b031663b316ff896040518163ffffffff1660e01b815260040160006040518083038186803b158015612d5e57600080fd5b505afa158015612d72573d6000803e3d6000fd5b505050506040513d6000823e601f3d908101601f19168201604052612d9a9190810190615b26565b9150815190505b612dab8184615c21565b67ffffffffffffffff811115612dc357612dc3615736565b604051908082528060200260200182016040528015612e1957816020015b612e066040805160608101909152806000815260606020820152600060409091015290565b815260200190600190039081612de15790505b50945060005b83811015612f0c576002868281518110612e3b57612e3b61574c565b6020026020010151600001906003811115612e5857612e586153bf565b90816003811115612e6b57612e6b6153bf565b81525050848181518110612e8157612e8161574c565b602002602001015160000151868281518110612e9f57612e9f61574c565b602002602001015160200181905250848181518110612ec057612ec061574c565b602002602001015160200151868281518110612ede57612ede61574c565b60209081029190910101516001600160a01b0390911660409091015280612f0481615a69565b915050612e1f565b506000805b8281101561300a57612f238186615c21565b91506003878381518110612f3957612f3961574c565b6020026020010151600001906003811115612f5657612f566153bf565b90816003811115612f6957612f696153bf565b81525050838181518110612f7f57612f7f61574c565b602002602001015160000151878381518110612f9d57612f9d61574c565b602002602001015160200181905250838181518110612fbe57612fbe61574c565b602002602001015160200151878381518110612fdc57612fdc61574c565b60209081029190910101516001600160a01b039091166040909101528061300281615a69565b915050612f11565b50505050505090565b61301f8a8a8a8a610af2565b6129b18a878787878787611fbe565b600054610100900460ff161580801561304e5750600054600160ff909116105b806130685750303b158015613068575060005460ff166001145b6130cb5760405162461bcd60e51b815260206004820152602e60248201527f496e697469616c697a61626c653a20636f6e747261637420697320616c72656160448201526d191e481a5b9a5d1a585b1a5e995960921b60648201526084016126f9565b6000805460ff1916600117905580156130ee576000805461ff0019166101001790555b6130f66147a2565b606580546001600160a01b0319166001600160a01b038416179055613119613bde565b801561315f576000805461ff0019169055604051600181527f7f26b83ff96e1f2b6a682f133852f6798a09c465da95921460cefb38474024989060200160405180910390a15b5050565b61315f8282613170613806565b61405a565b600061317f613806565b905060008960021415613230576040516334924edb60e21b81526001600160a01b038a811660048301527f0000000000000000000000000000000000000000000000000000000000000000169063d2493b6c9060240160606040518083038186803b1580156131ed57600080fd5b505afa158015613201573d6000803e3d6000fd5b505050506040513d601f19601f82011682018060405250810190613225919061565b565b509091506132cf9050565b6040516334924edb60e21b81526001600160a01b038a811660048301527f0000000000000000000000000000000000000000000000000000000000000000169063d2493b6c9060240160606040518083038186803b15801561329157600080fd5b505afa1580156132a5573d6000803e3d6000fd5b505050506040513d601f19601f820116820180604052508101906132c9919061565b565b50909150505b60405163d505accf60e01b81526001600160a01b0382169063d505accf9061330790859030908c908c908c908c908c90600401615ae5565b600060405180830381600087803b15801561332157600080fd5b505af1158015613335573d6000803e3d6000fd5b505050506129b18a8a8a85856147d1565b6133528b8b8b8b610af2565b6133628b88888888888888613175565b5050505050505050505050565b6000613379613806565b90506000846002141561342a576040516334924edb60e21b81526001600160a01b0385811660048301527f0000000000000000000000000000000000000000000000000000000000000000169063d2493b6c9060240160606040518083038186803b1580156133e757600080fd5b505afa1580156133fb573d6000803e3d6000fd5b505050506040513d601f19601f8201168201806040525081019061341f919061565b565b509091506134c99050565b6040516334924edb60e21b81526001600160a01b0385811660048301527f0000000000000000000000000000000000000000000000000000000000000000169063d2493b6c9060240160606040518083038186803b15801561348b57600080fd5b505afa15801561349f573d6000803e3d6000fd5b505050506040513d601f19601f820116820180604052508101906134c3919061565b565b50909150505b610ac185858585856147d1565b6000808080808087600214156136465760007f00000000000000000000000000000000000000000000000000000000000000006001600160a01b03166350d25bcd6040518163ffffffff1660e01b815260040160206040518083038186803b15801561354157600080fd5b505afa158015613555573d6000803e3d6000fd5b505050506040513d601f19601f8201168201806040525081019061357991906156a8565b604051632fe4a15f60e21b81526001600160a01b038a811660048301529192507f00000000000000000000000000000000000000000000000000000000000000009091169063bf92857c9060240160c06040518083038186803b1580156135df57600080fd5b505afa1580156135f3573d6000803e3d6000fd5b505050506040513d601f19601f820116820180604052508101906136179190615c39565b670de0b6b3a76400009587028690049c509386028590049a5091909402929092049650919450925090506136ef565b604051632fe4a15f60e21b81526001600160a01b0388811660048301527f0000000000000000000000000000000000000000000000000000000000000000169063bf92857c9060240160c06040518083038186803b1580156136a757600080fd5b505afa1580156136bb573d6000803e3d6000fd5b505050506040513d601f19601f820116820180604052508101906136df9190615c39565b949a509298509096509450925090505b9295509295509295565b61370161378d565b6001600160a01b0381166137665760405162461bcd60e51b815260206004820152602660248201527f4f776e61626c653a206e6577206f776e657220697320746865207a65726f206160448201526564647265737360d01b60648201526084016126f9565b61376f81613b8c565b50565b61377d8a8a8a6124dd565b6129b18a88888888888888613175565b613795613806565b6001600160a01b03166137b06033546001600160a01b031690565b6001600160a01b0316146117e15760405162461bcd60e51b815260206004820181905260248201527f4f776e61626c653a2063616c6c6572206973206e6f7420746865206f776e657260448201526064016126f9565b6000613810614a08565b905090565b6040516001600160a01b0380851660248301528316604482015260648101829052610fa29085906323b872dd60e01b906084015b60408051601f198184030181529190526020810180516001600160e01b03166001600160e01b031990931692909217909152614a3c565b6040516001600160a01b0383166024820152604481018290526138b090849063a9059cbb60e01b90606401613849565b505050565b6000807f00000000000000000000000000000000000000000000000000000000000000006001600160a01b03166399248ea76040518163ffffffff1660e01b815260040160206040518083038186803b15801561391157600080fd5b505afa158015613925573d6000803e3d6000fd5b505050506040513d601f19601f820116820180604052508101906139499190615719565b90507f00000000000000000000000000000000000000000000000000000000000000006001600160a01b0316631c39b6726040518163ffffffff1660e01b815260040160206040518083038186803b1580156139a457600080fd5b505afa1580156139b8573d6000803e3d6000fd5b505050506040513d601f19601f820116820180604052508101906139dc9190615719565b6001600160a01b0316816001600160a01b03161415613a6957806001600160a01b031663312f6b836040518163ffffffff1660e01b815260040160206040518083038186803b158015613a2e57600080fd5b505afa158015613a42573d6000803e3d6000fd5b505050506040513d601f19601f82011682018060405250810190613a669190615719565b90505b919050565b60405163b3596f0760e01b81526001600160a01b038381166004830152600091829186169063b3596f079060240160206040518083038186803b158015613ab457600080fd5b505afa158015613ac8573d6000803e3d6000fd5b505050506040513d601f19601f82011682018060405250810190613aec91906156a8565b90506000846001600160a01b031663313ce5676040518163ffffffff1660e01b815260040160206040518083038186803b158015613b2957600080fd5b505afa158015613b3d573d6000803e3d6000fd5b505050506040513d601f19601f82011682018060405250810190613b619190615855565b9050613b6e81600a615d67565b613b788386615872565b613b829190615891565b9695505050505050565b603380546001600160a01b038381166001600160a01b0319831681179093556040519116919082907f8be0079c531659141344cd1fd0a4f28419497f9722a3daafe3b4186f6b6457e090600090a35050565b7f00000000000000000000000000000000000000000000000000000000000000006001600160a01b031615613dc45760007f00000000000000000000000000000000000000000000000000000000000000006001600160a01b031663d1946dbc6040518163ffffffff1660e01b815260040160006040518083038186803b158015613c6857600080fd5b505afa158015613c7c573d6000803e3d6000fd5b505050506040513d6000823e601f3d908101601f19168201604052613ca49190810190615d76565b905060005b8151811015613dc1576000828281518110613cc657613cc661574c565b6020908102919091010151604051636eb1769f60e11b81523060048201526001600160a01b037f0000000000000000000000000000000000000000000000000000000000000000811660248301529192509082169063dd62ed3e9060440160206040518083038186803b158015613d3c57600080fd5b505afa158015613d50573d6000803e3d6000fd5b505050506040513d601f19601f82011682018060405250810190613d7491906156a8565b613dae57613dae6001600160a01b0382167f0000000000000000000000000000000000000000000000000000000000000000600019614b0e565b5080613db981615a69565b915050613ca9565b50505b7f00000000000000000000000000000000000000000000000000000000000000006001600160a01b0316156117e15760007f00000000000000000000000000000000000000000000000000000000000000006001600160a01b031663d1946dbc6040518163ffffffff1660e01b815260040160006040518083038186803b158015613e4e57600080fd5b505afa158015613e62573d6000803e3d6000fd5b505050506040513d6000823e601f3d908101601f19168201604052613e8a9190810190615d76565b905060005b815181101561315f576000828281518110613eac57613eac61574c565b6020908102919091010151604051636eb1769f60e11b81523060048201526001600160a01b037f0000000000000000000000000000000000000000000000000000000000000000811660248301529192509082169063dd62ed3e9060440160206040518083038186803b158015613f2257600080fd5b505afa158015613f36573d6000803e3d6000fd5b505050506040513d601f19601f82011682018060405250810190613f5a91906156a8565b613f9457613f946001600160a01b0382167f0000000000000000000000000000000000000000000000000000000000000000600019614b0e565b5080613f9f81615a69565b915050613e8f565b604080516000808252602082019092526001600160a01b038416908390604051613fd19190615dab565b60006040518083038185875af1925050503d806000811461400e576040519150601f19603f3d011682016040523d82523d6000602084013e614013565b606091505b50509050806138b05760405162461bcd60e51b815260206004820152601360248201527211551217d514905394d1915497d19052531151606a1b60448201526064016126f9565b60006002841461408a577f00000000000000000000000000000000000000000000000000000000000000006140ac565b7f00000000000000000000000000000000000000000000000000000000000000005b905082600019811415614135576040516370a0823160e01b81526001600160a01b0384811660048301528316906370a082319060240160206040518083038186803b1580156140fa57600080fd5b505afa15801561410e573d6000803e3d6000fd5b505050506040513d601f19601f8201168201806040525081019061413291906156a8565b90505b61414a6001600160a01b038316843084613815565b846002141561421b57604051631a4ca37b60e21b81526001600160a01b037f000000000000000000000000000000000000000000000000000000000000000016906369328dec906141c3907f00000000000000000000000000000000000000000000000000000000000000009085903090600401615dc7565b602060405180830381600087803b1580156141dd57600080fd5b505af11580156141f1573d6000803e3d6000fd5b505050506040513d601f19601f8201168201806040525081019061421591906156a8565b506142df565b604051631a4ca37b60e21b81526001600160a01b037f000000000000000000000000000000000000000000000000000000000000000016906369328dec9061428b907f00000000000000000000000000000000000000000000000000000000000000009085903090600401615dc7565b602060405180830381600087803b1580156142a557600080fd5b505af11580156142b9573d6000803e3d6000fd5b505050506040513d601f19601f820116820180604052508101906142dd91906156a8565b505b604051632e1a7d4d60e01b8152600481018290527f00000000000000000000000000000000000000000000000000000000000000006001600160a01b031690632e1a7d4d90602401600060405180830381600087803b15801561434157600080fd5b505af1158015614355573d6000803e3d6000fd5b505050506143638382613fa7565b8073eeeeeeeeeeeeeeeeeeeeeeeeeeeeeeeeeeeeeeee6001600160a01b0316846001600160a01b03167f457f950b75085c30ff780acd57bde642ff1316cc4aad9f286af2c1ffc4163a7888604051611b2791815260200190565b60008061445b7f000000000000000000000000000000000000000000000000000000000000000086866001600160a01b03166318160ddd6040518163ffffffff1660e01b815260040160206040518083038186803b15801561441e57600080fd5b505afa158015614432573d6000803e3d6000fd5b505050506040513d601f19601f8201168201806040525081019061445691906156a8565b613a6e565b604051631652e7b760e01b81526001600160a01b0386811660048301529192506000917f00000000000000000000000000000000000000000000000000000000000000001690631652e7b79060240160606040518083038186803b1580156144c257600080fd5b505afa1580156144d6573d6000803e3d6000fd5b505050506040513d601f19601f820116820180604052508101906144fa9190615dea565b5091508290506145337f000000000000000000000000000000000000000000000000000000000000000086614456856301e13380615872565b613b7890670de0b6b3a7640000615872565b604051636657732f60e01b81526001600160a01b03828116600483015260009182917f00000000000000000000000000000000000000000000000000000000000000001690636657732f9060240160006040518083038186803b1580156145ab57600080fd5b505afa1580156145bf573d6000803e3d6000fd5b505050506040513d6000823e601f3d908101601f191682016040526145e79190810190615d76565b905060006146497f000000000000000000000000000000000000000000000000000000000000000086866001600160a01b03166318160ddd6040518163ffffffff1660e01b815260040160206040518083038186803b15801561441e57600080fd5b90506000805b835181101561479657600084828151811061466c5761466c61574c565b6020908102919091010151604051630fdfe97560e31b81526001600160a01b03898116600483015280831660248301529192506000917f00000000000000000000000000000000000000000000000000000000000000001690637eff4ba89060440160806040518083038186803b1580156146e657600080fd5b505afa1580156146fa573d6000803e3d6000fd5b505050506040513d601f19601f8201168201806040525081019061471e9190615e18565b5050915050846147597f000000000000000000000000000000000000000000000000000000000000000084846301e133806144569190615872565b61476b90670de0b6b3a7640000615872565b6147759190615891565b61477f9085615c21565b93505050808061478e90615a69565b91505061464f565b50925050505b92915050565b600054610100900460ff166147c95760405162461bcd60e51b81526004016126f990615e4e565b6117e1614c32565b82600019811415614858576040516370a0823160e01b81526001600160a01b0384811660048301528316906370a082319060240160206040518083038186803b15801561481d57600080fd5b505afa158015614831573d6000803e3d6000fd5b505050506040513d601f19601f8201168201806040525081019061485591906156a8565b90505b61486d6001600160a01b038316843084613815565b856002141561491e57604051631a4ca37b60e21b81526001600160a01b037f000000000000000000000000000000000000000000000000000000000000000016906369328dec906148c690889085908890600401615dc7565b602060405180830381600087803b1580156148e057600080fd5b505af11580156148f4573d6000803e3d6000fd5b505050506040513d601f19601f8201168201806040525081019061491891906156a8565b506149c2565b604051631a4ca37b60e21b81526001600160a01b037f000000000000000000000000000000000000000000000000000000000000000016906369328dec9061496e90889085908890600401615dc7565b602060405180830381600087803b15801561498857600080fd5b505af115801561499c573d6000803e3d6000fd5b505050506040513d601f19601f820116820180604052508101906149c091906156a8565b505b80856001600160a01b0316846001600160a01b03167f457f950b75085c30ff780acd57bde642ff1316cc4aad9f286af2c1ffc4163a788960405161298591815260200190565b600060183610801590614a2557506065546001600160a01b031633145b15614a37575060131936013560601c90565b503390565b6000614a91826040518060400160405280602081526020017f5361666545524332303a206c6f772d6c6576656c2063616c6c206661696c6564815250856001600160a01b0316614c699092919063ffffffff16565b8051909150156138b05780806020019051810190614aaf9190615e99565b6138b05760405162461bcd60e51b815260206004820152602a60248201527f5361666545524332303a204552433230206f7065726174696f6e20646964206e6044820152691bdd081cdd58d8d9595960b21b60648201526084016126f9565b801580614b975750604051636eb1769f60e11b81523060048201526001600160a01b03838116602483015284169063dd62ed3e9060440160206040518083038186803b158015614b5d57600080fd5b505afa158015614b71573d6000803e3d6000fd5b505050506040513d601f19601f82011682018060405250810190614b9591906156a8565b155b614c025760405162461bcd60e51b815260206004820152603660248201527f5361666545524332303a20617070726f76652066726f6d206e6f6e2d7a65726f60448201527520746f206e6f6e2d7a65726f20616c6c6f77616e636560501b60648201526084016126f9565b6040516001600160a01b0383166024820152604481018290526138b090849063095ea7b360e01b90606401613849565b600054610100900460ff16614c595760405162461bcd60e51b81526004016126f990615e4e565b6117e1614c64613806565b613b8c565b60606117a1848460008585600080866001600160a01b03168587604051614c909190615dab565b60006040518083038185875af1925050503d8060008114614ccd576040519150601f19603f3d011682016040523d82523d6000602084013e614cd2565b606091505b5091509150614ce387838387614cee565b979650505050505050565b60608315614d5a578251614d53576001600160a01b0385163b614d535760405162461bcd60e51b815260206004820152601d60248201527f416464726573733a2063616c6c20746f206e6f6e2d636f6e747261637400000060448201526064016126f9565b50816117a1565b6117a18383815115614d6f5781518083602001fd5b8060405162461bcd60e51b81526004016126f99190614f95565b6040518060a0016040528060006001600160a01b0316815260200160608152602001600060ff16815260200160008152602001600081525090565b6001600160a01b038116811461376f57600080fd5b600080600080600060a08688031215614df157600080fd5b8535945060208601359350604086013592506060860135614e1181614dc4565b949793965091946080013592915050565b600060208284031215614e3457600080fd5b8135614e3f81614dc4565b9392505050565b60008060008060808587031215614e5c57600080fd5b843593506020850135614e6e81614dc4565b93969395505050506040820135916060013590565b60008060008060008060c08789031215614e9c57600080fd5b863595506020870135614eae81614dc4565b9450604087013593506060870135614ec581614dc4565b9598949750929560808101359460a0909101359350915050565b60008060008060008060c08789031215614ef857600080fd5b863595506020870135614f0a81614dc4565b945060408701359350606087013592506080870135614f2881614dc4565b8092505060a087013590509295509295509295565b60005b83811015614f58578181015183820152602001614f40565b83811115610fa25750506000910152565b60008151808452614f81816020860160208601614f3d565b601f01601f19169290920160200192915050565b602081526000614e3f6020830184614f69565b60008060008060608587031215614fbe57600080fd5b84359350602085013567ffffffffffffffff80821115614fdd57600080fd5b818701915087601f830112614ff157600080fd5b81358181111561500057600080fd5b8860208260051b850101111561501557600080fd5b602083019550809450505050604085013561502f81614dc4565b939692955090935050565b60006020808301818452808551808352604092508286019150828160051b87010184880160005b838110156150cf57888303603f19018552815180516001600160a01b031684528781015160a08986018190529061509a82870182614f69565b838a015160ff16878b015260608085015190880152608093840151939096019290925250509386019390860190600101615061565b509098975050505050505050565b60ff8116811461376f57600080fd5b60008060008060008060008060006101208a8c03121561510b57600080fd5b893561511681614dc4565b985060208a0135975060408a0135965060608a0135955060808a0135945060a08a0135935060c08a0135615149816150dd565b8093505060e08a013591506101008a013590509295985092959850929598565b600080600080600060a0868803121561518157600080fd5b85359450602086013561519381614dc4565b94979496505050506040830135926060810135926080909101359150565b6000806000606084860312156151c657600080fd5b8335925060208401356151d881614dc4565b929592945050506040919091013590565b600080600080600080600060e0888a03121561520457600080fd5b87359650602088013595506040880135945060608801359350608088013561522b816150dd565b9699959850939692959460a0840135945060c09093013592915050565b600080600080600080600080610100898b03121561526557600080fd5b883561527081614dc4565b97506020890135965060408901359550606089013594506080890135935060a089013561529c816150dd565b979a969950949793969295929450505060c08201359160e0013590565b6000806000606084860312156152ce57600080fd5b505081359360208301359350604090920135919050565b600080604083850312156152f857600080fd5b82359150602083013561530a81614dc4565b809150509250929050565b6000806000806000806000806000806101408b8d03121561533557600080fd5b8a3561534081614dc4565b995060208b0135985060408b013561535781614dc4565b975060608b0135965060808b0135955060a08b0135945060c08b0135935060e08b0135615383816150dd565b809350506101008b013591506101208b013590509295989b9194979a5092959850565b6000602082840312156153b857600080fd5b5035919050565b634e487b7160e01b600052602160045260246000fd5b60006020808301818452808551808352604092508286019150828160051b8701018488016000805b8481101561547057603f198a8503018652825160608151600480821061543057634e487b7160e01b865260218152602486fd5b508652818a01518a870182905261544982880182614f69565b928a01516001600160a01b0316968a019690965250958801959350918701916001016153fd565b50919998505050505050505050565b6000806000806000806000806000806101408b8d03121561549f57600080fd5b8a35995060208b01356154b181614dc4565b985060408b0135975060608b0135965060808b0135955060a08b0135945060c08b0135935060e08b0135615383816150dd565b600080604083850312156154f757600080fd5b50508035926020909101359150565b600080600080600080600080610100898b03121561552357600080fd5b88359750602089013561553581614dc4565b965060408901359550606089013594506080890135935060a089013561529c816150dd565b60008060008060008060008060008060006101608c8e03121561557c57600080fd5b8b359a5060208c013561558e81614dc4565b995060408c0135985060608c0135975060808c01356155ac81614dc4565b965060a08c0135955060c08c0135945060e08c013593506101008c01356155d2816150dd565b809350506101208c013591506101408c013590509295989b509295989b9093969950565b6000806000806000806000806000806101408b8d03121561561657600080fd5b8a35995060208b0135985060408b0135975060608b013561563681614dc4565b965060808b0135955060a08b0135945060c08b0135935060e08b0135615383816150dd565b60008060006060848603121561567057600080fd5b835161567b81614dc4565b602085015190935061568c81614dc4565b604085015190925061569d81614dc4565b809150509250925092565b6000602082840312156156ba57600080fd5b5051919050565b6001600160a01b03948516815260208101939093526040830191909152909116606082015260800190565b634e487b7160e01b600052601160045260246000fd5b600082821015615714576157146156ec565b500390565b60006020828403121561572b57600080fd5b8151614e3f81614dc4565b634e487b7160e01b600052604160045260246000fd5b634e487b7160e01b600052603260045260246000fd5b6040805190810167ffffffffffffffff8111828210171561578557615785615736565b60405290565b604051601f8201601f1916810167ffffffffffffffff811182821017156157b4576157b4615736565b604052919050565b600082601f8301126157cd57600080fd5b815167ffffffffffffffff8111156157e7576157e7615736565b6157fa601f8201601f191660200161578b565b81815284602083860101111561580f57600080fd5b6117a1826020830160208701614f3d565b60006020828403121561583257600080fd5b815167ffffffffffffffff81111561584957600080fd5b6117a1848285016157bc565b60006020828403121561586757600080fd5b8151614e3f816150dd565b600081600019048311821515161561588c5761588c6156ec565b500290565b6000826158ae57634e487b7160e01b600052601260045260246000fd5b500490565b6040808252810183905260008460608301825b868110156158f65782356158d981614dc4565b6001600160a01b03168252602092830192909101906001016158c6565b506001600160a01b03949094166020939093019290925250909392505050565b600067ffffffffffffffff82111561593057615930615736565b5060051b60200190565b600082601f83011261594b57600080fd5b8151602061596061595b83615916565b61578b565b82815260059290921b8401810191818101908684111561597f57600080fd5b8286015b848110156159a357805161599681614dc4565b8352918301918301615983565b509695505050505050565b600080604083850312156159c157600080fd5b825167ffffffffffffffff808211156159d957600080fd5b6159e58683870161593a565b93506020915081850151818111156159fc57600080fd5b85019050601f81018613615a0f57600080fd5b8051615a1d61595b82615916565b81815260059190911b82018301908381019088831115615a3c57600080fd5b928401925b82841015615a5a57835182529284019290840190615a41565b80955050505050509250929050565b6000600019821415615a7d57615a7d6156ec565b5060010190565b6001600160a01b03948516815260208101939093529216604082015261ffff909116606082015260800190565b6001600160a01b0395861681526020810194909452604084019290925261ffff166060830152909116608082015260a00190565b6001600160a01b0397881681529590961660208601526040850193909352606084019190915260ff16608083015260a082015260c081019190915260e00190565b60006020808385031215615b3957600080fd5b825167ffffffffffffffff80821115615b5157600080fd5b818501915085601f830112615b6557600080fd5b8151615b7361595b82615916565b81815260059190911b83018401908481019088831115615b9257600080fd5b8585015b83811015615c1457805185811115615bae5760008081fd5b86016040818c03601f1901811315615bc65760008081fd5b615bce615762565b8983015188811115615be05760008081fd5b615bee8e8c838701016157bc565b8252509181015191615bff83614dc4565b808a0192909252508352918601918601615b96565b5098975050505050505050565b60008219821115615c3457615c346156ec565b500190565b60008060008060008060c08789031215615c5257600080fd5b865195506020870151945060408701519350606087015192506080870151915060a087015190509295509295509295565b600181815b80851115615cbe578160001904821115615ca457615ca46156ec565b80851615615cb157918102915b93841c9390800290615c88565b509250929050565b600082615cd55750600161479c565b81615ce25750600061479c565b8160018114615cf85760028114615d0257615d1e565b600191505061479c565b60ff841115615d1357615d136156ec565b50506001821b61479c565b5060208310610133831016604e8410600b8410161715615d41575081810a61479c565b615d4b8383615c83565b8060001904821115615d5f57615d5f6156ec565b029392505050565b6000614e3f60ff841683615cc6565b600060208284031215615d8857600080fd5b815167ffffffffffffffff811115615d9f57600080fd5b6117a18482850161593a565b60008251615dbd818460208701614f3d565b9190910192915050565b6001600160a01b0393841681526020810192909252909116604082015260600190565b600080600060608486031215615dff57600080fd5b8351925060208401519150604084015190509250925092565b60008060008060808587031215615e2e57600080fd5b505082516020840151604085015160609095015191969095509092509050565b6020808252602b908201527f496e697469616c697a61626c653a20636f6e7472616374206973206e6f74206960408201526a6e697469616c697a696e6760a81b606082015260800190565b600060208284031215615eab57600080fd5b81518015158114614e3f57600080fdfe49dd87b26edb1c92c93f83b092bd5a425c6bf7a562c0fed02f2576c49f477ba4a2646970667358221220e69a00d360a929698e40027d7af94b428d1dabf700cf1598a77c7091c8bffe2964736f6c63430008090033",
  "devdoc": {
    "kind": "dev",
    "methods": {
      "constructor": {
        "custom:oz-upgrades-unsafe-allow": "constructor"
      },
      "getAllUserRewards(uint256,address[],address)": {
        "details": "Returns a list all rewards of a user, including already accrued and unrealized claimable rewards",
        "params": {
          "scaledBalanceTokens": "List of incentivized assets to check eligible distributions. It's used only for v3. It should be address of AToken or VariableDebtToken",
          "user": "The address of the user"
        },
        "returns": {
          "_0": "The list of reward data*"
        }
      },
      "getUserAccountData(uint256,address)": {
        "params": {
          "user": "The address of the user"
        },
        "returns": {
          "availableBorrows": "The borrowing power left of the user in USD",
          "currentLiquidationThreshold": "The liquidation threshold of the user",
          "healthFactor": "The current health factor of the user",
          "ltv": "The loan to value of The user",
          "totalCollateral": "The total collateral of the user in USD. The unit is 100000000",
          "totalDebt": "The total debt of the user in USD"
        }
      },
      "owner()": {
        "details": "Returns the address of the current owner."
      },
      "renounceOwnership()": {
        "details": "Leaves the contract without owner. It will not be possible to call `onlyOwner` functions anymore. Can only be called by the current owner. NOTE: Renouncing ownership will leave the contract without an owner, thereby removing any functionality that is only available to the owner."
      },
      "transferOwnership(address)": {
        "details": "Transfers ownership of the contract to a new account (`newOwner`). Can only be called by the current owner."
      }
    },
    "version": 1
  },
  "userdoc": {
    "kind": "user",
    "methods": {
      "approvePool()": {
        "notice": "If new assets are added into the pool, it needs to be called."
      },
      "borrow(uint256,address,uint256,uint256)": {
        "notice": "The user must approve the delegation to this SC for the asset's debtToken."
      },
      "borrowETHWithPermit(uint256,uint256,uint256,uint256,uint8,bytes32,bytes32)": {
        "notice": "It works for only v3."
      },
      "borrowWithPermit(address,uint256,uint256,uint256,uint256,uint8,bytes32,bytes32)": {
        "notice": "It works for only v3."
      },
      "getRewardAPRs(uint256,address)": {
        "notice": "The returned APRs are scaneld by 18"
      },
      "getUserAccountData(uint256,address)": {
        "notice": "Returns the user account data across all the reserves"
      },
      "isTrustedForwarder(address)": {
        "notice": "return if the forwarder is trusted to forward relayed transactions to us. the forwarder is required to verify the sender's signature, and verify the call is not a replay."
      },
      "repay(uint256,address,uint256,uint256)": {
        "notice": "The user must approve this SC for the asset."
      },
      "supply(uint256,address,uint256)": {
        "notice": "The user must approve this SC for the asset."
      },
      "supplyAndBorrowETHWithPermit(address,uint256,uint256,uint256,uint256,uint256,uint8,bytes32,bytes32)": {
        "notice": "It works for only v3."
      },
      "supplyAndBorrowWithPermit(address,uint256,address,uint256,uint256,uint256,uint256,uint8,bytes32,bytes32)": {
        "notice": "It works for only v3."
      },
      "supplyETHAndBorrowWithPermit(address,uint256,uint256,uint256,uint256,uint8,bytes32,bytes32)": {
        "notice": "It works for only v3."
      },
      "withdraw(uint256,address,uint256)": {
        "notice": "The user must approve this SC for the asset's aToken."
      }
    },
    "version": 1
  },
  "storageLayout": {
    "storage": [
      {
        "astId": 169,
        "contract": "contracts/AaveAdapter.sol:AaveAdapter",
        "label": "_initialized",
        "offset": 0,
        "slot": "0",
        "type": "t_uint8"
      },
      {
        "astId": 172,
        "contract": "contracts/AaveAdapter.sol:AaveAdapter",
        "label": "_initializing",
        "offset": 1,
        "slot": "0",
        "type": "t_bool"
      },
      {
        "astId": 1051,
        "contract": "contracts/AaveAdapter.sol:AaveAdapter",
        "label": "__gap",
        "offset": 0,
        "slot": "1",
        "type": "t_array(t_uint256)50_storage"
      },
      {
        "astId": 41,
        "contract": "contracts/AaveAdapter.sol:AaveAdapter",
        "label": "_owner",
        "offset": 0,
        "slot": "51",
        "type": "t_address"
      },
      {
        "astId": 161,
        "contract": "contracts/AaveAdapter.sol:AaveAdapter",
        "label": "__gap",
        "offset": 0,
        "slot": "52",
        "type": "t_array(t_uint256)49_storage"
      },
      {
        "astId": 5208,
        "contract": "contracts/AaveAdapter.sol:AaveAdapter",
        "label": "trustedForwarder",
        "offset": 0,
        "slot": "101",
        "type": "t_address"
      }
    ],
    "types": {
      "t_address": {
        "encoding": "inplace",
        "label": "address",
        "numberOfBytes": "20"
      },
      "t_array(t_uint256)49_storage": {
        "base": "t_uint256",
        "encoding": "inplace",
        "label": "uint256[49]",
        "numberOfBytes": "1568"
      },
      "t_array(t_uint256)50_storage": {
        "base": "t_uint256",
        "encoding": "inplace",
        "label": "uint256[50]",
        "numberOfBytes": "1600"
      },
      "t_bool": {
        "encoding": "inplace",
        "label": "bool",
        "numberOfBytes": "1"
      },
      "t_uint256": {
        "encoding": "inplace",
        "label": "uint256",
        "numberOfBytes": "32"
      },
      "t_uint8": {
        "encoding": "inplace",
        "label": "uint8",
        "numberOfBytes": "1"
      }
    }
  }
}