{
  "address": "0xd58e1Ed9f18Da9dD1fAf3E23FFf883b94c80c935",
  "abi": [
    {
      "inputs": [
        {
          "internalType": "address",
          "name": "_v2DataProvider",
          "type": "address"
        },
        {
          "internalType": "address",
          "name": "_v3AddressesProvider",
          "type": "address"
        },
        {
          "internalType": "address",
          "name": "_wnative",
          "type": "address"
        }
      ],
      "stateMutability": "nonpayable",
      "type": "constructor"
    },
    {
      "anonymous": false,
      "inputs": [
        {
          "indexed": false,
          "internalType": "uint8",
          "name": "version",
          "type": "uint8"
        }
      ],
      "name": "Initialized",
      "type": "event"
    },
    {
      "anonymous": false,
      "inputs": [
        {
          "indexed": true,
          "internalType": "address",
          "name": "previousOwner",
          "type": "address"
        },
        {
          "indexed": true,
          "internalType": "address",
          "name": "newOwner",
          "type": "address"
        }
      ],
      "name": "OwnershipTransferred",
      "type": "event"
    },
    {
      "inputs": [],
      "name": "V2_ADDRESSES_PROVIDER",
      "outputs": [
        {
          "internalType": "contract ILendingPoolAddressesProvider",
          "name": "",
          "type": "address"
        }
      ],
      "stateMutability": "view",
      "type": "function"
    },
    {
      "inputs": [],
      "name": "V2_DATA_PROVIDER",
      "outputs": [
        {
          "internalType": "contract IAaveProtocolDataProvider",
          "name": "",
          "type": "address"
        }
      ],
      "stateMutability": "view",
      "type": "function"
    },
    {
      "inputs": [],
      "name": "V2_LENDING_POOL",
      "outputs": [
        {
          "internalType": "contract ILendingPool",
          "name": "",
          "type": "address"
        }
      ],
      "stateMutability": "view",
      "type": "function"
    },
    {
      "inputs": [],
      "name": "V3_ADDRESSES_PROVIDER",
      "outputs": [
        {
          "internalType": "contract IPoolAddressesProvider",
          "name": "",
          "type": "address"
        }
      ],
      "stateMutability": "view",
      "type": "function"
    },
    {
      "inputs": [],
      "name": "V3_DATA_PROVIDER",
      "outputs": [
        {
          "internalType": "contract IPoolDataProvider",
          "name": "",
          "type": "address"
        }
      ],
      "stateMutability": "view",
      "type": "function"
    },
    {
      "inputs": [],
      "name": "V3_POOL",
      "outputs": [
        {
          "internalType": "contract IPool",
          "name": "",
          "type": "address"
        }
      ],
      "stateMutability": "view",
      "type": "function"
    },
    {
      "inputs": [],
      "name": "WNATIVE",
      "outputs": [
        {
          "internalType": "contract IWETH",
          "name": "",
          "type": "address"
        }
      ],
      "stateMutability": "view",
      "type": "function"
    },
    {
      "inputs": [],
      "name": "aWNATIVE",
      "outputs": [
        {
          "internalType": "address",
          "name": "",
          "type": "address"
        }
      ],
      "stateMutability": "view",
      "type": "function"
    },
    {
      "inputs": [],
      "name": "approvePool",
      "outputs": [],
      "stateMutability": "nonpayable",
      "type": "function"
    },
    {
      "inputs": [
        {
          "internalType": "uint256",
          "name": "version",
          "type": "uint256"
        },
        {
          "internalType": "address",
          "name": "asset",
          "type": "address"
        },
        {
          "internalType": "uint256",
          "name": "amount",
          "type": "uint256"
        },
        {
          "internalType": "uint256",
          "name": "interestRateMode",
          "type": "uint256"
        }
      ],
      "name": "borrow",
      "outputs": [],
      "stateMutability": "nonpayable",
      "type": "function"
    },
    {
      "inputs": [
        {
          "internalType": "uint256",
          "name": "version",
          "type": "uint256"
        },
        {
          "internalType": "uint256",
          "name": "amount",
          "type": "uint256"
        },
        {
          "internalType": "uint256",
          "name": "interestRateMode",
          "type": "uint256"
        }
      ],
      "name": "borrowETH",
      "outputs": [],
      "stateMutability": "nonpayable",
      "type": "function"
    },
    {
      "inputs": [
        {
          "internalType": "uint256",
          "name": "amount",
          "type": "uint256"
        },
        {
          "internalType": "uint256",
          "name": "interestRateMode",
          "type": "uint256"
        },
        {
          "internalType": "uint256",
          "name": "permitAmount",
          "type": "uint256"
        },
        {
          "internalType": "uint256",
          "name": "permitDeadline",
          "type": "uint256"
        },
        {
          "internalType": "uint8",
          "name": "permitV",
          "type": "uint8"
        },
        {
          "internalType": "bytes32",
          "name": "permitR",
          "type": "bytes32"
        },
        {
          "internalType": "bytes32",
          "name": "permitS",
          "type": "bytes32"
        }
      ],
      "name": "borrowETHWithPermit",
      "outputs": [],
      "stateMutability": "nonpayable",
      "type": "function"
    },
    {
      "inputs": [
        {
          "internalType": "address",
          "name": "asset",
          "type": "address"
        },
        {
          "internalType": "uint256",
          "name": "amount",
          "type": "uint256"
        },
        {
          "internalType": "uint256",
          "name": "interestRateMode",
          "type": "uint256"
        },
        {
          "internalType": "uint256",
          "name": "permitAmount",
          "type": "uint256"
        },
        {
          "internalType": "uint256",
          "name": "permitDeadline",
          "type": "uint256"
        },
        {
          "internalType": "uint8",
          "name": "permitV",
          "type": "uint8"
        },
        {
          "internalType": "bytes32",
          "name": "permitR",
          "type": "bytes32"
        },
        {
          "internalType": "bytes32",
          "name": "permitS",
          "type": "bytes32"
        }
      ],
      "name": "borrowWithPermit",
      "outputs": [],
      "stateMutability": "nonpayable",
      "type": "function"
    },
    {
      "inputs": [],
      "name": "getAllReservesTokens",
      "outputs": [
        {
          "components": [
            {
              "internalType": "enum VERSION",
              "name": "version",
              "type": "uint8"
            },
            {
              "internalType": "string",
              "name": "symbol",
              "type": "string"
            },
            {
              "internalType": "address",
              "name": "tokenAddress",
              "type": "address"
            }
          ],
          "internalType": "struct TokenDataEx[]",
          "name": "tokens",
          "type": "tuple[]"
        }
      ],
      "stateMutability": "view",
      "type": "function"
    },
    {
      "inputs": [
        {
          "internalType": "address",
          "name": "_biconomy",
          "type": "address"
        }
      ],
      "name": "initialize",
      "outputs": [],
      "stateMutability": "nonpayable",
      "type": "function"
    },
    {
      "inputs": [
        {
          "internalType": "address",
          "name": "forwarder",
          "type": "address"
        }
      ],
      "name": "isTrustedForwarder",
      "outputs": [
        {
          "internalType": "bool",
          "name": "",
          "type": "bool"
        }
      ],
      "stateMutability": "view",
      "type": "function"
    },
    {
      "inputs": [],
      "name": "owner",
      "outputs": [
        {
          "internalType": "address",
          "name": "",
          "type": "address"
        }
      ],
      "stateMutability": "view",
      "type": "function"
    },
    {
      "inputs": [],
      "name": "renounceOwnership",
      "outputs": [],
      "stateMutability": "nonpayable",
      "type": "function"
    },
    {
      "inputs": [
        {
          "internalType": "uint256",
          "name": "version",
          "type": "uint256"
        },
        {
          "internalType": "address",
          "name": "asset",
          "type": "address"
        },
        {
          "internalType": "uint256",
          "name": "amount",
          "type": "uint256"
        },
        {
          "internalType": "uint256",
          "name": "interestRateMode",
          "type": "uint256"
        }
      ],
      "name": "repay",
      "outputs": [],
      "stateMutability": "nonpayable",
      "type": "function"
    },
    {
      "inputs": [
        {
          "internalType": "uint256",
          "name": "version",
          "type": "uint256"
        },
        {
          "internalType": "address",
          "name": "repayAsset",
          "type": "address"
        },
        {
          "internalType": "uint256",
          "name": "repayAmount",
          "type": "uint256"
        },
        {
          "internalType": "uint256",
          "name": "repayInterestRateMode",
          "type": "uint256"
        },
        {
          "internalType": "address",
          "name": "withdrawalAsset",
          "type": "address"
        },
        {
          "internalType": "uint256",
          "name": "withdrawalAmount",
          "type": "uint256"
        }
      ],
      "name": "repayAndWithdraw",
      "outputs": [],
      "stateMutability": "nonpayable",
      "type": "function"
    },
    {
      "inputs": [
        {
          "internalType": "uint256",
          "name": "version",
          "type": "uint256"
        },
        {
          "internalType": "address",
          "name": "repayAsset",
          "type": "address"
        },
        {
          "internalType": "uint256",
          "name": "repayAmount",
          "type": "uint256"
        },
        {
          "internalType": "uint256",
          "name": "repayInterestRateMode",
          "type": "uint256"
        },
        {
          "internalType": "uint256",
          "name": "withdrawalAmount",
          "type": "uint256"
        }
      ],
      "name": "repayAndWithdrawETH",
      "outputs": [],
      "stateMutability": "nonpayable",
      "type": "function"
    },
    {
      "inputs": [
        {
          "internalType": "uint256",
          "name": "version",
          "type": "uint256"
        },
        {
          "internalType": "address",
          "name": "repayAsset",
          "type": "address"
        },
        {
          "internalType": "uint256",
          "name": "repayAmount",
          "type": "uint256"
        },
        {
          "internalType": "uint256",
          "name": "repayInterestRateMode",
          "type": "uint256"
        },
        {
          "internalType": "uint256",
          "name": "withdrawalAmount",
          "type": "uint256"
        },
        {
          "internalType": "uint256",
          "name": "permitAmount",
          "type": "uint256"
        },
        {
          "internalType": "uint256",
          "name": "permitDeadline",
          "type": "uint256"
        },
        {
          "internalType": "uint8",
          "name": "permitV",
          "type": "uint8"
        },
        {
          "internalType": "bytes32",
          "name": "permitR",
          "type": "bytes32"
        },
        {
          "internalType": "bytes32",
          "name": "permitS",
          "type": "bytes32"
        }
      ],
      "name": "repayAndWithdrawETHWithPermit",
      "outputs": [],
      "stateMutability": "nonpayable",
      "type": "function"
    },
    {
      "inputs": [
        {
          "internalType": "uint256",
          "name": "version",
          "type": "uint256"
        },
        {
          "internalType": "address",
          "name": "repayAsset",
          "type": "address"
        },
        {
          "internalType": "uint256",
          "name": "repayAmount",
          "type": "uint256"
        },
        {
          "internalType": "uint256",
          "name": "repayInterestRateMode",
          "type": "uint256"
        },
        {
          "internalType": "address",
          "name": "withdrawalAsset",
          "type": "address"
        },
        {
          "internalType": "uint256",
          "name": "withdrawalAmount",
          "type": "uint256"
        },
        {
          "internalType": "uint256",
          "name": "permitAmount",
          "type": "uint256"
        },
        {
          "internalType": "uint256",
          "name": "permitDeadline",
          "type": "uint256"
        },
        {
          "internalType": "uint8",
          "name": "permitV",
          "type": "uint8"
        },
        {
          "internalType": "bytes32",
          "name": "permitR",
          "type": "bytes32"
        },
        {
          "internalType": "bytes32",
          "name": "permitS",
          "type": "bytes32"
        }
      ],
      "name": "repayAndWithdrawWithPermit",
      "outputs": [],
      "stateMutability": "nonpayable",
      "type": "function"
    },
    {
      "inputs": [
        {
          "internalType": "uint256",
          "name": "version",
          "type": "uint256"
        },
        {
          "internalType": "uint256",
          "name": "amount",
          "type": "uint256"
        },
        {
          "internalType": "uint256",
          "name": "interestRateMode",
          "type": "uint256"
        }
      ],
      "name": "repayETH",
      "outputs": [],
      "stateMutability": "payable",
      "type": "function"
    },
    {
      "inputs": [
        {
          "internalType": "uint256",
          "name": "version",
          "type": "uint256"
        },
        {
          "internalType": "uint256",
          "name": "repayAmount",
          "type": "uint256"
        },
        {
          "internalType": "uint256",
          "name": "repayInterestRateMode",
          "type": "uint256"
        },
        {
          "internalType": "address",
          "name": "withdrawalAsset",
          "type": "address"
        },
        {
          "internalType": "uint256",
          "name": "withdrawalAmount",
          "type": "uint256"
        }
      ],
      "name": "repayETHAndWithdraw",
      "outputs": [],
      "stateMutability": "payable",
      "type": "function"
    },
    {
      "inputs": [
        {
          "internalType": "uint256",
          "name": "version",
          "type": "uint256"
        },
        {
          "internalType": "uint256",
          "name": "repayAmount",
          "type": "uint256"
        },
        {
          "internalType": "uint256",
          "name": "repayInterestRateMode",
          "type": "uint256"
        },
        {
          "internalType": "address",
          "name": "withdrawalAsset",
          "type": "address"
        },
        {
          "internalType": "uint256",
          "name": "withdrawalAmount",
          "type": "uint256"
        },
        {
          "internalType": "uint256",
          "name": "permitAmount",
          "type": "uint256"
        },
        {
          "internalType": "uint256",
          "name": "permitDeadline",
          "type": "uint256"
        },
        {
          "internalType": "uint8",
          "name": "permitV",
          "type": "uint8"
        },
        {
          "internalType": "bytes32",
          "name": "permitR",
          "type": "bytes32"
        },
        {
          "internalType": "bytes32",
          "name": "permitS",
          "type": "bytes32"
        }
      ],
      "name": "repayETHAndWithdrawWithPermit",
      "outputs": [],
      "stateMutability": "payable",
      "type": "function"
    },
    {
      "inputs": [
        {
          "internalType": "address",
          "name": "_biconomy",
          "type": "address"
        }
      ],
      "name": "setBiconomy",
      "outputs": [],
      "stateMutability": "nonpayable",
      "type": "function"
    },
    {
      "inputs": [
        {
          "internalType": "uint256",
          "name": "version",
          "type": "uint256"
        },
        {
          "internalType": "address",
          "name": "asset",
          "type": "address"
        },
        {
          "internalType": "uint256",
          "name": "amount",
          "type": "uint256"
        }
      ],
      "name": "supply",
      "outputs": [],
      "stateMutability": "nonpayable",
      "type": "function"
    },
    {
      "inputs": [
        {
          "internalType": "uint256",
          "name": "version",
          "type": "uint256"
        },
        {
          "internalType": "address",
          "name": "supplyAsset",
          "type": "address"
        },
        {
          "internalType": "uint256",
          "name": "supplyAmount",
          "type": "uint256"
        },
        {
          "internalType": "address",
          "name": "borrowAsset",
          "type": "address"
        },
        {
          "internalType": "uint256",
          "name": "borrowAmount",
          "type": "uint256"
        },
        {
          "internalType": "uint256",
          "name": "borrowInterestRateMode",
          "type": "uint256"
        }
      ],
      "name": "supplyAndBorrow",
      "outputs": [],
      "stateMutability": "nonpayable",
      "type": "function"
    },
    {
      "inputs": [
        {
          "internalType": "uint256",
          "name": "version",
          "type": "uint256"
        },
        {
          "internalType": "address",
          "name": "supplyAsset",
          "type": "address"
        },
        {
          "internalType": "uint256",
          "name": "supplyAmount",
          "type": "uint256"
        },
        {
          "internalType": "uint256",
          "name": "borrowAmount",
          "type": "uint256"
        },
        {
          "internalType": "uint256",
          "name": "borrowInterestRateMode",
          "type": "uint256"
        }
      ],
      "name": "supplyAndBorrowETH",
      "outputs": [],
      "stateMutability": "nonpayable",
      "type": "function"
    },
    {
      "inputs": [
        {
          "internalType": "address",
          "name": "supplyAsset",
          "type": "address"
        },
        {
          "internalType": "uint256",
          "name": "supplyAmount",
          "type": "uint256"
        },
        {
          "internalType": "uint256",
          "name": "borrowAmount",
          "type": "uint256"
        },
        {
          "internalType": "uint256",
          "name": "borrowInterestRateMode",
          "type": "uint256"
        },
        {
          "internalType": "uint256",
          "name": "permitAmount",
          "type": "uint256"
        },
        {
          "internalType": "uint256",
          "name": "permitDeadline",
          "type": "uint256"
        },
        {
          "internalType": "uint8",
          "name": "permitV",
          "type": "uint8"
        },
        {
          "internalType": "bytes32",
          "name": "permitR",
          "type": "bytes32"
        },
        {
          "internalType": "bytes32",
          "name": "permitS",
          "type": "bytes32"
        }
      ],
      "name": "supplyAndBorrowETHWithPermit",
      "outputs": [],
      "stateMutability": "nonpayable",
      "type": "function"
    },
    {
      "inputs": [
        {
          "internalType": "address",
          "name": "supplyAsset",
          "type": "address"
        },
        {
          "internalType": "uint256",
          "name": "supplyAmount",
          "type": "uint256"
        },
        {
          "internalType": "address",
          "name": "borrowAsset",
          "type": "address"
        },
        {
          "internalType": "uint256",
          "name": "borrowAmount",
          "type": "uint256"
        },
        {
          "internalType": "uint256",
          "name": "borrowInterestRateMode",
          "type": "uint256"
        },
        {
          "internalType": "uint256",
          "name": "permitAmount",
          "type": "uint256"
        },
        {
          "internalType": "uint256",
          "name": "permitDeadline",
          "type": "uint256"
        },
        {
          "internalType": "uint8",
          "name": "permitV",
          "type": "uint8"
        },
        {
          "internalType": "bytes32",
          "name": "permitR",
          "type": "bytes32"
        },
        {
          "internalType": "bytes32",
          "name": "permitS",
          "type": "bytes32"
        }
      ],
      "name": "supplyAndBorrowWithPermit",
      "outputs": [],
      "stateMutability": "nonpayable",
      "type": "function"
    },
    {
      "inputs": [
        {
          "internalType": "uint256",
          "name": "version",
          "type": "uint256"
        }
      ],
      "name": "supplyETH",
      "outputs": [],
      "stateMutability": "payable",
      "type": "function"
    },
    {
      "inputs": [
        {
          "internalType": "uint256",
          "name": "version",
          "type": "uint256"
        },
        {
          "internalType": "address",
          "name": "borrowAsset",
          "type": "address"
        },
        {
          "internalType": "uint256",
          "name": "borrowAmount",
          "type": "uint256"
        },
        {
          "internalType": "uint256",
          "name": "borrowInterestRateMode",
          "type": "uint256"
        }
      ],
      "name": "supplyETHAndBorrow",
      "outputs": [],
      "stateMutability": "payable",
      "type": "function"
    },
    {
      "inputs": [
        {
          "internalType": "address",
          "name": "borrowAsset",
          "type": "address"
        },
        {
          "internalType": "uint256",
          "name": "borrowAmount",
          "type": "uint256"
        },
        {
          "internalType": "uint256",
          "name": "borrowInterestRateMode",
          "type": "uint256"
        },
        {
          "internalType": "uint256",
          "name": "permitAmount",
          "type": "uint256"
        },
        {
          "internalType": "uint256",
          "name": "permitDeadline",
          "type": "uint256"
        },
        {
          "internalType": "uint8",
          "name": "permitV",
          "type": "uint8"
        },
        {
          "internalType": "bytes32",
          "name": "permitR",
          "type": "bytes32"
        },
        {
          "internalType": "bytes32",
          "name": "permitS",
          "type": "bytes32"
        }
      ],
      "name": "supplyETHAndBorrowWithPermit",
      "outputs": [],
      "stateMutability": "payable",
      "type": "function"
    },
    {
      "inputs": [
        {
          "internalType": "address",
          "name": "newOwner",
          "type": "address"
        }
      ],
      "name": "transferOwnership",
      "outputs": [],
      "stateMutability": "nonpayable",
      "type": "function"
    },
    {
      "inputs": [],
      "name": "trustedForwarder",
      "outputs": [
        {
          "internalType": "address",
          "name": "",
          "type": "address"
        }
      ],
      "stateMutability": "view",
      "type": "function"
    },
    {
      "inputs": [],
      "name": "versionRecipient",
      "outputs": [
        {
          "internalType": "string",
          "name": "",
          "type": "string"
        }
      ],
      "stateMutability": "pure",
      "type": "function"
    },
    {
      "inputs": [
        {
          "internalType": "uint256",
          "name": "version",
          "type": "uint256"
        },
        {
          "internalType": "address",
          "name": "asset",
          "type": "address"
        },
        {
          "internalType": "uint256",
          "name": "amount",
          "type": "uint256"
        }
      ],
      "name": "withdraw",
      "outputs": [],
      "stateMutability": "nonpayable",
      "type": "function"
    },
    {
      "inputs": [
        {
          "internalType": "uint256",
          "name": "version",
          "type": "uint256"
        },
        {
          "internalType": "uint256",
          "name": "amount",
          "type": "uint256"
        }
      ],
      "name": "withdrawETH",
      "outputs": [],
      "stateMutability": "nonpayable",
      "type": "function"
    },
    {
      "inputs": [
        {
          "internalType": "uint256",
          "name": "version",
          "type": "uint256"
        },
        {
          "internalType": "uint256",
          "name": "amount",
          "type": "uint256"
        },
        {
          "internalType": "uint256",
          "name": "permitAmount",
          "type": "uint256"
        },
        {
          "internalType": "uint256",
          "name": "permitDeadline",
          "type": "uint256"
        },
        {
          "internalType": "uint8",
          "name": "permitV",
          "type": "uint8"
        },
        {
          "internalType": "bytes32",
          "name": "permitR",
          "type": "bytes32"
        },
        {
          "internalType": "bytes32",
          "name": "permitS",
          "type": "bytes32"
        }
      ],
      "name": "withdrawETHWithPermit",
      "outputs": [],
      "stateMutability": "nonpayable",
      "type": "function"
    },
    {
      "inputs": [
        {
          "internalType": "uint256",
          "name": "version",
          "type": "uint256"
        },
        {
          "internalType": "address",
          "name": "asset",
          "type": "address"
        },
        {
          "internalType": "uint256",
          "name": "amount",
          "type": "uint256"
        },
        {
          "internalType": "uint256",
          "name": "permitAmount",
          "type": "uint256"
        },
        {
          "internalType": "uint256",
          "name": "permitDeadline",
          "type": "uint256"
        },
        {
          "internalType": "uint8",
          "name": "permitV",
          "type": "uint8"
        },
        {
          "internalType": "bytes32",
          "name": "permitR",
          "type": "bytes32"
        },
        {
          "internalType": "bytes32",
          "name": "permitS",
          "type": "bytes32"
        }
      ],
      "name": "withdrawWithPermit",
      "outputs": [],
      "stateMutability": "nonpayable",
      "type": "function"
    },
    {
      "stateMutability": "payable",
      "type": "receive"
    }
  ],
  "transactionHash": "0x6ea9189231f675ea0d011602a6b47b6d7a79874a6beca57846be4ecdc796a832",
  "args": [
    "0x927F584d4321C1dCcBf5e2902368124b02419a1E",
    "0x0000000000000000000000000000000000000000",
    "0xCCa7d1416518D095E729904aAeA087dBA749A4dC"
  ],
  "numDeployments": 1,
  "solcInputHash": "725e8f5448a2e4e5c5f0d26ffebefbc2",
  "bytecode": "0x6101c06040523480156200001257600080fd5b5060405162004627380380620046278339810160408190526200003591620004f7565b6200003f62000418565b60006001600160a01b038416620000585760006200005b565b60015b6001600160a01b03851660a05290508062000078576000620000ef565b60a0516001600160a01b0316630542975c6040518163ffffffff1660e01b815260040160206040518083038186803b158015620000b457600080fd5b505afa158015620000c9573d6000803e3d6000fd5b505050506040513d601f19601f82011682018060405250810190620000ef919062000541565b6001600160a01b0316608052806200010957600062000180565b6080516001600160a01b0316630261bf8b6040518163ffffffff1660e01b815260040160206040518083038186803b1580156200014557600080fd5b505afa1580156200015a573d6000803e3d6000fd5b505050506040513d601f19601f8201168201806040525081019062000180919062000541565b6001600160a01b0390811660c0526000908416620001a0576000620001a3565b60015b6001600160a01b03851660e052905080620001c057600062000237565b60e0516001600160a01b031663e860accb6040518163ffffffff1660e01b815260040160206040518083038186803b158015620001fc57600080fd5b505afa15801562000211573d6000803e3d6000fd5b505050506040513d601f19601f8201168201806040525081019062000237919062000541565b6001600160a01b0316610100528062000252576000620002c9565b60e0516001600160a01b031663026b1d5f6040518163ffffffff1660e01b815260040160206040518083038186803b1580156200028e57600080fd5b505afa158015620002a3573d6000803e3d6000fd5b505050506040513d601f19601f82011682018060405250810190620002c9919062000541565b6001600160a01b03908116610120528381166101405260a051166200037057610100516040516334924edb60e21b81526001600160a01b0385811660048301529091169063d2493b6c9060240160606040518083038186803b1580156200032f57600080fd5b505afa15801562000344573d6000803e3d6000fd5b505050506040513d601f19601f820116820180604052508101906200036a9190620004f7565b620003f1565b60a0516040516334924edb60e21b81526001600160a01b0385811660048301529091169063d2493b6c9060240160606040518083038186803b158015620003b657600080fd5b505afa158015620003cb573d6000803e3d6000fd5b505050506040513d601f19601f82011682018060405250810190620003f19190620004f7565b6001600160a01b039081166101a05290811661018052166101605250620005669350505050565b600054610100900460ff1615620004855760405162461bcd60e51b815260206004820152602760248201527f496e697469616c697a61626c653a20636f6e747261637420697320696e697469604482015266616c697a696e6760c81b606482015260840160405180910390fd5b60005460ff9081161015620004d8576000805460ff191660ff9081179091556040519081527f7f26b83ff96e1f2b6a682f133852f6798a09c465da95921460cefb38474024989060200160405180910390a15b565b80516001600160a01b0381168114620004f257600080fd5b919050565b6000806000606084860312156200050d57600080fd5b6200051884620004da565b92506200052860208501620004da565b91506200053860408501620004da565b90509250925092565b6000602082840312156200055457600080fd5b6200055f82620004da565b9392505050565b60805160a05160c05160e05161010051610120516101405161016051610180516101a051613ebd6200076a60003960008181610f3301526115b6015260008181610f5901526115dc01526000818161036d0152818161132a01528181612a680152612af20152600081816107160152818161102a015281816110a101528181611401015281816114ad01528181611527015281816116e1015281816117a8015281816118720152818161194801528181611a0f01528181611ab001528181612b6701528181612c2f0152612cc50152600081816102e801528181610b4901528181610d6a01528181610e9601528181610ffb01528181611257015281816114800152818161184501528181611a8301528181612775015281816127a6015281816128830152818161291c01528181612c020152612e6e015260008181610339015281816109590152818161114201528181611bb701528181611be60152818161212d01526123270152600061040401526000818161067a01528181610a9f01528181610ce001528181610e0a015281816113d40152818161177b015281816119e20152818161258f015281816125c00152818161269d0152818161273601528181612b3a0152612e1e015260008181610535015281816108b401528181611aec01528181611b1b015281816120890152612283015260006105010152613ebd6000f3fe6080604052600436106102555760003560e01c80638327c21411610139578063ac84ca14116100b6578063c7cdea371161007a578063c7cdea3714610778578063d321684814610798578063e16decdc146107b8578063e63697c8146107d8578063f2fde38b146107f8578063fc2096631461081857600080fd5b8063ac84ca14146106cf578063b316ff89146106e2578063b381cf4014610704578063b6b0b5d814610738578063c4d66de81461075857600080fd5b806397aa2f4f116100fd57806397aa2f4f146106285780639b27832e14610648578063a6e9f01e14610668578063a709e1871461069c578063a88bb3d9146106af57600080fd5b80638327c21414610597578063836dbe39146105b757806385234333146105d75780638a712b80146105f75780638da5cb5b1461060a57600080fd5b80634f8ff3b0116101d25780637b303b80116101965780637b303b80146104af5780637da0a877146104cf5780637ec3d641146104ef578063800b71fd14610523578063823225eb14610557578063825a56201461057757600080fd5b80634f8ff3b0146103f2578063572b6c05146104265780637032134e14610465578063715018a6146104855780637ad03c8f1461049a57600080fd5b806319d109131161021957806319d10913146103275780632ff672031461035b5780633bf8c3911461038f57806346a86277146103af578063486ff0cd146103c257600080fd5b806307535c74146102615780630d8b76a81461027657806313ce106414610296578063149078f2146102b65780631521589c146102d657600080fd5b3661025c57005b600080fd5b61027461026f3660046132aa565b61082b565b005b34801561028257600080fd5b506102746102913660046132f3565b610848565b3480156102a257600080fd5b506102746102b1366004613317565b610872565b3480156102c257600080fd5b506102746102d1366004613354565b610be0565b3480156102e257600080fd5b5061030a7f000000000000000000000000000000000000000000000000000000000000000081565b6040516001600160a01b0390911681526020015b60405180910390f35b34801561033357600080fd5b5061030a7f000000000000000000000000000000000000000000000000000000000000000081565b34801561036757600080fd5b5061030a7f000000000000000000000000000000000000000000000000000000000000000081565b34801561039b57600080fd5b506102746103aa3660046133b0565b610bf7565b6102746103bd366004613317565b610c0e565b3480156103ce57600080fd5b5060408051808201825260018152603160f81b6020820152905161031e9190613466565b3480156103fe57600080fd5b5061030a7f000000000000000000000000000000000000000000000000000000000000000081565b34801561043257600080fd5b506104556104413660046132f3565b6065546001600160a01b0391821691161490565b604051901515815260200161031e565b34801561047157600080fd5b5061027461048036600461348f565b610c29565b34801561049157600080fd5b50610274610c4f565b3480156104a657600080fd5b50610274610c63565b3480156104bb57600080fd5b506102746104ca366004613508565b610c73565b3480156104db57600080fd5b5060655461030a906001600160a01b031681565b3480156104fb57600080fd5b5061030a7f000000000000000000000000000000000000000000000000000000000000000081565b34801561052f57600080fd5b5061030a7f000000000000000000000000000000000000000000000000000000000000000081565b34801561056357600080fd5b50610274610572366004613508565b610c89565b34801561058357600080fd5b50610274610592366004613550565b610c9f565b3480156105a357600080fd5b506102746105b2366004613317565b610dde565b3480156105c357600080fd5b506102746105d2366004613588565b610f1b565b3480156105e357600080fd5b506102746105f23660046135e4565b611111565b6102746106053660046135e4565b6112ec565b34801561061657600080fd5b506033546001600160a01b031661030a565b34801561063457600080fd5b50610274610643366004613588565b611306565b34801561065457600080fd5b50610274610663366004613653565b6113a8565b34801561067457600080fd5b5061030a7f000000000000000000000000000000000000000000000000000000000000000081565b6102746106aa366004613653565b611595565b3480156106bb57600080fd5b506102746106ca36600461367f565b611912565b6102746106dd36600461370c565b61193a565b3480156106ee57600080fd5b506106f7611ae3565b60405161031e919061373b565b34801561071057600080fd5b5061030a7f000000000000000000000000000000000000000000000000000000000000000081565b34801561074457600080fd5b506102746107533660046137e5565b611ef2565b34801561076457600080fd5b506102746107733660046132f3565b611f0d565b34801561078457600080fd5b50610274610793366004613848565b612041565b3480156107a457600080fd5b506102746107b336600461386a565b612053565b3480156107c457600080fd5b506102746107d33660046138bc565b612224565b3480156107e457600080fd5b506102746107f3366004613550565b61224d565b34801561080457600080fd5b506102746108133660046132f3565b6123b4565b610274610826366004613954565b61242d565b610836858585611595565b61084185838361224d565b5050505050565b610850612448565b606580546001600160a01b0319166001600160a01b0392909216919091179055565b600061087c6124c1565b905082600019811415610a6a57600080876002141561093a576040516334924edb60e21b81526001600160a01b0388811660048301527f0000000000000000000000000000000000000000000000000000000000000000169063d2493b6c9060240160606040518083038186803b1580156108f657600080fd5b505afa15801561090a573d6000803e3d6000fd5b505050506040513d601f19601f8201168201806040525081019061092e91906139c2565b90935091506109da9050565b6040516334924edb60e21b81526001600160a01b0388811660048301527f0000000000000000000000000000000000000000000000000000000000000000169063d2493b6c9060240160606040518083038186803b15801561099b57600080fd5b505afa1580156109af573d6000803e3d6000fd5b505050506040513d601f19601f820116820180604052508101906109d391906139c2565b9093509150505b846001146109e857806109ea565b815b6040516370a0823160e01b81526001600160a01b03868116600483015291909116906370a082319060240160206040518083038186803b158015610a2d57600080fd5b505afa158015610a41573d6000803e3d6000fd5b505050506040513d601f19601f82011682018060405250810190610a659190613a0f565b925050505b610a7f6001600160a01b0386168330846124d0565b8560021415610b325760405163573ade8160e01b81526001600160a01b037f0000000000000000000000000000000000000000000000000000000000000000169063573ade8190610ada908890859088908890600401613a28565b602060405180830381600087803b158015610af457600080fd5b505af1158015610b08573d6000803e3d6000fd5b505050506040513d601f19601f82011682018060405250810190610b2c9190613a0f565b50610bd8565b60405163573ade8160e01b81526001600160a01b037f0000000000000000000000000000000000000000000000000000000000000000169063573ade8190610b84908890859088908890600401613a28565b602060405180830381600087803b158015610b9e57600080fd5b505af1158015610bb2573d6000803e3d6000fd5b505050506040513d601f19601f82011682018060405250810190610bd69190613a0f565b505b505050505050565b610beb868686610c9f565b610bd886848484610dde565b610c0386868686610872565b610bd886838361224d565b610c178461193a565b610c2384848484610dde565b50505050565b610c3560038a8a610c9f565b610c4487878787878787610f1b565b505050505050505050565b610c57612448565b610c61600061253b565b565b610c6b612448565b610c6161258d565b610c7e858585610c9f565b6108418583836113a8565b610c9585858585610872565b6108418582612041565b6000610ca96124c1565b9050610cc06001600160a01b0384168230856124d0565b8360021415610d535760405163e8eda9df60e01b81526001600160a01b037f0000000000000000000000000000000000000000000000000000000000000000169063e8eda9df90610d1c90869086908690600090600401613a53565b600060405180830381600087803b158015610d3657600080fd5b505af1158015610d4a573d6000803e3d6000fd5b50505050610c23565b60405163617ba03760e01b81526001600160a01b037f0000000000000000000000000000000000000000000000000000000000000000169063617ba03790610da690869086908690600090600401613a53565b600060405180830381600087803b158015610dc057600080fd5b505af1158015610dd4573d6000803e3d6000fd5b5050505050505050565b6000610de86124c1565b90508460021415610e7f5760405163a415bcad60e01b81526001600160a01b037f0000000000000000000000000000000000000000000000000000000000000000169063a415bcad90610e48908790879087906000908890600401613a80565b600060405180830381600087803b158015610e6257600080fd5b505af1158015610e76573d6000803e3d6000fd5b50505050610f07565b60405163a415bcad60e01b81526001600160a01b037f0000000000000000000000000000000000000000000000000000000000000000169063a415bcad90610ed4908790879087906000908890600401613a80565b600060405180830381600087803b158015610eee57600080fd5b505af1158015610f02573d6000803e3d6000fd5b505050505b6108416001600160a01b0385168285612956565b6000610f256124c1565b9050600087600114610f57577f0000000000000000000000000000000000000000000000000000000000000000610f79565b7f00000000000000000000000000000000000000000000000000000000000000005b60405163016a5aab60e31b81529091506001600160a01b03821690630b52d55890610fb490859030908c908c908c908c908c90600401613ab4565b600060405180830381600087803b158015610fce57600080fd5b505af1158015610fe2573d6000803e3d6000fd5b505060405163a415bcad60e01b81526001600160a01b037f000000000000000000000000000000000000000000000000000000000000000016925063a415bcad915061105b907f0000000000000000000000000000000000000000000000000000000000000000908d908d906000908990600401613a80565b600060405180830381600087803b15801561107557600080fd5b505af1158015611089573d6000803e3d6000fd5b5050604051632e1a7d4d60e01b8152600481018c90527f00000000000000000000000000000000000000000000000000000000000000006001600160a01b03169250632e1a7d4d9150602401600060405180830381600087803b1580156110ef57600080fd5b505af1158015611103573d6000803e3d6000fd5b50505050610c44828a61298b565b600061111b6124c1565b6040516334924edb60e21b81526001600160a01b038b8116600483015291925060009182917f00000000000000000000000000000000000000000000000000000000000000009091169063d2493b6c9060240160606040518083038186803b15801561118657600080fd5b505afa15801561119a573d6000803e3d6000fd5b505050506040513d601f19601f820116820180604052508101906111be91906139c2565b92509250506000896001146111d357816111d5565b825b60405163016a5aab60e31b81529091506001600160a01b03821690630b52d5589061121090879030908e908e908e908e908e90600401613ab4565b600060405180830381600087803b15801561122a57600080fd5b505af115801561123e573d6000803e3d6000fd5b505060405163a415bcad60e01b81526001600160a01b037f000000000000000000000000000000000000000000000000000000000000000016925063a415bcad9150611297908f908f908f906000908b90600401613a80565b600060405180830381600087803b1580156112b157600080fd5b505af11580156112c5573d6000803e3d6000fd5b506112de925050506001600160a01b038d16858d612956565b505050505050505050505050565b6112f6600361193a565b610dd48888888888888888611111565b60006113106124c1565b60405163d505accf60e01b81529091506001600160a01b037f0000000000000000000000000000000000000000000000000000000000000000169063d505accf9061136b90849030908b908b908b908b908b90600401613ab4565b600060405180830381600087803b15801561138557600080fd5b505af1158015611399573d6000803e3d6000fd5b50505050610dd4888883612a3e565b60006113b26124c1565b905083600214156114695760405163a415bcad60e01b81526001600160a01b037f0000000000000000000000000000000000000000000000000000000000000000169063a415bcad90611432907f000000000000000000000000000000000000000000000000000000000000000090879087906000908890600401613a80565b600060405180830381600087803b15801561144c57600080fd5b505af1158015611460573d6000803e3d6000fd5b50505050611511565b60405163a415bcad60e01b81526001600160a01b037f0000000000000000000000000000000000000000000000000000000000000000169063a415bcad906114de907f000000000000000000000000000000000000000000000000000000000000000090879087906000908890600401613a80565b600060405180830381600087803b1580156114f857600080fd5b505af115801561150c573d6000803e3d6000fd5b505050505b604051632e1a7d4d60e01b8152600481018490527f00000000000000000000000000000000000000000000000000000000000000006001600160a01b031690632e1a7d4d90602401600060405180830381600087803b15801561157357600080fd5b505af1158015611587573d6000803e3d6000fd5b50505050610c23818461298b565b600061159f6124c1565b90508260001981141561167a57826001146115da577f00000000000000000000000000000000000000000000000000000000000000006115fc565b7f00000000000000000000000000000000000000000000000000000000000000005b6040516370a0823160e01b81526001600160a01b03848116600483015291909116906370a082319060240160206040518083038186803b15801561163f57600080fd5b505afa158015611653573d6000803e3d6000fd5b505050506040513d601f19601f820116820180604052508101906116779190613a0f565b90505b803410156116df5760405162461bcd60e51b815260206004820152602760248201527f6d73672e76616c7565206973206c657373207468616e2072657061796d656e7460448201526608185b5bdd5b9d60ca1b60648201526084015b60405180910390fd5b7f00000000000000000000000000000000000000000000000000000000000000006001600160a01b031663d0e30db0826040518263ffffffff1660e01b81526004016000604051808303818588803b15801561173a57600080fd5b505af115801561174e573d6000803e3d6000fd5b508893506002925061175e915050565b141561182e5760405163573ade8160e01b81526001600160a01b037f0000000000000000000000000000000000000000000000000000000000000000169063573ade81906117d6907f000000000000000000000000000000000000000000000000000000000000000090859088908890600401613a28565b602060405180830381600087803b1580156117f057600080fd5b505af1158015611804573d6000803e3d6000fd5b505050506040513d601f19601f820116820180604052508101906118289190613a0f565b506118f4565b60405163573ade8160e01b81526001600160a01b037f0000000000000000000000000000000000000000000000000000000000000000169063573ade81906118a0907f000000000000000000000000000000000000000000000000000000000000000090859088908890600401613a28565b602060405180830381600087803b1580156118ba57600080fd5b505af11580156118ce573d6000803e3d6000fd5b505050506040513d601f19601f820116820180604052508101906118f29190613a0f565b505b60006119008234613b0b565b90508015610bd857610bd8838261298b565b61191e60038b8b610c9f565b61192e8888888888888888611111565b50505050505050505050565b60006119446124c1565b90507f00000000000000000000000000000000000000000000000000000000000000006001600160a01b031663d0e30db0346040518263ffffffff1660e01b81526004016000604051808303818588803b1580156119a157600080fd5b505af11580156119b5573d6000803e3d6000fd5b50859350600292506119c5915050565b1415611a6c5760405163e8eda9df60e01b81526001600160a01b037f0000000000000000000000000000000000000000000000000000000000000000169063e8eda9df90611a3e907f00000000000000000000000000000000000000000000000000000000000000009034908690600090600401613a53565b600060405180830381600087803b158015611a5857600080fd5b505af1158015610bd8573d6000803e3d6000fd5b60405163617ba03760e01b81526001600160a01b037f0000000000000000000000000000000000000000000000000000000000000000169063617ba03790611a3e907f00000000000000000000000000000000000000000000000000000000000000009034908690600090600401613a53565b5050565b606080600081817f00000000000000000000000000000000000000000000000000000000000000006001600160a01b031615611bb5577f00000000000000000000000000000000000000000000000000000000000000006001600160a01b031663b316ff896040518163ffffffff1660e01b815260040160006040518083038186803b158015611b7257600080fd5b505afa158015611b86573d6000803e3d6000fd5b505050506040513d6000823e601f3d908101601f19168201604052611bae9190810190613bb6565b9350835192505b7f00000000000000000000000000000000000000000000000000000000000000006001600160a01b031615611c80577f00000000000000000000000000000000000000000000000000000000000000006001600160a01b031663b316ff896040518163ffffffff1660e01b815260040160006040518083038186803b158015611c3d57600080fd5b505afa158015611c51573d6000803e3d6000fd5b505050506040513d6000823e601f3d908101601f19168201604052611c799190810190613bb6565b9150815190505b611c8a8184613d03565b67ffffffffffffffff811115611ca257611ca2613b22565b604051908082528060200260200182016040528015611cf857816020015b611ce56040805160608101909152806000815260606020820152600060409091015290565b815260200190600190039081611cc05790505b50945060005b83811015611deb576002868281518110611d1a57611d1a613d1b565b6020026020010151600001906003811115611d3757611d37613725565b90816003811115611d4a57611d4a613725565b81525050848181518110611d6057611d60613d1b565b602002602001015160000151868281518110611d7e57611d7e613d1b565b602002602001015160200181905250848181518110611d9f57611d9f613d1b565b602002602001015160200151868281518110611dbd57611dbd613d1b565b60209081029190910101516001600160a01b0390911660409091015280611de381613d31565b915050611cfe565b506000805b82811015611ee957611e028186613d03565b91506003878381518110611e1857611e18613d1b565b6020026020010151600001906003811115611e3557611e35613725565b90816003811115611e4857611e48613725565b81525050838181518110611e5e57611e5e613d1b565b602002602001015160000151878381518110611e7c57611e7c613d1b565b602002602001015160200181905250838181518110611e9d57611e9d613d1b565b602002602001015160200151878381518110611ebb57611ebb613d1b565b60209081029190910101516001600160a01b0390911660409091015280611ee181613d31565b915050611df0565b50505050505090565b611efe8a8a8a8a610872565b61192e8a878787878787611306565b600054610100900460ff1615808015611f2d5750600054600160ff909116105b80611f475750303b158015611f47575060005460ff166001145b611faa5760405162461bcd60e51b815260206004820152602e60248201527f496e697469616c697a61626c653a20636f6e747261637420697320616c72656160448201526d191e481a5b9a5d1a585b1a5e995960921b60648201526084016116d6565b6000805460ff191660011790558015611fcd576000805461ff0019166101001790555b611fd5612d33565b606580546001600160a01b0319166001600160a01b038416179055611ff861258d565b8015611adf576000805461ff0019169055604051600181527f7f26b83ff96e1f2b6a682f133852f6798a09c465da95921460cefb38474024989060200160405180910390a15050565b611adf828261204e6124c1565b612a3e565b600061205d6124c1565b90506000896002141561210e576040516334924edb60e21b81526001600160a01b038a811660048301527f0000000000000000000000000000000000000000000000000000000000000000169063d2493b6c9060240160606040518083038186803b1580156120cb57600080fd5b505afa1580156120df573d6000803e3d6000fd5b505050506040513d601f19601f8201168201806040525081019061210391906139c2565b509091506121ad9050565b6040516334924edb60e21b81526001600160a01b038a811660048301527f0000000000000000000000000000000000000000000000000000000000000000169063d2493b6c9060240160606040518083038186803b15801561216f57600080fd5b505afa158015612183573d6000803e3d6000fd5b505050506040513d601f19601f820116820180604052508101906121a791906139c2565b50909150505b60405163d505accf60e01b81526001600160a01b0382169063d505accf906121e590859030908c908c908c908c908c90600401613ab4565b600060405180830381600087803b1580156121ff57600080fd5b505af1158015612213573d6000803e3d6000fd5b5050505061192e8a8a8a8585612d62565b6122308b8b8b8b610872565b6122408b88888888888888612053565b5050505050505050505050565b60006122576124c1565b905060008460021415612308576040516334924edb60e21b81526001600160a01b0385811660048301527f0000000000000000000000000000000000000000000000000000000000000000169063d2493b6c9060240160606040518083038186803b1580156122c557600080fd5b505afa1580156122d9573d6000803e3d6000fd5b505050506040513d601f19601f820116820180604052508101906122fd91906139c2565b509091506123a79050565b6040516334924edb60e21b81526001600160a01b0385811660048301527f0000000000000000000000000000000000000000000000000000000000000000169063d2493b6c9060240160606040518083038186803b15801561236957600080fd5b505afa15801561237d573d6000803e3d6000fd5b505050506040513d601f19601f820116820180604052508101906123a191906139c2565b50909150505b6108418585858585612d62565b6123bc612448565b6001600160a01b0381166124215760405162461bcd60e51b815260206004820152602660248201527f4f776e61626c653a206e6577206f776e657220697320746865207a65726f206160448201526564647265737360d01b60648201526084016116d6565b61242a8161253b565b50565b6124388a8a8a611595565b61192e8a88888888888888612053565b6124506124c1565b6001600160a01b031661246b6033546001600160a01b031690565b6001600160a01b031614610c615760405162461bcd60e51b815260206004820181905260248201527f4f776e61626c653a2063616c6c6572206973206e6f7420746865206f776e657260448201526064016116d6565b60006124cb612ea7565b905090565b6040516001600160a01b0380851660248301528316604482015260648101829052610c239085906323b872dd60e01b906084015b60408051601f198184030181529190526020810180516001600160e01b03166001600160e01b031990931692909217909152612edb565b603380546001600160a01b038381166001600160a01b0319831681179093556040519116919082907f8be0079c531659141344cd1fd0a4f28419497f9722a3daafe3b4186f6b6457e090600090a35050565b7f00000000000000000000000000000000000000000000000000000000000000006001600160a01b0316156127735760007f00000000000000000000000000000000000000000000000000000000000000006001600160a01b031663d1946dbc6040518163ffffffff1660e01b815260040160006040518083038186803b15801561261757600080fd5b505afa15801561262b573d6000803e3d6000fd5b505050506040513d6000823e601f3d908101601f191682016040526126539190810190613d4c565b905060005b815181101561277057600082828151811061267557612675613d1b565b6020908102919091010151604051636eb1769f60e11b81523060048201526001600160a01b037f0000000000000000000000000000000000000000000000000000000000000000811660248301529192509082169063dd62ed3e9060440160206040518083038186803b1580156126eb57600080fd5b505afa1580156126ff573d6000803e3d6000fd5b505050506040513d601f19601f820116820180604052508101906127239190613a0f565b61275d5761275d6001600160a01b0382167f0000000000000000000000000000000000000000000000000000000000000000600019612fad565b508061276881613d31565b915050612658565b50505b7f00000000000000000000000000000000000000000000000000000000000000006001600160a01b031615610c615760007f00000000000000000000000000000000000000000000000000000000000000006001600160a01b031663d1946dbc6040518163ffffffff1660e01b815260040160006040518083038186803b1580156127fd57600080fd5b505afa158015612811573d6000803e3d6000fd5b505050506040513d6000823e601f3d908101601f191682016040526128399190810190613d4c565b905060005b8151811015611adf57600082828151811061285b5761285b613d1b565b6020908102919091010151604051636eb1769f60e11b81523060048201526001600160a01b037f0000000000000000000000000000000000000000000000000000000000000000811660248301529192509082169063dd62ed3e9060440160206040518083038186803b1580156128d157600080fd5b505afa1580156128e5573d6000803e3d6000fd5b505050506040513d601f19601f820116820180604052508101906129099190613a0f565b612943576129436001600160a01b0382167f0000000000000000000000000000000000000000000000000000000000000000600019612fad565b508061294e81613d31565b91505061283e565b6040516001600160a01b03831660248201526044810182905261298690849063a9059cbb60e01b90606401612504565b505050565b604080516000808252602082019092526001600160a01b0384169083906040516129b59190613ddb565b60006040518083038185875af1925050503d80600081146129f2576040519150601f19603f3d011682016040523d82523d6000602084013e6129f7565b606091505b50509050806129865760405162461bcd60e51b815260206004820152601360248201527211551217d514905394d1915497d19052531151606a1b60448201526064016116d6565b81600019811415612ae5576040516370a0823160e01b81526001600160a01b0383811660048301527f000000000000000000000000000000000000000000000000000000000000000016906370a082319060240160206040518083038186803b158015612aaa57600080fd5b505afa158015612abe573d6000803e3d6000fd5b505050506040513d601f19601f82011682018060405250810190612ae29190613a0f565b90505b612b1a6001600160a01b037f0000000000000000000000000000000000000000000000000000000000000000168330846124d0565b8360021415612beb57604051631a4ca37b60e21b81526001600160a01b037f000000000000000000000000000000000000000000000000000000000000000016906369328dec90612b93907f00000000000000000000000000000000000000000000000000000000000000009085903090600401613df7565b602060405180830381600087803b158015612bad57600080fd5b505af1158015612bc1573d6000803e3d6000fd5b505050506040513d601f19601f82011682018060405250810190612be59190613a0f565b50612caf565b604051631a4ca37b60e21b81526001600160a01b037f000000000000000000000000000000000000000000000000000000000000000016906369328dec90612c5b907f00000000000000000000000000000000000000000000000000000000000000009085903090600401613df7565b602060405180830381600087803b158015612c7557600080fd5b505af1158015612c89573d6000803e3d6000fd5b505050506040513d601f19601f82011682018060405250810190612cad9190613a0f565b505b604051632e1a7d4d60e01b8152600481018290527f00000000000000000000000000000000000000000000000000000000000000006001600160a01b031690632e1a7d4d90602401600060405180830381600087803b158015612d1157600080fd5b505af1158015612d25573d6000803e3d6000fd5b50505050610c23828261298b565b600054610100900460ff16612d5a5760405162461bcd60e51b81526004016116d690613e1a565b610c616130d1565b82600019811415612de9576040516370a0823160e01b81526001600160a01b0384811660048301528316906370a082319060240160206040518083038186803b158015612dae57600080fd5b505afa158015612dc2573d6000803e3d6000fd5b505050506040513d601f19601f82011682018060405250810190612de69190613a0f565b90505b612dfe6001600160a01b0383168430846124d0565b8560021415612e5757604051631a4ca37b60e21b81526001600160a01b037f000000000000000000000000000000000000000000000000000000000000000016906369328dec90610ada90889085908890600401613df7565b604051631a4ca37b60e21b81526001600160a01b037f000000000000000000000000000000000000000000000000000000000000000016906369328dec90610b8490889085908890600401613df7565b600060183610801590612ec457506065546001600160a01b031633145b15612ed6575060131936013560601c90565b503390565b6000612f30826040518060400160405280602081526020017f5361666545524332303a206c6f772d6c6576656c2063616c6c206661696c6564815250856001600160a01b03166131089092919063ffffffff16565b8051909150156129865780806020019051810190612f4e9190613e65565b6129865760405162461bcd60e51b815260206004820152602a60248201527f5361666545524332303a204552433230206f7065726174696f6e20646964206e6044820152691bdd081cdd58d8d9595960b21b60648201526084016116d6565b8015806130365750604051636eb1769f60e11b81523060048201526001600160a01b03838116602483015284169063dd62ed3e9060440160206040518083038186803b158015612ffc57600080fd5b505afa158015613010573d6000803e3d6000fd5b505050506040513d601f19601f820116820180604052508101906130349190613a0f565b155b6130a15760405162461bcd60e51b815260206004820152603660248201527f5361666545524332303a20617070726f76652066726f6d206e6f6e2d7a65726f60448201527520746f206e6f6e2d7a65726f20616c6c6f77616e636560501b60648201526084016116d6565b6040516001600160a01b03831660248201526044810182905261298690849063095ea7b360e01b90606401612504565b600054610100900460ff166130f85760405162461bcd60e51b81526004016116d690613e1a565b610c616131036124c1565b61253b565b6060613117848460008561311f565b949350505050565b6060824710156131805760405162461bcd60e51b815260206004820152602660248201527f416464726573733a20696e73756666696369656e742062616c616e636520666f6044820152651c8818d85b1b60d21b60648201526084016116d6565b600080866001600160a01b0316858760405161319c9190613ddb565b60006040518083038185875af1925050503d80600081146131d9576040519150601f19603f3d011682016040523d82523d6000602084013e6131de565b606091505b50915091506131ef878383876131fa565b979650505050505050565b6060831561326657825161325f576001600160a01b0385163b61325f5760405162461bcd60e51b815260206004820152601d60248201527f416464726573733a2063616c6c20746f206e6f6e2d636f6e747261637400000060448201526064016116d6565b5081613117565b613117838381511561327b5781518083602001fd5b8060405162461bcd60e51b81526004016116d69190613466565b6001600160a01b038116811461242a57600080fd5b600080600080600060a086880312156132c257600080fd5b85359450602086013593506040860135925060608601356132e281613295565b949793965091946080013592915050565b60006020828403121561330557600080fd5b813561331081613295565b9392505050565b6000806000806080858703121561332d57600080fd5b84359350602085013561333f81613295565b93969395505050506040820135916060013590565b60008060008060008060c0878903121561336d57600080fd5b86359550602087013561337f81613295565b945060408701359350606087013561339681613295565b9598949750929560808101359460a0909101359350915050565b60008060008060008060c087890312156133c957600080fd5b8635955060208701356133db81613295565b9450604087013593506060870135925060808701356133f981613295565b8092505060a087013590509295509295509295565b60005b83811015613429578181015183820152602001613411565b83811115610c235750506000910152565b6000815180845261345281602086016020860161340e565b601f01601f19169290920160200192915050565b602081526000613310602083018461343a565b803560ff8116811461348a57600080fd5b919050565b60008060008060008060008060006101208a8c0312156134ae57600080fd5b89356134b981613295565b985060208a0135975060408a0135965060608a0135955060808a0135945060a08a013593506134ea60c08b01613479565b925060e08a013591506101008a013590509295985092959850929598565b600080600080600060a0868803121561352057600080fd5b85359450602086013561353281613295565b94979496505050506040830135926060810135926080909101359150565b60008060006060848603121561356557600080fd5b83359250602084013561357781613295565b929592945050506040919091013590565b600080600080600080600060e0888a0312156135a357600080fd5b873596506020880135955060408801359450606088013593506135c860808901613479565b925060a0880135915060c0880135905092959891949750929550565b600080600080600080600080610100898b03121561360157600080fd5b883561360c81613295565b97506020890135965060408901359550606089013594506080890135935061363660a08a01613479565b925060c0890135915060e089013590509295985092959890939650565b60008060006060848603121561366857600080fd5b505081359360208301359350604090920135919050565b6000806000806000806000806000806101408b8d03121561369f57600080fd5b8a356136aa81613295565b995060208b0135985060408b01356136c181613295565b975060608b0135965060808b0135955060a08b0135945060c08b013593506136eb60e08c01613479565b92506101008b013591506101208b013590509295989b9194979a5092959850565b60006020828403121561371e57600080fd5b5035919050565b634e487b7160e01b600052602160045260246000fd5b60006020808301818452808551808352604092508286019150828160051b8701018488016000805b848110156137d657603f198a8503018652825160608151600480821061379657634e487b7160e01b865260218152602486fd5b508652818a01518a87018290526137af8288018261343a565b928a01516001600160a01b0316968a01969096525095880195935091870191600101613763565b50919998505050505050505050565b6000806000806000806000806000806101408b8d03121561380557600080fd5b8a35995060208b013561381781613295565b985060408b0135975060608b0135965060808b0135955060a08b0135945060c08b013593506136eb60e08c01613479565b6000806040838503121561385b57600080fd5b50508035926020909101359150565b600080600080600080600080610100898b03121561388757600080fd5b88359750602089013561389981613295565b965060408901359550606089013594506080890135935061363660a08a01613479565b60008060008060008060008060008060006101608c8e0312156138de57600080fd5b8b359a5060208c01356138f081613295565b995060408c0135985060608c0135975060808c013561390e81613295565b965060a08c0135955060c08c0135945060e08c013593506139326101008d01613479565b92506101208c013591506101408c013590509295989b509295989b9093969950565b6000806000806000806000806000806101408b8d03121561397457600080fd5b8a35995060208b0135985060408b0135975060608b013561399481613295565b965060808b0135955060a08b0135945060c08b013593506136eb60e08c01613479565b805161348a81613295565b6000806000606084860312156139d757600080fd5b83516139e281613295565b60208501519093506139f381613295565b6040850151909250613a0481613295565b809150509250925092565b600060208284031215613a2157600080fd5b5051919050565b6001600160a01b03948516815260208101939093526040830191909152909116606082015260800190565b6001600160a01b03948516815260208101939093529216604082015261ffff909116606082015260800190565b6001600160a01b0395861681526020810194909452604084019290925261ffff166060830152909116608082015260a00190565b6001600160a01b0397881681529590961660208601526040850193909352606084019190915260ff16608083015260a082015260c081019190915260e00190565b634e487b7160e01b600052601160045260246000fd5b600082821015613b1d57613b1d613af5565b500390565b634e487b7160e01b600052604160045260246000fd5b6040805190810167ffffffffffffffff81118282101715613b5b57613b5b613b22565b60405290565b604051601f8201601f1916810167ffffffffffffffff81118282101715613b8a57613b8a613b22565b604052919050565b600067ffffffffffffffff821115613bac57613bac613b22565b5060051b60200190565b60006020808385031215613bc957600080fd5b825167ffffffffffffffff80821115613be157600080fd5b818501915085601f830112613bf557600080fd5b8151613c08613c0382613b92565b613b61565b81815260059190911b83018401908481019088831115613c2757600080fd5b8585015b83811015613cf657805185811115613c435760008081fd5b86016040601f19828d038101821315613c5c5760008081fd5b613c64613b38565b8a84015189811115613c765760008081fd5b8401603f81018f13613c885760008081fd5b8b8101518a811115613c9c57613c9c613b22565b613cac8d85601f84011601613b61565b93508084528f85828401011115613cc35760008081fd5b613cd2818e860187850161340e565b5050818152613ce28385016139b7565b818c01528652505050918601918601613c2b565b5098975050505050505050565b60008219821115613d1657613d16613af5565b500190565b634e487b7160e01b600052603260045260246000fd5b6000600019821415613d4557613d45613af5565b5060010190565b60006020808385031215613d5f57600080fd5b825167ffffffffffffffff811115613d7657600080fd5b8301601f81018513613d8757600080fd5b8051613d95613c0382613b92565b81815260059190911b82018301908381019087831115613db457600080fd5b928401925b828410156131ef578351613dcc81613295565b82529284019290840190613db9565b60008251613ded81846020870161340e565b9190910192915050565b6001600160a01b0393841681526020810192909252909116604082015260600190565b6020808252602b908201527f496e697469616c697a61626c653a20636f6e7472616374206973206e6f74206960408201526a6e697469616c697a696e6760a81b606082015260800190565b600060208284031215613e7757600080fd5b8151801515811461331057600080fdfea2646970667358221220c5c4da06ad305f8a31a692f3c0a22f7b56ae25c5b5a68f107dd625bd26e2949964736f6c63430008090033",
  "devdoc": {
    "kind": "dev",
    "methods": {
      "constructor": {
        "custom:oz-upgrades-unsafe-allow": "constructor"
      },
      "owner()": {
        "details": "Returns the address of the current owner."
      },
      "renounceOwnership()": {
        "details": "Leaves the contract without owner. It will not be possible to call `onlyOwner` functions anymore. Can only be called by the current owner. NOTE: Renouncing ownership will leave the contract without an owner, thereby removing any functionality that is only available to the owner."
      },
      "transferOwnership(address)": {
        "details": "Transfers ownership of the contract to a new account (`newOwner`). Can only be called by the current owner."
      }
    },
    "version": 1
  },
  "userdoc": {
    "kind": "user",
    "methods": {
      "approvePool()": {
        "notice": "If new assets are added into the pool, it needs to be called."
      },
      "borrow(uint256,address,uint256,uint256)": {
        "notice": "The user must approve the delegation to this SC for the asset's debtToken."
      },
      "borrowETHWithPermit(uint256,uint256,uint256,uint256,uint8,bytes32,bytes32)": {
        "notice": "It works for only v3."
      },
      "borrowWithPermit(address,uint256,uint256,uint256,uint256,uint8,bytes32,bytes32)": {
        "notice": "It works for only v3."
      },
      "isTrustedForwarder(address)": {
        "notice": "return if the forwarder is trusted to forward relayed transactions to us. the forwarder is required to verify the sender's signature, and verify the call is not a replay."
      },
      "repay(uint256,address,uint256,uint256)": {
        "notice": "The user must approve this SC for the asset."
      },
      "supply(uint256,address,uint256)": {
        "notice": "The user must approve this SC for the asset."
      },
      "supplyAndBorrowETHWithPermit(address,uint256,uint256,uint256,uint256,uint256,uint8,bytes32,bytes32)": {
        "notice": "It works for only v3."
      },
      "supplyAndBorrowWithPermit(address,uint256,address,uint256,uint256,uint256,uint256,uint8,bytes32,bytes32)": {
        "notice": "It works for only v3."
      },
      "supplyETHAndBorrowWithPermit(address,uint256,uint256,uint256,uint256,uint8,bytes32,bytes32)": {
        "notice": "It works for only v3."
      },
      "withdraw(uint256,address,uint256)": {
        "notice": "The user must approve this SC for the asset's aToken."
      }
    },
    "version": 1
  },
  "storageLayout": {
    "storage": [
      {
        "astId": 169,
        "contract": "contracts/AaveAdapter.sol:AaveAdapter",
        "label": "_initialized",
        "offset": 0,
        "slot": "0",
        "type": "t_uint8"
      },
      {
        "astId": 172,
        "contract": "contracts/AaveAdapter.sol:AaveAdapter",
        "label": "_initializing",
        "offset": 1,
        "slot": "0",
        "type": "t_bool"
      },
      {
        "astId": 1051,
        "contract": "contracts/AaveAdapter.sol:AaveAdapter",
        "label": "__gap",
        "offset": 0,
        "slot": "1",
        "type": "t_array(t_uint256)50_storage"
      },
      {
        "astId": 41,
        "contract": "contracts/AaveAdapter.sol:AaveAdapter",
        "label": "_owner",
        "offset": 0,
        "slot": "51",
        "type": "t_address"
      },
      {
        "astId": 161,
        "contract": "contracts/AaveAdapter.sol:AaveAdapter",
        "label": "__gap",
        "offset": 0,
        "slot": "52",
        "type": "t_array(t_uint256)49_storage"
      },
      {
        "astId": 3995,
        "contract": "contracts/AaveAdapter.sol:AaveAdapter",
        "label": "trustedForwarder",
        "offset": 0,
        "slot": "101",
        "type": "t_address"
      }
    ],
    "types": {
      "t_address": {
        "encoding": "inplace",
        "label": "address",
        "numberOfBytes": "20"
      },
      "t_array(t_uint256)49_storage": {
        "base": "t_uint256",
        "encoding": "inplace",
        "label": "uint256[49]",
        "numberOfBytes": "1568"
      },
      "t_array(t_uint256)50_storage": {
        "base": "t_uint256",
        "encoding": "inplace",
        "label": "uint256[50]",
        "numberOfBytes": "1600"
      },
      "t_bool": {
        "encoding": "inplace",
        "label": "bool",
        "numberOfBytes": "1"
      },
      "t_uint256": {
        "encoding": "inplace",
        "label": "uint256",
        "numberOfBytes": "32"
      },
      "t_uint8": {
        "encoding": "inplace",
        "label": "uint8",
        "numberOfBytes": "1"
      }
    }
  }
}